{"contracts/samples/SimpleAccount.sol":{"SimpleAccount":{"abi":[{"inputs":[{"internalType":"contract IEntryPoint","name":"anEntryPoint","type":"address"}],"stateMutability":"nonpayable","type":"constructor"},{"inputs":[{"internalType":"address","name":"target","type":"address"}],"name":"AddressEmptyCode","type":"error"},{"inputs":[],"name":"ECDSAInvalidSignature","type":"error"},{"inputs":[{"internalType":"uint256","name":"length","type":"uint256"}],"name":"ECDSAInvalidSignatureLength","type":"error"},{"inputs":[{"internalType":"bytes32","name":"s","type":"bytes32"}],"name":"ECDSAInvalidSignatureS","type":"error"},{"inputs":[{"internalType":"address","name":"implementation","type":"address"}],"name":"ERC1967InvalidImplementation","type":"error"},{"inputs":[],"name":"ERC1967NonPayable","type":"error"},{"inputs":[],"name":"FailedInnerCall","type":"error"},{"inputs":[],"name":"InvalidInitialization","type":"error"},{"inputs":[],"name":"NotInitializing","type":"error"},{"inputs":[],"name":"UUPSUnauthorizedCallContext","type":"error"},{"inputs":[{"internalType":"bytes32","name":"slot","type":"bytes32"}],"name":"UUPSUnsupportedProxiableUUID","type":"error"},{"anonymous":false,"inputs":[{"indexed":false,"internalType":"uint64","name":"version","type":"uint64"}],"name":"Initialized","type":"event"},{"anonymous":false,"inputs":[{"indexed":true,"internalType":"contract IEntryPoint","name":"entryPoint","type":"address"},{"indexed":true,"internalType":"address","name":"owner","type":"address"}],"name":"SimpleAccountInitialized","type":"event"},{"anonymous":false,"inputs":[{"indexed":true,"internalType":"address","name":"implementation","type":"address"}],"name":"Upgraded","type":"event"},{"inputs":[],"name":"UPGRADE_INTERFACE_VERSION","outputs":[{"internalType":"string","name":"","type":"string"}],"stateMutability":"view","type":"function"},{"inputs":[],"name":"addDeposit","outputs":[],"stateMutability":"payable","type":"function"},{"inputs":[],"name":"entryPoint","outputs":[{"internalType":"contract IEntryPoint","name":"","type":"address"}],"stateMutability":"view","type":"function"},{"inputs":[{"internalType":"address","name":"dest","type":"address"},{"internalType":"uint256","name":"value","type":"uint256"},{"internalType":"bytes","name":"func","type":"bytes"}],"name":"execute","outputs":[],"stateMutability":"nonpayable","type":"function"},{"inputs":[{"internalType":"address[]","name":"dest","type":"address[]"},{"internalType":"uint256[]","name":"value","type":"uint256[]"},{"internalType":"bytes[]","name":"func","type":"bytes[]"}],"name":"executeBatch","outputs":[],"stateMutability":"nonpayable","type":"function"},{"inputs":[],"name":"getDeposit","outputs":[{"internalType":"uint256","name":"","type":"uint256"}],"stateMutability":"view","type":"function"},{"inputs":[],"name":"getNonce","outputs":[{"internalType":"uint256","name":"","type":"uint256"}],"stateMutability":"view","type":"function"},{"inputs":[{"internalType":"address","name":"anOwner","type":"address"}],"name":"initialize","outputs":[],"stateMutability":"nonpayable","type":"function"},{"inputs":[{"internalType":"address","name":"","type":"address"},{"internalType":"address","name":"","type":"address"},{"internalType":"uint256[]","name":"","type":"uint256[]"},{"internalType":"uint256[]","name":"","type":"uint256[]"},{"internalType":"bytes","name":"","type":"bytes"}],"name":"onERC1155BatchReceived","outputs":[{"internalType":"bytes4","name":"","type":"bytes4"}],"stateMutability":"pure","type":"function"},{"inputs":[{"internalType":"address","name":"","type":"address"},{"internalType":"address","name":"","type":"address"},{"internalType":"uint256","name":"","type":"uint256"},{"internalType":"uint256","name":"","type":"uint256"},{"internalType":"bytes","name":"","type":"bytes"}],"name":"onERC1155Received","outputs":[{"internalType":"bytes4","name":"","type":"bytes4"}],"stateMutability":"pure","type":"function"},{"inputs":[{"internalType":"address","name":"","type":"address"},{"internalType":"address","name":"","type":"address"},{"internalType":"uint256","name":"","type":"uint256"},{"internalType":"bytes","name":"","type":"bytes"}],"name":"onERC721Received","outputs":[{"internalType":"bytes4","name":"","type":"bytes4"}],"stateMutability":"pure","type":"function"},{"inputs":[],"name":"owner","outputs":[{"internalType":"address","name":"","type":"address"}],"stateMutability":"view","type":"function"},{"inputs":[],"name":"proxiableUUID","outputs":[{"internalType":"bytes32","name":"","type":"bytes32"}],"stateMutability":"view","type":"function"},{"inputs":[{"internalType":"bytes4","name":"interfaceId","type":"bytes4"}],"name":"supportsInterface","outputs":[{"internalType":"bool","name":"","type":"bool"}],"stateMutability":"view","type":"function"},{"inputs":[{"internalType":"address","name":"newImplementation","type":"address"},{"internalType":"bytes","name":"data","type":"bytes"}],"name":"upgradeToAndCall","outputs":[],"stateMutability":"payable","type":"function"},{"inputs":[{"components":[{"internalType":"address","name":"sender","type":"address"},{"internalType":"uint256","name":"nonce","type":"uint256"},{"internalType":"bytes","name":"initCode","type":"bytes"},{"internalType":"bytes","name":"callData","type":"bytes"},{"internalType":"bytes32","name":"accountGasLimits","type":"bytes32"},{"internalType":"uint256","name":"preVerificationGas","type":"uint256"},{"internalType":"uint256","name":"maxFeePerGas","type":"uint256"},{"internalType":"uint256","name":"maxPriorityFeePerGas","type":"uint256"},{"internalType":"bytes","name":"paymasterAndData","type":"bytes"},{"internalType":"bytes","name":"signature","type":"bytes"}],"internalType":"struct PackedUserOperation","name":"userOp","type":"tuple"},{"internalType":"bytes32","name":"userOpHash","type":"bytes32"},{"internalType":"uint256","name":"missingAccountFunds","type":"uint256"}],"name":"validateUserOp","outputs":[{"internalType":"uint256","name":"validationData","type":"uint256"}],"stateMutability":"nonpayable","type":"function"},{"inputs":[{"internalType":"address payable","name":"withdrawAddress","type":"address"},{"internalType":"uint256","name":"amount","type":"uint256"}],"name":"withdrawDepositTo","outputs":[],"stateMutability":"nonpayable","type":"function"},{"stateMutability":"payable","type":"receive"}],"evm":{"bytecode":{"linkReferences":{},"object":"60c034610142576001600160401b0390601f611bde38819003918201601f1916830191848311848410176101475780849260209460405283398101031261014257516001600160a01b0381168103610142573060805260a0527ff0c57e16840df040f15088dc2f81fe391c3923bec73e23a9662efc9c229c6a009081549060ff8260401c166101305780808316036100eb575b604051611a80908161015e82396080518181816107a901526109a7015260a0518181816104bb0152818161059a01528181610a8b01528181610ce501528181610ebc015281816111a4015281816113ed015261164e0152f35b6001600160401b031990911681179091556040519081527fc7f505b2f371ae2175ee4913f4499e1f2633a7b5936321eed1cdaeb6115181d290602090a1388080610092565b60405163f92ee8a960e01b8152600490fd5b600080fd5b634e487b7160e01b600052604160045260246000fdfe6080604052600436101561001b575b361561001957600080fd5b005b60003560e01c806301ffc9a71461012b578063150b7a021461012657806347e1da2a146101215780634a58db191461011c5780634d44560d146101175780634f1ef2861461011257806352d1902d1461010d5780638803e451146101085780638da5cb5b14610103578063ad3cb1cc146100fe578063b0d691fe146100f9578063b61d27f6146100f4578063bc197c81146100ef578063c399ec88146100ea578063c4d66de8146100e5578063d087d288146100e05763f23a6e610361000e57611207565b611125565b610f15565b610e44565b610d7d565b610d09565b610c9a565b610bc9565b610b77565b610a21565b610961565b610729565b61053c565b610479565b61032e565b61026c565b3461021b5760207ffffffffffffffffffffffffffffffffffffffffffffffffffffffffffffffffc36011261021b576004357fffffffff00000000000000000000000000000000000000000000000000000000811680910361021b57807f150b7a0200000000000000000000000000000000000000000000000000000000602092149081156101f1575b81156101c7575b506040519015158152f35b7f01ffc9a700000000000000000000000000000000000000000000000000000000915014386101bc565b7f4e2312e000000000000000000000000000000000000000000000000000000000811491506101b5565b600080fd5b73ffffffffffffffffffffffffffffffffffffffff81160361021b57565b9181601f8401121561021b5782359167ffffffffffffffff831161021b576020838186019501011161021b57565b3461021b5760807ffffffffffffffffffffffffffffffffffffffffffffffffffffffffffffffffc36011261021b576102a6600435610220565b6102b1602435610220565b60643567ffffffffffffffff811161021b576102d190369060040161023e565b505060206040517f150b7a02000000000000000000000000000000000000000000000000000000008152f35b9181601f8401121561021b5782359167ffffffffffffffff831161021b576020808501948460051b01011161021b57565b3461021b5760607ffffffffffffffffffffffffffffffffffffffffffffffffffffffffffffffffc36011261021b5767ffffffffffffffff60043581811161021b5761037e9036906004016102fd565b60249291923582811161021b576103999036906004016102fd565b9260443590811161021b576103b29036906004016102fd565b9390916103bd6113d5565b84841480610468575b6103cf90611298565b8161041c57505060005b8281106103e257005b806104166103fb6103f6600194878a61132c565b611341565b61041061040984898861139f565b36916106f2565b906114bb565b016103d9565b91909460009493945b85811061042e57005b806104626104426103f66001948a8761132c565b61044d838b8961132c565b3561045c610409858b8a61139f565b916114e3565b01610425565b508115806103c657508185146103c6565b6000807ffffffffffffffffffffffffffffffffffffffffffffffffffffffffffffffffc3601126105395773ffffffffffffffffffffffffffffffffffffffff7f00000000000000000000000000000000000000000000000000000000000000001681813b1561053957602491604051928380927fb760faf900000000000000000000000000000000000000000000000000000000825230600483015234905af1801561053457610528575080f35b61053190610642565b80f35b6113ba565b80fd5b3461021b57600060407ffffffffffffffffffffffffffffffffffffffffffffffffffffffffffffffffc3601126105395760043561057981610220565b6105816114fa565b8173ffffffffffffffffffffffffffffffffffffffff807f00000000000000000000000000000000000000000000000000000000000000001692833b1561060f576044908360405195869485937f205c287800000000000000000000000000000000000000000000000000000000855216600484015260243560248401525af1801561053457610528575080f35b8280fd5b7f4e487b7100000000000000000000000000000000000000000000000000000000600052604160045260246000fd5b67ffffffffffffffff811161065657604052565b610613565b6040810190811067ffffffffffffffff82111761065657604052565b90601f7fffffffffffffffffffffffffffffffffffffffffffffffffffffffffffffffe0910116810190811067ffffffffffffffff82111761065657604052565b67ffffffffffffffff811161065657601f017fffffffffffffffffffffffffffffffffffffffffffffffffffffffffffffffe01660200190565b9291926106fe826106b8565b9161070c6040519384610677565b82948184528183011161021b578281602093846000960137010152565b60407ffffffffffffffffffffffffffffffffffffffffffffffffffffffffffffffffc36011261021b57600480359061076182610220565b60243567ffffffffffffffff811161021b573660238201121561021b5761079190369060248185013591016106f2565b73ffffffffffffffffffffffffffffffffffffffff807f000000000000000000000000000000000000000000000000000000000000000016803014908115610933575b5061090a5790602083926107e66114fa565b604051938480927f52d1902d00000000000000000000000000000000000000000000000000000000825288165afa600092816108d9575b506108715750506040517f4c9c8ce300000000000000000000000000000000000000000000000000000000815273ffffffffffffffffffffffffffffffffffffffff90921690820190815281906020010390fd5b83837f360894a13ba1a3210667c828492db98dca3e2076cc3735a920a3ca505d382bbc84036108a4576100198383611695565b6040517faa1d49a400000000000000000000000000000000000000000000000000000000815290810184815281906020010390fd5b6108fc91935060203d602011610903575b6108f48183610677565b8101906113c6565b913861081d565b503d6108ea565b826040517fe07c8dba000000000000000000000000000000000000000000000000000000008152fd5b9050817f360894a13ba1a3210667c828492db98dca3e2076cc3735a920a3ca505d382bbc54161415386107d4565b3461021b5760007ffffffffffffffffffffffffffffffffffffffffffffffffffffffffffffffffc36011261021b5773ffffffffffffffffffffffffffffffffffffffff7f00000000000000000000000000000000000000000000000000000000000000001630036109f75760206040517f360894a13ba1a3210667c828492db98dca3e2076cc3735a920a3ca505d382bbc8152f35b60046040517fe07c8dba000000000000000000000000000000000000000000000000000000008152fd5b3461021b577ffffffffffffffffffffffffffffffffffffffffffffffffffffffffffffffffc60608136011261021b576004359067ffffffffffffffff821161021b5761014090823603011261021b5760443573ffffffffffffffffffffffffffffffffffffffff7f0000000000000000000000000000000000000000000000000000000000000000163303610b1957610ac4610adc926024359060040161158a565b9080610ae0575b506040519081529081906020820190565b0390f35b600080808093337ffffffffffffffffffffffffffffffffffffffffffffffffffffffffffffffffff150610b1261148b565b5038610acb565b60646040517f08c379a000000000000000000000000000000000000000000000000000000000815260206004820152601c60248201527f6163636f756e743a206e6f742066726f6d20456e747279506f696e74000000006044820152fd5b3461021b5760007ffffffffffffffffffffffffffffffffffffffffffffffffffffffffffffffffc36011261021b57602073ffffffffffffffffffffffffffffffffffffffff60005416604051908152f35b3461021b5760007ffffffffffffffffffffffffffffffffffffffffffffffffffffffffffffffffc36011261021b576040805190610c068261065b565b600582526020907f352e302e300000000000000000000000000000000000000000000000000000006020840152604051916020835283519182602085015260005b838110610c8757846040817fffffffffffffffffffffffffffffffffffffffffffffffffffffffffffffffe0601f88600085828601015201168101030190f35b8581018301518582018301528201610c47565b3461021b5760007ffffffffffffffffffffffffffffffffffffffffffffffffffffffffffffffffc36011261021b57602060405173ffffffffffffffffffffffffffffffffffffffff7f0000000000000000000000000000000000000000000000000000000000000000168152f35b3461021b5760607ffffffffffffffffffffffffffffffffffffffffffffffffffffffffffffffffc36011261021b57600435610d4481610220565b6044359067ffffffffffffffff821161021b57610d73610d6b61001993369060040161023e565b6104096113d5565b90602435906114e3565b3461021b5760a07ffffffffffffffffffffffffffffffffffffffffffffffffffffffffffffffffc36011261021b57610db7600435610220565b610dc2602435610220565b67ffffffffffffffff60443581811161021b57610de39036906004016102fd565b505060643581811161021b57610dfd9036906004016102fd565b505060843590811161021b57610e1790369060040161023e565b50506040517fbc197c81000000000000000000000000000000000000000000000000000000008152602090f35b3461021b5760007ffffffffffffffffffffffffffffffffffffffffffffffffffffffffffffffffc36011261021b576040517f70a0823100000000000000000000000000000000000000000000000000000000815230600482015260208160248173ffffffffffffffffffffffffffffffffffffffff7f0000000000000000000000000000000000000000000000000000000000000000165afa801561053457602091600091610ef8575b50604051908152f35b610f0f9150823d8411610903576108f48183610677565b38610eef565b3461021b5760207ffffffffffffffffffffffffffffffffffffffffffffffffffffffffffffffffc36011261021b57600435610f5081610220565b7ff0c57e16840df040f15088dc2f81fe391c3923bec73e23a9662efc9c229c6a00549067ffffffffffffffff60ff8360401c161592168015908161111d575b6001149081611113575b15908161110a575b506110e0576110039082610ffa7ff0c57e16840df040f15088dc2f81fe391c3923bec73e23a9662efc9c229c6a0060017fffffffffffffffffffffffffffffffffffffffffffffffff0000000000000000825416179055565b61108457611609565b61100957005b6110557ff0c57e16840df040f15088dc2f81fe391c3923bec73e23a9662efc9c229c6a007fffffffffffffffffffffffffffffffffffffffffffffff00ffffffffffffffff8154169055565b604051600181527fc7f505b2f371ae2175ee4913f4499e1f2633a7b5936321eed1cdaeb6115181d290602090a1005b6110db7ff0c57e16840df040f15088dc2f81fe391c3923bec73e23a9662efc9c229c6a00680100000000000000007fffffffffffffffffffffffffffffffffffffffffffffff00ffffffffffffffff825416179055565b611609565b60046040517ff92ee8a9000000000000000000000000000000000000000000000000000000008152fd5b90501538610fa1565b303b159150610f99565b839150610f8f565b3461021b5760007ffffffffffffffffffffffffffffffffffffffffffffffffffffffffffffffffc36011261021b576040517f35567e1a0000000000000000000000000000000000000000000000000000000081523060048201526000602482015260208160448173ffffffffffffffffffffffffffffffffffffffff7f0000000000000000000000000000000000000000000000000000000000000000165afa801561053457610adc916000916111e857506040519081529081906020820190565b611201915060203d602011610903576108f48183610677565b38610acb565b3461021b5760a07ffffffffffffffffffffffffffffffffffffffffffffffffffffffffffffffffc36011261021b57611241600435610220565b61124c602435610220565b60843567ffffffffffffffff811161021b5761126c90369060040161023e565b505060206040517ff23a6e61000000000000000000000000000000000000000000000000000000008152f35b1561129f57565b60646040517f08c379a000000000000000000000000000000000000000000000000000000000815260206004820152601360248201527f77726f6e67206172726179206c656e67746873000000000000000000000000006044820152fd5b7f4e487b7100000000000000000000000000000000000000000000000000000000600052603260045260246000fd5b919081101561133c5760051b0190565b6112fd565b3561134b81610220565b90565b9035907fffffffffffffffffffffffffffffffffffffffffffffffffffffffffffffffe18136030182121561021b570180359067ffffffffffffffff821161021b5760200191813603831361021b57565b9082101561133c576113b69160051b81019061134e565b9091565b6040513d6000823e3d90fd5b9081602091031261021b575190565b73ffffffffffffffffffffffffffffffffffffffff807f000000000000000000000000000000000000000000000000000000000000000016331490811561147d575b501561141f57565b60646040517f08c379a000000000000000000000000000000000000000000000000000000000815260206004820152602060248201527f6163636f756e743a206e6f74204f776e6572206f7220456e747279506f696e746044820152fd5b905060005416331438611417565b3d156114b6573d9061149c826106b8565b916114aa6040519384610677565b82523d6000602084013e565b606090565b600091829182602083519301915af16114d261148b565b90156114db5750565b602081519101fd5b916000928392602083519301915af16114d261148b565b73ffffffffffffffffffffffffffffffffffffffff6000541633148015611581575b1561152357565b60646040517f08c379a000000000000000000000000000000000000000000000000000000000815260206004820152600a60248201527f6f6e6c79206f776e6572000000000000000000000000000000000000000000006044820152fd5b5030331461151c565b907f19457468657265756d205369676e6564204d6573736167653a0a333200000000600052601c52603c6000206115f96115f073ffffffffffffffffffffffffffffffffffffffff926115ea61040985600054169661012081019061134e565b906117cd565b90929192611842565b160361160457600090565b600190565b73ffffffffffffffffffffffffffffffffffffffff80911690817fffffffffffffffffffffffff000000000000000000000000000000000000000060005416176000557f0000000000000000000000000000000000000000000000000000000000000000167f47e55c76e7a6f1fd8996a1da8008c1ea29699cca35e7bcd057f2dec313b6e5de600080a3565b90813b156117685773ffffffffffffffffffffffffffffffffffffffff82167f360894a13ba1a3210667c828492db98dca3e2076cc3735a920a3ca505d382bbc817fffffffffffffffffffffffff00000000000000000000000000000000000000008254161790557fbc7cd75a20ee27fd9adebab32041f755214dbc6bffa90cc0225b39da2e5c2d3b600080a280511561173557611732916117af565b50565b50503461173e57565b60046040517fb398979f000000000000000000000000000000000000000000000000000000008152fd5b60248273ffffffffffffffffffffffffffffffffffffffff604051917f4c9c8ce3000000000000000000000000000000000000000000000000000000008352166004820152fd5b60008061134b93602081519101845af46117c761148b565b91611919565b81519190604183036117fe576117f792506020820151906060604084015193015160001a906119b9565b9192909190565b505060009160029190565b6004111561181357565b7f4e487b7100000000000000000000000000000000000000000000000000000000600052602160045260246000fd5b61184b81611809565b80611854575050565b61185d81611809565b6001810361188f5760046040517ff645eedf000000000000000000000000000000000000000000000000000000008152fd5b61189881611809565b600281036118d2576040517ffce698f700000000000000000000000000000000000000000000000000000000815260048101839052602490fd5b806118de600392611809565b146118e65750565b6040517fd78bce0c0000000000000000000000000000000000000000000000000000000081526004810191909152602490fd5b90611958575080511561192e57805190602001fd5b60046040517f1425ea42000000000000000000000000000000000000000000000000000000008152fd5b815115806119b0575b611969575090565b60249073ffffffffffffffffffffffffffffffffffffffff604051917f9996b315000000000000000000000000000000000000000000000000000000008352166004820152fd5b50803b15611961565b91907f7fffffffffffffffffffffffffffffff5d576e7357a4501ddfe92f46681b20a08411611a3e57926020929160ff608095604051948552168484015260408301526060820152600092839182805260015afa1561053457805173ffffffffffffffffffffffffffffffffffffffff811615611a3557918190565b50809160019190565b5050506000916003919056fea264697066735822122022794e08855c3f2be022e127d41df28e3c0e8b38959948f0896885dc14dd98d564736f6c63430008170033","opcodes":"PUSH1 0xC0 CALLVALUE PUSH2 0x142 JUMPI PUSH1 0x1 PUSH1 0x1 PUSH1 0x40 SHL SUB SWAP1 PUSH1 0x1F PUSH2 0x1BDE CODESIZE DUP2 SWAP1 SUB SWAP2 DUP3 ADD PUSH1 0x1F NOT AND DUP4 ADD SWAP2 DUP5 DUP4 GT DUP5 DUP5 LT OR PUSH2 0x147 JUMPI DUP1 DUP5 SWAP3 PUSH1 0x20 SWAP5 PUSH1 0x40 MSTORE DUP4 CODECOPY DUP2 ADD SUB SLT PUSH2 0x142 JUMPI MLOAD PUSH1 0x1 PUSH1 0x1 PUSH1 0xA0 SHL SUB DUP2 AND DUP2 SUB PUSH2 0x142 JUMPI ADDRESS PUSH1 0x80 MSTORE PUSH1 0xA0 MSTORE PUSH32 0xF0C57E16840DF040F15088DC2F81FE391C3923BEC73E23A9662EFC9C229C6A00 SWAP1 DUP2 SLOAD SWAP1 PUSH1 0xFF DUP3 PUSH1 0x40 SHR AND PUSH2 0x130 JUMPI DUP1 DUP1 DUP4 AND SUB PUSH2 0xEB JUMPI JUMPDEST PUSH1 0x40 MLOAD PUSH2 0x1A80 SWAP1 DUP2 PUSH2 0x15E DUP3 CODECOPY PUSH1 0x80 MLOAD DUP2 DUP2 DUP2 PUSH2 0x7A9 ADD MSTORE PUSH2 0x9A7 ADD MSTORE PUSH1 0xA0 MLOAD DUP2 DUP2 DUP2 PUSH2 0x4BB ADD MSTORE DUP2 DUP2 PUSH2 0x59A ADD MSTORE DUP2 DUP2 PUSH2 0xA8B ADD MSTORE DUP2 DUP2 PUSH2 0xCE5 ADD MSTORE DUP2 DUP2 PUSH2 0xEBC ADD MSTORE DUP2 DUP2 PUSH2 0x11A4 ADD MSTORE DUP2 DUP2 PUSH2 0x13ED ADD MSTORE PUSH2 0x164E ADD MSTORE RETURN JUMPDEST PUSH1 0x1 PUSH1 0x1 PUSH1 0x40 SHL SUB NOT SWAP1 SWAP2 AND DUP2 OR SWAP1 SWAP2 SSTORE PUSH1 0x40 MLOAD SWAP1 DUP2 MSTORE PUSH32 0xC7F505B2F371AE2175EE4913F4499E1F2633A7B5936321EED1CDAEB6115181D2 SWAP1 PUSH1 0x20 SWAP1 LOG1 CODESIZE DUP1 DUP1 PUSH2 0x92 JUMP JUMPDEST PUSH1 0x40 MLOAD PUSH4 0xF92EE8A9 PUSH1 0xE0 SHL DUP2 MSTORE PUSH1 0x4 SWAP1 REVERT JUMPDEST PUSH1 0x0 DUP1 REVERT JUMPDEST PUSH4 0x4E487B71 PUSH1 0xE0 SHL PUSH1 0x0 MSTORE PUSH1 0x41 PUSH1 0x4 MSTORE PUSH1 0x24 PUSH1 0x0 REVERT INVALID PUSH1 0x80 PUSH1 0x40 MSTORE PUSH1 0x4 CALLDATASIZE LT ISZERO PUSH2 0x1B JUMPI JUMPDEST CALLDATASIZE ISZERO PUSH2 0x19 JUMPI PUSH1 0x0 DUP1 REVERT JUMPDEST STOP JUMPDEST PUSH1 0x0 CALLDATALOAD PUSH1 0xE0 SHR DUP1 PUSH4 0x1FFC9A7 EQ PUSH2 0x12B JUMPI DUP1 PUSH4 0x150B7A02 EQ PUSH2 0x126 JUMPI DUP1 PUSH4 0x47E1DA2A EQ PUSH2 0x121 JUMPI DUP1 PUSH4 0x4A58DB19 EQ PUSH2 0x11C JUMPI DUP1 PUSH4 0x4D44560D EQ PUSH2 0x117 JUMPI DUP1 PUSH4 0x4F1EF286 EQ PUSH2 0x112 JUMPI DUP1 PUSH4 0x52D1902D EQ PUSH2 0x10D JUMPI DUP1 PUSH4 0x8803E451 EQ PUSH2 0x108 JUMPI DUP1 PUSH4 0x8DA5CB5B EQ PUSH2 0x103 JUMPI DUP1 PUSH4 0xAD3CB1CC EQ PUSH2 0xFE JUMPI DUP1 PUSH4 0xB0D691FE EQ PUSH2 0xF9 JUMPI DUP1 PUSH4 0xB61D27F6 EQ PUSH2 0xF4 JUMPI DUP1 PUSH4 0xBC197C81 EQ PUSH2 0xEF JUMPI DUP1 PUSH4 0xC399EC88 EQ PUSH2 0xEA JUMPI DUP1 PUSH4 0xC4D66DE8 EQ PUSH2 0xE5 JUMPI DUP1 PUSH4 0xD087D288 EQ PUSH2 0xE0 JUMPI PUSH4 0xF23A6E61 SUB PUSH2 0xE JUMPI PUSH2 0x1207 JUMP JUMPDEST PUSH2 0x1125 JUMP JUMPDEST PUSH2 0xF15 JUMP JUMPDEST PUSH2 0xE44 JUMP JUMPDEST PUSH2 0xD7D JUMP JUMPDEST PUSH2 0xD09 JUMP JUMPDEST PUSH2 0xC9A JUMP JUMPDEST PUSH2 0xBC9 JUMP JUMPDEST PUSH2 0xB77 JUMP JUMPDEST PUSH2 0xA21 JUMP JUMPDEST PUSH2 0x961 JUMP JUMPDEST PUSH2 0x729 JUMP JUMPDEST PUSH2 0x53C JUMP JUMPDEST PUSH2 0x479 JUMP JUMPDEST PUSH2 0x32E JUMP JUMPDEST PUSH2 0x26C JUMP JUMPDEST CALLVALUE PUSH2 0x21B JUMPI PUSH1 0x20 PUSH32 0xFFFFFFFFFFFFFFFFFFFFFFFFFFFFFFFFFFFFFFFFFFFFFFFFFFFFFFFFFFFFFFFC CALLDATASIZE ADD SLT PUSH2 0x21B JUMPI PUSH1 0x4 CALLDATALOAD PUSH32 0xFFFFFFFF00000000000000000000000000000000000000000000000000000000 DUP2 AND DUP1 SWAP2 SUB PUSH2 0x21B JUMPI DUP1 PUSH32 0x150B7A0200000000000000000000000000000000000000000000000000000000 PUSH1 0x20 SWAP3 EQ SWAP1 DUP2 ISZERO PUSH2 0x1F1 JUMPI JUMPDEST DUP2 ISZERO PUSH2 0x1C7 JUMPI JUMPDEST POP PUSH1 0x40 MLOAD SWAP1 ISZERO ISZERO DUP2 MSTORE RETURN JUMPDEST PUSH32 0x1FFC9A700000000000000000000000000000000000000000000000000000000 SWAP2 POP EQ CODESIZE PUSH2 0x1BC JUMP JUMPDEST PUSH32 0x4E2312E000000000000000000000000000000000000000000000000000000000 DUP2 EQ SWAP2 POP PUSH2 0x1B5 JUMP JUMPDEST PUSH1 0x0 DUP1 REVERT JUMPDEST PUSH20 0xFFFFFFFFFFFFFFFFFFFFFFFFFFFFFFFFFFFFFFFF DUP2 AND SUB PUSH2 0x21B JUMPI JUMP JUMPDEST SWAP2 DUP2 PUSH1 0x1F DUP5 ADD SLT ISZERO PUSH2 0x21B JUMPI DUP3 CALLDATALOAD SWAP2 PUSH8 0xFFFFFFFFFFFFFFFF DUP4 GT PUSH2 0x21B JUMPI PUSH1 0x20 DUP4 DUP2 DUP7 ADD SWAP6 ADD ADD GT PUSH2 0x21B JUMPI JUMP JUMPDEST CALLVALUE PUSH2 0x21B JUMPI PUSH1 0x80 PUSH32 0xFFFFFFFFFFFFFFFFFFFFFFFFFFFFFFFFFFFFFFFFFFFFFFFFFFFFFFFFFFFFFFFC CALLDATASIZE ADD SLT PUSH2 0x21B JUMPI PUSH2 0x2A6 PUSH1 0x4 CALLDATALOAD PUSH2 0x220 JUMP JUMPDEST PUSH2 0x2B1 PUSH1 0x24 CALLDATALOAD PUSH2 0x220 JUMP JUMPDEST PUSH1 0x64 CALLDATALOAD PUSH8 0xFFFFFFFFFFFFFFFF DUP2 GT PUSH2 0x21B JUMPI PUSH2 0x2D1 SWAP1 CALLDATASIZE SWAP1 PUSH1 0x4 ADD PUSH2 0x23E JUMP JUMPDEST POP POP PUSH1 0x20 PUSH1 0x40 MLOAD PUSH32 0x150B7A0200000000000000000000000000000000000000000000000000000000 DUP2 MSTORE RETURN JUMPDEST SWAP2 DUP2 PUSH1 0x1F DUP5 ADD SLT ISZERO PUSH2 0x21B JUMPI DUP3 CALLDATALOAD SWAP2 PUSH8 0xFFFFFFFFFFFFFFFF DUP4 GT PUSH2 0x21B JUMPI PUSH1 0x20 DUP1 DUP6 ADD SWAP5 DUP5 PUSH1 0x5 SHL ADD ADD GT PUSH2 0x21B JUMPI JUMP JUMPDEST CALLVALUE PUSH2 0x21B JUMPI PUSH1 0x60 PUSH32 0xFFFFFFFFFFFFFFFFFFFFFFFFFFFFFFFFFFFFFFFFFFFFFFFFFFFFFFFFFFFFFFFC CALLDATASIZE ADD SLT PUSH2 0x21B JUMPI PUSH8 0xFFFFFFFFFFFFFFFF PUSH1 0x4 CALLDATALOAD DUP2 DUP2 GT PUSH2 0x21B JUMPI PUSH2 0x37E SWAP1 CALLDATASIZE SWAP1 PUSH1 0x4 ADD PUSH2 0x2FD JUMP JUMPDEST PUSH1 0x24 SWAP3 SWAP2 SWAP3 CALLDATALOAD DUP3 DUP2 GT PUSH2 0x21B JUMPI PUSH2 0x399 SWAP1 CALLDATASIZE SWAP1 PUSH1 0x4 ADD PUSH2 0x2FD JUMP JUMPDEST SWAP3 PUSH1 0x44 CALLDATALOAD SWAP1 DUP2 GT PUSH2 0x21B JUMPI PUSH2 0x3B2 SWAP1 CALLDATASIZE SWAP1 PUSH1 0x4 ADD PUSH2 0x2FD JUMP JUMPDEST SWAP4 SWAP1 SWAP2 PUSH2 0x3BD PUSH2 0x13D5 JUMP JUMPDEST DUP5 DUP5 EQ DUP1 PUSH2 0x468 JUMPI JUMPDEST PUSH2 0x3CF SWAP1 PUSH2 0x1298 JUMP JUMPDEST DUP2 PUSH2 0x41C JUMPI POP POP PUSH1 0x0 JUMPDEST DUP3 DUP2 LT PUSH2 0x3E2 JUMPI STOP JUMPDEST DUP1 PUSH2 0x416 PUSH2 0x3FB PUSH2 0x3F6 PUSH1 0x1 SWAP5 DUP8 DUP11 PUSH2 0x132C JUMP JUMPDEST PUSH2 0x1341 JUMP JUMPDEST PUSH2 0x410 PUSH2 0x409 DUP5 DUP10 DUP9 PUSH2 0x139F JUMP JUMPDEST CALLDATASIZE SWAP2 PUSH2 0x6F2 JUMP JUMPDEST SWAP1 PUSH2 0x14BB JUMP JUMPDEST ADD PUSH2 0x3D9 JUMP JUMPDEST SWAP2 SWAP1 SWAP5 PUSH1 0x0 SWAP5 SWAP4 SWAP5 JUMPDEST DUP6 DUP2 LT PUSH2 0x42E JUMPI STOP JUMPDEST DUP1 PUSH2 0x462 PUSH2 0x442 PUSH2 0x3F6 PUSH1 0x1 SWAP5 DUP11 DUP8 PUSH2 0x132C JUMP JUMPDEST PUSH2 0x44D DUP4 DUP12 DUP10 PUSH2 0x132C JUMP JUMPDEST CALLDATALOAD PUSH2 0x45C PUSH2 0x409 DUP6 DUP12 DUP11 PUSH2 0x139F JUMP JUMPDEST SWAP2 PUSH2 0x14E3 JUMP JUMPDEST ADD PUSH2 0x425 JUMP JUMPDEST POP DUP2 ISZERO DUP1 PUSH2 0x3C6 JUMPI POP DUP2 DUP6 EQ PUSH2 0x3C6 JUMP JUMPDEST PUSH1 0x0 DUP1 PUSH32 0xFFFFFFFFFFFFFFFFFFFFFFFFFFFFFFFFFFFFFFFFFFFFFFFFFFFFFFFFFFFFFFFC CALLDATASIZE ADD SLT PUSH2 0x539 JUMPI PUSH20 0xFFFFFFFFFFFFFFFFFFFFFFFFFFFFFFFFFFFFFFFF PUSH32 0x0 AND DUP2 DUP2 EXTCODESIZE ISZERO PUSH2 0x539 JUMPI PUSH1 0x24 SWAP2 PUSH1 0x40 MLOAD SWAP3 DUP4 DUP1 SWAP3 PUSH32 0xB760FAF900000000000000000000000000000000000000000000000000000000 DUP3 MSTORE ADDRESS PUSH1 0x4 DUP4 ADD MSTORE CALLVALUE SWAP1 GAS CALL DUP1 ISZERO PUSH2 0x534 JUMPI PUSH2 0x528 JUMPI POP DUP1 RETURN JUMPDEST PUSH2 0x531 SWAP1 PUSH2 0x642 JUMP JUMPDEST DUP1 RETURN JUMPDEST PUSH2 0x13BA JUMP JUMPDEST DUP1 REVERT JUMPDEST CALLVALUE PUSH2 0x21B JUMPI PUSH1 0x0 PUSH1 0x40 PUSH32 0xFFFFFFFFFFFFFFFFFFFFFFFFFFFFFFFFFFFFFFFFFFFFFFFFFFFFFFFFFFFFFFFC CALLDATASIZE ADD SLT PUSH2 0x539 JUMPI PUSH1 0x4 CALLDATALOAD PUSH2 0x579 DUP2 PUSH2 0x220 JUMP JUMPDEST PUSH2 0x581 PUSH2 0x14FA JUMP JUMPDEST DUP2 PUSH20 0xFFFFFFFFFFFFFFFFFFFFFFFFFFFFFFFFFFFFFFFF DUP1 PUSH32 0x0 AND SWAP3 DUP4 EXTCODESIZE ISZERO PUSH2 0x60F JUMPI PUSH1 0x44 SWAP1 DUP4 PUSH1 0x40 MLOAD SWAP6 DUP7 SWAP5 DUP6 SWAP4 PUSH32 0x205C287800000000000000000000000000000000000000000000000000000000 DUP6 MSTORE AND PUSH1 0x4 DUP5 ADD MSTORE PUSH1 0x24 CALLDATALOAD PUSH1 0x24 DUP5 ADD MSTORE GAS CALL DUP1 ISZERO PUSH2 0x534 JUMPI PUSH2 0x528 JUMPI POP DUP1 RETURN JUMPDEST DUP3 DUP1 REVERT JUMPDEST PUSH32 0x4E487B7100000000000000000000000000000000000000000000000000000000 PUSH1 0x0 MSTORE PUSH1 0x41 PUSH1 0x4 MSTORE PUSH1 0x24 PUSH1 0x0 REVERT JUMPDEST PUSH8 0xFFFFFFFFFFFFFFFF DUP2 GT PUSH2 0x656 JUMPI PUSH1 0x40 MSTORE JUMP JUMPDEST PUSH2 0x613 JUMP JUMPDEST PUSH1 0x40 DUP2 ADD SWAP1 DUP2 LT PUSH8 0xFFFFFFFFFFFFFFFF DUP3 GT OR PUSH2 0x656 JUMPI PUSH1 0x40 MSTORE JUMP JUMPDEST SWAP1 PUSH1 0x1F PUSH32 0xFFFFFFFFFFFFFFFFFFFFFFFFFFFFFFFFFFFFFFFFFFFFFFFFFFFFFFFFFFFFFFE0 SWAP2 ADD AND DUP2 ADD SWAP1 DUP2 LT PUSH8 0xFFFFFFFFFFFFFFFF DUP3 GT OR PUSH2 0x656 JUMPI PUSH1 0x40 MSTORE JUMP JUMPDEST PUSH8 0xFFFFFFFFFFFFFFFF DUP2 GT PUSH2 0x656 JUMPI PUSH1 0x1F ADD PUSH32 0xFFFFFFFFFFFFFFFFFFFFFFFFFFFFFFFFFFFFFFFFFFFFFFFFFFFFFFFFFFFFFFE0 AND PUSH1 0x20 ADD SWAP1 JUMP JUMPDEST SWAP3 SWAP2 SWAP3 PUSH2 0x6FE DUP3 PUSH2 0x6B8 JUMP JUMPDEST SWAP2 PUSH2 0x70C PUSH1 0x40 MLOAD SWAP4 DUP5 PUSH2 0x677 JUMP JUMPDEST DUP3 SWAP5 DUP2 DUP5 MSTORE DUP2 DUP4 ADD GT PUSH2 0x21B JUMPI DUP3 DUP2 PUSH1 0x20 SWAP4 DUP5 PUSH1 0x0 SWAP7 ADD CALLDATACOPY ADD ADD MSTORE JUMP JUMPDEST PUSH1 0x40 PUSH32 0xFFFFFFFFFFFFFFFFFFFFFFFFFFFFFFFFFFFFFFFFFFFFFFFFFFFFFFFFFFFFFFFC CALLDATASIZE ADD SLT PUSH2 0x21B JUMPI PUSH1 0x4 DUP1 CALLDATALOAD SWAP1 PUSH2 0x761 DUP3 PUSH2 0x220 JUMP JUMPDEST PUSH1 0x24 CALLDATALOAD PUSH8 0xFFFFFFFFFFFFFFFF DUP2 GT PUSH2 0x21B JUMPI CALLDATASIZE PUSH1 0x23 DUP3 ADD SLT ISZERO PUSH2 0x21B JUMPI PUSH2 0x791 SWAP1 CALLDATASIZE SWAP1 PUSH1 0x24 DUP2 DUP6 ADD CALLDATALOAD SWAP2 ADD PUSH2 0x6F2 JUMP JUMPDEST PUSH20 0xFFFFFFFFFFFFFFFFFFFFFFFFFFFFFFFFFFFFFFFF DUP1 PUSH32 0x0 AND DUP1 ADDRESS EQ SWAP1 DUP2 ISZERO PUSH2 0x933 JUMPI JUMPDEST POP PUSH2 0x90A JUMPI SWAP1 PUSH1 0x20 DUP4 SWAP3 PUSH2 0x7E6 PUSH2 0x14FA JUMP JUMPDEST PUSH1 0x40 MLOAD SWAP4 DUP5 DUP1 SWAP3 PUSH32 0x52D1902D00000000000000000000000000000000000000000000000000000000 DUP3 MSTORE DUP9 AND GAS STATICCALL PUSH1 0x0 SWAP3 DUP2 PUSH2 0x8D9 JUMPI JUMPDEST POP PUSH2 0x871 JUMPI POP POP PUSH1 0x40 MLOAD PUSH32 0x4C9C8CE300000000000000000000000000000000000000000000000000000000 DUP2 MSTORE PUSH20 0xFFFFFFFFFFFFFFFFFFFFFFFFFFFFFFFFFFFFFFFF SWAP1 SWAP3 AND SWAP1 DUP3 ADD SWAP1 DUP2 MSTORE DUP2 SWAP1 PUSH1 0x20 ADD SUB SWAP1 REVERT JUMPDEST DUP4 DUP4 PUSH32 0x360894A13BA1A3210667C828492DB98DCA3E2076CC3735A920A3CA505D382BBC DUP5 SUB PUSH2 0x8A4 JUMPI PUSH2 0x19 DUP4 DUP4 PUSH2 0x1695 JUMP JUMPDEST PUSH1 0x40 MLOAD PUSH32 0xAA1D49A400000000000000000000000000000000000000000000000000000000 DUP2 MSTORE SWAP1 DUP2 ADD DUP5 DUP2 MSTORE DUP2 SWAP1 PUSH1 0x20 ADD SUB SWAP1 REVERT JUMPDEST PUSH2 0x8FC SWAP2 SWAP4 POP PUSH1 0x20 RETURNDATASIZE PUSH1 0x20 GT PUSH2 0x903 JUMPI JUMPDEST PUSH2 0x8F4 DUP2 DUP4 PUSH2 0x677 JUMP JUMPDEST DUP2 ADD SWAP1 PUSH2 0x13C6 JUMP JUMPDEST SWAP2 CODESIZE PUSH2 0x81D JUMP JUMPDEST POP RETURNDATASIZE PUSH2 0x8EA JUMP JUMPDEST DUP3 PUSH1 0x40 MLOAD PUSH32 0xE07C8DBA00000000000000000000000000000000000000000000000000000000 DUP2 MSTORE REVERT JUMPDEST SWAP1 POP DUP2 PUSH32 0x360894A13BA1A3210667C828492DB98DCA3E2076CC3735A920A3CA505D382BBC SLOAD AND EQ ISZERO CODESIZE PUSH2 0x7D4 JUMP JUMPDEST CALLVALUE PUSH2 0x21B JUMPI PUSH1 0x0 PUSH32 0xFFFFFFFFFFFFFFFFFFFFFFFFFFFFFFFFFFFFFFFFFFFFFFFFFFFFFFFFFFFFFFFC CALLDATASIZE ADD SLT PUSH2 0x21B JUMPI PUSH20 0xFFFFFFFFFFFFFFFFFFFFFFFFFFFFFFFFFFFFFFFF PUSH32 0x0 AND ADDRESS SUB PUSH2 0x9F7 JUMPI PUSH1 0x20 PUSH1 0x40 MLOAD PUSH32 0x360894A13BA1A3210667C828492DB98DCA3E2076CC3735A920A3CA505D382BBC DUP2 MSTORE RETURN JUMPDEST PUSH1 0x4 PUSH1 0x40 MLOAD PUSH32 0xE07C8DBA00000000000000000000000000000000000000000000000000000000 DUP2 MSTORE REVERT JUMPDEST CALLVALUE PUSH2 0x21B JUMPI PUSH32 0xFFFFFFFFFFFFFFFFFFFFFFFFFFFFFFFFFFFFFFFFFFFFFFFFFFFFFFFFFFFFFFFC PUSH1 0x60 DUP2 CALLDATASIZE ADD SLT PUSH2 0x21B JUMPI PUSH1 0x4 CALLDATALOAD SWAP1 PUSH8 0xFFFFFFFFFFFFFFFF DUP3 GT PUSH2 0x21B JUMPI PUSH2 0x140 SWAP1 DUP3 CALLDATASIZE SUB ADD SLT PUSH2 0x21B JUMPI PUSH1 0x44 CALLDATALOAD PUSH20 0xFFFFFFFFFFFFFFFFFFFFFFFFFFFFFFFFFFFFFFFF PUSH32 0x0 AND CALLER SUB PUSH2 0xB19 JUMPI PUSH2 0xAC4 PUSH2 0xADC SWAP3 PUSH1 0x24 CALLDATALOAD SWAP1 PUSH1 0x4 ADD PUSH2 0x158A JUMP JUMPDEST SWAP1 DUP1 PUSH2 0xAE0 JUMPI JUMPDEST POP PUSH1 0x40 MLOAD SWAP1 DUP2 MSTORE SWAP1 DUP2 SWAP1 PUSH1 0x20 DUP3 ADD SWAP1 JUMP JUMPDEST SUB SWAP1 RETURN JUMPDEST PUSH1 0x0 DUP1 DUP1 DUP1 SWAP4 CALLER PUSH32 0xFFFFFFFFFFFFFFFFFFFFFFFFFFFFFFFFFFFFFFFFFFFFFFFFFFFFFFFFFFFFFFFF CALL POP PUSH2 0xB12 PUSH2 0x148B JUMP JUMPDEST POP CODESIZE PUSH2 0xACB JUMP JUMPDEST PUSH1 0x64 PUSH1 0x40 MLOAD PUSH32 0x8C379A000000000000000000000000000000000000000000000000000000000 DUP2 MSTORE PUSH1 0x20 PUSH1 0x4 DUP3 ADD MSTORE PUSH1 0x1C PUSH1 0x24 DUP3 ADD MSTORE PUSH32 0x6163636F756E743A206E6F742066726F6D20456E747279506F696E7400000000 PUSH1 0x44 DUP3 ADD MSTORE REVERT JUMPDEST CALLVALUE PUSH2 0x21B JUMPI PUSH1 0x0 PUSH32 0xFFFFFFFFFFFFFFFFFFFFFFFFFFFFFFFFFFFFFFFFFFFFFFFFFFFFFFFFFFFFFFFC CALLDATASIZE ADD SLT PUSH2 0x21B JUMPI PUSH1 0x20 PUSH20 0xFFFFFFFFFFFFFFFFFFFFFFFFFFFFFFFFFFFFFFFF PUSH1 0x0 SLOAD AND PUSH1 0x40 MLOAD SWAP1 DUP2 MSTORE RETURN JUMPDEST CALLVALUE PUSH2 0x21B JUMPI PUSH1 0x0 PUSH32 0xFFFFFFFFFFFFFFFFFFFFFFFFFFFFFFFFFFFFFFFFFFFFFFFFFFFFFFFFFFFFFFFC CALLDATASIZE ADD SLT PUSH2 0x21B JUMPI PUSH1 0x40 DUP1 MLOAD SWAP1 PUSH2 0xC06 DUP3 PUSH2 0x65B JUMP JUMPDEST PUSH1 0x5 DUP3 MSTORE PUSH1 0x20 SWAP1 PUSH32 0x352E302E30000000000000000000000000000000000000000000000000000000 PUSH1 0x20 DUP5 ADD MSTORE PUSH1 0x40 MLOAD SWAP2 PUSH1 0x20 DUP4 MSTORE DUP4 MLOAD SWAP2 DUP3 PUSH1 0x20 DUP6 ADD MSTORE PUSH1 0x0 JUMPDEST DUP4 DUP2 LT PUSH2 0xC87 JUMPI DUP5 PUSH1 0x40 DUP2 PUSH32 0xFFFFFFFFFFFFFFFFFFFFFFFFFFFFFFFFFFFFFFFFFFFFFFFFFFFFFFFFFFFFFFE0 PUSH1 0x1F DUP9 PUSH1 0x0 DUP6 DUP3 DUP7 ADD ADD MSTORE ADD AND DUP2 ADD SUB ADD SWAP1 RETURN JUMPDEST DUP6 DUP2 ADD DUP4 ADD MLOAD DUP6 DUP3 ADD DUP4 ADD MSTORE DUP3 ADD PUSH2 0xC47 JUMP JUMPDEST CALLVALUE PUSH2 0x21B JUMPI PUSH1 0x0 PUSH32 0xFFFFFFFFFFFFFFFFFFFFFFFFFFFFFFFFFFFFFFFFFFFFFFFFFFFFFFFFFFFFFFFC CALLDATASIZE ADD SLT PUSH2 0x21B JUMPI PUSH1 0x20 PUSH1 0x40 MLOAD PUSH20 0xFFFFFFFFFFFFFFFFFFFFFFFFFFFFFFFFFFFFFFFF PUSH32 0x0 AND DUP2 MSTORE RETURN JUMPDEST CALLVALUE PUSH2 0x21B JUMPI PUSH1 0x60 PUSH32 0xFFFFFFFFFFFFFFFFFFFFFFFFFFFFFFFFFFFFFFFFFFFFFFFFFFFFFFFFFFFFFFFC CALLDATASIZE ADD SLT PUSH2 0x21B JUMPI PUSH1 0x4 CALLDATALOAD PUSH2 0xD44 DUP2 PUSH2 0x220 JUMP JUMPDEST PUSH1 0x44 CALLDATALOAD SWAP1 PUSH8 0xFFFFFFFFFFFFFFFF DUP3 GT PUSH2 0x21B JUMPI PUSH2 0xD73 PUSH2 0xD6B PUSH2 0x19 SWAP4 CALLDATASIZE SWAP1 PUSH1 0x4 ADD PUSH2 0x23E JUMP JUMPDEST PUSH2 0x409 PUSH2 0x13D5 JUMP JUMPDEST SWAP1 PUSH1 0x24 CALLDATALOAD SWAP1 PUSH2 0x14E3 JUMP JUMPDEST CALLVALUE PUSH2 0x21B JUMPI PUSH1 0xA0 PUSH32 0xFFFFFFFFFFFFFFFFFFFFFFFFFFFFFFFFFFFFFFFFFFFFFFFFFFFFFFFFFFFFFFFC CALLDATASIZE ADD SLT PUSH2 0x21B JUMPI PUSH2 0xDB7 PUSH1 0x4 CALLDATALOAD PUSH2 0x220 JUMP JUMPDEST PUSH2 0xDC2 PUSH1 0x24 CALLDATALOAD PUSH2 0x220 JUMP JUMPDEST PUSH8 0xFFFFFFFFFFFFFFFF PUSH1 0x44 CALLDATALOAD DUP2 DUP2 GT PUSH2 0x21B JUMPI PUSH2 0xDE3 SWAP1 CALLDATASIZE SWAP1 PUSH1 0x4 ADD PUSH2 0x2FD JUMP JUMPDEST POP POP PUSH1 0x64 CALLDATALOAD DUP2 DUP2 GT PUSH2 0x21B JUMPI PUSH2 0xDFD SWAP1 CALLDATASIZE SWAP1 PUSH1 0x4 ADD PUSH2 0x2FD JUMP JUMPDEST POP POP PUSH1 0x84 CALLDATALOAD SWAP1 DUP2 GT PUSH2 0x21B JUMPI PUSH2 0xE17 SWAP1 CALLDATASIZE SWAP1 PUSH1 0x4 ADD PUSH2 0x23E JUMP JUMPDEST POP POP PUSH1 0x40 MLOAD PUSH32 0xBC197C8100000000000000000000000000000000000000000000000000000000 DUP2 MSTORE PUSH1 0x20 SWAP1 RETURN JUMPDEST CALLVALUE PUSH2 0x21B JUMPI PUSH1 0x0 PUSH32 0xFFFFFFFFFFFFFFFFFFFFFFFFFFFFFFFFFFFFFFFFFFFFFFFFFFFFFFFFFFFFFFFC CALLDATASIZE ADD SLT PUSH2 0x21B JUMPI PUSH1 0x40 MLOAD PUSH32 0x70A0823100000000000000000000000000000000000000000000000000000000 DUP2 MSTORE ADDRESS PUSH1 0x4 DUP3 ADD MSTORE PUSH1 0x20 DUP2 PUSH1 0x24 DUP2 PUSH20 0xFFFFFFFFFFFFFFFFFFFFFFFFFFFFFFFFFFFFFFFF PUSH32 0x0 AND GAS STATICCALL DUP1 ISZERO PUSH2 0x534 JUMPI PUSH1 0x20 SWAP2 PUSH1 0x0 SWAP2 PUSH2 0xEF8 JUMPI JUMPDEST POP PUSH1 0x40 MLOAD SWAP1 DUP2 MSTORE RETURN JUMPDEST PUSH2 0xF0F SWAP2 POP DUP3 RETURNDATASIZE DUP5 GT PUSH2 0x903 JUMPI PUSH2 0x8F4 DUP2 DUP4 PUSH2 0x677 JUMP JUMPDEST CODESIZE PUSH2 0xEEF JUMP JUMPDEST CALLVALUE PUSH2 0x21B JUMPI PUSH1 0x20 PUSH32 0xFFFFFFFFFFFFFFFFFFFFFFFFFFFFFFFFFFFFFFFFFFFFFFFFFFFFFFFFFFFFFFFC CALLDATASIZE ADD SLT PUSH2 0x21B JUMPI PUSH1 0x4 CALLDATALOAD PUSH2 0xF50 DUP2 PUSH2 0x220 JUMP JUMPDEST PUSH32 0xF0C57E16840DF040F15088DC2F81FE391C3923BEC73E23A9662EFC9C229C6A00 SLOAD SWAP1 PUSH8 0xFFFFFFFFFFFFFFFF PUSH1 0xFF DUP4 PUSH1 0x40 SHR AND ISZERO SWAP3 AND DUP1 ISZERO SWAP1 DUP2 PUSH2 0x111D JUMPI JUMPDEST PUSH1 0x1 EQ SWAP1 DUP2 PUSH2 0x1113 JUMPI JUMPDEST ISZERO SWAP1 DUP2 PUSH2 0x110A JUMPI JUMPDEST POP PUSH2 0x10E0 JUMPI PUSH2 0x1003 SWAP1 DUP3 PUSH2 0xFFA PUSH32 0xF0C57E16840DF040F15088DC2F81FE391C3923BEC73E23A9662EFC9C229C6A00 PUSH1 0x1 PUSH32 0xFFFFFFFFFFFFFFFFFFFFFFFFFFFFFFFFFFFFFFFFFFFFFFFF0000000000000000 DUP3 SLOAD AND OR SWAP1 SSTORE JUMP JUMPDEST PUSH2 0x1084 JUMPI PUSH2 0x1609 JUMP JUMPDEST PUSH2 0x1009 JUMPI STOP JUMPDEST PUSH2 0x1055 PUSH32 0xF0C57E16840DF040F15088DC2F81FE391C3923BEC73E23A9662EFC9C229C6A00 PUSH32 0xFFFFFFFFFFFFFFFFFFFFFFFFFFFFFFFFFFFFFFFFFFFFFF00FFFFFFFFFFFFFFFF DUP2 SLOAD AND SWAP1 SSTORE JUMP JUMPDEST PUSH1 0x40 MLOAD PUSH1 0x1 DUP2 MSTORE PUSH32 0xC7F505B2F371AE2175EE4913F4499E1F2633A7B5936321EED1CDAEB6115181D2 SWAP1 PUSH1 0x20 SWAP1 LOG1 STOP JUMPDEST PUSH2 0x10DB PUSH32 0xF0C57E16840DF040F15088DC2F81FE391C3923BEC73E23A9662EFC9C229C6A00 PUSH9 0x10000000000000000 PUSH32 0xFFFFFFFFFFFFFFFFFFFFFFFFFFFFFFFFFFFFFFFFFFFFFF00FFFFFFFFFFFFFFFF DUP3 SLOAD AND OR SWAP1 SSTORE JUMP JUMPDEST PUSH2 0x1609 JUMP JUMPDEST PUSH1 0x4 PUSH1 0x40 MLOAD PUSH32 0xF92EE8A900000000000000000000000000000000000000000000000000000000 DUP2 MSTORE REVERT JUMPDEST SWAP1 POP ISZERO CODESIZE PUSH2 0xFA1 JUMP JUMPDEST ADDRESS EXTCODESIZE ISZERO SWAP2 POP PUSH2 0xF99 JUMP JUMPDEST DUP4 SWAP2 POP PUSH2 0xF8F JUMP JUMPDEST CALLVALUE PUSH2 0x21B JUMPI PUSH1 0x0 PUSH32 0xFFFFFFFFFFFFFFFFFFFFFFFFFFFFFFFFFFFFFFFFFFFFFFFFFFFFFFFFFFFFFFFC CALLDATASIZE ADD SLT PUSH2 0x21B JUMPI PUSH1 0x40 MLOAD PUSH32 0x35567E1A00000000000000000000000000000000000000000000000000000000 DUP2 MSTORE ADDRESS PUSH1 0x4 DUP3 ADD MSTORE PUSH1 0x0 PUSH1 0x24 DUP3 ADD MSTORE PUSH1 0x20 DUP2 PUSH1 0x44 DUP2 PUSH20 0xFFFFFFFFFFFFFFFFFFFFFFFFFFFFFFFFFFFFFFFF PUSH32 0x0 AND GAS STATICCALL DUP1 ISZERO PUSH2 0x534 JUMPI PUSH2 0xADC SWAP2 PUSH1 0x0 SWAP2 PUSH2 0x11E8 JUMPI POP PUSH1 0x40 MLOAD SWAP1 DUP2 MSTORE SWAP1 DUP2 SWAP1 PUSH1 0x20 DUP3 ADD SWAP1 JUMP JUMPDEST PUSH2 0x1201 SWAP2 POP PUSH1 0x20 RETURNDATASIZE PUSH1 0x20 GT PUSH2 0x903 JUMPI PUSH2 0x8F4 DUP2 DUP4 PUSH2 0x677 JUMP JUMPDEST CODESIZE PUSH2 0xACB JUMP JUMPDEST CALLVALUE PUSH2 0x21B JUMPI PUSH1 0xA0 PUSH32 0xFFFFFFFFFFFFFFFFFFFFFFFFFFFFFFFFFFFFFFFFFFFFFFFFFFFFFFFFFFFFFFFC CALLDATASIZE ADD SLT PUSH2 0x21B JUMPI PUSH2 0x1241 PUSH1 0x4 CALLDATALOAD PUSH2 0x220 JUMP JUMPDEST PUSH2 0x124C PUSH1 0x24 CALLDATALOAD PUSH2 0x220 JUMP JUMPDEST PUSH1 0x84 CALLDATALOAD PUSH8 0xFFFFFFFFFFFFFFFF DUP2 GT PUSH2 0x21B JUMPI PUSH2 0x126C SWAP1 CALLDATASIZE SWAP1 PUSH1 0x4 ADD PUSH2 0x23E JUMP JUMPDEST POP POP PUSH1 0x20 PUSH1 0x40 MLOAD PUSH32 0xF23A6E6100000000000000000000000000000000000000000000000000000000 DUP2 MSTORE RETURN JUMPDEST ISZERO PUSH2 0x129F JUMPI JUMP JUMPDEST PUSH1 0x64 PUSH1 0x40 MLOAD PUSH32 0x8C379A000000000000000000000000000000000000000000000000000000000 DUP2 MSTORE PUSH1 0x20 PUSH1 0x4 DUP3 ADD MSTORE PUSH1 0x13 PUSH1 0x24 DUP3 ADD MSTORE PUSH32 0x77726F6E67206172726179206C656E6774687300000000000000000000000000 PUSH1 0x44 DUP3 ADD MSTORE REVERT JUMPDEST PUSH32 0x4E487B7100000000000000000000000000000000000000000000000000000000 PUSH1 0x0 MSTORE PUSH1 0x32 PUSH1 0x4 MSTORE PUSH1 0x24 PUSH1 0x0 REVERT JUMPDEST SWAP2 SWAP1 DUP2 LT ISZERO PUSH2 0x133C JUMPI PUSH1 0x5 SHL ADD SWAP1 JUMP JUMPDEST PUSH2 0x12FD JUMP JUMPDEST CALLDATALOAD PUSH2 0x134B DUP2 PUSH2 0x220 JUMP JUMPDEST SWAP1 JUMP JUMPDEST SWAP1 CALLDATALOAD SWAP1 PUSH32 0xFFFFFFFFFFFFFFFFFFFFFFFFFFFFFFFFFFFFFFFFFFFFFFFFFFFFFFFFFFFFFFE1 DUP2 CALLDATASIZE SUB ADD DUP3 SLT ISZERO PUSH2 0x21B JUMPI ADD DUP1 CALLDATALOAD SWAP1 PUSH8 0xFFFFFFFFFFFFFFFF DUP3 GT PUSH2 0x21B JUMPI PUSH1 0x20 ADD SWAP2 DUP2 CALLDATASIZE SUB DUP4 SGT PUSH2 0x21B JUMPI JUMP JUMPDEST SWAP1 DUP3 LT ISZERO PUSH2 0x133C JUMPI PUSH2 0x13B6 SWAP2 PUSH1 0x5 SHL DUP2 ADD SWAP1 PUSH2 0x134E JUMP JUMPDEST SWAP1 SWAP2 JUMP JUMPDEST PUSH1 0x40 MLOAD RETURNDATASIZE PUSH1 0x0 DUP3 RETURNDATACOPY RETURNDATASIZE SWAP1 REVERT JUMPDEST SWAP1 DUP2 PUSH1 0x20 SWAP2 SUB SLT PUSH2 0x21B JUMPI MLOAD SWAP1 JUMP JUMPDEST PUSH20 0xFFFFFFFFFFFFFFFFFFFFFFFFFFFFFFFFFFFFFFFF DUP1 PUSH32 0x0 AND CALLER EQ SWAP1 DUP2 ISZERO PUSH2 0x147D JUMPI JUMPDEST POP ISZERO PUSH2 0x141F JUMPI JUMP JUMPDEST PUSH1 0x64 PUSH1 0x40 MLOAD PUSH32 0x8C379A000000000000000000000000000000000000000000000000000000000 DUP2 MSTORE PUSH1 0x20 PUSH1 0x4 DUP3 ADD MSTORE PUSH1 0x20 PUSH1 0x24 DUP3 ADD MSTORE PUSH32 0x6163636F756E743A206E6F74204F776E6572206F7220456E747279506F696E74 PUSH1 0x44 DUP3 ADD MSTORE REVERT JUMPDEST SWAP1 POP PUSH1 0x0 SLOAD AND CALLER EQ CODESIZE PUSH2 0x1417 JUMP JUMPDEST RETURNDATASIZE ISZERO PUSH2 0x14B6 JUMPI RETURNDATASIZE SWAP1 PUSH2 0x149C DUP3 PUSH2 0x6B8 JUMP JUMPDEST SWAP2 PUSH2 0x14AA PUSH1 0x40 MLOAD SWAP4 DUP5 PUSH2 0x677 JUMP JUMPDEST DUP3 MSTORE RETURNDATASIZE PUSH1 0x0 PUSH1 0x20 DUP5 ADD RETURNDATACOPY JUMP JUMPDEST PUSH1 0x60 SWAP1 JUMP JUMPDEST PUSH1 0x0 SWAP2 DUP3 SWAP2 DUP3 PUSH1 0x20 DUP4 MLOAD SWAP4 ADD SWAP2 GAS CALL PUSH2 0x14D2 PUSH2 0x148B JUMP JUMPDEST SWAP1 ISZERO PUSH2 0x14DB JUMPI POP JUMP JUMPDEST PUSH1 0x20 DUP2 MLOAD SWAP2 ADD REVERT JUMPDEST SWAP2 PUSH1 0x0 SWAP3 DUP4 SWAP3 PUSH1 0x20 DUP4 MLOAD SWAP4 ADD SWAP2 GAS CALL PUSH2 0x14D2 PUSH2 0x148B JUMP JUMPDEST PUSH20 0xFFFFFFFFFFFFFFFFFFFFFFFFFFFFFFFFFFFFFFFF PUSH1 0x0 SLOAD AND CALLER EQ DUP1 ISZERO PUSH2 0x1581 JUMPI JUMPDEST ISZERO PUSH2 0x1523 JUMPI JUMP JUMPDEST PUSH1 0x64 PUSH1 0x40 MLOAD PUSH32 0x8C379A000000000000000000000000000000000000000000000000000000000 DUP2 MSTORE PUSH1 0x20 PUSH1 0x4 DUP3 ADD MSTORE PUSH1 0xA PUSH1 0x24 DUP3 ADD MSTORE PUSH32 0x6F6E6C79206F776E657200000000000000000000000000000000000000000000 PUSH1 0x44 DUP3 ADD MSTORE REVERT JUMPDEST POP ADDRESS CALLER EQ PUSH2 0x151C JUMP JUMPDEST SWAP1 PUSH32 0x19457468657265756D205369676E6564204D6573736167653A0A333200000000 PUSH1 0x0 MSTORE PUSH1 0x1C MSTORE PUSH1 0x3C PUSH1 0x0 KECCAK256 PUSH2 0x15F9 PUSH2 0x15F0 PUSH20 0xFFFFFFFFFFFFFFFFFFFFFFFFFFFFFFFFFFFFFFFF SWAP3 PUSH2 0x15EA PUSH2 0x409 DUP6 PUSH1 0x0 SLOAD AND SWAP7 PUSH2 0x120 DUP2 ADD SWAP1 PUSH2 0x134E JUMP JUMPDEST SWAP1 PUSH2 0x17CD JUMP JUMPDEST SWAP1 SWAP3 SWAP2 SWAP3 PUSH2 0x1842 JUMP JUMPDEST AND SUB PUSH2 0x1604 JUMPI PUSH1 0x0 SWAP1 JUMP JUMPDEST PUSH1 0x1 SWAP1 JUMP JUMPDEST PUSH20 0xFFFFFFFFFFFFFFFFFFFFFFFFFFFFFFFFFFFFFFFF DUP1 SWAP2 AND SWAP1 DUP2 PUSH32 0xFFFFFFFFFFFFFFFFFFFFFFFF0000000000000000000000000000000000000000 PUSH1 0x0 SLOAD AND OR PUSH1 0x0 SSTORE PUSH32 0x0 AND PUSH32 0x47E55C76E7A6F1FD8996A1DA8008C1EA29699CCA35E7BCD057F2DEC313B6E5DE PUSH1 0x0 DUP1 LOG3 JUMP JUMPDEST SWAP1 DUP2 EXTCODESIZE ISZERO PUSH2 0x1768 JUMPI PUSH20 0xFFFFFFFFFFFFFFFFFFFFFFFFFFFFFFFFFFFFFFFF DUP3 AND PUSH32 0x360894A13BA1A3210667C828492DB98DCA3E2076CC3735A920A3CA505D382BBC DUP2 PUSH32 0xFFFFFFFFFFFFFFFFFFFFFFFF0000000000000000000000000000000000000000 DUP3 SLOAD AND OR SWAP1 SSTORE PUSH32 0xBC7CD75A20EE27FD9ADEBAB32041F755214DBC6BFFA90CC0225B39DA2E5C2D3B PUSH1 0x0 DUP1 LOG2 DUP1 MLOAD ISZERO PUSH2 0x1735 JUMPI PUSH2 0x1732 SWAP2 PUSH2 0x17AF JUMP JUMPDEST POP JUMP JUMPDEST POP POP CALLVALUE PUSH2 0x173E JUMPI JUMP JUMPDEST PUSH1 0x4 PUSH1 0x40 MLOAD PUSH32 0xB398979F00000000000000000000000000000000000000000000000000000000 DUP2 MSTORE REVERT JUMPDEST PUSH1 0x24 DUP3 PUSH20 0xFFFFFFFFFFFFFFFFFFFFFFFFFFFFFFFFFFFFFFFF PUSH1 0x40 MLOAD SWAP2 PUSH32 0x4C9C8CE300000000000000000000000000000000000000000000000000000000 DUP4 MSTORE AND PUSH1 0x4 DUP3 ADD MSTORE REVERT JUMPDEST PUSH1 0x0 DUP1 PUSH2 0x134B SWAP4 PUSH1 0x20 DUP2 MLOAD SWAP2 ADD DUP5 GAS DELEGATECALL PUSH2 0x17C7 PUSH2 0x148B JUMP JUMPDEST SWAP2 PUSH2 0x1919 JUMP JUMPDEST DUP2 MLOAD SWAP2 SWAP1 PUSH1 0x41 DUP4 SUB PUSH2 0x17FE JUMPI PUSH2 0x17F7 SWAP3 POP PUSH1 0x20 DUP3 ADD MLOAD SWAP1 PUSH1 0x60 PUSH1 0x40 DUP5 ADD MLOAD SWAP4 ADD MLOAD PUSH1 0x0 BYTE SWAP1 PUSH2 0x19B9 JUMP JUMPDEST SWAP2 SWAP3 SWAP1 SWAP2 SWAP1 JUMP JUMPDEST POP POP PUSH1 0x0 SWAP2 PUSH1 0x2 SWAP2 SWAP1 JUMP JUMPDEST PUSH1 0x4 GT ISZERO PUSH2 0x1813 JUMPI JUMP JUMPDEST PUSH32 0x4E487B7100000000000000000000000000000000000000000000000000000000 PUSH1 0x0 MSTORE PUSH1 0x21 PUSH1 0x4 MSTORE PUSH1 0x24 PUSH1 0x0 REVERT JUMPDEST PUSH2 0x184B DUP2 PUSH2 0x1809 JUMP JUMPDEST DUP1 PUSH2 0x1854 JUMPI POP POP JUMP JUMPDEST PUSH2 0x185D DUP2 PUSH2 0x1809 JUMP JUMPDEST PUSH1 0x1 DUP2 SUB PUSH2 0x188F JUMPI PUSH1 0x4 PUSH1 0x40 MLOAD PUSH32 0xF645EEDF00000000000000000000000000000000000000000000000000000000 DUP2 MSTORE REVERT JUMPDEST PUSH2 0x1898 DUP2 PUSH2 0x1809 JUMP JUMPDEST PUSH1 0x2 DUP2 SUB PUSH2 0x18D2 JUMPI PUSH1 0x40 MLOAD PUSH32 0xFCE698F700000000000000000000000000000000000000000000000000000000 DUP2 MSTORE PUSH1 0x4 DUP2 ADD DUP4 SWAP1 MSTORE PUSH1 0x24 SWAP1 REVERT JUMPDEST DUP1 PUSH2 0x18DE PUSH1 0x3 SWAP3 PUSH2 0x1809 JUMP JUMPDEST EQ PUSH2 0x18E6 JUMPI POP JUMP JUMPDEST PUSH1 0x40 MLOAD PUSH32 0xD78BCE0C00000000000000000000000000000000000000000000000000000000 DUP2 MSTORE PUSH1 0x4 DUP2 ADD SWAP2 SWAP1 SWAP2 MSTORE PUSH1 0x24 SWAP1 REVERT JUMPDEST SWAP1 PUSH2 0x1958 JUMPI POP DUP1 MLOAD ISZERO PUSH2 0x192E JUMPI DUP1 MLOAD SWAP1 PUSH1 0x20 ADD REVERT JUMPDEST PUSH1 0x4 PUSH1 0x40 MLOAD PUSH32 0x1425EA4200000000000000000000000000000000000000000000000000000000 DUP2 MSTORE REVERT JUMPDEST DUP2 MLOAD ISZERO DUP1 PUSH2 0x19B0 JUMPI JUMPDEST PUSH2 0x1969 JUMPI POP SWAP1 JUMP JUMPDEST PUSH1 0x24 SWAP1 PUSH20 0xFFFFFFFFFFFFFFFFFFFFFFFFFFFFFFFFFFFFFFFF PUSH1 0x40 MLOAD SWAP2 PUSH32 0x9996B31500000000000000000000000000000000000000000000000000000000 DUP4 MSTORE AND PUSH1 0x4 DUP3 ADD MSTORE REVERT JUMPDEST POP DUP1 EXTCODESIZE ISZERO PUSH2 0x1961 JUMP JUMPDEST SWAP2 SWAP1 PUSH32 0x7FFFFFFFFFFFFFFFFFFFFFFFFFFFFFFF5D576E7357A4501DDFE92F46681B20A0 DUP5 GT PUSH2 0x1A3E JUMPI SWAP3 PUSH1 0x20 SWAP3 SWAP2 PUSH1 0xFF PUSH1 0x80 SWAP6 PUSH1 0x40 MLOAD SWAP5 DUP6 MSTORE AND DUP5 DUP5 ADD MSTORE PUSH1 0x40 DUP4 ADD MSTORE PUSH1 0x60 DUP3 ADD MSTORE PUSH1 0x0 SWAP3 DUP4 SWAP2 DUP3 DUP1 MSTORE PUSH1 0x1 GAS STATICCALL ISZERO PUSH2 0x534 JUMPI DUP1 MLOAD PUSH20 0xFFFFFFFFFFFFFFFFFFFFFFFFFFFFFFFFFFFFFFFF DUP2 AND ISZERO PUSH2 0x1A35 JUMPI SWAP2 DUP2 SWAP1 JUMP JUMPDEST POP DUP1 SWAP2 PUSH1 0x1 SWAP2 SWAP1 JUMP JUMPDEST POP POP POP PUSH1 0x0 SWAP2 PUSH1 0x3 SWAP2 SWAP1 JUMP INVALID LOG2 PUSH5 0x6970667358 0x22 SLT KECCAK256 0x22 PUSH26 0x4E08855C3F2BE022E127D41DF28E3C0E8B38959948F0896885DC EQ 0xDD SWAP9 0xD5 PUSH5 0x736F6C6343 STOP ADDMOD OR STOP CALLER "},"methodIdentifiers":{"UPGRADE_INTERFACE_VERSION()":"ad3cb1cc","addDeposit()":"4a58db19","entryPoint()":"b0d691fe","execute(address,uint256,bytes)":"b61d27f6","executeBatch(address[],uint256[],bytes[])":"47e1da2a","getDeposit()":"c399ec88","getNonce()":"d087d288","initialize(address)":"c4d66de8","onERC1155BatchReceived(address,address,uint256[],uint256[],bytes)":"bc197c81","onERC1155Received(address,address,uint256,uint256,bytes)":"f23a6e61","onERC721Received(address,address,uint256,bytes)":"150b7a02","owner()":"8da5cb5b","proxiableUUID()":"52d1902d","supportsInterface(bytes4)":"01ffc9a7","upgradeToAndCall(address,bytes)":"4f1ef286","validateUserOp((address,uint256,bytes,bytes,bytes32,uint256,uint256,uint256,bytes,bytes),bytes32,uint256)":"8803e451","withdrawDepositTo(address,uint256)":"4d44560d"}}}}}