{"contracts/core/UserOperationLib.sol":{"UserOperationLib":{"abi":[{"inputs":[],"name":"PAYMASTER_DATA_OFFSET","outputs":[{"internalType":"uint256","name":"","type":"uint256"}],"stateMutability":"view","type":"function"},{"inputs":[],"name":"PAYMASTER_POSTOP_GAS_OFFSET","outputs":[{"internalType":"uint256","name":"","type":"uint256"}],"stateMutability":"view","type":"function"},{"inputs":[],"name":"PAYMASTER_VALIDATION_GAS_OFFSET","outputs":[{"internalType":"uint256","name":"","type":"uint256"}],"stateMutability":"view","type":"function"}],"evm":{"bytecode":{"linkReferences":{},"object":"6080806040523461001a576101159081610020823930815050f35b600080fdfe6080806040526004361015601257600080fd5b600090813560e01c90816325093e1b1460a857508063b29a8ff41460745763ede3150214603e57600080fd5b807ffffffffffffffffffffffffffffffffffffffffffffffffffffffffffffffffc360112607157602060405160348152f35b80fd5b50807ffffffffffffffffffffffffffffffffffffffffffffffffffffffffffffffffc360112607157602060405160148152f35b9050817ffffffffffffffffffffffffffffffffffffffffffffffffffffffffffffffffc36011260db5780602460209252f35b5080fdfea264697066735822122022d731c2de592d14333e706eb36bd0cf0f358fb3dd6d827cdbadd7d7b3129e9f64736f6c63430008170033","opcodes":"PUSH1 0x80 DUP1 PUSH1 0x40 MSTORE CALLVALUE PUSH2 0x1A JUMPI PUSH2 0x115 SWAP1 DUP2 PUSH2 0x20 DUP3 CODECOPY ADDRESS DUP2 POP POP RETURN JUMPDEST PUSH1 0x0 DUP1 REVERT INVALID PUSH1 0x80 DUP1 PUSH1 0x40 MSTORE PUSH1 0x4 CALLDATASIZE LT ISZERO PUSH1 0x12 JUMPI PUSH1 0x0 DUP1 REVERT JUMPDEST PUSH1 0x0 SWAP1 DUP2 CALLDATALOAD PUSH1 0xE0 SHR SWAP1 DUP2 PUSH4 0x25093E1B EQ PUSH1 0xA8 JUMPI POP DUP1 PUSH4 0xB29A8FF4 EQ PUSH1 0x74 JUMPI PUSH4 0xEDE31502 EQ PUSH1 0x3E JUMPI PUSH1 0x0 DUP1 REVERT JUMPDEST DUP1 PUSH32 0xFFFFFFFFFFFFFFFFFFFFFFFFFFFFFFFFFFFFFFFFFFFFFFFFFFFFFFFFFFFFFFFC CALLDATASIZE ADD SLT PUSH1 0x71 JUMPI PUSH1 0x20 PUSH1 0x40 MLOAD PUSH1 0x34 DUP2 MSTORE RETURN JUMPDEST DUP1 REVERT JUMPDEST POP DUP1 PUSH32 0xFFFFFFFFFFFFFFFFFFFFFFFFFFFFFFFFFFFFFFFFFFFFFFFFFFFFFFFFFFFFFFFC CALLDATASIZE ADD SLT PUSH1 0x71 JUMPI PUSH1 0x20 PUSH1 0x40 MLOAD PUSH1 0x14 DUP2 MSTORE RETURN JUMPDEST SWAP1 POP DUP2 PUSH32 0xFFFFFFFFFFFFFFFFFFFFFFFFFFFFFFFFFFFFFFFFFFFFFFFFFFFFFFFFFFFFFFFC CALLDATASIZE ADD SLT PUSH1 0xDB JUMPI DUP1 PUSH1 0x24 PUSH1 0x20 SWAP3 MSTORE RETURN JUMPDEST POP DUP1 REVERT INVALID LOG2 PUSH5 0x6970667358 0x22 SLT KECCAK256 0x22 0xD7 BALANCE 0xC2 0xDE MSIZE 0x2D EQ CALLER RETURNDATACOPY PUSH17 0x6EB36BD0CF0F358FB3DD6D827CDBADD7D7 0xB3 SLT SWAP15 SWAP16 PUSH5 0x736F6C6343 STOP ADDMOD OR STOP CALLER "},"methodIdentifiers":{"PAYMASTER_DATA_OFFSET()":"ede31502","PAYMASTER_POSTOP_GAS_OFFSET()":"25093e1b","PAYMASTER_VALIDATION_GAS_OFFSET()":"b29a8ff4"}}}}}