{"contracts/core/EntryPoint.sol":{"EntryPoint":{"abi":[{"inputs":[{"internalType":"bool","name":"success","type":"bool"},{"internalType":"bytes","name":"ret","type":"bytes"}],"name":"DelegateAndRevert","type":"error"},{"inputs":[{"internalType":"uint256","name":"opIndex","type":"uint256"},{"internalType":"string","name":"reason","type":"string"}],"name":"FailedOp","type":"error"},{"inputs":[{"internalType":"uint256","name":"opIndex","type":"uint256"},{"internalType":"string","name":"reason","type":"string"},{"internalType":"bytes","name":"inner","type":"bytes"}],"name":"FailedOpWithRevert","type":"error"},{"inputs":[{"internalType":"bytes","name":"returnData","type":"bytes"}],"name":"PostOpReverted","type":"error"},{"inputs":[],"name":"ReentrancyGuardReentrantCall","type":"error"},{"inputs":[{"internalType":"address","name":"sender","type":"address"}],"name":"SenderAddressResult","type":"error"},{"inputs":[{"internalType":"address","name":"aggregator","type":"address"}],"name":"SignatureValidationFailed","type":"error"},{"anonymous":false,"inputs":[{"indexed":true,"internalType":"bytes32","name":"userOpHash","type":"bytes32"},{"indexed":true,"internalType":"address","name":"sender","type":"address"},{"indexed":false,"internalType":"address","name":"factory","type":"address"},{"indexed":false,"internalType":"address","name":"paymaster","type":"address"}],"name":"AccountDeployed","type":"event"},{"anonymous":false,"inputs":[],"name":"BeforeExecution","type":"event"},{"anonymous":false,"inputs":[{"indexed":true,"internalType":"address","name":"account","type":"address"},{"indexed":false,"internalType":"uint256","name":"totalDeposit","type":"uint256"}],"name":"Deposited","type":"event"},{"anonymous":false,"inputs":[{"indexed":true,"internalType":"bytes32","name":"userOpHash","type":"bytes32"},{"indexed":true,"internalType":"address","name":"sender","type":"address"},{"indexed":false,"internalType":"uint256","name":"nonce","type":"uint256"},{"indexed":false,"internalType":"bytes","name":"revertReason","type":"bytes"}],"name":"PostOpRevertReason","type":"event"},{"anonymous":false,"inputs":[{"indexed":true,"internalType":"address","name":"aggregator","type":"address"}],"name":"SignatureAggregatorChanged","type":"event"},{"anonymous":false,"inputs":[{"indexed":true,"internalType":"address","name":"account","type":"address"},{"indexed":false,"internalType":"uint256","name":"totalStaked","type":"uint256"},{"indexed":false,"internalType":"uint256","name":"unstakeDelaySec","type":"uint256"}],"name":"StakeLocked","type":"event"},{"anonymous":false,"inputs":[{"indexed":true,"internalType":"address","name":"account","type":"address"},{"indexed":false,"internalType":"uint256","name":"withdrawTime","type":"uint256"}],"name":"StakeUnlocked","type":"event"},{"anonymous":false,"inputs":[{"indexed":true,"internalType":"address","name":"account","type":"address"},{"indexed":false,"internalType":"address","name":"withdrawAddress","type":"address"},{"indexed":false,"internalType":"uint256","name":"amount","type":"uint256"}],"name":"StakeWithdrawn","type":"event"},{"anonymous":false,"inputs":[{"indexed":true,"internalType":"bytes32","name":"userOpHash","type":"bytes32"},{"indexed":true,"internalType":"address","name":"sender","type":"address"},{"indexed":true,"internalType":"address","name":"paymaster","type":"address"},{"indexed":false,"internalType":"uint256","name":"nonce","type":"uint256"},{"indexed":false,"internalType":"bool","name":"success","type":"bool"},{"indexed":false,"internalType":"uint256","name":"actualGasCost","type":"uint256"},{"indexed":false,"internalType":"uint256","name":"actualGasUsed","type":"uint256"}],"name":"UserOperationEvent","type":"event"},{"anonymous":false,"inputs":[{"indexed":true,"internalType":"bytes32","name":"userOpHash","type":"bytes32"},{"indexed":true,"internalType":"address","name":"sender","type":"address"},{"indexed":false,"internalType":"uint256","name":"nonce","type":"uint256"}],"name":"UserOperationPrefundTooLow","type":"event"},{"anonymous":false,"inputs":[{"indexed":true,"internalType":"bytes32","name":"userOpHash","type":"bytes32"},{"indexed":true,"internalType":"address","name":"sender","type":"address"},{"indexed":false,"internalType":"uint256","name":"nonce","type":"uint256"},{"indexed":false,"internalType":"bytes","name":"revertReason","type":"bytes"}],"name":"UserOperationRevertReason","type":"event"},{"anonymous":false,"inputs":[{"indexed":true,"internalType":"address","name":"account","type":"address"},{"indexed":false,"internalType":"address","name":"withdrawAddress","type":"address"},{"indexed":false,"internalType":"uint256","name":"amount","type":"uint256"}],"name":"Withdrawn","type":"event"},{"inputs":[{"internalType":"uint32","name":"unstakeDelaySec","type":"uint32"}],"name":"addStake","outputs":[],"stateMutability":"payable","type":"function"},{"inputs":[{"internalType":"address","name":"account","type":"address"}],"name":"balanceOf","outputs":[{"internalType":"uint256","name":"","type":"uint256"}],"stateMutability":"view","type":"function"},{"inputs":[{"internalType":"address","name":"target","type":"address"},{"internalType":"bytes","name":"data","type":"bytes"}],"name":"delegateAndRevert","outputs":[],"stateMutability":"nonpayable","type":"function"},{"inputs":[{"internalType":"address","name":"account","type":"address"}],"name":"depositTo","outputs":[],"stateMutability":"payable","type":"function"},{"inputs":[{"internalType":"address","name":"","type":"address"}],"name":"deposits","outputs":[{"internalType":"uint256","name":"deposit","type":"uint256"},{"internalType":"bool","name":"staked","type":"bool"},{"internalType":"uint112","name":"stake","type":"uint112"},{"internalType":"uint32","name":"unstakeDelaySec","type":"uint32"},{"internalType":"uint48","name":"withdrawTime","type":"uint48"}],"stateMutability":"view","type":"function"},{"inputs":[{"internalType":"address","name":"account","type":"address"}],"name":"getDepositInfo","outputs":[{"components":[{"internalType":"uint256","name":"deposit","type":"uint256"},{"internalType":"bool","name":"staked","type":"bool"},{"internalType":"uint112","name":"stake","type":"uint112"},{"internalType":"uint32","name":"unstakeDelaySec","type":"uint32"},{"internalType":"uint48","name":"withdrawTime","type":"uint48"}],"internalType":"struct IStakeManager.DepositInfo","name":"info","type":"tuple"}],"stateMutability":"view","type":"function"},{"inputs":[{"internalType":"address","name":"sender","type":"address"},{"internalType":"uint192","name":"key","type":"uint192"}],"name":"getNonce","outputs":[{"internalType":"uint256","name":"nonce","type":"uint256"}],"stateMutability":"view","type":"function"},{"inputs":[{"internalType":"bytes","name":"initCode","type":"bytes"}],"name":"getSenderAddress","outputs":[],"stateMutability":"nonpayable","type":"function"},{"inputs":[{"components":[{"internalType":"address","name":"sender","type":"address"},{"internalType":"uint256","name":"nonce","type":"uint256"},{"internalType":"bytes","name":"initCode","type":"bytes"},{"internalType":"bytes","name":"callData","type":"bytes"},{"internalType":"bytes32","name":"accountGasLimits","type":"bytes32"},{"internalType":"uint256","name":"preVerificationGas","type":"uint256"},{"internalType":"bytes32","name":"gasFees","type":"bytes32"},{"internalType":"bytes","name":"paymasterAndData","type":"bytes"},{"internalType":"bytes","name":"signature","type":"bytes"}],"internalType":"struct PackedUserOperation","name":"userOp","type":"tuple"}],"name":"getUserOpHash","outputs":[{"internalType":"bytes32","name":"","type":"bytes32"}],"stateMutability":"view","type":"function"},{"inputs":[{"components":[{"components":[{"internalType":"address","name":"sender","type":"address"},{"internalType":"uint256","name":"nonce","type":"uint256"},{"internalType":"bytes","name":"initCode","type":"bytes"},{"internalType":"bytes","name":"callData","type":"bytes"},{"internalType":"bytes32","name":"accountGasLimits","type":"bytes32"},{"internalType":"uint256","name":"preVerificationGas","type":"uint256"},{"internalType":"bytes32","name":"gasFees","type":"bytes32"},{"internalType":"bytes","name":"paymasterAndData","type":"bytes"},{"internalType":"bytes","name":"signature","type":"bytes"}],"internalType":"struct PackedUserOperation[]","name":"userOps","type":"tuple[]"},{"internalType":"contract IAggregator","name":"aggregator","type":"address"},{"internalType":"bytes","name":"signature","type":"bytes"}],"internalType":"struct IEntryPoint.UserOpsPerAggregator[]","name":"opsPerAggregator","type":"tuple[]"},{"internalType":"address payable","name":"beneficiary","type":"address"}],"name":"handleAggregatedOps","outputs":[],"stateMutability":"nonpayable","type":"function"},{"inputs":[{"components":[{"internalType":"address","name":"sender","type":"address"},{"internalType":"uint256","name":"nonce","type":"uint256"},{"internalType":"bytes","name":"initCode","type":"bytes"},{"internalType":"bytes","name":"callData","type":"bytes"},{"internalType":"bytes32","name":"accountGasLimits","type":"bytes32"},{"internalType":"uint256","name":"preVerificationGas","type":"uint256"},{"internalType":"bytes32","name":"gasFees","type":"bytes32"},{"internalType":"bytes","name":"paymasterAndData","type":"bytes"},{"internalType":"bytes","name":"signature","type":"bytes"}],"internalType":"struct PackedUserOperation[]","name":"ops","type":"tuple[]"},{"internalType":"address payable","name":"beneficiary","type":"address"}],"name":"handleOps","outputs":[],"stateMutability":"nonpayable","type":"function"},{"inputs":[{"internalType":"uint192","name":"key","type":"uint192"}],"name":"incrementNonce","outputs":[],"stateMutability":"nonpayable","type":"function"},{"inputs":[{"internalType":"bytes","name":"callData","type":"bytes"},{"components":[{"components":[{"internalType":"address","name":"sender","type":"address"},{"internalType":"uint256","name":"nonce","type":"uint256"},{"internalType":"uint256","name":"verificationGasLimit","type":"uint256"},{"internalType":"uint256","name":"callGasLimit","type":"uint256"},{"internalType":"uint256","name":"paymasterVerificationGasLimit","type":"uint256"},{"internalType":"uint256","name":"paymasterPostOpGasLimit","type":"uint256"},{"internalType":"uint256","name":"preVerificationGas","type":"uint256"},{"internalType":"address","name":"paymaster","type":"address"},{"internalType":"uint256","name":"maxFeePerGas","type":"uint256"},{"internalType":"uint256","name":"maxPriorityFeePerGas","type":"uint256"}],"internalType":"struct EntryPoint.MemoryUserOp","name":"mUserOp","type":"tuple"},{"internalType":"bytes32","name":"userOpHash","type":"bytes32"},{"internalType":"uint256","name":"prefund","type":"uint256"},{"internalType":"uint256","name":"contextOffset","type":"uint256"},{"internalType":"uint256","name":"preOpGas","type":"uint256"}],"internalType":"struct EntryPoint.UserOpInfo","name":"opInfo","type":"tuple"},{"internalType":"bytes","name":"context","type":"bytes"}],"name":"innerHandleOp","outputs":[{"internalType":"uint256","name":"actualGasCost","type":"uint256"}],"stateMutability":"nonpayable","type":"function"},{"inputs":[{"internalType":"address","name":"","type":"address"},{"internalType":"uint192","name":"","type":"uint192"}],"name":"nonceSequenceNumber","outputs":[{"internalType":"uint256","name":"","type":"uint256"}],"stateMutability":"view","type":"function"},{"inputs":[{"internalType":"bytes4","name":"interfaceId","type":"bytes4"}],"name":"supportsInterface","outputs":[{"internalType":"bool","name":"","type":"bool"}],"stateMutability":"view","type":"function"},{"inputs":[],"name":"unlockStake","outputs":[],"stateMutability":"nonpayable","type":"function"},{"inputs":[{"internalType":"address payable","name":"withdrawAddress","type":"address"}],"name":"withdrawStake","outputs":[],"stateMutability":"nonpayable","type":"function"},{"inputs":[{"internalType":"address payable","name":"withdrawAddress","type":"address"},{"internalType":"uint256","name":"withdrawAmount","type":"uint256"}],"name":"withdrawTo","outputs":[],"stateMutability":"nonpayable","type":"function"},{"stateMutability":"payable","type":"receive"}],"evm":{"bytecode":{"linkReferences":{},"object":"60a08060405234620000825760016002556101df8181016001600160401b038111838210176200006c57829162003f26833903906000f080156200006057608052604051613e9e9081620000888239608051818181610d22015261324b0152f35b6040513d6000823e3d90fd5b634e487b7160e01b600052604160045260246000fd5b600080fdfe60806040526004361015610024575b361561001957600080fd5b61002233612748565b005b60003560e01c806242dc5314611b0057806301ffc9a7146119ae5780630396cb60146116765780630bd28e3b146115fa5780631b2e01b814611566578063205c2878146113d157806322cdde4c1461136b57806335567e1a146112b35780635287ce12146111a557806370a0823114611140578063765e827f14610e82578063850aaf6214610dc35780639b249f6914610c74578063b760faf914610c3a578063bb9fe6bf14610a68578063c23a5cea146107c4578063dbed18e0146101a15763fc7e286d0361000e573461019c5760207ffffffffffffffffffffffffffffffffffffffffffffffffffffffffffffffffc36011261019c5773ffffffffffffffffffffffffffffffffffffffff61013a61229f565b16600052600060205260a0604060002065ffffffffffff6001825492015460405192835260ff8116151560208401526dffffffffffffffffffffffffffff8160081c16604084015263ffffffff8160781c16606084015260981c166080820152f35b600080fd5b3461019c576101af36612317565b906101b86129bd565b60009160005b82811061056f57506101d08493612588565b6000805b8481106102fc5750507fbb47ee3e183a558b1a2ff0874b079f3fc5478b7454eacf2bfc5af2ff5878f972600080a16000809360005b81811061024757610240868660007f575ff3acadd5ab348fe1855e217e0f3678f8d767d7494c9f9fefbee2e17cca4d8180a2613ba2565b6001600255005b6102a261025582848a612796565b73ffffffffffffffffffffffffffffffffffffffff6102766020830161282a565b167f575ff3acadd5ab348fe1855e217e0f3678f8d767d7494c9f9fefbee2e17cca4d600080a2806127d6565b906000915b8083106102b957505050600101610209565b909194976102f36102ed6001926102e78c8b6102e0826102da8e8b8d61269d565b9261265a565b5191613597565b90612409565b99612416565b950191906102a7565b6020610309828789612796565b61031f61031682806127d6565b9390920161282a565b9160009273ffffffffffffffffffffffffffffffffffffffff8091165b8285106103505750505050506001016101d4565b909192939561037f83610378610366848c61265a565b516103728b898b61269d565b856129f6565b9290613dd2565b9116840361050a576104a5576103958491613dd2565b9116610440576103b5576103aa600191612416565b96019392919061033c565b60a487604051907f220266b6000000000000000000000000000000000000000000000000000000008252600482015260406024820152602160448201527f41413332207061796d61737465722065787069726564206f72206e6f7420647560648201527f65000000000000000000000000000000000000000000000000000000000000006084820152fd5b608488604051907f220266b6000000000000000000000000000000000000000000000000000000008252600482015260406024820152601460448201527f41413334207369676e6174757265206572726f720000000000000000000000006064820152fd5b608488604051907f220266b6000000000000000000000000000000000000000000000000000000008252600482015260406024820152601760448201527f414132322065787069726564206f72206e6f74206475650000000000000000006064820152fd5b608489604051907f220266b6000000000000000000000000000000000000000000000000000000008252600482015260406024820152601460448201527f41413234207369676e6174757265206572726f720000000000000000000000006064820152fd5b61057a818487612796565b9361058585806127d6565b919095602073ffffffffffffffffffffffffffffffffffffffff6105aa82840161282a565b1697600192838a1461076657896105da575b5050505060019293949550906105d191612409565b939291016101be565b8060406105e892019061284b565b918a3b1561019c57929391906040519485937f2dd8113300000000000000000000000000000000000000000000000000000000855288604486016040600488015252606490818601918a60051b8701019680936000915b8c83106106e657505050505050838392610684927ffffffffffffffffffffffffffffffffffffffffffffffffffffffffffffffffc8560009803016024860152612709565b03818a5afa90816106d7575b506106c657602486604051907f86a9f7500000000000000000000000000000000000000000000000000000000082526004820152fd5b93945084936105d1600189806105bc565b6106e0906121bd565b88610690565b91939596977fffffffffffffffffffffffffffffffffffffffffffffffffffffffffffffff9c908a9294969a0301865288357ffffffffffffffffffffffffffffffffffffffffffffffffffffffffffffffee18336030181121561019c57836107538793858394016128ec565b9a0196019301909189979695949261063f565b606483604051907f08c379a00000000000000000000000000000000000000000000000000000000082526004820152601760248201527f4141393620696e76616c69642061676772656761746f720000000000000000006044820152fd5b3461019c576020807ffffffffffffffffffffffffffffffffffffffffffffffffffffffffffffffffc36011261019c576107fc61229f565b33600052600082526001604060002001908154916dffffffffffffffffffffffffffff8360081c16928315610a0a5765ffffffffffff8160981c1680156109ac57421061094e5760009373ffffffffffffffffffffffffffffffffffffffff859485947fffffffffffffff000000000000000000000000000000000000000000000000ff86951690556040517fb7c918e0e249f999e965cafeb6c664271b3f4317d296461500e71da39f0cbda33391806108da8786836020909392919373ffffffffffffffffffffffffffffffffffffffff60408201951681520152565b0390a2165af16108e8612450565b50156108f057005b606490604051907f08c379a00000000000000000000000000000000000000000000000000000000082526004820152601860248201527f6661696c656420746f207769746864726177207374616b6500000000000000006044820152fd5b606485604051907f08c379a00000000000000000000000000000000000000000000000000000000082526004820152601b60248201527f5374616b65207769746864726177616c206973206e6f742064756500000000006044820152fd5b606486604051907f08c379a00000000000000000000000000000000000000000000000000000000082526004820152601d60248201527f6d7573742063616c6c20756e6c6f636b5374616b6528292066697273740000006044820152fd5b606485604051907f08c379a00000000000000000000000000000000000000000000000000000000082526004820152601460248201527f4e6f207374616b6520746f2077697468647261770000000000000000000000006044820152fd5b3461019c5760007ffffffffffffffffffffffffffffffffffffffffffffffffffffffffffffffffc36011261019c573360005260006020526001604060002001805463ffffffff8160781c16908115610bdc5760ff1615610b7e5765ffffffffffff908142160191818311610b4f5780547fffffffffffffff000000000000ffffffffffffffffffffffffffffffffffff001678ffffffffffff00000000000000000000000000000000000000609885901b161790556040519116815233907ffa9b3c14cc825c412c9ed81b3ba365a5b459439403f18829e572ed53a4180f0a90602090a2005b7f4e487b7100000000000000000000000000000000000000000000000000000000600052601160045260246000fd5b60646040517f08c379a000000000000000000000000000000000000000000000000000000000815260206004820152601160248201527f616c726561647920756e7374616b696e670000000000000000000000000000006044820152fd5b60646040517f08c379a000000000000000000000000000000000000000000000000000000000815260206004820152600a60248201527f6e6f74207374616b6564000000000000000000000000000000000000000000006044820152fd5b60207ffffffffffffffffffffffffffffffffffffffffffffffffffffffffffffffffc36011261019c57610022610c6f61229f565b612748565b3461019c5760207ffffffffffffffffffffffffffffffffffffffffffffffffffffffffffffffffc36011261019c5760043567ffffffffffffffff811161019c576020610cc8610d1b9236906004016122c2565b919073ffffffffffffffffffffffffffffffffffffffff9260405194859283927f570e1a360000000000000000000000000000000000000000000000000000000084528560048501526024840191612709565b03816000857f0000000000000000000000000000000000000000000000000000000000000000165af1908115610db757602492600092610d86575b50604051917f6ca7b806000000000000000000000000000000000000000000000000000000008352166004820152fd5b610da991925060203d602011610db0575b610da181836121ed565b8101906126dd565b9083610d56565b503d610d97565b6040513d6000823e3d90fd5b3461019c5760407ffffffffffffffffffffffffffffffffffffffffffffffffffffffffffffffffc36011261019c57610dfa61229f565b60243567ffffffffffffffff811161019c57600091610e1e839236906004016122c2565b90816040519283928337810184815203915af4610e39612450565b90610e7e6040519283927f99410554000000000000000000000000000000000000000000000000000000008452151560048401526040602484015260448301906123c6565b0390fd5b3461019c57610e9036612317565b610e9b9291926129bd565b610ea483612588565b60005b848110610f1c57506000927fbb47ee3e183a558b1a2ff0874b079f3fc5478b7454eacf2bfc5af2ff5878f972600080a16000915b858310610eec576102408585613ba2565b909193600190610f12610f0087898761269d565b610f0a888661265a565b519088613597565b0194019190610edb565b610f47610f40610f2e8385979561265a565b51610f3a84898761269d565b846129f6565b9190613dd2565b73ffffffffffffffffffffffffffffffffffffffff929183166110db5761107657610f7190613dd2565b911661101157610f8657600101929092610ea7565b60a490604051907f220266b6000000000000000000000000000000000000000000000000000000008252600482015260406024820152602160448201527f41413332207061796d61737465722065787069726564206f72206e6f7420647560648201527f65000000000000000000000000000000000000000000000000000000000000006084820152fd5b608482604051907f220266b6000000000000000000000000000000000000000000000000000000008252600482015260406024820152601460448201527f41413334207369676e6174757265206572726f720000000000000000000000006064820152fd5b608483604051907f220266b6000000000000000000000000000000000000000000000000000000008252600482015260406024820152601760448201527f414132322065787069726564206f72206e6f74206475650000000000000000006064820152fd5b608484604051907f220266b6000000000000000000000000000000000000000000000000000000008252600482015260406024820152601460448201527f41413234207369676e6174757265206572726f720000000000000000000000006064820152fd5b3461019c5760207ffffffffffffffffffffffffffffffffffffffffffffffffffffffffffffffffc36011261019c5773ffffffffffffffffffffffffffffffffffffffff61118c61229f565b1660005260006020526020604060002054604051908152f35b3461019c5760207ffffffffffffffffffffffffffffffffffffffffffffffffffffffffffffffffc36011261019c5773ffffffffffffffffffffffffffffffffffffffff6111f161229f565b6000608060405161120181612155565b828152826020820152826040820152826060820152015216600052600060205260a06040600020608060405161123681612155565b6001835493848352015490602081019060ff8316151582526dffffffffffffffffffffffffffff60408201818560081c16815263ffffffff936060840193858760781c16855265ffffffffffff978891019660981c1686526040519788525115156020880152511660408601525116606084015251166080820152f35b3461019c5760407ffffffffffffffffffffffffffffffffffffffffffffffffffffffffffffffffc36011261019c5760206112ec61229f565b73ffffffffffffffffffffffffffffffffffffffff6113096122f0565b911660005260018252604060002077ffffffffffffffffffffffffffffffffffffffffffffffff821660005282526040600020547fffffffffffffffffffffffffffffffffffffffffffffffff00000000000000006040519260401b16178152f35b3461019c577ffffffffffffffffffffffffffffffffffffffffffffffffffffffffffffffffc60208136011261019c576004359067ffffffffffffffff821161019c5761012090823603011261019c576113c9602091600401612480565b604051908152f35b3461019c5760407ffffffffffffffffffffffffffffffffffffffffffffffffffffffffffffffffc36011261019c5761140861229f565b60243590336000526000602052604060002090815491828411611508576000808573ffffffffffffffffffffffffffffffffffffffff8295839561144c848a612443565b90556040805173ffffffffffffffffffffffffffffffffffffffff831681526020810185905233917fd1c19fbcd4551a5edfb66d43d2e337c04837afda3482b42bdf569a8fccdae5fb91a2165af16114a2612450565b50156114aa57005b60646040517f08c379a000000000000000000000000000000000000000000000000000000000815260206004820152601260248201527f6661696c656420746f20776974686472617700000000000000000000000000006044820152fd5b60646040517f08c379a000000000000000000000000000000000000000000000000000000000815260206004820152601960248201527f576974686472617720616d6f756e7420746f6f206c61726765000000000000006044820152fd5b3461019c5760407ffffffffffffffffffffffffffffffffffffffffffffffffffffffffffffffffc36011261019c5761159d61229f565b73ffffffffffffffffffffffffffffffffffffffff6115ba6122f0565b9116600052600160205277ffffffffffffffffffffffffffffffffffffffffffffffff604060002091166000526020526020604060002054604051908152f35b3461019c5760207ffffffffffffffffffffffffffffffffffffffffffffffffffffffffffffffffc36011261019c5760043577ffffffffffffffffffffffffffffffffffffffffffffffff811680910361019c5733600052600160205260406000209060005260205260406000206116728154612416565b9055005b6020807ffffffffffffffffffffffffffffffffffffffffffffffffffffffffffffffffc36011261019c5760043563ffffffff9182821680920361019c5733600052600081526040600020928215611950576001840154908160781c1683106118f2576116f86dffffffffffffffffffffffffffff9182349160081c16612409565b93841561189457818511611836579065ffffffffffff61180592546040519061172082612155565b8152848101926001845260408201908816815260608201878152600160808401936000855233600052600089526040600020905181550194511515917fffffffffffffffffffffffffff0000000000000000000000000000000000000060ff72ffffffff0000000000000000000000000000006effffffffffffffffffffffffffff008954945160081b16945160781b1694169116171717835551167fffffffffffffff000000000000ffffffffffffffffffffffffffffffffffffff78ffffffffffff0000000000000000000000000000000000000083549260981b169116179055565b6040519283528201527fa5ae833d0bb1dcd632d98a8b70973e8516812898e19bf27b70071ebc8dc52c0160403392a2005b606483604051907f08c379a00000000000000000000000000000000000000000000000000000000082526004820152600e60248201527f7374616b65206f766572666c6f770000000000000000000000000000000000006044820152fd5b606483604051907f08c379a00000000000000000000000000000000000000000000000000000000082526004820152601260248201527f6e6f207374616b652073706563696669656400000000000000000000000000006044820152fd5b606482604051907f08c379a00000000000000000000000000000000000000000000000000000000082526004820152601c60248201527f63616e6e6f7420646563726561736520756e7374616b652074696d65000000006044820152fd5b606482604051907f08c379a00000000000000000000000000000000000000000000000000000000082526004820152601a60248201527f6d757374207370656369667920756e7374616b652064656c61790000000000006044820152fd5b3461019c5760207ffffffffffffffffffffffffffffffffffffffffffffffffffffffffffffffffc36011261019c576004357fffffffff00000000000000000000000000000000000000000000000000000000811680910361019c57807f60fc6b6e0000000000000000000000000000000000000000000000000000000060209214908115611ad6575b8115611aac575b8115611a82575b8115611a58575b506040519015158152f35b7f01ffc9a70000000000000000000000000000000000000000000000000000000091501482611a4d565b7f3e84f0210000000000000000000000000000000000000000000000000000000081149150611a46565b7fcf28ef970000000000000000000000000000000000000000000000000000000081149150611a3f565b7f915074d80000000000000000000000000000000000000000000000000000000081149150611a38565b3461019c576102007ffffffffffffffffffffffffffffffffffffffffffffffffffffffffffffffffc36011261019c5767ffffffffffffffff60043581811161019c573660238201121561019c57611b62903690602481600401359101612268565b7fffffffffffffffffffffffffffffffffffffffffffffffffffffffffffffffdc3601906101c0821261019c5761014060405192611b9f84612155565b1261019c5760405192611bb1846121a0565b60243573ffffffffffffffffffffffffffffffffffffffff8116810361019c578452602093604435858201526064356040820152608435606082015260a435608082015260c43560a082015260e43560c08201526101043573ffffffffffffffffffffffffffffffffffffffff8116810361019c5760e08201526101243561010082015261014435610120820152835261016435848401526101843560408401526101a43560608401526101c43560808401526101e43590811161019c57611c7d9036906004016122c2565b905a3033036120f7578451606081015194603f5a0260061c61271060a0840151880101116120ce5760009581519182611ff0575b5050505090611ccb915a9003608086015101923691612268565b925a90600094815193611cdd85613cc7565b9173ffffffffffffffffffffffffffffffffffffffff60e087015116908115600014611ea857505073ffffffffffffffffffffffffffffffffffffffff855116935b5a9003019360a06060820151910151016080830151850390818111611e94575b5050830293604082015192858410600014611dcd57506003811015611da057600203611d79576113c9939450611d7481613d60565b613cf1565b85857fdeadaa51000000000000000000000000000000000000000000000000000000008152fd5b6024867f4e487b710000000000000000000000000000000000000000000000000000000081526021600452fd5b85611ddd92969793940390613c93565b506003841015611e6757507f49628fd1471006c1482da88028e9ce4dbb080b815c9b0344d39e5a8e6ec1419f60808683015192519473ffffffffffffffffffffffffffffffffffffffff865116948873ffffffffffffffffffffffffffffffffffffffff60e0890151169701519160405192835215898301528760408301526060820152a46113c9565b807f4e487b7100000000000000000000000000000000000000000000000000000000602492526021600452fd5b6064919003600a0204909301928780611d3f565b819591958151611eba575b5050611d1f565b6003891015611fc1576002890315611eb35760a088015191813b1561019c57611f24928a600080946040518097819682957f7c627b2100000000000000000000000000000000000000000000000000000000845260048401526080602484015260848301906123c6565b8b8b0260448301528b60648301520393f19081611fad575b50611fa65787893d610800808211611f9e575b506040519282828501016040528184528284013e610e7e6040519283927fad7954bc000000000000000000000000000000000000000000000000000000008452600484015260248301906123c6565b905083611f4f565b8980611eb3565b611fb89199506121bd565b6000978a611f3c565b7f4e487b7100000000000000000000000000000000000000000000000000000000600052602160045260246000fd5b91600092918380938c73ffffffffffffffffffffffffffffffffffffffff885116910192f115612023575b808080611cb1565b611ccb929194503d6108008082116120c6575b5060405190888183010160405280825260008983013e805161205f575b5050600193909161201b565b7f1c4fada7374c0a9ee8841fc38afe82932dc0f8e69012e927f061a8bae611a20188880151918973ffffffffffffffffffffffffffffffffffffffff8551169401516120bc604051928392835260408d84015260408301906123c6565b0390a38680612053565b905088612036565b877fdeaddead000000000000000000000000000000000000000000000000000000006000526000fd5b606486604051907f08c379a00000000000000000000000000000000000000000000000000000000082526004820152601760248201527f4141393220696e7465726e616c2063616c6c206f6e6c790000000000000000006044820152fd5b60a0810190811067ffffffffffffffff82111761217157604052565b7f4e487b7100000000000000000000000000000000000000000000000000000000600052604160045260246000fd5b610140810190811067ffffffffffffffff82111761217157604052565b67ffffffffffffffff811161217157604052565b6060810190811067ffffffffffffffff82111761217157604052565b90601f7fffffffffffffffffffffffffffffffffffffffffffffffffffffffffffffffe0910116810190811067ffffffffffffffff82111761217157604052565b67ffffffffffffffff811161217157601f017fffffffffffffffffffffffffffffffffffffffffffffffffffffffffffffffe01660200190565b9291926122748261222e565b9161228260405193846121ed565b82948184528183011161019c578281602093846000960137010152565b6004359073ffffffffffffffffffffffffffffffffffffffff8216820361019c57565b9181601f8401121561019c5782359167ffffffffffffffff831161019c576020838186019501011161019c57565b6024359077ffffffffffffffffffffffffffffffffffffffffffffffff8216820361019c57565b9060407ffffffffffffffffffffffffffffffffffffffffffffffffffffffffffffffffc83011261019c5760043567ffffffffffffffff9283821161019c578060238301121561019c57816004013593841161019c5760248460051b8301011161019c57602401919060243573ffffffffffffffffffffffffffffffffffffffff8116810361019c5790565b60005b8381106123b65750506000910152565b81810151838201526020016123a6565b907fffffffffffffffffffffffffffffffffffffffffffffffffffffffffffffffe0601f602093612402815180928187528780880191016123a3565b0116010190565b91908201809211610b4f57565b7fffffffffffffffffffffffffffffffffffffffffffffffffffffffffffffffff8114610b4f5760010190565b91908203918211610b4f57565b3d1561247b573d906124618261222e565b9161246f60405193846121ed565b82523d6000602084013e565b606090565b604061248e8183018361284b565b90818351918237206124a3606084018461284b565b90818451918237209260c06124bb60e083018361284b565b908186519182372091845195602087019473ffffffffffffffffffffffffffffffffffffffff833516865260208301358789015260608801526080870152608081013560a087015260a081013582870152013560e08501526101009081850152835261012083019167ffffffffffffffff918484108385111761217157838252845190206101408501908152306101608601524661018086015260608452936101a00191821183831017612171575251902090565b67ffffffffffffffff81116121715760051b60200190565b9061259282612570565b6040906125a260405191826121ed565b8381527fffffffffffffffffffffffffffffffffffffffffffffffffffffffffffffffe06125d08295612570565b019160005b8381106125e25750505050565b60209082516125f081612155565b83516125fb816121a0565b600081526000849181838201528187820152816060818184015260809282848201528260a08201528260c08201528260e082015282610100820152826101208201528652818587015281898701528501528301528286010152016125d5565b805182101561266e5760209160051b010190565b7f4e487b7100000000000000000000000000000000000000000000000000000000600052603260045260246000fd5b919081101561266e5760051b810135907ffffffffffffffffffffffffffffffffffffffffffffffffffffffffffffffee18136030182121561019c570190565b9081602091031261019c575173ffffffffffffffffffffffffffffffffffffffff8116810361019c5790565b601f82602094937fffffffffffffffffffffffffffffffffffffffffffffffffffffffffffffffe0938186528686013760008582860101520116010190565b7f2da466a7b24304f47e87fa2e1e5a81b9831ce54fec19055ce277ca2f39ba42c4602073ffffffffffffffffffffffffffffffffffffffff61278a3485613c93565b936040519485521692a2565b919081101561266e5760051b810135907fffffffffffffffffffffffffffffffffffffffffffffffffffffffffffffffa18136030182121561019c570190565b9035907fffffffffffffffffffffffffffffffffffffffffffffffffffffffffffffffe18136030182121561019c570180359067ffffffffffffffff821161019c57602001918160051b3603831361019c57565b3573ffffffffffffffffffffffffffffffffffffffff8116810361019c5790565b9035907fffffffffffffffffffffffffffffffffffffffffffffffffffffffffffffffe18136030182121561019c570180359067ffffffffffffffff821161019c5760200191813603831361019c57565b90357fffffffffffffffffffffffffffffffffffffffffffffffffffffffffffffffe18236030181121561019c57016020813591019167ffffffffffffffff821161019c57813603831361019c57565b61012091813573ffffffffffffffffffffffffffffffffffffffff811680910361019c576129626129476129ba9561299b93855260208601356020860152612937604087018761289c565b9091806040880152860191612709565b612954606086018661289c565b908583036060870152612709565b6080840135608084015260a084013560a084015260c084013560c084015261298d60e085018561289c565b9084830360e0860152612709565b916129ac610100918281019061289c565b929091818503910152612709565b90565b60028054146129cc5760028055565b60046040517f3ee5aeb5000000000000000000000000000000000000000000000000000000008152fd5b926000905a93805194843573ffffffffffffffffffffffffffffffffffffffff811680910361019c5786526020850135602087015260808501356fffffffffffffffffffffffffffffffff90818116606089015260801c604088015260a086013560c088015260c086013590811661010088015260801c610120870152612a8060e086018661284b565b801561357b576034811061351d578060141161019c578060241161019c5760341161019c57602481013560801c60a0880152601481013560801c60808801523560601c60e08701525b612ad285612480565b60208301526040860151946effffffffffffffffffffffffffffff8660c08901511760608901511760808901511760a0890151176101008901511761012089015117116134bf57604087015160608801510160808801510160a08801510160c0880151016101008801510296835173ffffffffffffffffffffffffffffffffffffffff81511690612b66604085018561284b565b806131e4575b505060e0015173ffffffffffffffffffffffffffffffffffffffff1690600082156131ac575b6020612bd7918b828a01516000868a604051978896879586937f19822f7c00000000000000000000000000000000000000000000000000000000855260048501613db0565b0393f160009181613178575b50612c8b573d8c610800808311612c83575b50604051916020818401016040528083526000602084013e610e7e6040519283927f65c8fd4d000000000000000000000000000000000000000000000000000000008452600484015260606024840152600d60648401527f4141323320726576657274656400000000000000000000000000000000000000608484015260a0604484015260a48301906123c6565b915082612bf5565b9a92939495969798999a91156130f2575b509773ffffffffffffffffffffffffffffffffffffffff835116602084015190600052600160205260406000208160401c60005260205267ffffffffffffffff604060002091825492612cee84612416565b9055160361308d575a8503116130285773ffffffffffffffffffffffffffffffffffffffff60e0606093015116612d42575b509060a09184959697986040608096015260608601520135905a900301910152565b969550505a9683519773ffffffffffffffffffffffffffffffffffffffff60e08a01511680600052600060205260406000208054848110612fc3576080612dcd9a9b9c600093878094039055015192602089015183604051809d819582947f52b7512c0000000000000000000000000000000000000000000000000000000084528c60048501613db0565b039286f1978860009160009a612f36575b50612e86573d8b610800808311612e7e575b50604051916020818401016040528083526000602084013e610e7e6040519283927f65c8fd4d000000000000000000000000000000000000000000000000000000008452600484015260606024840152600d60648401527f4141333320726576657274656400000000000000000000000000000000000000608484015260a0604484015260a48301906123c6565b915082612df0565b9991929394959697989998925a900311612eab57509096959094939291906080612d20565b60a490604051907f220266b6000000000000000000000000000000000000000000000000000000008252600482015260406024820152602760448201527f41413336206f766572207061796d6173746572566572696669636174696f6e4760648201527f61734c696d6974000000000000000000000000000000000000000000000000006084820152fd5b915098503d90816000823e612f4b82826121ed565b604081838101031261019c5780519067ffffffffffffffff821161019c57828101601f83830101121561019c578181015191612f868361222e565b93612f9460405195866121ed565b838552820160208483850101011161019c57602092612fba9184808701918501016123a3565b01519838612dde565b60848b604051907f220266b6000000000000000000000000000000000000000000000000000000008252600482015260406024820152601e60448201527f41413331207061796d6173746572206465706f73697420746f6f206c6f7700006064820152fd5b608490604051907f220266b6000000000000000000000000000000000000000000000000000000008252600482015260406024820152601e60448201527f41413236206f76657220766572696669636174696f6e4761734c696d697400006064820152fd5b608482604051907f220266b6000000000000000000000000000000000000000000000000000000008252600482015260406024820152601a60448201527f4141323520696e76616c6964206163636f756e74206e6f6e63650000000000006064820152fd5b600052600060205260406000208054808c11613113578b9003905538612c9c565b608484604051907f220266b6000000000000000000000000000000000000000000000000000000008252600482015260406024820152601760448201527f41413231206469646e2774207061792070726566756e640000000000000000006064820152fd5b9091506020813d6020116131a4575b81613194602093836121ed565b8101031261019c57519038612be3565b3d9150613187565b508060005260006020526040600020548a81116000146131d75750612bd7602060005b915050612b92565b6020612bd7918c036131cf565b833b61345a57604088510151602060405180927f570e1a360000000000000000000000000000000000000000000000000000000082528260048301528160008161323260248201898b612709565b039273ffffffffffffffffffffffffffffffffffffffff7f00000000000000000000000000000000000000000000000000000000000000001690f1908115610db75760009161343b575b5073ffffffffffffffffffffffffffffffffffffffff811680156133d6578503613371573b1561330c5760141161019c5773ffffffffffffffffffffffffffffffffffffffff9183887fd51a9c61267aa6196961883ecf5ff2da6619c37dac0fa92122513fb32c032d2d604060e0958787602086015195510151168251913560601c82526020820152a391612b6c565b60848d604051907f220266b6000000000000000000000000000000000000000000000000000000008252600482015260406024820152602060448201527f4141313520696e6974436f6465206d757374206372656174652073656e6465726064820152fd5b60848e604051907f220266b6000000000000000000000000000000000000000000000000000000008252600482015260406024820152602060448201527f4141313420696e6974436f6465206d7573742072657475726e2073656e6465726064820152fd5b60848f604051907f220266b6000000000000000000000000000000000000000000000000000000008252600482015260406024820152601b60448201527f4141313320696e6974436f6465206661696c6564206f72204f4f4700000000006064820152fd5b613454915060203d602011610db057610da181836121ed565b3861327c565b60848d604051907f220266b6000000000000000000000000000000000000000000000000000000008252600482015260406024820152601f60448201527f414131302073656e64657220616c726561647920636f6e7374727563746564006064820152fd5b60646040517f08c379a000000000000000000000000000000000000000000000000000000000815260206004820152601860248201527f41413934206761732076616c756573206f766572666c6f7700000000000000006044820152fd5b60646040517f08c379a000000000000000000000000000000000000000000000000000000000815260206004820152601d60248201527f4141393320696e76616c6964207061796d6173746572416e64446174610000006044820152fd5b5050600060e087015260006080870152600060a0870152612ac9565b9092915a906060810151916040928351967fffffffff00000000000000000000000000000000000000000000000000000000886135d7606084018461284b565b600060038211613b9a575b7f8dd7712f0000000000000000000000000000000000000000000000000000000094168403613a3f5750505061379d6000926136b292602088015161363a8a5193849360208501528b602485015260648401906128ec565b90604483015203906136727fffffffffffffffffffffffffffffffffffffffffffffffffffffffffffffffe0928381018352826121ed565b61379189519485927e42dc5300000000000000000000000000000000000000000000000000000000602085015261020060248501526102248401906123c6565b613760604484018b60806101a091805173ffffffffffffffffffffffffffffffffffffffff808251168652602082015160208701526040820151604087015260608201516060870152838201518487015260a082015160a087015260c082015160c087015260e08201511660e0860152610100808201519086015261012080910151908501526020810151610140850152604081015161016085015260608101516101808501520151910152565b7fffffffffffffffffffffffffffffffffffffffffffffffffffffffffffffffdc83820301610204840152876123c6565b039081018352826121ed565b6020918183809351910182305af1600051988652156137bf575b505050505050565b909192939495965060003d8214613a35575b7fdeaddead00000000000000000000000000000000000000000000000000000000810361385b57608487878051917f220266b600000000000000000000000000000000000000000000000000000000835260048301526024820152600f60448201527f41413935206f7574206f662067617300000000000000000000000000000000006064820152fd5b7fdeadaa5100000000000000000000000000000000000000000000000000000000919293949650146000146138c5575050906138a961389e6138b8935a90612443565b608085015190612409565b9083015183611d748295613d60565b905b3880808080806137b7565b9161395490838693979601518351907ff62676f440ff169a3a9afdbf812e89e7f95975ee8e5c31214ffdef631c5f479273ffffffffffffffffffffffffffffffffffffffff96808885511694015161394a3d610800808211613a2d575b508b519084818301018d5280825260008583013e8b805194859485528401528b8301906123c6565b0390a35a90612443565b906139656080820192835190612409565b955a9260009783519561397787613cc7565b938160e0890151168015600014613a19575050865116945b5a9003019460a06060820151910151019051850390818111613a05575b5050830293810151918483106000146139db575085611da0576139d593949550611d7481613d60565b906138ba565b6139ef908588949893959697980390613c93565b50611e6757509082613a0092613cf1565b6139d5565b6064919003600a02049093019238806139ac565b9096915095511561398f576000995061398f565b905038613922565b8181803e516137d1565b613b92945082935090613a87917e42dc53000000000000000000000000000000000000000000000000000000006020613b669501526102006024860152610224850191612709565b613b35604484018860806101a091805173ffffffffffffffffffffffffffffffffffffffff808251168652602082015160208701526040820151604087015260608201516060870152838201518487015260a082015160a087015260c082015160c087015260e08201511660e0860152610100808201519086015261012080910151908501526020810151610140850152604081015161016085015260608101516101808501520151910152565b7fffffffffffffffffffffffffffffffffffffffffffffffffffffffffffffffdc83820301610204840152846123c6565b037fffffffffffffffffffffffffffffffffffffffffffffffffffffffffffffffe081018952886121ed565b60008761379d565b5081356135e2565b73ffffffffffffffffffffffffffffffffffffffff168015613c3557600080809381935af1613bcf612450565b5015613bd757565b60646040517f08c379a000000000000000000000000000000000000000000000000000000000815260206004820152601f60248201527f41413931206661696c65642073656e6420746f2062656e6566696369617279006044820152fd5b60646040517f08c379a000000000000000000000000000000000000000000000000000000000815260206004820152601860248201527f4141393020696e76616c69642062656e656669636961727900000000000000006044820152fd5b73ffffffffffffffffffffffffffffffffffffffff166000526000602052613cc16040600020918254612409565b80915590565b610120610100820151910151808214613ced57480180821015613ce8575090565b905090565b5090565b9190917f49628fd1471006c1482da88028e9ce4dbb080b815c9b0344d39e5a8e6ec1419f6080602083015192519473ffffffffffffffffffffffffffffffffffffffff946020868851169660e089015116970151916040519283526000602084015260408301526060820152a4565b60208101519051907f67b4fa9642f42120bf031f3051d1824b0fe25627945b27b8a6a65d5761d5482e60208073ffffffffffffffffffffffffffffffffffffffff855116940151604051908152a3565b613dc8604092959493956060835260608301906128ec565b9460208201520152565b8015613e5f57600060408051613de7816121d1565b828152826020820152015273ffffffffffffffffffffffffffffffffffffffff811690604065ffffffffffff91828160a01c16908115613e57575b60d01c92825191613e32836121d1565b8583528460208401521691829101524211908115613e4f57509091565b905042109091565b839150613e22565b5060009060009056fea264697066735822122059ab055664e76846a8f32d8f26eb5284f69195bebfa91d17648abbb37e9a46c664736f6c6343000817003360808060405234610016576101c3908161001c8239f35b600080fdfe6080600436101561000f57600080fd5b6000803560e01c63570e1a361461002557600080fd5b3461018a5760207ffffffffffffffffffffffffffffffffffffffffffffffffffffffffffffffffc36011261018a576004359167ffffffffffffffff9081841161018657366023850112156101865783600401358281116101825736602482870101116101825780601411610182577fffffffffffffffffffffffffffffffffffffffffffffffffffffffffffffffec810192808411610155577fffffffffffffffffffffffffffffffffffffffffffffffffffffffffffffffe0603f81600b8501160116830190838210908211176101555792846024819482600c60209a968b9960405286845289840196603889018837830101525193013560601c5af1908051911561014d575b5073ffffffffffffffffffffffffffffffffffffffff60405191168152f35b90503861012e565b6024857f4e487b710000000000000000000000000000000000000000000000000000000081526041600452fd5b8380fd5b8280fd5b80fdfea26469706673582212207adef8895ad3393b02fab10a111d85ea80ff35366aa43995f4ea20e67f29200664736f6c63430008170033","opcodes":"PUSH1 0xA0 DUP1 PUSH1 0x40 MSTORE CALLVALUE PUSH3 0x82 JUMPI PUSH1 0x1 PUSH1 0x2 SSTORE PUSH2 0x1DF DUP2 DUP2 ADD PUSH1 0x1 PUSH1 0x1 PUSH1 0x40 SHL SUB DUP2 GT DUP4 DUP3 LT OR PUSH3 0x6C JUMPI DUP3 SWAP2 PUSH3 0x3F26 DUP4 CODECOPY SUB SWAP1 PUSH1 0x0 CREATE DUP1 ISZERO PUSH3 0x60 JUMPI PUSH1 0x80 MSTORE PUSH1 0x40 MLOAD PUSH2 0x3E9E SWAP1 DUP2 PUSH3 0x88 DUP3 CODECOPY PUSH1 0x80 MLOAD DUP2 DUP2 DUP2 PUSH2 0xD22 ADD MSTORE PUSH2 0x324B ADD MSTORE RETURN JUMPDEST PUSH1 0x40 MLOAD RETURNDATASIZE PUSH1 0x0 DUP3 RETURNDATACOPY RETURNDATASIZE SWAP1 REVERT JUMPDEST PUSH4 0x4E487B71 PUSH1 0xE0 SHL PUSH1 0x0 MSTORE PUSH1 0x41 PUSH1 0x4 MSTORE PUSH1 0x24 PUSH1 0x0 REVERT JUMPDEST PUSH1 0x0 DUP1 REVERT INVALID PUSH1 0x80 PUSH1 0x40 MSTORE PUSH1 0x4 CALLDATASIZE LT ISZERO PUSH2 0x24 JUMPI JUMPDEST CALLDATASIZE ISZERO PUSH2 0x19 JUMPI PUSH1 0x0 DUP1 REVERT JUMPDEST PUSH2 0x22 CALLER PUSH2 0x2748 JUMP JUMPDEST STOP JUMPDEST PUSH1 0x0 CALLDATALOAD PUSH1 0xE0 SHR DUP1 PUSH3 0x42DC53 EQ PUSH2 0x1B00 JUMPI DUP1 PUSH4 0x1FFC9A7 EQ PUSH2 0x19AE JUMPI DUP1 PUSH4 0x396CB60 EQ PUSH2 0x1676 JUMPI DUP1 PUSH4 0xBD28E3B EQ PUSH2 0x15FA JUMPI DUP1 PUSH4 0x1B2E01B8 EQ PUSH2 0x1566 JUMPI DUP1 PUSH4 0x205C2878 EQ PUSH2 0x13D1 JUMPI DUP1 PUSH4 0x22CDDE4C EQ PUSH2 0x136B JUMPI DUP1 PUSH4 0x35567E1A EQ PUSH2 0x12B3 JUMPI DUP1 PUSH4 0x5287CE12 EQ PUSH2 0x11A5 JUMPI DUP1 PUSH4 0x70A08231 EQ PUSH2 0x1140 JUMPI DUP1 PUSH4 0x765E827F EQ PUSH2 0xE82 JUMPI DUP1 PUSH4 0x850AAF62 EQ PUSH2 0xDC3 JUMPI DUP1 PUSH4 0x9B249F69 EQ PUSH2 0xC74 JUMPI DUP1 PUSH4 0xB760FAF9 EQ PUSH2 0xC3A JUMPI DUP1 PUSH4 0xBB9FE6BF EQ PUSH2 0xA68 JUMPI DUP1 PUSH4 0xC23A5CEA EQ PUSH2 0x7C4 JUMPI DUP1 PUSH4 0xDBED18E0 EQ PUSH2 0x1A1 JUMPI PUSH4 0xFC7E286D SUB PUSH2 0xE JUMPI CALLVALUE PUSH2 0x19C JUMPI PUSH1 0x20 PUSH32 0xFFFFFFFFFFFFFFFFFFFFFFFFFFFFFFFFFFFFFFFFFFFFFFFFFFFFFFFFFFFFFFFC CALLDATASIZE ADD SLT PUSH2 0x19C JUMPI PUSH20 0xFFFFFFFFFFFFFFFFFFFFFFFFFFFFFFFFFFFFFFFF PUSH2 0x13A PUSH2 0x229F JUMP JUMPDEST AND PUSH1 0x0 MSTORE PUSH1 0x0 PUSH1 0x20 MSTORE PUSH1 0xA0 PUSH1 0x40 PUSH1 0x0 KECCAK256 PUSH6 0xFFFFFFFFFFFF PUSH1 0x1 DUP3 SLOAD SWAP3 ADD SLOAD PUSH1 0x40 MLOAD SWAP3 DUP4 MSTORE PUSH1 0xFF DUP2 AND ISZERO ISZERO PUSH1 0x20 DUP5 ADD MSTORE PUSH14 0xFFFFFFFFFFFFFFFFFFFFFFFFFFFF DUP2 PUSH1 0x8 SHR AND PUSH1 0x40 DUP5 ADD MSTORE PUSH4 0xFFFFFFFF DUP2 PUSH1 0x78 SHR AND PUSH1 0x60 DUP5 ADD MSTORE PUSH1 0x98 SHR AND PUSH1 0x80 DUP3 ADD MSTORE RETURN JUMPDEST PUSH1 0x0 DUP1 REVERT JUMPDEST CALLVALUE PUSH2 0x19C JUMPI PUSH2 0x1AF CALLDATASIZE PUSH2 0x2317 JUMP JUMPDEST SWAP1 PUSH2 0x1B8 PUSH2 0x29BD JUMP JUMPDEST PUSH1 0x0 SWAP2 PUSH1 0x0 JUMPDEST DUP3 DUP2 LT PUSH2 0x56F JUMPI POP PUSH2 0x1D0 DUP5 SWAP4 PUSH2 0x2588 JUMP JUMPDEST PUSH1 0x0 DUP1 JUMPDEST DUP5 DUP2 LT PUSH2 0x2FC JUMPI POP POP PUSH32 0xBB47EE3E183A558B1A2FF0874B079F3FC5478B7454EACF2BFC5AF2FF5878F972 PUSH1 0x0 DUP1 LOG1 PUSH1 0x0 DUP1 SWAP4 PUSH1 0x0 JUMPDEST DUP2 DUP2 LT PUSH2 0x247 JUMPI PUSH2 0x240 DUP7 DUP7 PUSH1 0x0 PUSH32 0x575FF3ACADD5AB348FE1855E217E0F3678F8D767D7494C9F9FEFBEE2E17CCA4D DUP2 DUP1 LOG2 PUSH2 0x3BA2 JUMP JUMPDEST PUSH1 0x1 PUSH1 0x2 SSTORE STOP JUMPDEST PUSH2 0x2A2 PUSH2 0x255 DUP3 DUP5 DUP11 PUSH2 0x2796 JUMP JUMPDEST PUSH20 0xFFFFFFFFFFFFFFFFFFFFFFFFFFFFFFFFFFFFFFFF PUSH2 0x276 PUSH1 0x20 DUP4 ADD PUSH2 0x282A JUMP JUMPDEST AND PUSH32 0x575FF3ACADD5AB348FE1855E217E0F3678F8D767D7494C9F9FEFBEE2E17CCA4D PUSH1 0x0 DUP1 LOG2 DUP1 PUSH2 0x27D6 JUMP JUMPDEST SWAP1 PUSH1 0x0 SWAP2 JUMPDEST DUP1 DUP4 LT PUSH2 0x2B9 JUMPI POP POP POP PUSH1 0x1 ADD PUSH2 0x209 JUMP JUMPDEST SWAP1 SWAP2 SWAP5 SWAP8 PUSH2 0x2F3 PUSH2 0x2ED PUSH1 0x1 SWAP3 PUSH2 0x2E7 DUP13 DUP12 PUSH2 0x2E0 DUP3 PUSH2 0x2DA DUP15 DUP12 DUP14 PUSH2 0x269D JUMP JUMPDEST SWAP3 PUSH2 0x265A JUMP JUMPDEST MLOAD SWAP2 PUSH2 0x3597 JUMP JUMPDEST SWAP1 PUSH2 0x2409 JUMP JUMPDEST SWAP10 PUSH2 0x2416 JUMP JUMPDEST SWAP6 ADD SWAP2 SWAP1 PUSH2 0x2A7 JUMP JUMPDEST PUSH1 0x20 PUSH2 0x309 DUP3 DUP8 DUP10 PUSH2 0x2796 JUMP JUMPDEST PUSH2 0x31F PUSH2 0x316 DUP3 DUP1 PUSH2 0x27D6 JUMP JUMPDEST SWAP4 SWAP1 SWAP3 ADD PUSH2 0x282A JUMP JUMPDEST SWAP2 PUSH1 0x0 SWAP3 PUSH20 0xFFFFFFFFFFFFFFFFFFFFFFFFFFFFFFFFFFFFFFFF DUP1 SWAP2 AND JUMPDEST DUP3 DUP6 LT PUSH2 0x350 JUMPI POP POP POP POP POP PUSH1 0x1 ADD PUSH2 0x1D4 JUMP JUMPDEST SWAP1 SWAP2 SWAP3 SWAP4 SWAP6 PUSH2 0x37F DUP4 PUSH2 0x378 PUSH2 0x366 DUP5 DUP13 PUSH2 0x265A JUMP JUMPDEST MLOAD PUSH2 0x372 DUP12 DUP10 DUP12 PUSH2 0x269D JUMP JUMPDEST DUP6 PUSH2 0x29F6 JUMP JUMPDEST SWAP3 SWAP1 PUSH2 0x3DD2 JUMP JUMPDEST SWAP2 AND DUP5 SUB PUSH2 0x50A JUMPI PUSH2 0x4A5 JUMPI PUSH2 0x395 DUP5 SWAP2 PUSH2 0x3DD2 JUMP JUMPDEST SWAP2 AND PUSH2 0x440 JUMPI PUSH2 0x3B5 JUMPI PUSH2 0x3AA PUSH1 0x1 SWAP2 PUSH2 0x2416 JUMP JUMPDEST SWAP7 ADD SWAP4 SWAP3 SWAP2 SWAP1 PUSH2 0x33C JUMP JUMPDEST PUSH1 0xA4 DUP8 PUSH1 0x40 MLOAD SWAP1 PUSH32 0x220266B600000000000000000000000000000000000000000000000000000000 DUP3 MSTORE PUSH1 0x4 DUP3 ADD MSTORE PUSH1 0x40 PUSH1 0x24 DUP3 ADD MSTORE PUSH1 0x21 PUSH1 0x44 DUP3 ADD MSTORE PUSH32 0x41413332207061796D61737465722065787069726564206F72206E6F74206475 PUSH1 0x64 DUP3 ADD MSTORE PUSH32 0x6500000000000000000000000000000000000000000000000000000000000000 PUSH1 0x84 DUP3 ADD MSTORE REVERT JUMPDEST PUSH1 0x84 DUP9 PUSH1 0x40 MLOAD SWAP1 PUSH32 0x220266B600000000000000000000000000000000000000000000000000000000 DUP3 MSTORE PUSH1 0x4 DUP3 ADD MSTORE PUSH1 0x40 PUSH1 0x24 DUP3 ADD MSTORE PUSH1 0x14 PUSH1 0x44 DUP3 ADD MSTORE PUSH32 0x41413334207369676E6174757265206572726F72000000000000000000000000 PUSH1 0x64 DUP3 ADD MSTORE REVERT JUMPDEST PUSH1 0x84 DUP9 PUSH1 0x40 MLOAD SWAP1 PUSH32 0x220266B600000000000000000000000000000000000000000000000000000000 DUP3 MSTORE PUSH1 0x4 DUP3 ADD MSTORE PUSH1 0x40 PUSH1 0x24 DUP3 ADD MSTORE PUSH1 0x17 PUSH1 0x44 DUP3 ADD MSTORE PUSH32 0x414132322065787069726564206F72206E6F7420647565000000000000000000 PUSH1 0x64 DUP3 ADD MSTORE REVERT JUMPDEST PUSH1 0x84 DUP10 PUSH1 0x40 MLOAD SWAP1 PUSH32 0x220266B600000000000000000000000000000000000000000000000000000000 DUP3 MSTORE PUSH1 0x4 DUP3 ADD MSTORE PUSH1 0x40 PUSH1 0x24 DUP3 ADD MSTORE PUSH1 0x14 PUSH1 0x44 DUP3 ADD MSTORE PUSH32 0x41413234207369676E6174757265206572726F72000000000000000000000000 PUSH1 0x64 DUP3 ADD MSTORE REVERT JUMPDEST PUSH2 0x57A DUP2 DUP5 DUP8 PUSH2 0x2796 JUMP JUMPDEST SWAP4 PUSH2 0x585 DUP6 DUP1 PUSH2 0x27D6 JUMP JUMPDEST SWAP2 SWAP1 SWAP6 PUSH1 0x20 PUSH20 0xFFFFFFFFFFFFFFFFFFFFFFFFFFFFFFFFFFFFFFFF PUSH2 0x5AA DUP3 DUP5 ADD PUSH2 0x282A JUMP JUMPDEST AND SWAP8 PUSH1 0x1 SWAP3 DUP4 DUP11 EQ PUSH2 0x766 JUMPI DUP10 PUSH2 0x5DA JUMPI JUMPDEST POP POP POP POP PUSH1 0x1 SWAP3 SWAP4 SWAP5 SWAP6 POP SWAP1 PUSH2 0x5D1 SWAP2 PUSH2 0x2409 JUMP JUMPDEST SWAP4 SWAP3 SWAP2 ADD PUSH2 0x1BE JUMP JUMPDEST DUP1 PUSH1 0x40 PUSH2 0x5E8 SWAP3 ADD SWAP1 PUSH2 0x284B JUMP JUMPDEST SWAP2 DUP11 EXTCODESIZE ISZERO PUSH2 0x19C JUMPI SWAP3 SWAP4 SWAP2 SWAP1 PUSH1 0x40 MLOAD SWAP5 DUP6 SWAP4 PUSH32 0x2DD8113300000000000000000000000000000000000000000000000000000000 DUP6 MSTORE DUP9 PUSH1 0x44 DUP7 ADD PUSH1 0x40 PUSH1 0x4 DUP9 ADD MSTORE MSTORE PUSH1 0x64 SWAP1 DUP2 DUP7 ADD SWAP2 DUP11 PUSH1 0x5 SHL DUP8 ADD ADD SWAP7 DUP1 SWAP4 PUSH1 0x0 SWAP2 JUMPDEST DUP13 DUP4 LT PUSH2 0x6E6 JUMPI POP POP POP POP POP POP DUP4 DUP4 SWAP3 PUSH2 0x684 SWAP3 PUSH32 0xFFFFFFFFFFFFFFFFFFFFFFFFFFFFFFFFFFFFFFFFFFFFFFFFFFFFFFFFFFFFFFFC DUP6 PUSH1 0x0 SWAP9 SUB ADD PUSH1 0x24 DUP7 ADD MSTORE PUSH2 0x2709 JUMP JUMPDEST SUB DUP2 DUP11 GAS STATICCALL SWAP1 DUP2 PUSH2 0x6D7 JUMPI JUMPDEST POP PUSH2 0x6C6 JUMPI PUSH1 0x24 DUP7 PUSH1 0x40 MLOAD SWAP1 PUSH32 0x86A9F75000000000000000000000000000000000000000000000000000000000 DUP3 MSTORE PUSH1 0x4 DUP3 ADD MSTORE REVERT JUMPDEST SWAP4 SWAP5 POP DUP5 SWAP4 PUSH2 0x5D1 PUSH1 0x1 DUP10 DUP1 PUSH2 0x5BC JUMP JUMPDEST PUSH2 0x6E0 SWAP1 PUSH2 0x21BD JUMP JUMPDEST DUP9 PUSH2 0x690 JUMP JUMPDEST SWAP2 SWAP4 SWAP6 SWAP7 SWAP8 PUSH32 0xFFFFFFFFFFFFFFFFFFFFFFFFFFFFFFFFFFFFFFFFFFFFFFFFFFFFFFFFFFFFFF9C SWAP1 DUP11 SWAP3 SWAP5 SWAP7 SWAP11 SUB ADD DUP7 MSTORE DUP9 CALLDATALOAD PUSH32 0xFFFFFFFFFFFFFFFFFFFFFFFFFFFFFFFFFFFFFFFFFFFFFFFFFFFFFFFFFFFFFEE1 DUP4 CALLDATASIZE SUB ADD DUP2 SLT ISZERO PUSH2 0x19C JUMPI DUP4 PUSH2 0x753 DUP8 SWAP4 DUP6 DUP4 SWAP5 ADD PUSH2 0x28EC JUMP JUMPDEST SWAP11 ADD SWAP7 ADD SWAP4 ADD SWAP1 SWAP2 DUP10 SWAP8 SWAP7 SWAP6 SWAP5 SWAP3 PUSH2 0x63F JUMP JUMPDEST PUSH1 0x64 DUP4 PUSH1 0x40 MLOAD SWAP1 PUSH32 0x8C379A000000000000000000000000000000000000000000000000000000000 DUP3 MSTORE PUSH1 0x4 DUP3 ADD MSTORE PUSH1 0x17 PUSH1 0x24 DUP3 ADD MSTORE PUSH32 0x4141393620696E76616C69642061676772656761746F72000000000000000000 PUSH1 0x44 DUP3 ADD MSTORE REVERT JUMPDEST CALLVALUE PUSH2 0x19C JUMPI PUSH1 0x20 DUP1 PUSH32 0xFFFFFFFFFFFFFFFFFFFFFFFFFFFFFFFFFFFFFFFFFFFFFFFFFFFFFFFFFFFFFFFC CALLDATASIZE ADD SLT PUSH2 0x19C JUMPI PUSH2 0x7FC PUSH2 0x229F JUMP JUMPDEST CALLER PUSH1 0x0 MSTORE PUSH1 0x0 DUP3 MSTORE PUSH1 0x1 PUSH1 0x40 PUSH1 0x0 KECCAK256 ADD SWAP1 DUP2 SLOAD SWAP2 PUSH14 0xFFFFFFFFFFFFFFFFFFFFFFFFFFFF DUP4 PUSH1 0x8 SHR AND SWAP3 DUP4 ISZERO PUSH2 0xA0A JUMPI PUSH6 0xFFFFFFFFFFFF DUP2 PUSH1 0x98 SHR AND DUP1 ISZERO PUSH2 0x9AC JUMPI TIMESTAMP LT PUSH2 0x94E JUMPI PUSH1 0x0 SWAP4 PUSH20 0xFFFFFFFFFFFFFFFFFFFFFFFFFFFFFFFFFFFFFFFF DUP6 SWAP5 DUP6 SWAP5 PUSH32 0xFFFFFFFFFFFFFF000000000000000000000000000000000000000000000000FF DUP7 SWAP6 AND SWAP1 SSTORE PUSH1 0x40 MLOAD PUSH32 0xB7C918E0E249F999E965CAFEB6C664271B3F4317D296461500E71DA39F0CBDA3 CALLER SWAP2 DUP1 PUSH2 0x8DA DUP8 DUP7 DUP4 PUSH1 0x20 SWAP1 SWAP4 SWAP3 SWAP2 SWAP4 PUSH20 0xFFFFFFFFFFFFFFFFFFFFFFFFFFFFFFFFFFFFFFFF PUSH1 0x40 DUP3 ADD SWAP6 AND DUP2 MSTORE ADD MSTORE JUMP JUMPDEST SUB SWAP1 LOG2 AND GAS CALL PUSH2 0x8E8 PUSH2 0x2450 JUMP JUMPDEST POP ISZERO PUSH2 0x8F0 JUMPI STOP JUMPDEST PUSH1 0x64 SWAP1 PUSH1 0x40 MLOAD SWAP1 PUSH32 0x8C379A000000000000000000000000000000000000000000000000000000000 DUP3 MSTORE PUSH1 0x4 DUP3 ADD MSTORE PUSH1 0x18 PUSH1 0x24 DUP3 ADD MSTORE PUSH32 0x6661696C656420746F207769746864726177207374616B650000000000000000 PUSH1 0x44 DUP3 ADD MSTORE REVERT JUMPDEST PUSH1 0x64 DUP6 PUSH1 0x40 MLOAD SWAP1 PUSH32 0x8C379A000000000000000000000000000000000000000000000000000000000 DUP3 MSTORE PUSH1 0x4 DUP3 ADD MSTORE PUSH1 0x1B PUSH1 0x24 DUP3 ADD MSTORE PUSH32 0x5374616B65207769746864726177616C206973206E6F74206475650000000000 PUSH1 0x44 DUP3 ADD MSTORE REVERT JUMPDEST PUSH1 0x64 DUP7 PUSH1 0x40 MLOAD SWAP1 PUSH32 0x8C379A000000000000000000000000000000000000000000000000000000000 DUP3 MSTORE PUSH1 0x4 DUP3 ADD MSTORE PUSH1 0x1D PUSH1 0x24 DUP3 ADD MSTORE PUSH32 0x6D7573742063616C6C20756E6C6F636B5374616B652829206669727374000000 PUSH1 0x44 DUP3 ADD MSTORE REVERT JUMPDEST PUSH1 0x64 DUP6 PUSH1 0x40 MLOAD SWAP1 PUSH32 0x8C379A000000000000000000000000000000000000000000000000000000000 DUP3 MSTORE PUSH1 0x4 DUP3 ADD MSTORE PUSH1 0x14 PUSH1 0x24 DUP3 ADD MSTORE PUSH32 0x4E6F207374616B6520746F207769746864726177000000000000000000000000 PUSH1 0x44 DUP3 ADD MSTORE REVERT JUMPDEST CALLVALUE PUSH2 0x19C JUMPI PUSH1 0x0 PUSH32 0xFFFFFFFFFFFFFFFFFFFFFFFFFFFFFFFFFFFFFFFFFFFFFFFFFFFFFFFFFFFFFFFC CALLDATASIZE ADD SLT PUSH2 0x19C JUMPI CALLER PUSH1 0x0 MSTORE PUSH1 0x0 PUSH1 0x20 MSTORE PUSH1 0x1 PUSH1 0x40 PUSH1 0x0 KECCAK256 ADD DUP1 SLOAD PUSH4 0xFFFFFFFF DUP2 PUSH1 0x78 SHR AND SWAP1 DUP2 ISZERO PUSH2 0xBDC JUMPI PUSH1 0xFF AND ISZERO PUSH2 0xB7E JUMPI PUSH6 0xFFFFFFFFFFFF SWAP1 DUP2 TIMESTAMP AND ADD SWAP2 DUP2 DUP4 GT PUSH2 0xB4F JUMPI DUP1 SLOAD PUSH32 0xFFFFFFFFFFFFFF000000000000FFFFFFFFFFFFFFFFFFFFFFFFFFFFFFFFFFFF00 AND PUSH25 0xFFFFFFFFFFFF00000000000000000000000000000000000000 PUSH1 0x98 DUP6 SWAP1 SHL AND OR SWAP1 SSTORE PUSH1 0x40 MLOAD SWAP2 AND DUP2 MSTORE CALLER SWAP1 PUSH32 0xFA9B3C14CC825C412C9ED81B3BA365A5B459439403F18829E572ED53A4180F0A SWAP1 PUSH1 0x20 SWAP1 LOG2 STOP JUMPDEST PUSH32 0x4E487B7100000000000000000000000000000000000000000000000000000000 PUSH1 0x0 MSTORE PUSH1 0x11 PUSH1 0x4 MSTORE PUSH1 0x24 PUSH1 0x0 REVERT JUMPDEST PUSH1 0x64 PUSH1 0x40 MLOAD PUSH32 0x8C379A000000000000000000000000000000000000000000000000000000000 DUP2 MSTORE PUSH1 0x20 PUSH1 0x4 DUP3 ADD MSTORE PUSH1 0x11 PUSH1 0x24 DUP3 ADD MSTORE PUSH32 0x616C726561647920756E7374616B696E67000000000000000000000000000000 PUSH1 0x44 DUP3 ADD MSTORE REVERT JUMPDEST PUSH1 0x64 PUSH1 0x40 MLOAD PUSH32 0x8C379A000000000000000000000000000000000000000000000000000000000 DUP2 MSTORE PUSH1 0x20 PUSH1 0x4 DUP3 ADD MSTORE PUSH1 0xA PUSH1 0x24 DUP3 ADD MSTORE PUSH32 0x6E6F74207374616B656400000000000000000000000000000000000000000000 PUSH1 0x44 DUP3 ADD MSTORE REVERT JUMPDEST PUSH1 0x20 PUSH32 0xFFFFFFFFFFFFFFFFFFFFFFFFFFFFFFFFFFFFFFFFFFFFFFFFFFFFFFFFFFFFFFFC CALLDATASIZE ADD SLT PUSH2 0x19C JUMPI PUSH2 0x22 PUSH2 0xC6F PUSH2 0x229F JUMP JUMPDEST PUSH2 0x2748 JUMP JUMPDEST CALLVALUE PUSH2 0x19C JUMPI PUSH1 0x20 PUSH32 0xFFFFFFFFFFFFFFFFFFFFFFFFFFFFFFFFFFFFFFFFFFFFFFFFFFFFFFFFFFFFFFFC CALLDATASIZE ADD SLT PUSH2 0x19C JUMPI PUSH1 0x4 CALLDATALOAD PUSH8 0xFFFFFFFFFFFFFFFF DUP2 GT PUSH2 0x19C JUMPI PUSH1 0x20 PUSH2 0xCC8 PUSH2 0xD1B SWAP3 CALLDATASIZE SWAP1 PUSH1 0x4 ADD PUSH2 0x22C2 JUMP JUMPDEST SWAP2 SWAP1 PUSH20 0xFFFFFFFFFFFFFFFFFFFFFFFFFFFFFFFFFFFFFFFF SWAP3 PUSH1 0x40 MLOAD SWAP5 DUP6 SWAP3 DUP4 SWAP3 PUSH32 0x570E1A3600000000000000000000000000000000000000000000000000000000 DUP5 MSTORE DUP6 PUSH1 0x4 DUP6 ADD MSTORE PUSH1 0x24 DUP5 ADD SWAP2 PUSH2 0x2709 JUMP JUMPDEST SUB DUP2 PUSH1 0x0 DUP6 PUSH32 0x0 AND GAS CALL SWAP1 DUP2 ISZERO PUSH2 0xDB7 JUMPI PUSH1 0x24 SWAP3 PUSH1 0x0 SWAP3 PUSH2 0xD86 JUMPI JUMPDEST POP PUSH1 0x40 MLOAD SWAP2 PUSH32 0x6CA7B80600000000000000000000000000000000000000000000000000000000 DUP4 MSTORE AND PUSH1 0x4 DUP3 ADD MSTORE REVERT JUMPDEST PUSH2 0xDA9 SWAP2 SWAP3 POP PUSH1 0x20 RETURNDATASIZE PUSH1 0x20 GT PUSH2 0xDB0 JUMPI JUMPDEST PUSH2 0xDA1 DUP2 DUP4 PUSH2 0x21ED JUMP JUMPDEST DUP2 ADD SWAP1 PUSH2 0x26DD JUMP JUMPDEST SWAP1 DUP4 PUSH2 0xD56 JUMP JUMPDEST POP RETURNDATASIZE PUSH2 0xD97 JUMP JUMPDEST PUSH1 0x40 MLOAD RETURNDATASIZE PUSH1 0x0 DUP3 RETURNDATACOPY RETURNDATASIZE SWAP1 REVERT JUMPDEST CALLVALUE PUSH2 0x19C JUMPI PUSH1 0x40 PUSH32 0xFFFFFFFFFFFFFFFFFFFFFFFFFFFFFFFFFFFFFFFFFFFFFFFFFFFFFFFFFFFFFFFC CALLDATASIZE ADD SLT PUSH2 0x19C JUMPI PUSH2 0xDFA PUSH2 0x229F JUMP JUMPDEST PUSH1 0x24 CALLDATALOAD PUSH8 0xFFFFFFFFFFFFFFFF DUP2 GT PUSH2 0x19C JUMPI PUSH1 0x0 SWAP2 PUSH2 0xE1E DUP4 SWAP3 CALLDATASIZE SWAP1 PUSH1 0x4 ADD PUSH2 0x22C2 JUMP JUMPDEST SWAP1 DUP2 PUSH1 0x40 MLOAD SWAP3 DUP4 SWAP3 DUP4 CALLDATACOPY DUP2 ADD DUP5 DUP2 MSTORE SUB SWAP2 GAS DELEGATECALL PUSH2 0xE39 PUSH2 0x2450 JUMP JUMPDEST SWAP1 PUSH2 0xE7E PUSH1 0x40 MLOAD SWAP3 DUP4 SWAP3 PUSH32 0x9941055400000000000000000000000000000000000000000000000000000000 DUP5 MSTORE ISZERO ISZERO PUSH1 0x4 DUP5 ADD MSTORE PUSH1 0x40 PUSH1 0x24 DUP5 ADD MSTORE PUSH1 0x44 DUP4 ADD SWAP1 PUSH2 0x23C6 JUMP JUMPDEST SUB SWAP1 REVERT JUMPDEST CALLVALUE PUSH2 0x19C JUMPI PUSH2 0xE90 CALLDATASIZE PUSH2 0x2317 JUMP JUMPDEST PUSH2 0xE9B SWAP3 SWAP2 SWAP3 PUSH2 0x29BD JUMP JUMPDEST PUSH2 0xEA4 DUP4 PUSH2 0x2588 JUMP JUMPDEST PUSH1 0x0 JUMPDEST DUP5 DUP2 LT PUSH2 0xF1C JUMPI POP PUSH1 0x0 SWAP3 PUSH32 0xBB47EE3E183A558B1A2FF0874B079F3FC5478B7454EACF2BFC5AF2FF5878F972 PUSH1 0x0 DUP1 LOG1 PUSH1 0x0 SWAP2 JUMPDEST DUP6 DUP4 LT PUSH2 0xEEC JUMPI PUSH2 0x240 DUP6 DUP6 PUSH2 0x3BA2 JUMP JUMPDEST SWAP1 SWAP2 SWAP4 PUSH1 0x1 SWAP1 PUSH2 0xF12 PUSH2 0xF00 DUP8 DUP10 DUP8 PUSH2 0x269D JUMP JUMPDEST PUSH2 0xF0A DUP9 DUP7 PUSH2 0x265A JUMP JUMPDEST MLOAD SWAP1 DUP9 PUSH2 0x3597 JUMP JUMPDEST ADD SWAP5 ADD SWAP2 SWAP1 PUSH2 0xEDB JUMP JUMPDEST PUSH2 0xF47 PUSH2 0xF40 PUSH2 0xF2E DUP4 DUP6 SWAP8 SWAP6 PUSH2 0x265A JUMP JUMPDEST MLOAD PUSH2 0xF3A DUP5 DUP10 DUP8 PUSH2 0x269D JUMP JUMPDEST DUP5 PUSH2 0x29F6 JUMP JUMPDEST SWAP2 SWAP1 PUSH2 0x3DD2 JUMP JUMPDEST PUSH20 0xFFFFFFFFFFFFFFFFFFFFFFFFFFFFFFFFFFFFFFFF SWAP3 SWAP2 DUP4 AND PUSH2 0x10DB JUMPI PUSH2 0x1076 JUMPI PUSH2 0xF71 SWAP1 PUSH2 0x3DD2 JUMP JUMPDEST SWAP2 AND PUSH2 0x1011 JUMPI PUSH2 0xF86 JUMPI PUSH1 0x1 ADD SWAP3 SWAP1 SWAP3 PUSH2 0xEA7 JUMP JUMPDEST PUSH1 0xA4 SWAP1 PUSH1 0x40 MLOAD SWAP1 PUSH32 0x220266B600000000000000000000000000000000000000000000000000000000 DUP3 MSTORE PUSH1 0x4 DUP3 ADD MSTORE PUSH1 0x40 PUSH1 0x24 DUP3 ADD MSTORE PUSH1 0x21 PUSH1 0x44 DUP3 ADD MSTORE PUSH32 0x41413332207061796D61737465722065787069726564206F72206E6F74206475 PUSH1 0x64 DUP3 ADD MSTORE PUSH32 0x6500000000000000000000000000000000000000000000000000000000000000 PUSH1 0x84 DUP3 ADD MSTORE REVERT JUMPDEST PUSH1 0x84 DUP3 PUSH1 0x40 MLOAD SWAP1 PUSH32 0x220266B600000000000000000000000000000000000000000000000000000000 DUP3 MSTORE PUSH1 0x4 DUP3 ADD MSTORE PUSH1 0x40 PUSH1 0x24 DUP3 ADD MSTORE PUSH1 0x14 PUSH1 0x44 DUP3 ADD MSTORE PUSH32 0x41413334207369676E6174757265206572726F72000000000000000000000000 PUSH1 0x64 DUP3 ADD MSTORE REVERT JUMPDEST PUSH1 0x84 DUP4 PUSH1 0x40 MLOAD SWAP1 PUSH32 0x220266B600000000000000000000000000000000000000000000000000000000 DUP3 MSTORE PUSH1 0x4 DUP3 ADD MSTORE PUSH1 0x40 PUSH1 0x24 DUP3 ADD MSTORE PUSH1 0x17 PUSH1 0x44 DUP3 ADD MSTORE PUSH32 0x414132322065787069726564206F72206E6F7420647565000000000000000000 PUSH1 0x64 DUP3 ADD MSTORE REVERT JUMPDEST PUSH1 0x84 DUP5 PUSH1 0x40 MLOAD SWAP1 PUSH32 0x220266B600000000000000000000000000000000000000000000000000000000 DUP3 MSTORE PUSH1 0x4 DUP3 ADD MSTORE PUSH1 0x40 PUSH1 0x24 DUP3 ADD MSTORE PUSH1 0x14 PUSH1 0x44 DUP3 ADD MSTORE PUSH32 0x41413234207369676E6174757265206572726F72000000000000000000000000 PUSH1 0x64 DUP3 ADD MSTORE REVERT JUMPDEST CALLVALUE PUSH2 0x19C JUMPI PUSH1 0x20 PUSH32 0xFFFFFFFFFFFFFFFFFFFFFFFFFFFFFFFFFFFFFFFFFFFFFFFFFFFFFFFFFFFFFFFC CALLDATASIZE ADD SLT PUSH2 0x19C JUMPI PUSH20 0xFFFFFFFFFFFFFFFFFFFFFFFFFFFFFFFFFFFFFFFF PUSH2 0x118C PUSH2 0x229F JUMP JUMPDEST AND PUSH1 0x0 MSTORE PUSH1 0x0 PUSH1 0x20 MSTORE PUSH1 0x20 PUSH1 0x40 PUSH1 0x0 KECCAK256 SLOAD PUSH1 0x40 MLOAD SWAP1 DUP2 MSTORE RETURN JUMPDEST CALLVALUE PUSH2 0x19C JUMPI PUSH1 0x20 PUSH32 0xFFFFFFFFFFFFFFFFFFFFFFFFFFFFFFFFFFFFFFFFFFFFFFFFFFFFFFFFFFFFFFFC CALLDATASIZE ADD SLT PUSH2 0x19C JUMPI PUSH20 0xFFFFFFFFFFFFFFFFFFFFFFFFFFFFFFFFFFFFFFFF PUSH2 0x11F1 PUSH2 0x229F JUMP JUMPDEST PUSH1 0x0 PUSH1 0x80 PUSH1 0x40 MLOAD PUSH2 0x1201 DUP2 PUSH2 0x2155 JUMP JUMPDEST DUP3 DUP2 MSTORE DUP3 PUSH1 0x20 DUP3 ADD MSTORE DUP3 PUSH1 0x40 DUP3 ADD MSTORE DUP3 PUSH1 0x60 DUP3 ADD MSTORE ADD MSTORE AND PUSH1 0x0 MSTORE PUSH1 0x0 PUSH1 0x20 MSTORE PUSH1 0xA0 PUSH1 0x40 PUSH1 0x0 KECCAK256 PUSH1 0x80 PUSH1 0x40 MLOAD PUSH2 0x1236 DUP2 PUSH2 0x2155 JUMP JUMPDEST PUSH1 0x1 DUP4 SLOAD SWAP4 DUP5 DUP4 MSTORE ADD SLOAD SWAP1 PUSH1 0x20 DUP2 ADD SWAP1 PUSH1 0xFF DUP4 AND ISZERO ISZERO DUP3 MSTORE PUSH14 0xFFFFFFFFFFFFFFFFFFFFFFFFFFFF PUSH1 0x40 DUP3 ADD DUP2 DUP6 PUSH1 0x8 SHR AND DUP2 MSTORE PUSH4 0xFFFFFFFF SWAP4 PUSH1 0x60 DUP5 ADD SWAP4 DUP6 DUP8 PUSH1 0x78 SHR AND DUP6 MSTORE PUSH6 0xFFFFFFFFFFFF SWAP8 DUP9 SWAP2 ADD SWAP7 PUSH1 0x98 SHR AND DUP7 MSTORE PUSH1 0x40 MLOAD SWAP8 DUP9 MSTORE MLOAD ISZERO ISZERO PUSH1 0x20 DUP9 ADD MSTORE MLOAD AND PUSH1 0x40 DUP7 ADD MSTORE MLOAD AND PUSH1 0x60 DUP5 ADD MSTORE MLOAD AND PUSH1 0x80 DUP3 ADD MSTORE RETURN JUMPDEST CALLVALUE PUSH2 0x19C JUMPI PUSH1 0x40 PUSH32 0xFFFFFFFFFFFFFFFFFFFFFFFFFFFFFFFFFFFFFFFFFFFFFFFFFFFFFFFFFFFFFFFC CALLDATASIZE ADD SLT PUSH2 0x19C JUMPI PUSH1 0x20 PUSH2 0x12EC PUSH2 0x229F JUMP JUMPDEST PUSH20 0xFFFFFFFFFFFFFFFFFFFFFFFFFFFFFFFFFFFFFFFF PUSH2 0x1309 PUSH2 0x22F0 JUMP JUMPDEST SWAP2 AND PUSH1 0x0 MSTORE PUSH1 0x1 DUP3 MSTORE PUSH1 0x40 PUSH1 0x0 KECCAK256 PUSH24 0xFFFFFFFFFFFFFFFFFFFFFFFFFFFFFFFFFFFFFFFFFFFFFFFF DUP3 AND PUSH1 0x0 MSTORE DUP3 MSTORE PUSH1 0x40 PUSH1 0x0 KECCAK256 SLOAD PUSH32 0xFFFFFFFFFFFFFFFFFFFFFFFFFFFFFFFFFFFFFFFFFFFFFFFF0000000000000000 PUSH1 0x40 MLOAD SWAP3 PUSH1 0x40 SHL AND OR DUP2 MSTORE RETURN JUMPDEST CALLVALUE PUSH2 0x19C JUMPI PUSH32 0xFFFFFFFFFFFFFFFFFFFFFFFFFFFFFFFFFFFFFFFFFFFFFFFFFFFFFFFFFFFFFFFC PUSH1 0x20 DUP2 CALLDATASIZE ADD SLT PUSH2 0x19C JUMPI PUSH1 0x4 CALLDATALOAD SWAP1 PUSH8 0xFFFFFFFFFFFFFFFF DUP3 GT PUSH2 0x19C JUMPI PUSH2 0x120 SWAP1 DUP3 CALLDATASIZE SUB ADD SLT PUSH2 0x19C JUMPI PUSH2 0x13C9 PUSH1 0x20 SWAP2 PUSH1 0x4 ADD PUSH2 0x2480 JUMP JUMPDEST PUSH1 0x40 MLOAD SWAP1 DUP2 MSTORE RETURN JUMPDEST CALLVALUE PUSH2 0x19C JUMPI PUSH1 0x40 PUSH32 0xFFFFFFFFFFFFFFFFFFFFFFFFFFFFFFFFFFFFFFFFFFFFFFFFFFFFFFFFFFFFFFFC CALLDATASIZE ADD SLT PUSH2 0x19C JUMPI PUSH2 0x1408 PUSH2 0x229F JUMP JUMPDEST PUSH1 0x24 CALLDATALOAD SWAP1 CALLER PUSH1 0x0 MSTORE PUSH1 0x0 PUSH1 0x20 MSTORE PUSH1 0x40 PUSH1 0x0 KECCAK256 SWAP1 DUP2 SLOAD SWAP2 DUP3 DUP5 GT PUSH2 0x1508 JUMPI PUSH1 0x0 DUP1 DUP6 PUSH20 0xFFFFFFFFFFFFFFFFFFFFFFFFFFFFFFFFFFFFFFFF DUP3 SWAP6 DUP4 SWAP6 PUSH2 0x144C DUP5 DUP11 PUSH2 0x2443 JUMP JUMPDEST SWAP1 SSTORE PUSH1 0x40 DUP1 MLOAD PUSH20 0xFFFFFFFFFFFFFFFFFFFFFFFFFFFFFFFFFFFFFFFF DUP4 AND DUP2 MSTORE PUSH1 0x20 DUP2 ADD DUP6 SWAP1 MSTORE CALLER SWAP2 PUSH32 0xD1C19FBCD4551A5EDFB66D43D2E337C04837AFDA3482B42BDF569A8FCCDAE5FB SWAP2 LOG2 AND GAS CALL PUSH2 0x14A2 PUSH2 0x2450 JUMP JUMPDEST POP ISZERO PUSH2 0x14AA JUMPI STOP JUMPDEST PUSH1 0x64 PUSH1 0x40 MLOAD PUSH32 0x8C379A000000000000000000000000000000000000000000000000000000000 DUP2 MSTORE PUSH1 0x20 PUSH1 0x4 DUP3 ADD MSTORE PUSH1 0x12 PUSH1 0x24 DUP3 ADD MSTORE PUSH32 0x6661696C656420746F2077697468647261770000000000000000000000000000 PUSH1 0x44 DUP3 ADD MSTORE REVERT JUMPDEST PUSH1 0x64 PUSH1 0x40 MLOAD PUSH32 0x8C379A000000000000000000000000000000000000000000000000000000000 DUP2 MSTORE PUSH1 0x20 PUSH1 0x4 DUP3 ADD MSTORE PUSH1 0x19 PUSH1 0x24 DUP3 ADD MSTORE PUSH32 0x576974686472617720616D6F756E7420746F6F206C6172676500000000000000 PUSH1 0x44 DUP3 ADD MSTORE REVERT JUMPDEST CALLVALUE PUSH2 0x19C JUMPI PUSH1 0x40 PUSH32 0xFFFFFFFFFFFFFFFFFFFFFFFFFFFFFFFFFFFFFFFFFFFFFFFFFFFFFFFFFFFFFFFC CALLDATASIZE ADD SLT PUSH2 0x19C JUMPI PUSH2 0x159D PUSH2 0x229F JUMP JUMPDEST PUSH20 0xFFFFFFFFFFFFFFFFFFFFFFFFFFFFFFFFFFFFFFFF PUSH2 0x15BA PUSH2 0x22F0 JUMP JUMPDEST SWAP2 AND PUSH1 0x0 MSTORE PUSH1 0x1 PUSH1 0x20 MSTORE PUSH24 0xFFFFFFFFFFFFFFFFFFFFFFFFFFFFFFFFFFFFFFFFFFFFFFFF PUSH1 0x40 PUSH1 0x0 KECCAK256 SWAP2 AND PUSH1 0x0 MSTORE PUSH1 0x20 MSTORE PUSH1 0x20 PUSH1 0x40 PUSH1 0x0 KECCAK256 SLOAD PUSH1 0x40 MLOAD SWAP1 DUP2 MSTORE RETURN JUMPDEST CALLVALUE PUSH2 0x19C JUMPI PUSH1 0x20 PUSH32 0xFFFFFFFFFFFFFFFFFFFFFFFFFFFFFFFFFFFFFFFFFFFFFFFFFFFFFFFFFFFFFFFC CALLDATASIZE ADD SLT PUSH2 0x19C JUMPI PUSH1 0x4 CALLDATALOAD PUSH24 0xFFFFFFFFFFFFFFFFFFFFFFFFFFFFFFFFFFFFFFFFFFFFFFFF DUP2 AND DUP1 SWAP2 SUB PUSH2 0x19C JUMPI CALLER PUSH1 0x0 MSTORE PUSH1 0x1 PUSH1 0x20 MSTORE PUSH1 0x40 PUSH1 0x0 KECCAK256 SWAP1 PUSH1 0x0 MSTORE PUSH1 0x20 MSTORE PUSH1 0x40 PUSH1 0x0 KECCAK256 PUSH2 0x1672 DUP2 SLOAD PUSH2 0x2416 JUMP JUMPDEST SWAP1 SSTORE STOP JUMPDEST PUSH1 0x20 DUP1 PUSH32 0xFFFFFFFFFFFFFFFFFFFFFFFFFFFFFFFFFFFFFFFFFFFFFFFFFFFFFFFFFFFFFFFC CALLDATASIZE ADD SLT PUSH2 0x19C JUMPI PUSH1 0x4 CALLDATALOAD PUSH4 0xFFFFFFFF SWAP2 DUP3 DUP3 AND DUP1 SWAP3 SUB PUSH2 0x19C JUMPI CALLER PUSH1 0x0 MSTORE PUSH1 0x0 DUP2 MSTORE PUSH1 0x40 PUSH1 0x0 KECCAK256 SWAP3 DUP3 ISZERO PUSH2 0x1950 JUMPI PUSH1 0x1 DUP5 ADD SLOAD SWAP1 DUP2 PUSH1 0x78 SHR AND DUP4 LT PUSH2 0x18F2 JUMPI PUSH2 0x16F8 PUSH14 0xFFFFFFFFFFFFFFFFFFFFFFFFFFFF SWAP2 DUP3 CALLVALUE SWAP2 PUSH1 0x8 SHR AND PUSH2 0x2409 JUMP JUMPDEST SWAP4 DUP5 ISZERO PUSH2 0x1894 JUMPI DUP2 DUP6 GT PUSH2 0x1836 JUMPI SWAP1 PUSH6 0xFFFFFFFFFFFF PUSH2 0x1805 SWAP3 SLOAD PUSH1 0x40 MLOAD SWAP1 PUSH2 0x1720 DUP3 PUSH2 0x2155 JUMP JUMPDEST DUP2 MSTORE DUP5 DUP2 ADD SWAP3 PUSH1 0x1 DUP5 MSTORE PUSH1 0x40 DUP3 ADD SWAP1 DUP9 AND DUP2 MSTORE PUSH1 0x60 DUP3 ADD DUP8 DUP2 MSTORE PUSH1 0x1 PUSH1 0x80 DUP5 ADD SWAP4 PUSH1 0x0 DUP6 MSTORE CALLER PUSH1 0x0 MSTORE PUSH1 0x0 DUP10 MSTORE PUSH1 0x40 PUSH1 0x0 KECCAK256 SWAP1 MLOAD DUP2 SSTORE ADD SWAP5 MLOAD ISZERO ISZERO SWAP2 PUSH32 0xFFFFFFFFFFFFFFFFFFFFFFFFFF00000000000000000000000000000000000000 PUSH1 0xFF PUSH19 0xFFFFFFFF000000000000000000000000000000 PUSH15 0xFFFFFFFFFFFFFFFFFFFFFFFFFFFF00 DUP10 SLOAD SWAP5 MLOAD PUSH1 0x8 SHL AND SWAP5 MLOAD PUSH1 0x78 SHL AND SWAP5 AND SWAP2 AND OR OR OR DUP4 SSTORE MLOAD AND PUSH32 0xFFFFFFFFFFFFFF000000000000FFFFFFFFFFFFFFFFFFFFFFFFFFFFFFFFFFFFFF PUSH25 0xFFFFFFFFFFFF00000000000000000000000000000000000000 DUP4 SLOAD SWAP3 PUSH1 0x98 SHL AND SWAP2 AND OR SWAP1 SSTORE JUMP JUMPDEST PUSH1 0x40 MLOAD SWAP3 DUP4 MSTORE DUP3 ADD MSTORE PUSH32 0xA5AE833D0BB1DCD632D98A8B70973E8516812898E19BF27B70071EBC8DC52C01 PUSH1 0x40 CALLER SWAP3 LOG2 STOP JUMPDEST PUSH1 0x64 DUP4 PUSH1 0x40 MLOAD SWAP1 PUSH32 0x8C379A000000000000000000000000000000000000000000000000000000000 DUP3 MSTORE PUSH1 0x4 DUP3 ADD MSTORE PUSH1 0xE PUSH1 0x24 DUP3 ADD MSTORE PUSH32 0x7374616B65206F766572666C6F77000000000000000000000000000000000000 PUSH1 0x44 DUP3 ADD MSTORE REVERT JUMPDEST PUSH1 0x64 DUP4 PUSH1 0x40 MLOAD SWAP1 PUSH32 0x8C379A000000000000000000000000000000000000000000000000000000000 DUP3 MSTORE PUSH1 0x4 DUP3 ADD MSTORE PUSH1 0x12 PUSH1 0x24 DUP3 ADD MSTORE PUSH32 0x6E6F207374616B65207370656369666965640000000000000000000000000000 PUSH1 0x44 DUP3 ADD MSTORE REVERT JUMPDEST PUSH1 0x64 DUP3 PUSH1 0x40 MLOAD SWAP1 PUSH32 0x8C379A000000000000000000000000000000000000000000000000000000000 DUP3 MSTORE PUSH1 0x4 DUP3 ADD MSTORE PUSH1 0x1C PUSH1 0x24 DUP3 ADD MSTORE PUSH32 0x63616E6E6F7420646563726561736520756E7374616B652074696D6500000000 PUSH1 0x44 DUP3 ADD MSTORE REVERT JUMPDEST PUSH1 0x64 DUP3 PUSH1 0x40 MLOAD SWAP1 PUSH32 0x8C379A000000000000000000000000000000000000000000000000000000000 DUP3 MSTORE PUSH1 0x4 DUP3 ADD MSTORE PUSH1 0x1A PUSH1 0x24 DUP3 ADD MSTORE PUSH32 0x6D757374207370656369667920756E7374616B652064656C6179000000000000 PUSH1 0x44 DUP3 ADD MSTORE REVERT JUMPDEST CALLVALUE PUSH2 0x19C JUMPI PUSH1 0x20 PUSH32 0xFFFFFFFFFFFFFFFFFFFFFFFFFFFFFFFFFFFFFFFFFFFFFFFFFFFFFFFFFFFFFFFC CALLDATASIZE ADD SLT PUSH2 0x19C JUMPI PUSH1 0x4 CALLDATALOAD PUSH32 0xFFFFFFFF00000000000000000000000000000000000000000000000000000000 DUP2 AND DUP1 SWAP2 SUB PUSH2 0x19C JUMPI DUP1 PUSH32 0x60FC6B6E00000000000000000000000000000000000000000000000000000000 PUSH1 0x20 SWAP3 EQ SWAP1 DUP2 ISZERO PUSH2 0x1AD6 JUMPI JUMPDEST DUP2 ISZERO PUSH2 0x1AAC JUMPI JUMPDEST DUP2 ISZERO PUSH2 0x1A82 JUMPI JUMPDEST DUP2 ISZERO PUSH2 0x1A58 JUMPI JUMPDEST POP PUSH1 0x40 MLOAD SWAP1 ISZERO ISZERO DUP2 MSTORE RETURN JUMPDEST PUSH32 0x1FFC9A700000000000000000000000000000000000000000000000000000000 SWAP2 POP EQ DUP3 PUSH2 0x1A4D JUMP JUMPDEST PUSH32 0x3E84F02100000000000000000000000000000000000000000000000000000000 DUP2 EQ SWAP2 POP PUSH2 0x1A46 JUMP JUMPDEST PUSH32 0xCF28EF9700000000000000000000000000000000000000000000000000000000 DUP2 EQ SWAP2 POP PUSH2 0x1A3F JUMP JUMPDEST PUSH32 0x915074D800000000000000000000000000000000000000000000000000000000 DUP2 EQ SWAP2 POP PUSH2 0x1A38 JUMP JUMPDEST CALLVALUE PUSH2 0x19C JUMPI PUSH2 0x200 PUSH32 0xFFFFFFFFFFFFFFFFFFFFFFFFFFFFFFFFFFFFFFFFFFFFFFFFFFFFFFFFFFFFFFFC CALLDATASIZE ADD SLT PUSH2 0x19C JUMPI PUSH8 0xFFFFFFFFFFFFFFFF PUSH1 0x4 CALLDATALOAD DUP2 DUP2 GT PUSH2 0x19C JUMPI CALLDATASIZE PUSH1 0x23 DUP3 ADD SLT ISZERO PUSH2 0x19C JUMPI PUSH2 0x1B62 SWAP1 CALLDATASIZE SWAP1 PUSH1 0x24 DUP2 PUSH1 0x4 ADD CALLDATALOAD SWAP2 ADD PUSH2 0x2268 JUMP JUMPDEST PUSH32 0xFFFFFFFFFFFFFFFFFFFFFFFFFFFFFFFFFFFFFFFFFFFFFFFFFFFFFFFFFFFFFFDC CALLDATASIZE ADD SWAP1 PUSH2 0x1C0 DUP3 SLT PUSH2 0x19C JUMPI PUSH2 0x140 PUSH1 0x40 MLOAD SWAP3 PUSH2 0x1B9F DUP5 PUSH2 0x2155 JUMP JUMPDEST SLT PUSH2 0x19C JUMPI PUSH1 0x40 MLOAD SWAP3 PUSH2 0x1BB1 DUP5 PUSH2 0x21A0 JUMP JUMPDEST PUSH1 0x24 CALLDATALOAD PUSH20 0xFFFFFFFFFFFFFFFFFFFFFFFFFFFFFFFFFFFFFFFF DUP2 AND DUP2 SUB PUSH2 0x19C JUMPI DUP5 MSTORE PUSH1 0x20 SWAP4 PUSH1 0x44 CALLDATALOAD DUP6 DUP3 ADD MSTORE PUSH1 0x64 CALLDATALOAD PUSH1 0x40 DUP3 ADD MSTORE PUSH1 0x84 CALLDATALOAD PUSH1 0x60 DUP3 ADD MSTORE PUSH1 0xA4 CALLDATALOAD PUSH1 0x80 DUP3 ADD MSTORE PUSH1 0xC4 CALLDATALOAD PUSH1 0xA0 DUP3 ADD MSTORE PUSH1 0xE4 CALLDATALOAD PUSH1 0xC0 DUP3 ADD MSTORE PUSH2 0x104 CALLDATALOAD PUSH20 0xFFFFFFFFFFFFFFFFFFFFFFFFFFFFFFFFFFFFFFFF DUP2 AND DUP2 SUB PUSH2 0x19C JUMPI PUSH1 0xE0 DUP3 ADD MSTORE PUSH2 0x124 CALLDATALOAD PUSH2 0x100 DUP3 ADD MSTORE PUSH2 0x144 CALLDATALOAD PUSH2 0x120 DUP3 ADD MSTORE DUP4 MSTORE PUSH2 0x164 CALLDATALOAD DUP5 DUP5 ADD MSTORE PUSH2 0x184 CALLDATALOAD PUSH1 0x40 DUP5 ADD MSTORE PUSH2 0x1A4 CALLDATALOAD PUSH1 0x60 DUP5 ADD MSTORE PUSH2 0x1C4 CALLDATALOAD PUSH1 0x80 DUP5 ADD MSTORE PUSH2 0x1E4 CALLDATALOAD SWAP1 DUP2 GT PUSH2 0x19C JUMPI PUSH2 0x1C7D SWAP1 CALLDATASIZE SWAP1 PUSH1 0x4 ADD PUSH2 0x22C2 JUMP JUMPDEST SWAP1 GAS ADDRESS CALLER SUB PUSH2 0x20F7 JUMPI DUP5 MLOAD PUSH1 0x60 DUP2 ADD MLOAD SWAP5 PUSH1 0x3F GAS MUL PUSH1 0x6 SHR PUSH2 0x2710 PUSH1 0xA0 DUP5 ADD MLOAD DUP9 ADD ADD GT PUSH2 0x20CE JUMPI PUSH1 0x0 SWAP6 DUP2 MLOAD SWAP2 DUP3 PUSH2 0x1FF0 JUMPI JUMPDEST POP POP POP POP SWAP1 PUSH2 0x1CCB SWAP2 GAS SWAP1 SUB PUSH1 0x80 DUP7 ADD MLOAD ADD SWAP3 CALLDATASIZE SWAP2 PUSH2 0x2268 JUMP JUMPDEST SWAP3 GAS SWAP1 PUSH1 0x0 SWAP5 DUP2 MLOAD SWAP4 PUSH2 0x1CDD DUP6 PUSH2 0x3CC7 JUMP JUMPDEST SWAP2 PUSH20 0xFFFFFFFFFFFFFFFFFFFFFFFFFFFFFFFFFFFFFFFF PUSH1 0xE0 DUP8 ADD MLOAD AND SWAP1 DUP2 ISZERO PUSH1 0x0 EQ PUSH2 0x1EA8 JUMPI POP POP PUSH20 0xFFFFFFFFFFFFFFFFFFFFFFFFFFFFFFFFFFFFFFFF DUP6 MLOAD AND SWAP4 JUMPDEST GAS SWAP1 SUB ADD SWAP4 PUSH1 0xA0 PUSH1 0x60 DUP3 ADD MLOAD SWAP2 ADD MLOAD ADD PUSH1 0x80 DUP4 ADD MLOAD DUP6 SUB SWAP1 DUP2 DUP2 GT PUSH2 0x1E94 JUMPI JUMPDEST POP POP DUP4 MUL SWAP4 PUSH1 0x40 DUP3 ADD MLOAD SWAP3 DUP6 DUP5 LT PUSH1 0x0 EQ PUSH2 0x1DCD JUMPI POP PUSH1 0x3 DUP2 LT ISZERO PUSH2 0x1DA0 JUMPI PUSH1 0x2 SUB PUSH2 0x1D79 JUMPI PUSH2 0x13C9 SWAP4 SWAP5 POP PUSH2 0x1D74 DUP2 PUSH2 0x3D60 JUMP JUMPDEST PUSH2 0x3CF1 JUMP JUMPDEST DUP6 DUP6 PUSH32 0xDEADAA5100000000000000000000000000000000000000000000000000000000 DUP2 MSTORE REVERT JUMPDEST PUSH1 0x24 DUP7 PUSH32 0x4E487B7100000000000000000000000000000000000000000000000000000000 DUP2 MSTORE PUSH1 0x21 PUSH1 0x4 MSTORE REVERT JUMPDEST DUP6 PUSH2 0x1DDD SWAP3 SWAP7 SWAP8 SWAP4 SWAP5 SUB SWAP1 PUSH2 0x3C93 JUMP JUMPDEST POP PUSH1 0x3 DUP5 LT ISZERO PUSH2 0x1E67 JUMPI POP PUSH32 0x49628FD1471006C1482DA88028E9CE4DBB080B815C9B0344D39E5A8E6EC1419F PUSH1 0x80 DUP7 DUP4 ADD MLOAD SWAP3 MLOAD SWAP5 PUSH20 0xFFFFFFFFFFFFFFFFFFFFFFFFFFFFFFFFFFFFFFFF DUP7 MLOAD AND SWAP5 DUP9 PUSH20 0xFFFFFFFFFFFFFFFFFFFFFFFFFFFFFFFFFFFFFFFF PUSH1 0xE0 DUP10 ADD MLOAD AND SWAP8 ADD MLOAD SWAP2 PUSH1 0x40 MLOAD SWAP3 DUP4 MSTORE ISZERO DUP10 DUP4 ADD MSTORE DUP8 PUSH1 0x40 DUP4 ADD MSTORE PUSH1 0x60 DUP3 ADD MSTORE LOG4 PUSH2 0x13C9 JUMP JUMPDEST DUP1 PUSH32 0x4E487B7100000000000000000000000000000000000000000000000000000000 PUSH1 0x24 SWAP3 MSTORE PUSH1 0x21 PUSH1 0x4 MSTORE REVERT JUMPDEST PUSH1 0x64 SWAP2 SWAP1 SUB PUSH1 0xA MUL DIV SWAP1 SWAP4 ADD SWAP3 DUP8 DUP1 PUSH2 0x1D3F JUMP JUMPDEST DUP2 SWAP6 SWAP2 SWAP6 DUP2 MLOAD PUSH2 0x1EBA JUMPI JUMPDEST POP POP PUSH2 0x1D1F JUMP JUMPDEST PUSH1 0x3 DUP10 LT ISZERO PUSH2 0x1FC1 JUMPI PUSH1 0x2 DUP10 SUB ISZERO PUSH2 0x1EB3 JUMPI PUSH1 0xA0 DUP9 ADD MLOAD SWAP2 DUP2 EXTCODESIZE ISZERO PUSH2 0x19C JUMPI PUSH2 0x1F24 SWAP3 DUP11 PUSH1 0x0 DUP1 SWAP5 PUSH1 0x40 MLOAD DUP1 SWAP8 DUP2 SWAP7 DUP3 SWAP6 PUSH32 0x7C627B2100000000000000000000000000000000000000000000000000000000 DUP5 MSTORE PUSH1 0x4 DUP5 ADD MSTORE PUSH1 0x80 PUSH1 0x24 DUP5 ADD MSTORE PUSH1 0x84 DUP4 ADD SWAP1 PUSH2 0x23C6 JUMP JUMPDEST DUP12 DUP12 MUL PUSH1 0x44 DUP4 ADD MSTORE DUP12 PUSH1 0x64 DUP4 ADD MSTORE SUB SWAP4 CALL SWAP1 DUP2 PUSH2 0x1FAD JUMPI JUMPDEST POP PUSH2 0x1FA6 JUMPI DUP8 DUP10 RETURNDATASIZE PUSH2 0x800 DUP1 DUP3 GT PUSH2 0x1F9E JUMPI JUMPDEST POP PUSH1 0x40 MLOAD SWAP3 DUP3 DUP3 DUP6 ADD ADD PUSH1 0x40 MSTORE DUP2 DUP5 MSTORE DUP3 DUP5 ADD RETURNDATACOPY PUSH2 0xE7E PUSH1 0x40 MLOAD SWAP3 DUP4 SWAP3 PUSH32 0xAD7954BC00000000000000000000000000000000000000000000000000000000 DUP5 MSTORE PUSH1 0x4 DUP5 ADD MSTORE PUSH1 0x24 DUP4 ADD SWAP1 PUSH2 0x23C6 JUMP JUMPDEST SWAP1 POP DUP4 PUSH2 0x1F4F JUMP JUMPDEST DUP10 DUP1 PUSH2 0x1EB3 JUMP JUMPDEST PUSH2 0x1FB8 SWAP2 SWAP10 POP PUSH2 0x21BD JUMP JUMPDEST PUSH1 0x0 SWAP8 DUP11 PUSH2 0x1F3C JUMP JUMPDEST PUSH32 0x4E487B7100000000000000000000000000000000000000000000000000000000 PUSH1 0x0 MSTORE PUSH1 0x21 PUSH1 0x4 MSTORE PUSH1 0x24 PUSH1 0x0 REVERT JUMPDEST SWAP2 PUSH1 0x0 SWAP3 SWAP2 DUP4 DUP1 SWAP4 DUP13 PUSH20 0xFFFFFFFFFFFFFFFFFFFFFFFFFFFFFFFFFFFFFFFF DUP9 MLOAD AND SWAP2 ADD SWAP3 CALL ISZERO PUSH2 0x2023 JUMPI JUMPDEST DUP1 DUP1 DUP1 PUSH2 0x1CB1 JUMP JUMPDEST PUSH2 0x1CCB SWAP3 SWAP2 SWAP5 POP RETURNDATASIZE PUSH2 0x800 DUP1 DUP3 GT PUSH2 0x20C6 JUMPI JUMPDEST POP PUSH1 0x40 MLOAD SWAP1 DUP9 DUP2 DUP4 ADD ADD PUSH1 0x40 MSTORE DUP1 DUP3 MSTORE PUSH1 0x0 DUP10 DUP4 ADD RETURNDATACOPY DUP1 MLOAD PUSH2 0x205F JUMPI JUMPDEST POP POP PUSH1 0x1 SWAP4 SWAP1 SWAP2 PUSH2 0x201B JUMP JUMPDEST PUSH32 0x1C4FADA7374C0A9EE8841FC38AFE82932DC0F8E69012E927F061A8BAE611A201 DUP9 DUP9 ADD MLOAD SWAP2 DUP10 PUSH20 0xFFFFFFFFFFFFFFFFFFFFFFFFFFFFFFFFFFFFFFFF DUP6 MLOAD AND SWAP5 ADD MLOAD PUSH2 0x20BC PUSH1 0x40 MLOAD SWAP3 DUP4 SWAP3 DUP4 MSTORE PUSH1 0x40 DUP14 DUP5 ADD MSTORE PUSH1 0x40 DUP4 ADD SWAP1 PUSH2 0x23C6 JUMP JUMPDEST SUB SWAP1 LOG3 DUP7 DUP1 PUSH2 0x2053 JUMP JUMPDEST SWAP1 POP DUP9 PUSH2 0x2036 JUMP JUMPDEST DUP8 PUSH32 0xDEADDEAD00000000000000000000000000000000000000000000000000000000 PUSH1 0x0 MSTORE PUSH1 0x0 REVERT JUMPDEST PUSH1 0x64 DUP7 PUSH1 0x40 MLOAD SWAP1 PUSH32 0x8C379A000000000000000000000000000000000000000000000000000000000 DUP3 MSTORE PUSH1 0x4 DUP3 ADD MSTORE PUSH1 0x17 PUSH1 0x24 DUP3 ADD MSTORE PUSH32 0x4141393220696E7465726E616C2063616C6C206F6E6C79000000000000000000 PUSH1 0x44 DUP3 ADD MSTORE REVERT JUMPDEST PUSH1 0xA0 DUP2 ADD SWAP1 DUP2 LT PUSH8 0xFFFFFFFFFFFFFFFF DUP3 GT OR PUSH2 0x2171 JUMPI PUSH1 0x40 MSTORE JUMP JUMPDEST PUSH32 0x4E487B7100000000000000000000000000000000000000000000000000000000 PUSH1 0x0 MSTORE PUSH1 0x41 PUSH1 0x4 MSTORE PUSH1 0x24 PUSH1 0x0 REVERT JUMPDEST PUSH2 0x140 DUP2 ADD SWAP1 DUP2 LT PUSH8 0xFFFFFFFFFFFFFFFF DUP3 GT OR PUSH2 0x2171 JUMPI PUSH1 0x40 MSTORE JUMP JUMPDEST PUSH8 0xFFFFFFFFFFFFFFFF DUP2 GT PUSH2 0x2171 JUMPI PUSH1 0x40 MSTORE JUMP JUMPDEST PUSH1 0x60 DUP2 ADD SWAP1 DUP2 LT PUSH8 0xFFFFFFFFFFFFFFFF DUP3 GT OR PUSH2 0x2171 JUMPI PUSH1 0x40 MSTORE JUMP JUMPDEST SWAP1 PUSH1 0x1F PUSH32 0xFFFFFFFFFFFFFFFFFFFFFFFFFFFFFFFFFFFFFFFFFFFFFFFFFFFFFFFFFFFFFFE0 SWAP2 ADD AND DUP2 ADD SWAP1 DUP2 LT PUSH8 0xFFFFFFFFFFFFFFFF DUP3 GT OR PUSH2 0x2171 JUMPI PUSH1 0x40 MSTORE JUMP JUMPDEST PUSH8 0xFFFFFFFFFFFFFFFF DUP2 GT PUSH2 0x2171 JUMPI PUSH1 0x1F ADD PUSH32 0xFFFFFFFFFFFFFFFFFFFFFFFFFFFFFFFFFFFFFFFFFFFFFFFFFFFFFFFFFFFFFFE0 AND PUSH1 0x20 ADD SWAP1 JUMP JUMPDEST SWAP3 SWAP2 SWAP3 PUSH2 0x2274 DUP3 PUSH2 0x222E JUMP JUMPDEST SWAP2 PUSH2 0x2282 PUSH1 0x40 MLOAD SWAP4 DUP5 PUSH2 0x21ED JUMP JUMPDEST DUP3 SWAP5 DUP2 DUP5 MSTORE DUP2 DUP4 ADD GT PUSH2 0x19C JUMPI DUP3 DUP2 PUSH1 0x20 SWAP4 DUP5 PUSH1 0x0 SWAP7 ADD CALLDATACOPY ADD ADD MSTORE JUMP JUMPDEST PUSH1 0x4 CALLDATALOAD SWAP1 PUSH20 0xFFFFFFFFFFFFFFFFFFFFFFFFFFFFFFFFFFFFFFFF DUP3 AND DUP3 SUB PUSH2 0x19C JUMPI JUMP JUMPDEST SWAP2 DUP2 PUSH1 0x1F DUP5 ADD SLT ISZERO PUSH2 0x19C JUMPI DUP3 CALLDATALOAD SWAP2 PUSH8 0xFFFFFFFFFFFFFFFF DUP4 GT PUSH2 0x19C JUMPI PUSH1 0x20 DUP4 DUP2 DUP7 ADD SWAP6 ADD ADD GT PUSH2 0x19C JUMPI JUMP JUMPDEST PUSH1 0x24 CALLDATALOAD SWAP1 PUSH24 0xFFFFFFFFFFFFFFFFFFFFFFFFFFFFFFFFFFFFFFFFFFFFFFFF DUP3 AND DUP3 SUB PUSH2 0x19C JUMPI JUMP JUMPDEST SWAP1 PUSH1 0x40 PUSH32 0xFFFFFFFFFFFFFFFFFFFFFFFFFFFFFFFFFFFFFFFFFFFFFFFFFFFFFFFFFFFFFFFC DUP4 ADD SLT PUSH2 0x19C JUMPI PUSH1 0x4 CALLDATALOAD PUSH8 0xFFFFFFFFFFFFFFFF SWAP3 DUP4 DUP3 GT PUSH2 0x19C JUMPI DUP1 PUSH1 0x23 DUP4 ADD SLT ISZERO PUSH2 0x19C JUMPI DUP2 PUSH1 0x4 ADD CALLDATALOAD SWAP4 DUP5 GT PUSH2 0x19C JUMPI PUSH1 0x24 DUP5 PUSH1 0x5 SHL DUP4 ADD ADD GT PUSH2 0x19C JUMPI PUSH1 0x24 ADD SWAP2 SWAP1 PUSH1 0x24 CALLDATALOAD PUSH20 0xFFFFFFFFFFFFFFFFFFFFFFFFFFFFFFFFFFFFFFFF DUP2 AND DUP2 SUB PUSH2 0x19C JUMPI SWAP1 JUMP JUMPDEST PUSH1 0x0 JUMPDEST DUP4 DUP2 LT PUSH2 0x23B6 JUMPI POP POP PUSH1 0x0 SWAP2 ADD MSTORE JUMP JUMPDEST DUP2 DUP2 ADD MLOAD DUP4 DUP3 ADD MSTORE PUSH1 0x20 ADD PUSH2 0x23A6 JUMP JUMPDEST SWAP1 PUSH32 0xFFFFFFFFFFFFFFFFFFFFFFFFFFFFFFFFFFFFFFFFFFFFFFFFFFFFFFFFFFFFFFE0 PUSH1 0x1F PUSH1 0x20 SWAP4 PUSH2 0x2402 DUP2 MLOAD DUP1 SWAP3 DUP2 DUP8 MSTORE DUP8 DUP1 DUP9 ADD SWAP2 ADD PUSH2 0x23A3 JUMP JUMPDEST ADD AND ADD ADD SWAP1 JUMP JUMPDEST SWAP2 SWAP1 DUP3 ADD DUP1 SWAP3 GT PUSH2 0xB4F JUMPI JUMP JUMPDEST PUSH32 0xFFFFFFFFFFFFFFFFFFFFFFFFFFFFFFFFFFFFFFFFFFFFFFFFFFFFFFFFFFFFFFFF DUP2 EQ PUSH2 0xB4F JUMPI PUSH1 0x1 ADD SWAP1 JUMP JUMPDEST SWAP2 SWAP1 DUP3 SUB SWAP2 DUP3 GT PUSH2 0xB4F JUMPI JUMP JUMPDEST RETURNDATASIZE ISZERO PUSH2 0x247B JUMPI RETURNDATASIZE SWAP1 PUSH2 0x2461 DUP3 PUSH2 0x222E JUMP JUMPDEST SWAP2 PUSH2 0x246F PUSH1 0x40 MLOAD SWAP4 DUP5 PUSH2 0x21ED JUMP JUMPDEST DUP3 MSTORE RETURNDATASIZE PUSH1 0x0 PUSH1 0x20 DUP5 ADD RETURNDATACOPY JUMP JUMPDEST PUSH1 0x60 SWAP1 JUMP JUMPDEST PUSH1 0x40 PUSH2 0x248E DUP2 DUP4 ADD DUP4 PUSH2 0x284B JUMP JUMPDEST SWAP1 DUP2 DUP4 MLOAD SWAP2 DUP3 CALLDATACOPY KECCAK256 PUSH2 0x24A3 PUSH1 0x60 DUP5 ADD DUP5 PUSH2 0x284B JUMP JUMPDEST SWAP1 DUP2 DUP5 MLOAD SWAP2 DUP3 CALLDATACOPY KECCAK256 SWAP3 PUSH1 0xC0 PUSH2 0x24BB PUSH1 0xE0 DUP4 ADD DUP4 PUSH2 0x284B JUMP JUMPDEST SWAP1 DUP2 DUP7 MLOAD SWAP2 DUP3 CALLDATACOPY KECCAK256 SWAP2 DUP5 MLOAD SWAP6 PUSH1 0x20 DUP8 ADD SWAP5 PUSH20 0xFFFFFFFFFFFFFFFFFFFFFFFFFFFFFFFFFFFFFFFF DUP4 CALLDATALOAD AND DUP7 MSTORE PUSH1 0x20 DUP4 ADD CALLDATALOAD DUP8 DUP10 ADD MSTORE PUSH1 0x60 DUP9 ADD MSTORE PUSH1 0x80 DUP8 ADD MSTORE PUSH1 0x80 DUP2 ADD CALLDATALOAD PUSH1 0xA0 DUP8 ADD MSTORE PUSH1 0xA0 DUP2 ADD CALLDATALOAD DUP3 DUP8 ADD MSTORE ADD CALLDATALOAD PUSH1 0xE0 DUP6 ADD MSTORE PUSH2 0x100 SWAP1 DUP2 DUP6 ADD MSTORE DUP4 MSTORE PUSH2 0x120 DUP4 ADD SWAP2 PUSH8 0xFFFFFFFFFFFFFFFF SWAP2 DUP5 DUP5 LT DUP4 DUP6 GT OR PUSH2 0x2171 JUMPI DUP4 DUP3 MSTORE DUP5 MLOAD SWAP1 KECCAK256 PUSH2 0x140 DUP6 ADD SWAP1 DUP2 MSTORE ADDRESS PUSH2 0x160 DUP7 ADD MSTORE CHAINID PUSH2 0x180 DUP7 ADD MSTORE PUSH1 0x60 DUP5 MSTORE SWAP4 PUSH2 0x1A0 ADD SWAP2 DUP3 GT DUP4 DUP4 LT OR PUSH2 0x2171 JUMPI MSTORE MLOAD SWAP1 KECCAK256 SWAP1 JUMP JUMPDEST PUSH8 0xFFFFFFFFFFFFFFFF DUP2 GT PUSH2 0x2171 JUMPI PUSH1 0x5 SHL PUSH1 0x20 ADD SWAP1 JUMP JUMPDEST SWAP1 PUSH2 0x2592 DUP3 PUSH2 0x2570 JUMP JUMPDEST PUSH1 0x40 SWAP1 PUSH2 0x25A2 PUSH1 0x40 MLOAD SWAP2 DUP3 PUSH2 0x21ED JUMP JUMPDEST DUP4 DUP2 MSTORE PUSH32 0xFFFFFFFFFFFFFFFFFFFFFFFFFFFFFFFFFFFFFFFFFFFFFFFFFFFFFFFFFFFFFFE0 PUSH2 0x25D0 DUP3 SWAP6 PUSH2 0x2570 JUMP JUMPDEST ADD SWAP2 PUSH1 0x0 JUMPDEST DUP4 DUP2 LT PUSH2 0x25E2 JUMPI POP POP POP POP JUMP JUMPDEST PUSH1 0x20 SWAP1 DUP3 MLOAD PUSH2 0x25F0 DUP2 PUSH2 0x2155 JUMP JUMPDEST DUP4 MLOAD PUSH2 0x25FB DUP2 PUSH2 0x21A0 JUMP JUMPDEST PUSH1 0x0 DUP2 MSTORE PUSH1 0x0 DUP5 SWAP2 DUP2 DUP4 DUP3 ADD MSTORE DUP2 DUP8 DUP3 ADD MSTORE DUP2 PUSH1 0x60 DUP2 DUP2 DUP5 ADD MSTORE PUSH1 0x80 SWAP3 DUP3 DUP5 DUP3 ADD MSTORE DUP3 PUSH1 0xA0 DUP3 ADD MSTORE DUP3 PUSH1 0xC0 DUP3 ADD MSTORE DUP3 PUSH1 0xE0 DUP3 ADD MSTORE DUP3 PUSH2 0x100 DUP3 ADD MSTORE DUP3 PUSH2 0x120 DUP3 ADD MSTORE DUP7 MSTORE DUP2 DUP6 DUP8 ADD MSTORE DUP2 DUP10 DUP8 ADD MSTORE DUP6 ADD MSTORE DUP4 ADD MSTORE DUP3 DUP7 ADD ADD MSTORE ADD PUSH2 0x25D5 JUMP JUMPDEST DUP1 MLOAD DUP3 LT ISZERO PUSH2 0x266E JUMPI PUSH1 0x20 SWAP2 PUSH1 0x5 SHL ADD ADD SWAP1 JUMP JUMPDEST PUSH32 0x4E487B7100000000000000000000000000000000000000000000000000000000 PUSH1 0x0 MSTORE PUSH1 0x32 PUSH1 0x4 MSTORE PUSH1 0x24 PUSH1 0x0 REVERT JUMPDEST SWAP2 SWAP1 DUP2 LT ISZERO PUSH2 0x266E JUMPI PUSH1 0x5 SHL DUP2 ADD CALLDATALOAD SWAP1 PUSH32 0xFFFFFFFFFFFFFFFFFFFFFFFFFFFFFFFFFFFFFFFFFFFFFFFFFFFFFFFFFFFFFEE1 DUP2 CALLDATASIZE SUB ADD DUP3 SLT ISZERO PUSH2 0x19C JUMPI ADD SWAP1 JUMP JUMPDEST SWAP1 DUP2 PUSH1 0x20 SWAP2 SUB SLT PUSH2 0x19C JUMPI MLOAD PUSH20 0xFFFFFFFFFFFFFFFFFFFFFFFFFFFFFFFFFFFFFFFF DUP2 AND DUP2 SUB PUSH2 0x19C JUMPI SWAP1 JUMP JUMPDEST PUSH1 0x1F DUP3 PUSH1 0x20 SWAP5 SWAP4 PUSH32 0xFFFFFFFFFFFFFFFFFFFFFFFFFFFFFFFFFFFFFFFFFFFFFFFFFFFFFFFFFFFFFFE0 SWAP4 DUP2 DUP7 MSTORE DUP7 DUP7 ADD CALLDATACOPY PUSH1 0x0 DUP6 DUP3 DUP7 ADD ADD MSTORE ADD AND ADD ADD SWAP1 JUMP JUMPDEST PUSH32 0x2DA466A7B24304F47E87FA2E1E5A81B9831CE54FEC19055CE277CA2F39BA42C4 PUSH1 0x20 PUSH20 0xFFFFFFFFFFFFFFFFFFFFFFFFFFFFFFFFFFFFFFFF PUSH2 0x278A CALLVALUE DUP6 PUSH2 0x3C93 JUMP JUMPDEST SWAP4 PUSH1 0x40 MLOAD SWAP5 DUP6 MSTORE AND SWAP3 LOG2 JUMP JUMPDEST SWAP2 SWAP1 DUP2 LT ISZERO PUSH2 0x266E JUMPI PUSH1 0x5 SHL DUP2 ADD CALLDATALOAD SWAP1 PUSH32 0xFFFFFFFFFFFFFFFFFFFFFFFFFFFFFFFFFFFFFFFFFFFFFFFFFFFFFFFFFFFFFFA1 DUP2 CALLDATASIZE SUB ADD DUP3 SLT ISZERO PUSH2 0x19C JUMPI ADD SWAP1 JUMP JUMPDEST SWAP1 CALLDATALOAD SWAP1 PUSH32 0xFFFFFFFFFFFFFFFFFFFFFFFFFFFFFFFFFFFFFFFFFFFFFFFFFFFFFFFFFFFFFFE1 DUP2 CALLDATASIZE SUB ADD DUP3 SLT ISZERO PUSH2 0x19C JUMPI ADD DUP1 CALLDATALOAD SWAP1 PUSH8 0xFFFFFFFFFFFFFFFF DUP3 GT PUSH2 0x19C JUMPI PUSH1 0x20 ADD SWAP2 DUP2 PUSH1 0x5 SHL CALLDATASIZE SUB DUP4 SGT PUSH2 0x19C JUMPI JUMP JUMPDEST CALLDATALOAD PUSH20 0xFFFFFFFFFFFFFFFFFFFFFFFFFFFFFFFFFFFFFFFF DUP2 AND DUP2 SUB PUSH2 0x19C JUMPI SWAP1 JUMP JUMPDEST SWAP1 CALLDATALOAD SWAP1 PUSH32 0xFFFFFFFFFFFFFFFFFFFFFFFFFFFFFFFFFFFFFFFFFFFFFFFFFFFFFFFFFFFFFFE1 DUP2 CALLDATASIZE SUB ADD DUP3 SLT ISZERO PUSH2 0x19C JUMPI ADD DUP1 CALLDATALOAD SWAP1 PUSH8 0xFFFFFFFFFFFFFFFF DUP3 GT PUSH2 0x19C JUMPI PUSH1 0x20 ADD SWAP2 DUP2 CALLDATASIZE SUB DUP4 SGT PUSH2 0x19C JUMPI JUMP JUMPDEST SWAP1 CALLDATALOAD PUSH32 0xFFFFFFFFFFFFFFFFFFFFFFFFFFFFFFFFFFFFFFFFFFFFFFFFFFFFFFFFFFFFFFE1 DUP3 CALLDATASIZE SUB ADD DUP2 SLT ISZERO PUSH2 0x19C JUMPI ADD PUSH1 0x20 DUP2 CALLDATALOAD SWAP2 ADD SWAP2 PUSH8 0xFFFFFFFFFFFFFFFF DUP3 GT PUSH2 0x19C JUMPI DUP2 CALLDATASIZE SUB DUP4 SGT PUSH2 0x19C JUMPI JUMP JUMPDEST PUSH2 0x120 SWAP2 DUP2 CALLDATALOAD PUSH20 0xFFFFFFFFFFFFFFFFFFFFFFFFFFFFFFFFFFFFFFFF DUP2 AND DUP1 SWAP2 SUB PUSH2 0x19C JUMPI PUSH2 0x2962 PUSH2 0x2947 PUSH2 0x29BA SWAP6 PUSH2 0x299B SWAP4 DUP6 MSTORE PUSH1 0x20 DUP7 ADD CALLDATALOAD PUSH1 0x20 DUP7 ADD MSTORE PUSH2 0x2937 PUSH1 0x40 DUP8 ADD DUP8 PUSH2 0x289C JUMP JUMPDEST SWAP1 SWAP2 DUP1 PUSH1 0x40 DUP9 ADD MSTORE DUP7 ADD SWAP2 PUSH2 0x2709 JUMP JUMPDEST PUSH2 0x2954 PUSH1 0x60 DUP7 ADD DUP7 PUSH2 0x289C JUMP JUMPDEST SWAP1 DUP6 DUP4 SUB PUSH1 0x60 DUP8 ADD MSTORE PUSH2 0x2709 JUMP JUMPDEST PUSH1 0x80 DUP5 ADD CALLDATALOAD PUSH1 0x80 DUP5 ADD MSTORE PUSH1 0xA0 DUP5 ADD CALLDATALOAD PUSH1 0xA0 DUP5 ADD MSTORE PUSH1 0xC0 DUP5 ADD CALLDATALOAD PUSH1 0xC0 DUP5 ADD MSTORE PUSH2 0x298D PUSH1 0xE0 DUP6 ADD DUP6 PUSH2 0x289C JUMP JUMPDEST SWAP1 DUP5 DUP4 SUB PUSH1 0xE0 DUP7 ADD MSTORE PUSH2 0x2709 JUMP JUMPDEST SWAP2 PUSH2 0x29AC PUSH2 0x100 SWAP2 DUP3 DUP2 ADD SWAP1 PUSH2 0x289C JUMP JUMPDEST SWAP3 SWAP1 SWAP2 DUP2 DUP6 SUB SWAP2 ADD MSTORE PUSH2 0x2709 JUMP JUMPDEST SWAP1 JUMP JUMPDEST PUSH1 0x2 DUP1 SLOAD EQ PUSH2 0x29CC JUMPI PUSH1 0x2 DUP1 SSTORE JUMP JUMPDEST PUSH1 0x4 PUSH1 0x40 MLOAD PUSH32 0x3EE5AEB500000000000000000000000000000000000000000000000000000000 DUP2 MSTORE REVERT JUMPDEST SWAP3 PUSH1 0x0 SWAP1 GAS SWAP4 DUP1 MLOAD SWAP5 DUP5 CALLDATALOAD PUSH20 0xFFFFFFFFFFFFFFFFFFFFFFFFFFFFFFFFFFFFFFFF DUP2 AND DUP1 SWAP2 SUB PUSH2 0x19C JUMPI DUP7 MSTORE PUSH1 0x20 DUP6 ADD CALLDATALOAD PUSH1 0x20 DUP8 ADD MSTORE PUSH1 0x80 DUP6 ADD CALLDATALOAD PUSH16 0xFFFFFFFFFFFFFFFFFFFFFFFFFFFFFFFF SWAP1 DUP2 DUP2 AND PUSH1 0x60 DUP10 ADD MSTORE PUSH1 0x80 SHR PUSH1 0x40 DUP9 ADD MSTORE PUSH1 0xA0 DUP7 ADD CALLDATALOAD PUSH1 0xC0 DUP9 ADD MSTORE PUSH1 0xC0 DUP7 ADD CALLDATALOAD SWAP1 DUP2 AND PUSH2 0x100 DUP9 ADD MSTORE PUSH1 0x80 SHR PUSH2 0x120 DUP8 ADD MSTORE PUSH2 0x2A80 PUSH1 0xE0 DUP7 ADD DUP7 PUSH2 0x284B JUMP JUMPDEST DUP1 ISZERO PUSH2 0x357B JUMPI PUSH1 0x34 DUP2 LT PUSH2 0x351D JUMPI DUP1 PUSH1 0x14 GT PUSH2 0x19C JUMPI DUP1 PUSH1 0x24 GT PUSH2 0x19C JUMPI PUSH1 0x34 GT PUSH2 0x19C JUMPI PUSH1 0x24 DUP2 ADD CALLDATALOAD PUSH1 0x80 SHR PUSH1 0xA0 DUP9 ADD MSTORE PUSH1 0x14 DUP2 ADD CALLDATALOAD PUSH1 0x80 SHR PUSH1 0x80 DUP9 ADD MSTORE CALLDATALOAD PUSH1 0x60 SHR PUSH1 0xE0 DUP8 ADD MSTORE JUMPDEST PUSH2 0x2AD2 DUP6 PUSH2 0x2480 JUMP JUMPDEST PUSH1 0x20 DUP4 ADD MSTORE PUSH1 0x40 DUP7 ADD MLOAD SWAP5 PUSH15 0xFFFFFFFFFFFFFFFFFFFFFFFFFFFFFF DUP7 PUSH1 0xC0 DUP10 ADD MLOAD OR PUSH1 0x60 DUP10 ADD MLOAD OR PUSH1 0x80 DUP10 ADD MLOAD OR PUSH1 0xA0 DUP10 ADD MLOAD OR PUSH2 0x100 DUP10 ADD MLOAD OR PUSH2 0x120 DUP10 ADD MLOAD OR GT PUSH2 0x34BF JUMPI PUSH1 0x40 DUP8 ADD MLOAD PUSH1 0x60 DUP9 ADD MLOAD ADD PUSH1 0x80 DUP9 ADD MLOAD ADD PUSH1 0xA0 DUP9 ADD MLOAD ADD PUSH1 0xC0 DUP9 ADD MLOAD ADD PUSH2 0x100 DUP9 ADD MLOAD MUL SWAP7 DUP4 MLOAD PUSH20 0xFFFFFFFFFFFFFFFFFFFFFFFFFFFFFFFFFFFFFFFF DUP2 MLOAD AND SWAP1 PUSH2 0x2B66 PUSH1 0x40 DUP6 ADD DUP6 PUSH2 0x284B JUMP JUMPDEST DUP1 PUSH2 0x31E4 JUMPI JUMPDEST POP POP PUSH1 0xE0 ADD MLOAD PUSH20 0xFFFFFFFFFFFFFFFFFFFFFFFFFFFFFFFFFFFFFFFF AND SWAP1 PUSH1 0x0 DUP3 ISZERO PUSH2 0x31AC JUMPI JUMPDEST PUSH1 0x20 PUSH2 0x2BD7 SWAP2 DUP12 DUP3 DUP11 ADD MLOAD PUSH1 0x0 DUP7 DUP11 PUSH1 0x40 MLOAD SWAP8 DUP9 SWAP7 DUP8 SWAP6 DUP7 SWAP4 PUSH32 0x19822F7C00000000000000000000000000000000000000000000000000000000 DUP6 MSTORE PUSH1 0x4 DUP6 ADD PUSH2 0x3DB0 JUMP JUMPDEST SUB SWAP4 CALL PUSH1 0x0 SWAP2 DUP2 PUSH2 0x3178 JUMPI JUMPDEST POP PUSH2 0x2C8B JUMPI RETURNDATASIZE DUP13 PUSH2 0x800 DUP1 DUP4 GT PUSH2 0x2C83 JUMPI JUMPDEST POP PUSH1 0x40 MLOAD SWAP2 PUSH1 0x20 DUP2 DUP5 ADD ADD PUSH1 0x40 MSTORE DUP1 DUP4 MSTORE PUSH1 0x0 PUSH1 0x20 DUP5 ADD RETURNDATACOPY PUSH2 0xE7E PUSH1 0x40 MLOAD SWAP3 DUP4 SWAP3 PUSH32 0x65C8FD4D00000000000000000000000000000000000000000000000000000000 DUP5 MSTORE PUSH1 0x4 DUP5 ADD MSTORE PUSH1 0x60 PUSH1 0x24 DUP5 ADD MSTORE PUSH1 0xD PUSH1 0x64 DUP5 ADD MSTORE PUSH32 0x4141323320726576657274656400000000000000000000000000000000000000 PUSH1 0x84 DUP5 ADD MSTORE PUSH1 0xA0 PUSH1 0x44 DUP5 ADD MSTORE PUSH1 0xA4 DUP4 ADD SWAP1 PUSH2 0x23C6 JUMP JUMPDEST SWAP2 POP DUP3 PUSH2 0x2BF5 JUMP JUMPDEST SWAP11 SWAP3 SWAP4 SWAP5 SWAP6 SWAP7 SWAP8 SWAP9 SWAP10 SWAP11 SWAP2 ISZERO PUSH2 0x30F2 JUMPI JUMPDEST POP SWAP8 PUSH20 0xFFFFFFFFFFFFFFFFFFFFFFFFFFFFFFFFFFFFFFFF DUP4 MLOAD AND PUSH1 0x20 DUP5 ADD MLOAD SWAP1 PUSH1 0x0 MSTORE PUSH1 0x1 PUSH1 0x20 MSTORE PUSH1 0x40 PUSH1 0x0 KECCAK256 DUP2 PUSH1 0x40 SHR PUSH1 0x0 MSTORE PUSH1 0x20 MSTORE PUSH8 0xFFFFFFFFFFFFFFFF PUSH1 0x40 PUSH1 0x0 KECCAK256 SWAP2 DUP3 SLOAD SWAP3 PUSH2 0x2CEE DUP5 PUSH2 0x2416 JUMP JUMPDEST SWAP1 SSTORE AND SUB PUSH2 0x308D JUMPI GAS DUP6 SUB GT PUSH2 0x3028 JUMPI PUSH20 0xFFFFFFFFFFFFFFFFFFFFFFFFFFFFFFFFFFFFFFFF PUSH1 0xE0 PUSH1 0x60 SWAP4 ADD MLOAD AND PUSH2 0x2D42 JUMPI JUMPDEST POP SWAP1 PUSH1 0xA0 SWAP2 DUP5 SWAP6 SWAP7 SWAP8 SWAP9 PUSH1 0x40 PUSH1 0x80 SWAP7 ADD MSTORE PUSH1 0x60 DUP7 ADD MSTORE ADD CALLDATALOAD SWAP1 GAS SWAP1 SUB ADD SWAP2 ADD MSTORE JUMP JUMPDEST SWAP7 SWAP6 POP POP GAS SWAP7 DUP4 MLOAD SWAP8 PUSH20 0xFFFFFFFFFFFFFFFFFFFFFFFFFFFFFFFFFFFFFFFF PUSH1 0xE0 DUP11 ADD MLOAD AND DUP1 PUSH1 0x0 MSTORE PUSH1 0x0 PUSH1 0x20 MSTORE PUSH1 0x40 PUSH1 0x0 KECCAK256 DUP1 SLOAD DUP5 DUP2 LT PUSH2 0x2FC3 JUMPI PUSH1 0x80 PUSH2 0x2DCD SWAP11 SWAP12 SWAP13 PUSH1 0x0 SWAP4 DUP8 DUP1 SWAP5 SUB SWAP1 SSTORE ADD MLOAD SWAP3 PUSH1 0x20 DUP10 ADD MLOAD DUP4 PUSH1 0x40 MLOAD DUP1 SWAP14 DUP2 SWAP6 DUP3 SWAP5 PUSH32 0x52B7512C00000000000000000000000000000000000000000000000000000000 DUP5 MSTORE DUP13 PUSH1 0x4 DUP6 ADD PUSH2 0x3DB0 JUMP JUMPDEST SUB SWAP3 DUP7 CALL SWAP8 DUP9 PUSH1 0x0 SWAP2 PUSH1 0x0 SWAP11 PUSH2 0x2F36 JUMPI JUMPDEST POP PUSH2 0x2E86 JUMPI RETURNDATASIZE DUP12 PUSH2 0x800 DUP1 DUP4 GT PUSH2 0x2E7E JUMPI JUMPDEST POP PUSH1 0x40 MLOAD SWAP2 PUSH1 0x20 DUP2 DUP5 ADD ADD PUSH1 0x40 MSTORE DUP1 DUP4 MSTORE PUSH1 0x0 PUSH1 0x20 DUP5 ADD RETURNDATACOPY PUSH2 0xE7E PUSH1 0x40 MLOAD SWAP3 DUP4 SWAP3 PUSH32 0x65C8FD4D00000000000000000000000000000000000000000000000000000000 DUP5 MSTORE PUSH1 0x4 DUP5 ADD MSTORE PUSH1 0x60 PUSH1 0x24 DUP5 ADD MSTORE PUSH1 0xD PUSH1 0x64 DUP5 ADD MSTORE PUSH32 0x4141333320726576657274656400000000000000000000000000000000000000 PUSH1 0x84 DUP5 ADD MSTORE PUSH1 0xA0 PUSH1 0x44 DUP5 ADD MSTORE PUSH1 0xA4 DUP4 ADD SWAP1 PUSH2 0x23C6 JUMP JUMPDEST SWAP2 POP DUP3 PUSH2 0x2DF0 JUMP JUMPDEST SWAP10 SWAP2 SWAP3 SWAP4 SWAP5 SWAP6 SWAP7 SWAP8 SWAP9 SWAP10 SWAP9 SWAP3 GAS SWAP1 SUB GT PUSH2 0x2EAB JUMPI POP SWAP1 SWAP7 SWAP6 SWAP1 SWAP5 SWAP4 SWAP3 SWAP2 SWAP1 PUSH1 0x80 PUSH2 0x2D20 JUMP JUMPDEST PUSH1 0xA4 SWAP1 PUSH1 0x40 MLOAD SWAP1 PUSH32 0x220266B600000000000000000000000000000000000000000000000000000000 DUP3 MSTORE PUSH1 0x4 DUP3 ADD MSTORE PUSH1 0x40 PUSH1 0x24 DUP3 ADD MSTORE PUSH1 0x27 PUSH1 0x44 DUP3 ADD MSTORE PUSH32 0x41413336206F766572207061796D6173746572566572696669636174696F6E47 PUSH1 0x64 DUP3 ADD MSTORE PUSH32 0x61734C696D697400000000000000000000000000000000000000000000000000 PUSH1 0x84 DUP3 ADD MSTORE REVERT JUMPDEST SWAP2 POP SWAP9 POP RETURNDATASIZE SWAP1 DUP2 PUSH1 0x0 DUP3 RETURNDATACOPY PUSH2 0x2F4B DUP3 DUP3 PUSH2 0x21ED JUMP JUMPDEST PUSH1 0x40 DUP2 DUP4 DUP2 ADD SUB SLT PUSH2 0x19C JUMPI DUP1 MLOAD SWAP1 PUSH8 0xFFFFFFFFFFFFFFFF DUP3 GT PUSH2 0x19C JUMPI DUP3 DUP2 ADD PUSH1 0x1F DUP4 DUP4 ADD ADD SLT ISZERO PUSH2 0x19C JUMPI DUP2 DUP2 ADD MLOAD SWAP2 PUSH2 0x2F86 DUP4 PUSH2 0x222E JUMP JUMPDEST SWAP4 PUSH2 0x2F94 PUSH1 0x40 MLOAD SWAP6 DUP7 PUSH2 0x21ED JUMP JUMPDEST DUP4 DUP6 MSTORE DUP3 ADD PUSH1 0x20 DUP5 DUP4 DUP6 ADD ADD ADD GT PUSH2 0x19C JUMPI PUSH1 0x20 SWAP3 PUSH2 0x2FBA SWAP2 DUP5 DUP1 DUP8 ADD SWAP2 DUP6 ADD ADD PUSH2 0x23A3 JUMP JUMPDEST ADD MLOAD SWAP9 CODESIZE PUSH2 0x2DDE JUMP JUMPDEST PUSH1 0x84 DUP12 PUSH1 0x40 MLOAD SWAP1 PUSH32 0x220266B600000000000000000000000000000000000000000000000000000000 DUP3 MSTORE PUSH1 0x4 DUP3 ADD MSTORE PUSH1 0x40 PUSH1 0x24 DUP3 ADD MSTORE PUSH1 0x1E PUSH1 0x44 DUP3 ADD MSTORE PUSH32 0x41413331207061796D6173746572206465706F73697420746F6F206C6F770000 PUSH1 0x64 DUP3 ADD MSTORE REVERT JUMPDEST PUSH1 0x84 SWAP1 PUSH1 0x40 MLOAD SWAP1 PUSH32 0x220266B600000000000000000000000000000000000000000000000000000000 DUP3 MSTORE PUSH1 0x4 DUP3 ADD MSTORE PUSH1 0x40 PUSH1 0x24 DUP3 ADD MSTORE PUSH1 0x1E PUSH1 0x44 DUP3 ADD MSTORE PUSH32 0x41413236206F76657220766572696669636174696F6E4761734C696D69740000 PUSH1 0x64 DUP3 ADD MSTORE REVERT JUMPDEST PUSH1 0x84 DUP3 PUSH1 0x40 MLOAD SWAP1 PUSH32 0x220266B600000000000000000000000000000000000000000000000000000000 DUP3 MSTORE PUSH1 0x4 DUP3 ADD MSTORE PUSH1 0x40 PUSH1 0x24 DUP3 ADD MSTORE PUSH1 0x1A PUSH1 0x44 DUP3 ADD MSTORE PUSH32 0x4141323520696E76616C6964206163636F756E74206E6F6E6365000000000000 PUSH1 0x64 DUP3 ADD MSTORE REVERT JUMPDEST PUSH1 0x0 MSTORE PUSH1 0x0 PUSH1 0x20 MSTORE PUSH1 0x40 PUSH1 0x0 KECCAK256 DUP1 SLOAD DUP1 DUP13 GT PUSH2 0x3113 JUMPI DUP12 SWAP1 SUB SWAP1 SSTORE CODESIZE PUSH2 0x2C9C JUMP JUMPDEST PUSH1 0x84 DUP5 PUSH1 0x40 MLOAD SWAP1 PUSH32 0x220266B600000000000000000000000000000000000000000000000000000000 DUP3 MSTORE PUSH1 0x4 DUP3 ADD MSTORE PUSH1 0x40 PUSH1 0x24 DUP3 ADD MSTORE PUSH1 0x17 PUSH1 0x44 DUP3 ADD MSTORE PUSH32 0x41413231206469646E2774207061792070726566756E64000000000000000000 PUSH1 0x64 DUP3 ADD MSTORE REVERT JUMPDEST SWAP1 SWAP2 POP PUSH1 0x20 DUP2 RETURNDATASIZE PUSH1 0x20 GT PUSH2 0x31A4 JUMPI JUMPDEST DUP2 PUSH2 0x3194 PUSH1 0x20 SWAP4 DUP4 PUSH2 0x21ED JUMP JUMPDEST DUP2 ADD SUB SLT PUSH2 0x19C JUMPI MLOAD SWAP1 CODESIZE PUSH2 0x2BE3 JUMP JUMPDEST RETURNDATASIZE SWAP2 POP PUSH2 0x3187 JUMP JUMPDEST POP DUP1 PUSH1 0x0 MSTORE PUSH1 0x0 PUSH1 0x20 MSTORE PUSH1 0x40 PUSH1 0x0 KECCAK256 SLOAD DUP11 DUP2 GT PUSH1 0x0 EQ PUSH2 0x31D7 JUMPI POP PUSH2 0x2BD7 PUSH1 0x20 PUSH1 0x0 JUMPDEST SWAP2 POP POP PUSH2 0x2B92 JUMP JUMPDEST PUSH1 0x20 PUSH2 0x2BD7 SWAP2 DUP13 SUB PUSH2 0x31CF JUMP JUMPDEST DUP4 EXTCODESIZE PUSH2 0x345A JUMPI PUSH1 0x40 DUP9 MLOAD ADD MLOAD PUSH1 0x20 PUSH1 0x40 MLOAD DUP1 SWAP3 PUSH32 0x570E1A3600000000000000000000000000000000000000000000000000000000 DUP3 MSTORE DUP3 PUSH1 0x4 DUP4 ADD MSTORE DUP2 PUSH1 0x0 DUP2 PUSH2 0x3232 PUSH1 0x24 DUP3 ADD DUP10 DUP12 PUSH2 0x2709 JUMP JUMPDEST SUB SWAP3 PUSH20 0xFFFFFFFFFFFFFFFFFFFFFFFFFFFFFFFFFFFFFFFF PUSH32 0x0 AND SWAP1 CALL SWAP1 DUP2 ISZERO PUSH2 0xDB7 JUMPI PUSH1 0x0 SWAP2 PUSH2 0x343B JUMPI JUMPDEST POP PUSH20 0xFFFFFFFFFFFFFFFFFFFFFFFFFFFFFFFFFFFFFFFF DUP2 AND DUP1 ISZERO PUSH2 0x33D6 JUMPI DUP6 SUB PUSH2 0x3371 JUMPI EXTCODESIZE ISZERO PUSH2 0x330C JUMPI PUSH1 0x14 GT PUSH2 0x19C JUMPI PUSH20 0xFFFFFFFFFFFFFFFFFFFFFFFFFFFFFFFFFFFFFFFF SWAP2 DUP4 DUP9 PUSH32 0xD51A9C61267AA6196961883ECF5FF2DA6619C37DAC0FA92122513FB32C032D2D PUSH1 0x40 PUSH1 0xE0 SWAP6 DUP8 DUP8 PUSH1 0x20 DUP7 ADD MLOAD SWAP6 MLOAD ADD MLOAD AND DUP3 MLOAD SWAP2 CALLDATALOAD PUSH1 0x60 SHR DUP3 MSTORE PUSH1 0x20 DUP3 ADD MSTORE LOG3 SWAP2 PUSH2 0x2B6C JUMP JUMPDEST PUSH1 0x84 DUP14 PUSH1 0x40 MLOAD SWAP1 PUSH32 0x220266B600000000000000000000000000000000000000000000000000000000 DUP3 MSTORE PUSH1 0x4 DUP3 ADD MSTORE PUSH1 0x40 PUSH1 0x24 DUP3 ADD MSTORE PUSH1 0x20 PUSH1 0x44 DUP3 ADD MSTORE PUSH32 0x4141313520696E6974436F6465206D757374206372656174652073656E646572 PUSH1 0x64 DUP3 ADD MSTORE REVERT JUMPDEST PUSH1 0x84 DUP15 PUSH1 0x40 MLOAD SWAP1 PUSH32 0x220266B600000000000000000000000000000000000000000000000000000000 DUP3 MSTORE PUSH1 0x4 DUP3 ADD MSTORE PUSH1 0x40 PUSH1 0x24 DUP3 ADD MSTORE PUSH1 0x20 PUSH1 0x44 DUP3 ADD MSTORE PUSH32 0x4141313420696E6974436F6465206D7573742072657475726E2073656E646572 PUSH1 0x64 DUP3 ADD MSTORE REVERT JUMPDEST PUSH1 0x84 DUP16 PUSH1 0x40 MLOAD SWAP1 PUSH32 0x220266B600000000000000000000000000000000000000000000000000000000 DUP3 MSTORE PUSH1 0x4 DUP3 ADD MSTORE PUSH1 0x40 PUSH1 0x24 DUP3 ADD MSTORE PUSH1 0x1B PUSH1 0x44 DUP3 ADD MSTORE PUSH32 0x4141313320696E6974436F6465206661696C6564206F72204F4F470000000000 PUSH1 0x64 DUP3 ADD MSTORE REVERT JUMPDEST PUSH2 0x3454 SWAP2 POP PUSH1 0x20 RETURNDATASIZE PUSH1 0x20 GT PUSH2 0xDB0 JUMPI PUSH2 0xDA1 DUP2 DUP4 PUSH2 0x21ED JUMP JUMPDEST CODESIZE PUSH2 0x327C JUMP JUMPDEST PUSH1 0x84 DUP14 PUSH1 0x40 MLOAD SWAP1 PUSH32 0x220266B600000000000000000000000000000000000000000000000000000000 DUP3 MSTORE PUSH1 0x4 DUP3 ADD MSTORE PUSH1 0x40 PUSH1 0x24 DUP3 ADD MSTORE PUSH1 0x1F PUSH1 0x44 DUP3 ADD MSTORE PUSH32 0x414131302073656E64657220616C726561647920636F6E737472756374656400 PUSH1 0x64 DUP3 ADD MSTORE REVERT JUMPDEST PUSH1 0x64 PUSH1 0x40 MLOAD PUSH32 0x8C379A000000000000000000000000000000000000000000000000000000000 DUP2 MSTORE PUSH1 0x20 PUSH1 0x4 DUP3 ADD MSTORE PUSH1 0x18 PUSH1 0x24 DUP3 ADD MSTORE PUSH32 0x41413934206761732076616C756573206F766572666C6F770000000000000000 PUSH1 0x44 DUP3 ADD MSTORE REVERT JUMPDEST PUSH1 0x64 PUSH1 0x40 MLOAD PUSH32 0x8C379A000000000000000000000000000000000000000000000000000000000 DUP2 MSTORE PUSH1 0x20 PUSH1 0x4 DUP3 ADD MSTORE PUSH1 0x1D PUSH1 0x24 DUP3 ADD MSTORE PUSH32 0x4141393320696E76616C6964207061796D6173746572416E6444617461000000 PUSH1 0x44 DUP3 ADD MSTORE REVERT JUMPDEST POP POP PUSH1 0x0 PUSH1 0xE0 DUP8 ADD MSTORE PUSH1 0x0 PUSH1 0x80 DUP8 ADD MSTORE PUSH1 0x0 PUSH1 0xA0 DUP8 ADD MSTORE PUSH2 0x2AC9 JUMP JUMPDEST SWAP1 SWAP3 SWAP2 GAS SWAP1 PUSH1 0x60 DUP2 ADD MLOAD SWAP2 PUSH1 0x40 SWAP3 DUP4 MLOAD SWAP7 PUSH32 0xFFFFFFFF00000000000000000000000000000000000000000000000000000000 DUP9 PUSH2 0x35D7 PUSH1 0x60 DUP5 ADD DUP5 PUSH2 0x284B JUMP JUMPDEST PUSH1 0x0 PUSH1 0x3 DUP3 GT PUSH2 0x3B9A JUMPI JUMPDEST PUSH32 0x8DD7712F00000000000000000000000000000000000000000000000000000000 SWAP5 AND DUP5 SUB PUSH2 0x3A3F JUMPI POP POP POP PUSH2 0x379D PUSH1 0x0 SWAP3 PUSH2 0x36B2 SWAP3 PUSH1 0x20 DUP9 ADD MLOAD PUSH2 0x363A DUP11 MLOAD SWAP4 DUP5 SWAP4 PUSH1 0x20 DUP6 ADD MSTORE DUP12 PUSH1 0x24 DUP6 ADD MSTORE PUSH1 0x64 DUP5 ADD SWAP1 PUSH2 0x28EC JUMP JUMPDEST SWAP1 PUSH1 0x44 DUP4 ADD MSTORE SUB SWAP1 PUSH2 0x3672 PUSH32 0xFFFFFFFFFFFFFFFFFFFFFFFFFFFFFFFFFFFFFFFFFFFFFFFFFFFFFFFFFFFFFFE0 SWAP3 DUP4 DUP2 ADD DUP4 MSTORE DUP3 PUSH2 0x21ED JUMP JUMPDEST PUSH2 0x3791 DUP10 MLOAD SWAP5 DUP6 SWAP3 PUSH31 0x42DC5300000000000000000000000000000000000000000000000000000000 PUSH1 0x20 DUP6 ADD MSTORE PUSH2 0x200 PUSH1 0x24 DUP6 ADD MSTORE PUSH2 0x224 DUP5 ADD SWAP1 PUSH2 0x23C6 JUMP JUMPDEST PUSH2 0x3760 PUSH1 0x44 DUP5 ADD DUP12 PUSH1 0x80 PUSH2 0x1A0 SWAP2 DUP1 MLOAD PUSH20 0xFFFFFFFFFFFFFFFFFFFFFFFFFFFFFFFFFFFFFFFF DUP1 DUP3 MLOAD AND DUP7 MSTORE PUSH1 0x20 DUP3 ADD MLOAD PUSH1 0x20 DUP8 ADD MSTORE PUSH1 0x40 DUP3 ADD MLOAD PUSH1 0x40 DUP8 ADD MSTORE PUSH1 0x60 DUP3 ADD MLOAD PUSH1 0x60 DUP8 ADD MSTORE DUP4 DUP3 ADD MLOAD DUP5 DUP8 ADD MSTORE PUSH1 0xA0 DUP3 ADD MLOAD PUSH1 0xA0 DUP8 ADD MSTORE PUSH1 0xC0 DUP3 ADD MLOAD PUSH1 0xC0 DUP8 ADD MSTORE PUSH1 0xE0 DUP3 ADD MLOAD AND PUSH1 0xE0 DUP7 ADD MSTORE PUSH2 0x100 DUP1 DUP3 ADD MLOAD SWAP1 DUP7 ADD MSTORE PUSH2 0x120 DUP1 SWAP2 ADD MLOAD SWAP1 DUP6 ADD MSTORE PUSH1 0x20 DUP2 ADD MLOAD PUSH2 0x140 DUP6 ADD MSTORE PUSH1 0x40 DUP2 ADD MLOAD PUSH2 0x160 DUP6 ADD MSTORE PUSH1 0x60 DUP2 ADD MLOAD PUSH2 0x180 DUP6 ADD MSTORE ADD MLOAD SWAP2 ADD MSTORE JUMP JUMPDEST PUSH32 0xFFFFFFFFFFFFFFFFFFFFFFFFFFFFFFFFFFFFFFFFFFFFFFFFFFFFFFFFFFFFFFDC DUP4 DUP3 SUB ADD PUSH2 0x204 DUP5 ADD MSTORE DUP8 PUSH2 0x23C6 JUMP JUMPDEST SUB SWAP1 DUP2 ADD DUP4 MSTORE DUP3 PUSH2 0x21ED JUMP JUMPDEST PUSH1 0x20 SWAP2 DUP2 DUP4 DUP1 SWAP4 MLOAD SWAP2 ADD DUP3 ADDRESS GAS CALL PUSH1 0x0 MLOAD SWAP9 DUP7 MSTORE ISZERO PUSH2 0x37BF JUMPI JUMPDEST POP POP POP POP POP POP JUMP JUMPDEST SWAP1 SWAP2 SWAP3 SWAP4 SWAP5 SWAP6 SWAP7 POP PUSH1 0x0 RETURNDATASIZE DUP3 EQ PUSH2 0x3A35 JUMPI JUMPDEST PUSH32 0xDEADDEAD00000000000000000000000000000000000000000000000000000000 DUP2 SUB PUSH2 0x385B JUMPI PUSH1 0x84 DUP8 DUP8 DUP1 MLOAD SWAP2 PUSH32 0x220266B600000000000000000000000000000000000000000000000000000000 DUP4 MSTORE PUSH1 0x4 DUP4 ADD MSTORE PUSH1 0x24 DUP3 ADD MSTORE PUSH1 0xF PUSH1 0x44 DUP3 ADD MSTORE PUSH32 0x41413935206F7574206F66206761730000000000000000000000000000000000 PUSH1 0x64 DUP3 ADD MSTORE REVERT JUMPDEST PUSH32 0xDEADAA5100000000000000000000000000000000000000000000000000000000 SWAP2 SWAP3 SWAP4 SWAP5 SWAP7 POP EQ PUSH1 0x0 EQ PUSH2 0x38C5 JUMPI POP POP SWAP1 PUSH2 0x38A9 PUSH2 0x389E PUSH2 0x38B8 SWAP4 GAS SWAP1 PUSH2 0x2443 JUMP JUMPDEST PUSH1 0x80 DUP6 ADD MLOAD SWAP1 PUSH2 0x2409 JUMP JUMPDEST SWAP1 DUP4 ADD MLOAD DUP4 PUSH2 0x1D74 DUP3 SWAP6 PUSH2 0x3D60 JUMP JUMPDEST SWAP1 JUMPDEST CODESIZE DUP1 DUP1 DUP1 DUP1 DUP1 PUSH2 0x37B7 JUMP JUMPDEST SWAP2 PUSH2 0x3954 SWAP1 DUP4 DUP7 SWAP4 SWAP8 SWAP7 ADD MLOAD DUP4 MLOAD SWAP1 PUSH32 0xF62676F440FF169A3A9AFDBF812E89E7F95975EE8E5C31214FFDEF631C5F4792 PUSH20 0xFFFFFFFFFFFFFFFFFFFFFFFFFFFFFFFFFFFFFFFF SWAP7 DUP1 DUP9 DUP6 MLOAD AND SWAP5 ADD MLOAD PUSH2 0x394A RETURNDATASIZE PUSH2 0x800 DUP1 DUP3 GT PUSH2 0x3A2D JUMPI JUMPDEST POP DUP12 MLOAD SWAP1 DUP5 DUP2 DUP4 ADD ADD DUP14 MSTORE DUP1 DUP3 MSTORE PUSH1 0x0 DUP6 DUP4 ADD RETURNDATACOPY DUP12 DUP1 MLOAD SWAP5 DUP6 SWAP5 DUP6 MSTORE DUP5 ADD MSTORE DUP12 DUP4 ADD SWAP1 PUSH2 0x23C6 JUMP JUMPDEST SUB SWAP1 LOG3 GAS SWAP1 PUSH2 0x2443 JUMP JUMPDEST SWAP1 PUSH2 0x3965 PUSH1 0x80 DUP3 ADD SWAP3 DUP4 MLOAD SWAP1 PUSH2 0x2409 JUMP JUMPDEST SWAP6 GAS SWAP3 PUSH1 0x0 SWAP8 DUP4 MLOAD SWAP6 PUSH2 0x3977 DUP8 PUSH2 0x3CC7 JUMP JUMPDEST SWAP4 DUP2 PUSH1 0xE0 DUP10 ADD MLOAD AND DUP1 ISZERO PUSH1 0x0 EQ PUSH2 0x3A19 JUMPI POP POP DUP7 MLOAD AND SWAP5 JUMPDEST GAS SWAP1 SUB ADD SWAP5 PUSH1 0xA0 PUSH1 0x60 DUP3 ADD MLOAD SWAP2 ADD MLOAD ADD SWAP1 MLOAD DUP6 SUB SWAP1 DUP2 DUP2 GT PUSH2 0x3A05 JUMPI JUMPDEST POP POP DUP4 MUL SWAP4 DUP2 ADD MLOAD SWAP2 DUP5 DUP4 LT PUSH1 0x0 EQ PUSH2 0x39DB JUMPI POP DUP6 PUSH2 0x1DA0 JUMPI PUSH2 0x39D5 SWAP4 SWAP5 SWAP6 POP PUSH2 0x1D74 DUP2 PUSH2 0x3D60 JUMP JUMPDEST SWAP1 PUSH2 0x38BA JUMP JUMPDEST PUSH2 0x39EF SWAP1 DUP6 DUP9 SWAP5 SWAP9 SWAP4 SWAP6 SWAP7 SWAP8 SWAP9 SUB SWAP1 PUSH2 0x3C93 JUMP JUMPDEST POP PUSH2 0x1E67 JUMPI POP SWAP1 DUP3 PUSH2 0x3A00 SWAP3 PUSH2 0x3CF1 JUMP JUMPDEST PUSH2 0x39D5 JUMP JUMPDEST PUSH1 0x64 SWAP2 SWAP1 SUB PUSH1 0xA MUL DIV SWAP1 SWAP4 ADD SWAP3 CODESIZE DUP1 PUSH2 0x39AC JUMP JUMPDEST SWAP1 SWAP7 SWAP2 POP SWAP6 MLOAD ISZERO PUSH2 0x398F JUMPI PUSH1 0x0 SWAP10 POP PUSH2 0x398F JUMP JUMPDEST SWAP1 POP CODESIZE PUSH2 0x3922 JUMP JUMPDEST DUP2 DUP2 DUP1 RETURNDATACOPY MLOAD PUSH2 0x37D1 JUMP JUMPDEST PUSH2 0x3B92 SWAP5 POP DUP3 SWAP4 POP SWAP1 PUSH2 0x3A87 SWAP2 PUSH31 0x42DC5300000000000000000000000000000000000000000000000000000000 PUSH1 0x20 PUSH2 0x3B66 SWAP6 ADD MSTORE PUSH2 0x200 PUSH1 0x24 DUP7 ADD MSTORE PUSH2 0x224 DUP6 ADD SWAP2 PUSH2 0x2709 JUMP JUMPDEST PUSH2 0x3B35 PUSH1 0x44 DUP5 ADD DUP9 PUSH1 0x80 PUSH2 0x1A0 SWAP2 DUP1 MLOAD PUSH20 0xFFFFFFFFFFFFFFFFFFFFFFFFFFFFFFFFFFFFFFFF DUP1 DUP3 MLOAD AND DUP7 MSTORE PUSH1 0x20 DUP3 ADD MLOAD PUSH1 0x20 DUP8 ADD MSTORE PUSH1 0x40 DUP3 ADD MLOAD PUSH1 0x40 DUP8 ADD MSTORE PUSH1 0x60 DUP3 ADD MLOAD PUSH1 0x60 DUP8 ADD MSTORE DUP4 DUP3 ADD MLOAD DUP5 DUP8 ADD MSTORE PUSH1 0xA0 DUP3 ADD MLOAD PUSH1 0xA0 DUP8 ADD MSTORE PUSH1 0xC0 DUP3 ADD MLOAD PUSH1 0xC0 DUP8 ADD MSTORE PUSH1 0xE0 DUP3 ADD MLOAD AND PUSH1 0xE0 DUP7 ADD MSTORE PUSH2 0x100 DUP1 DUP3 ADD MLOAD SWAP1 DUP7 ADD MSTORE PUSH2 0x120 DUP1 SWAP2 ADD MLOAD SWAP1 DUP6 ADD MSTORE PUSH1 0x20 DUP2 ADD MLOAD PUSH2 0x140 DUP6 ADD MSTORE PUSH1 0x40 DUP2 ADD MLOAD PUSH2 0x160 DUP6 ADD MSTORE PUSH1 0x60 DUP2 ADD MLOAD PUSH2 0x180 DUP6 ADD MSTORE ADD MLOAD SWAP2 ADD MSTORE JUMP JUMPDEST PUSH32 0xFFFFFFFFFFFFFFFFFFFFFFFFFFFFFFFFFFFFFFFFFFFFFFFFFFFFFFFFFFFFFFDC DUP4 DUP3 SUB ADD PUSH2 0x204 DUP5 ADD MSTORE DUP5 PUSH2 0x23C6 JUMP JUMPDEST SUB PUSH32 0xFFFFFFFFFFFFFFFFFFFFFFFFFFFFFFFFFFFFFFFFFFFFFFFFFFFFFFFFFFFFFFE0 DUP2 ADD DUP10 MSTORE DUP9 PUSH2 0x21ED JUMP JUMPDEST PUSH1 0x0 DUP8 PUSH2 0x379D JUMP JUMPDEST POP DUP2 CALLDATALOAD PUSH2 0x35E2 JUMP JUMPDEST PUSH20 0xFFFFFFFFFFFFFFFFFFFFFFFFFFFFFFFFFFFFFFFF AND DUP1 ISZERO PUSH2 0x3C35 JUMPI PUSH1 0x0 DUP1 DUP1 SWAP4 DUP2 SWAP4 GAS CALL PUSH2 0x3BCF PUSH2 0x2450 JUMP JUMPDEST POP ISZERO PUSH2 0x3BD7 JUMPI JUMP JUMPDEST PUSH1 0x64 PUSH1 0x40 MLOAD PUSH32 0x8C379A000000000000000000000000000000000000000000000000000000000 DUP2 MSTORE PUSH1 0x20 PUSH1 0x4 DUP3 ADD MSTORE PUSH1 0x1F PUSH1 0x24 DUP3 ADD MSTORE PUSH32 0x41413931206661696C65642073656E6420746F2062656E656669636961727900 PUSH1 0x44 DUP3 ADD MSTORE REVERT JUMPDEST PUSH1 0x64 PUSH1 0x40 MLOAD PUSH32 0x8C379A000000000000000000000000000000000000000000000000000000000 DUP2 MSTORE PUSH1 0x20 PUSH1 0x4 DUP3 ADD MSTORE PUSH1 0x18 PUSH1 0x24 DUP3 ADD MSTORE PUSH32 0x4141393020696E76616C69642062656E65666963696172790000000000000000 PUSH1 0x44 DUP3 ADD MSTORE REVERT JUMPDEST PUSH20 0xFFFFFFFFFFFFFFFFFFFFFFFFFFFFFFFFFFFFFFFF AND PUSH1 0x0 MSTORE PUSH1 0x0 PUSH1 0x20 MSTORE PUSH2 0x3CC1 PUSH1 0x40 PUSH1 0x0 KECCAK256 SWAP2 DUP3 SLOAD PUSH2 0x2409 JUMP JUMPDEST DUP1 SWAP2 SSTORE SWAP1 JUMP JUMPDEST PUSH2 0x120 PUSH2 0x100 DUP3 ADD MLOAD SWAP2 ADD MLOAD DUP1 DUP3 EQ PUSH2 0x3CED JUMPI BASEFEE ADD DUP1 DUP3 LT ISZERO PUSH2 0x3CE8 JUMPI POP SWAP1 JUMP JUMPDEST SWAP1 POP SWAP1 JUMP JUMPDEST POP SWAP1 JUMP JUMPDEST SWAP2 SWAP1 SWAP2 PUSH32 0x49628FD1471006C1482DA88028E9CE4DBB080B815C9B0344D39E5A8E6EC1419F PUSH1 0x80 PUSH1 0x20 DUP4 ADD MLOAD SWAP3 MLOAD SWAP5 PUSH20 0xFFFFFFFFFFFFFFFFFFFFFFFFFFFFFFFFFFFFFFFF SWAP5 PUSH1 0x20 DUP7 DUP9 MLOAD AND SWAP7 PUSH1 0xE0 DUP10 ADD MLOAD AND SWAP8 ADD MLOAD SWAP2 PUSH1 0x40 MLOAD SWAP3 DUP4 MSTORE PUSH1 0x0 PUSH1 0x20 DUP5 ADD MSTORE PUSH1 0x40 DUP4 ADD MSTORE PUSH1 0x60 DUP3 ADD MSTORE LOG4 JUMP JUMPDEST PUSH1 0x20 DUP2 ADD MLOAD SWAP1 MLOAD SWAP1 PUSH32 0x67B4FA9642F42120BF031F3051D1824B0FE25627945B27B8A6A65D5761D5482E PUSH1 0x20 DUP1 PUSH20 0xFFFFFFFFFFFFFFFFFFFFFFFFFFFFFFFFFFFFFFFF DUP6 MLOAD AND SWAP5 ADD MLOAD PUSH1 0x40 MLOAD SWAP1 DUP2 MSTORE LOG3 JUMP JUMPDEST PUSH2 0x3DC8 PUSH1 0x40 SWAP3 SWAP6 SWAP5 SWAP4 SWAP6 PUSH1 0x60 DUP4 MSTORE PUSH1 0x60 DUP4 ADD SWAP1 PUSH2 0x28EC JUMP JUMPDEST SWAP5 PUSH1 0x20 DUP3 ADD MSTORE ADD MSTORE JUMP JUMPDEST DUP1 ISZERO PUSH2 0x3E5F JUMPI PUSH1 0x0 PUSH1 0x40 DUP1 MLOAD PUSH2 0x3DE7 DUP2 PUSH2 0x21D1 JUMP JUMPDEST DUP3 DUP2 MSTORE DUP3 PUSH1 0x20 DUP3 ADD MSTORE ADD MSTORE PUSH20 0xFFFFFFFFFFFFFFFFFFFFFFFFFFFFFFFFFFFFFFFF DUP2 AND SWAP1 PUSH1 0x40 PUSH6 0xFFFFFFFFFFFF SWAP2 DUP3 DUP2 PUSH1 0xA0 SHR AND SWAP1 DUP2 ISZERO PUSH2 0x3E57 JUMPI JUMPDEST PUSH1 0xD0 SHR SWAP3 DUP3 MLOAD SWAP2 PUSH2 0x3E32 DUP4 PUSH2 0x21D1 JUMP JUMPDEST DUP6 DUP4 MSTORE DUP5 PUSH1 0x20 DUP5 ADD MSTORE AND SWAP2 DUP3 SWAP2 ADD MSTORE TIMESTAMP GT SWAP1 DUP2 ISZERO PUSH2 0x3E4F JUMPI POP SWAP1 SWAP2 JUMP JUMPDEST SWAP1 POP TIMESTAMP LT SWAP1 SWAP2 JUMP JUMPDEST DUP4 SWAP2 POP PUSH2 0x3E22 JUMP JUMPDEST POP PUSH1 0x0 SWAP1 PUSH1 0x0 SWAP1 JUMP INVALID LOG2 PUSH5 0x6970667358 0x22 SLT KECCAK256 MSIZE 0xAB SDIV JUMP PUSH5 0xE76846A8F3 0x2D DUP16 0x26 0xEB MSTORE DUP5 0xF6 SWAP2 SWAP6 0xBE 0xBF 0xA9 SAR OR PUSH5 0x8ABBB37E9A CHAINID 0xC6 PUSH5 0x736F6C6343 STOP ADDMOD OR STOP CALLER PUSH1 0x80 DUP1 PUSH1 0x40 MSTORE CALLVALUE PUSH2 0x16 JUMPI PUSH2 0x1C3 SWAP1 DUP2 PUSH2 0x1C DUP3 CODECOPY RETURN JUMPDEST PUSH1 0x0 DUP1 REVERT INVALID PUSH1 0x80 PUSH1 0x4 CALLDATASIZE LT ISZERO PUSH2 0xF JUMPI PUSH1 0x0 DUP1 REVERT JUMPDEST PUSH1 0x0 DUP1 CALLDATALOAD PUSH1 0xE0 SHR PUSH4 0x570E1A36 EQ PUSH2 0x25 JUMPI PUSH1 0x0 DUP1 REVERT JUMPDEST CALLVALUE PUSH2 0x18A JUMPI PUSH1 0x20 PUSH32 0xFFFFFFFFFFFFFFFFFFFFFFFFFFFFFFFFFFFFFFFFFFFFFFFFFFFFFFFFFFFFFFFC CALLDATASIZE ADD SLT PUSH2 0x18A JUMPI PUSH1 0x4 CALLDATALOAD SWAP2 PUSH8 0xFFFFFFFFFFFFFFFF SWAP1 DUP2 DUP5 GT PUSH2 0x186 JUMPI CALLDATASIZE PUSH1 0x23 DUP6 ADD SLT ISZERO PUSH2 0x186 JUMPI DUP4 PUSH1 0x4 ADD CALLDATALOAD DUP3 DUP2 GT PUSH2 0x182 JUMPI CALLDATASIZE PUSH1 0x24 DUP3 DUP8 ADD ADD GT PUSH2 0x182 JUMPI DUP1 PUSH1 0x14 GT PUSH2 0x182 JUMPI PUSH32 0xFFFFFFFFFFFFFFFFFFFFFFFFFFFFFFFFFFFFFFFFFFFFFFFFFFFFFFFFFFFFFFEC DUP2 ADD SWAP3 DUP1 DUP5 GT PUSH2 0x155 JUMPI PUSH32 0xFFFFFFFFFFFFFFFFFFFFFFFFFFFFFFFFFFFFFFFFFFFFFFFFFFFFFFFFFFFFFFE0 PUSH1 0x3F DUP2 PUSH1 0xB DUP6 ADD AND ADD AND DUP4 ADD SWAP1 DUP4 DUP3 LT SWAP1 DUP3 GT OR PUSH2 0x155 JUMPI SWAP3 DUP5 PUSH1 0x24 DUP2 SWAP5 DUP3 PUSH1 0xC PUSH1 0x20 SWAP11 SWAP7 DUP12 SWAP10 PUSH1 0x40 MSTORE DUP7 DUP5 MSTORE DUP10 DUP5 ADD SWAP7 PUSH1 0x38 DUP10 ADD DUP9 CALLDATACOPY DUP4 ADD ADD MSTORE MLOAD SWAP4 ADD CALLDATALOAD PUSH1 0x60 SHR GAS CALL SWAP1 DUP1 MLOAD SWAP2 ISZERO PUSH2 0x14D JUMPI JUMPDEST POP PUSH20 0xFFFFFFFFFFFFFFFFFFFFFFFFFFFFFFFFFFFFFFFF PUSH1 0x40 MLOAD SWAP2 AND DUP2 MSTORE RETURN JUMPDEST SWAP1 POP CODESIZE PUSH2 0x12E JUMP JUMPDEST PUSH1 0x24 DUP6 PUSH32 0x4E487B7100000000000000000000000000000000000000000000000000000000 DUP2 MSTORE PUSH1 0x41 PUSH1 0x4 MSTORE REVERT JUMPDEST DUP4 DUP1 REVERT JUMPDEST DUP3 DUP1 REVERT JUMPDEST DUP1 REVERT INVALID LOG2 PUSH5 0x6970667358 0x22 SLT KECCAK256 PUSH27 0xDEF8895AD3393B02FAB10A111D85EA80FF35366AA43995F4EA20E6 PUSH32 0x29200664736F6C63430008170033000000000000000000000000000000000000 "},"methodIdentifiers":{"addStake(uint32)":"0396cb60","balanceOf(address)":"70a08231","delegateAndRevert(address,bytes)":"850aaf62","depositTo(address)":"b760faf9","deposits(address)":"fc7e286d","getDepositInfo(address)":"5287ce12","getNonce(address,uint192)":"35567e1a","getSenderAddress(bytes)":"9b249f69","getUserOpHash((address,uint256,bytes,bytes,bytes32,uint256,bytes32,bytes,bytes))":"22cdde4c","handleAggregatedOps(((address,uint256,bytes,bytes,bytes32,uint256,bytes32,bytes,bytes)[],address,bytes)[],address)":"dbed18e0","handleOps((address,uint256,bytes,bytes,bytes32,uint256,bytes32,bytes,bytes)[],address)":"765e827f","incrementNonce(uint192)":"0bd28e3b","innerHandleOp(bytes,((address,uint256,uint256,uint256,uint256,uint256,uint256,address,uint256,uint256),bytes32,uint256,uint256,uint256),bytes)":"0042dc53","nonceSequenceNumber(address,uint192)":"1b2e01b8","supportsInterface(bytes4)":"01ffc9a7","unlockStake()":"bb9fe6bf","withdrawStake(address)":"c23a5cea","withdrawTo(address,uint256)":"205c2878"}}}}}