{"contracts/core/SenderCreator.sol":{"SenderCreator":{"abi":[{"inputs":[{"internalType":"bytes","name":"initCode","type":"bytes"}],"name":"createSender","outputs":[{"internalType":"address","name":"sender","type":"address"}],"stateMutability":"nonpayable","type":"function"}],"evm":{"bytecode":{"linkReferences":{},"object":"60808060405234610016576101c3908161001c8239f35b600080fdfe6080600436101561000f57600080fd5b6000803560e01c63570e1a361461002557600080fd5b3461018a5760207ffffffffffffffffffffffffffffffffffffffffffffffffffffffffffffffffc36011261018a576004359167ffffffffffffffff9081841161018657366023850112156101865783600401358281116101825736602482870101116101825780601411610182577fffffffffffffffffffffffffffffffffffffffffffffffffffffffffffffffec810192808411610155577fffffffffffffffffffffffffffffffffffffffffffffffffffffffffffffffe0603f81600b8501160116830190838210908211176101555792846024819482600c60209a968b9960405286845289840196603889018837830101525193013560601c5af1908051911561014d575b5073ffffffffffffffffffffffffffffffffffffffff60405191168152f35b90503861012e565b6024857f4e487b710000000000000000000000000000000000000000000000000000000081526041600452fd5b8380fd5b8280fd5b80fdfea264697066735822122024ef3abfd31dde9e4d27e341c25802405d1557306fee7d71d82bd22012501cfb64736f6c63430008170033","opcodes":"PUSH1 0x80 DUP1 PUSH1 0x40 MSTORE CALLVALUE PUSH2 0x16 JUMPI PUSH2 0x1C3 SWAP1 DUP2 PUSH2 0x1C DUP3 CODECOPY RETURN JUMPDEST PUSH1 0x0 DUP1 REVERT INVALID PUSH1 0x80 PUSH1 0x4 CALLDATASIZE LT ISZERO PUSH2 0xF JUMPI PUSH1 0x0 DUP1 REVERT JUMPDEST PUSH1 0x0 DUP1 CALLDATALOAD PUSH1 0xE0 SHR PUSH4 0x570E1A36 EQ PUSH2 0x25 JUMPI PUSH1 0x0 DUP1 REVERT JUMPDEST CALLVALUE PUSH2 0x18A JUMPI PUSH1 0x20 PUSH32 0xFFFFFFFFFFFFFFFFFFFFFFFFFFFFFFFFFFFFFFFFFFFFFFFFFFFFFFFFFFFFFFFC CALLDATASIZE ADD SLT PUSH2 0x18A JUMPI PUSH1 0x4 CALLDATALOAD SWAP2 PUSH8 0xFFFFFFFFFFFFFFFF SWAP1 DUP2 DUP5 GT PUSH2 0x186 JUMPI CALLDATASIZE PUSH1 0x23 DUP6 ADD SLT ISZERO PUSH2 0x186 JUMPI DUP4 PUSH1 0x4 ADD CALLDATALOAD DUP3 DUP2 GT PUSH2 0x182 JUMPI CALLDATASIZE PUSH1 0x24 DUP3 DUP8 ADD ADD GT PUSH2 0x182 JUMPI DUP1 PUSH1 0x14 GT PUSH2 0x182 JUMPI PUSH32 0xFFFFFFFFFFFFFFFFFFFFFFFFFFFFFFFFFFFFFFFFFFFFFFFFFFFFFFFFFFFFFFEC DUP2 ADD SWAP3 DUP1 DUP5 GT PUSH2 0x155 JUMPI PUSH32 0xFFFFFFFFFFFFFFFFFFFFFFFFFFFFFFFFFFFFFFFFFFFFFFFFFFFFFFFFFFFFFFE0 PUSH1 0x3F DUP2 PUSH1 0xB DUP6 ADD AND ADD AND DUP4 ADD SWAP1 DUP4 DUP3 LT SWAP1 DUP3 GT OR PUSH2 0x155 JUMPI SWAP3 DUP5 PUSH1 0x24 DUP2 SWAP5 DUP3 PUSH1 0xC PUSH1 0x20 SWAP11 SWAP7 DUP12 SWAP10 PUSH1 0x40 MSTORE DUP7 DUP5 MSTORE DUP10 DUP5 ADD SWAP7 PUSH1 0x38 DUP10 ADD DUP9 CALLDATACOPY DUP4 ADD ADD MSTORE MLOAD SWAP4 ADD CALLDATALOAD PUSH1 0x60 SHR GAS CALL SWAP1 DUP1 MLOAD SWAP2 ISZERO PUSH2 0x14D JUMPI JUMPDEST POP PUSH20 0xFFFFFFFFFFFFFFFFFFFFFFFFFFFFFFFFFFFFFFFF PUSH1 0x40 MLOAD SWAP2 AND DUP2 MSTORE RETURN JUMPDEST SWAP1 POP CODESIZE PUSH2 0x12E JUMP JUMPDEST PUSH1 0x24 DUP6 PUSH32 0x4E487B7100000000000000000000000000000000000000000000000000000000 DUP2 MSTORE PUSH1 0x41 PUSH1 0x4 MSTORE REVERT JUMPDEST DUP4 DUP1 REVERT JUMPDEST DUP3 DUP1 REVERT JUMPDEST DUP1 REVERT INVALID LOG2 PUSH5 0x6970667358 0x22 SLT KECCAK256 0x24 0xEF GASPRICE 0xBF 0xD3 SAR 0xDE SWAP15 0x4D 0x27 0xE3 COINBASE 0xC2 PC MUL BLOCKHASH 0x5D ISZERO JUMPI ADDRESS PUSH16 0xEE7D71D82BD22012501CFB64736F6C63 NUMBER STOP ADDMOD OR STOP CALLER "},"methodIdentifiers":{"createSender(bytes)":"570e1a36"}}}}}