{"contracts/core/EntryPoint.sol":{"EntryPoint":{"abi":[{"inputs":[{"internalType":"bool","name":"success","type":"bool"},{"internalType":"bytes","name":"ret","type":"bytes"}],"name":"DelegateAndRevert","type":"error"},{"inputs":[{"internalType":"uint256","name":"opIndex","type":"uint256"},{"internalType":"string","name":"reason","type":"string"}],"name":"FailedOp","type":"error"},{"inputs":[{"internalType":"uint256","name":"opIndex","type":"uint256"},{"internalType":"string","name":"reason","type":"string"},{"internalType":"bytes","name":"inner","type":"bytes"}],"name":"FailedOpWithRevert","type":"error"},{"inputs":[{"internalType":"bytes","name":"returnData","type":"bytes"}],"name":"PostOpReverted","type":"error"},{"inputs":[],"name":"ReentrancyGuardReentrantCall","type":"error"},{"inputs":[{"internalType":"address","name":"sender","type":"address"}],"name":"SenderAddressResult","type":"error"},{"inputs":[{"internalType":"address","name":"aggregator","type":"address"}],"name":"SignatureValidationFailed","type":"error"},{"anonymous":false,"inputs":[{"indexed":true,"internalType":"bytes32","name":"userOpHash","type":"bytes32"},{"indexed":true,"internalType":"address","name":"sender","type":"address"},{"indexed":false,"internalType":"address","name":"factory","type":"address"},{"indexed":false,"internalType":"address","name":"paymaster","type":"address"}],"name":"AccountDeployed","type":"event"},{"anonymous":false,"inputs":[],"name":"BeforeExecution","type":"event"},{"anonymous":false,"inputs":[{"indexed":true,"internalType":"address","name":"account","type":"address"},{"indexed":false,"internalType":"uint256","name":"totalDeposit","type":"uint256"}],"name":"Deposited","type":"event"},{"anonymous":false,"inputs":[{"indexed":true,"internalType":"bytes32","name":"userOpHash","type":"bytes32"},{"indexed":true,"internalType":"address","name":"sender","type":"address"},{"indexed":false,"internalType":"uint256","name":"nonce","type":"uint256"},{"indexed":false,"internalType":"bytes","name":"revertReason","type":"bytes"}],"name":"PostOpRevertReason","type":"event"},{"anonymous":false,"inputs":[{"indexed":true,"internalType":"address","name":"aggregator","type":"address"}],"name":"SignatureAggregatorChanged","type":"event"},{"anonymous":false,"inputs":[{"indexed":true,"internalType":"address","name":"account","type":"address"},{"indexed":false,"internalType":"uint256","name":"totalStaked","type":"uint256"},{"indexed":false,"internalType":"uint256","name":"unstakeDelaySec","type":"uint256"}],"name":"StakeLocked","type":"event"},{"anonymous":false,"inputs":[{"indexed":true,"internalType":"address","name":"account","type":"address"},{"indexed":false,"internalType":"uint256","name":"withdrawTime","type":"uint256"}],"name":"StakeUnlocked","type":"event"},{"anonymous":false,"inputs":[{"indexed":true,"internalType":"address","name":"account","type":"address"},{"indexed":false,"internalType":"address","name":"withdrawAddress","type":"address"},{"indexed":false,"internalType":"uint256","name":"amount","type":"uint256"}],"name":"StakeWithdrawn","type":"event"},{"anonymous":false,"inputs":[{"indexed":true,"internalType":"bytes32","name":"userOpHash","type":"bytes32"},{"indexed":true,"internalType":"address","name":"sender","type":"address"},{"indexed":true,"internalType":"address","name":"paymaster","type":"address"},{"indexed":false,"internalType":"uint256","name":"nonce","type":"uint256"},{"indexed":false,"internalType":"bool","name":"success","type":"bool"},{"indexed":false,"internalType":"uint256","name":"actualGasCost","type":"uint256"},{"indexed":false,"internalType":"uint256","name":"actualGasUsed","type":"uint256"}],"name":"UserOperationEvent","type":"event"},{"anonymous":false,"inputs":[{"indexed":true,"internalType":"bytes32","name":"userOpHash","type":"bytes32"},{"indexed":true,"internalType":"address","name":"sender","type":"address"},{"indexed":false,"internalType":"uint256","name":"nonce","type":"uint256"},{"indexed":false,"internalType":"bytes","name":"revertReason","type":"bytes"}],"name":"UserOperationRevertReason","type":"event"},{"anonymous":false,"inputs":[{"indexed":true,"internalType":"address","name":"account","type":"address"},{"indexed":false,"internalType":"address","name":"withdrawAddress","type":"address"},{"indexed":false,"internalType":"uint256","name":"amount","type":"uint256"}],"name":"Withdrawn","type":"event"},{"inputs":[],"name":"SIG_VALIDATION_FAILED","outputs":[{"internalType":"uint256","name":"","type":"uint256"}],"stateMutability":"view","type":"function"},{"inputs":[{"internalType":"uint32","name":"unstakeDelaySec","type":"uint32"}],"name":"addStake","outputs":[],"stateMutability":"payable","type":"function"},{"inputs":[{"internalType":"address","name":"account","type":"address"}],"name":"balanceOf","outputs":[{"internalType":"uint256","name":"","type":"uint256"}],"stateMutability":"view","type":"function"},{"inputs":[{"internalType":"address","name":"target","type":"address"},{"internalType":"bytes","name":"data","type":"bytes"}],"name":"delegateAndRevert","outputs":[],"stateMutability":"nonpayable","type":"function"},{"inputs":[{"internalType":"address","name":"account","type":"address"}],"name":"depositTo","outputs":[],"stateMutability":"payable","type":"function"},{"inputs":[{"internalType":"address","name":"","type":"address"}],"name":"deposits","outputs":[{"internalType":"uint256","name":"deposit","type":"uint256"},{"internalType":"bool","name":"staked","type":"bool"},{"internalType":"uint112","name":"stake","type":"uint112"},{"internalType":"uint32","name":"unstakeDelaySec","type":"uint32"},{"internalType":"uint48","name":"withdrawTime","type":"uint48"}],"stateMutability":"view","type":"function"},{"inputs":[{"internalType":"address","name":"account","type":"address"}],"name":"getDepositInfo","outputs":[{"components":[{"internalType":"uint256","name":"deposit","type":"uint256"},{"internalType":"bool","name":"staked","type":"bool"},{"internalType":"uint112","name":"stake","type":"uint112"},{"internalType":"uint32","name":"unstakeDelaySec","type":"uint32"},{"internalType":"uint48","name":"withdrawTime","type":"uint48"}],"internalType":"struct IStakeManager.DepositInfo","name":"info","type":"tuple"}],"stateMutability":"view","type":"function"},{"inputs":[{"internalType":"address","name":"sender","type":"address"},{"internalType":"uint192","name":"key","type":"uint192"}],"name":"getNonce","outputs":[{"internalType":"uint256","name":"nonce","type":"uint256"}],"stateMutability":"view","type":"function"},{"inputs":[{"internalType":"bytes","name":"initCode","type":"bytes"}],"name":"getSenderAddress","outputs":[],"stateMutability":"nonpayable","type":"function"},{"inputs":[{"components":[{"internalType":"address","name":"sender","type":"address"},{"internalType":"uint256","name":"nonce","type":"uint256"},{"internalType":"bytes","name":"initCode","type":"bytes"},{"internalType":"bytes","name":"callData","type":"bytes"},{"internalType":"bytes32","name":"accountGasLimits","type":"bytes32"},{"internalType":"uint256","name":"preVerificationGas","type":"uint256"},{"internalType":"uint256","name":"maxFeePerGas","type":"uint256"},{"internalType":"uint256","name":"maxPriorityFeePerGas","type":"uint256"},{"internalType":"bytes","name":"paymasterAndData","type":"bytes"},{"internalType":"bytes","name":"signature","type":"bytes"}],"internalType":"struct PackedUserOperation","name":"userOp","type":"tuple"}],"name":"getUserOpHash","outputs":[{"internalType":"bytes32","name":"","type":"bytes32"}],"stateMutability":"view","type":"function"},{"inputs":[{"components":[{"components":[{"internalType":"address","name":"sender","type":"address"},{"internalType":"uint256","name":"nonce","type":"uint256"},{"internalType":"bytes","name":"initCode","type":"bytes"},{"internalType":"bytes","name":"callData","type":"bytes"},{"internalType":"bytes32","name":"accountGasLimits","type":"bytes32"},{"internalType":"uint256","name":"preVerificationGas","type":"uint256"},{"internalType":"uint256","name":"maxFeePerGas","type":"uint256"},{"internalType":"uint256","name":"maxPriorityFeePerGas","type":"uint256"},{"internalType":"bytes","name":"paymasterAndData","type":"bytes"},{"internalType":"bytes","name":"signature","type":"bytes"}],"internalType":"struct PackedUserOperation[]","name":"userOps","type":"tuple[]"},{"internalType":"contract IAggregator","name":"aggregator","type":"address"},{"internalType":"bytes","name":"signature","type":"bytes"}],"internalType":"struct IEntryPoint.UserOpsPerAggregator[]","name":"opsPerAggregator","type":"tuple[]"},{"internalType":"address payable","name":"beneficiary","type":"address"}],"name":"handleAggregatedOps","outputs":[],"stateMutability":"nonpayable","type":"function"},{"inputs":[{"components":[{"internalType":"address","name":"sender","type":"address"},{"internalType":"uint256","name":"nonce","type":"uint256"},{"internalType":"bytes","name":"initCode","type":"bytes"},{"internalType":"bytes","name":"callData","type":"bytes"},{"internalType":"bytes32","name":"accountGasLimits","type":"bytes32"},{"internalType":"uint256","name":"preVerificationGas","type":"uint256"},{"internalType":"uint256","name":"maxFeePerGas","type":"uint256"},{"internalType":"uint256","name":"maxPriorityFeePerGas","type":"uint256"},{"internalType":"bytes","name":"paymasterAndData","type":"bytes"},{"internalType":"bytes","name":"signature","type":"bytes"}],"internalType":"struct PackedUserOperation[]","name":"ops","type":"tuple[]"},{"internalType":"address payable","name":"beneficiary","type":"address"}],"name":"handleOps","outputs":[],"stateMutability":"nonpayable","type":"function"},{"inputs":[{"internalType":"uint192","name":"key","type":"uint192"}],"name":"incrementNonce","outputs":[],"stateMutability":"nonpayable","type":"function"},{"inputs":[{"internalType":"bytes","name":"callData","type":"bytes"},{"components":[{"components":[{"internalType":"address","name":"sender","type":"address"},{"internalType":"uint256","name":"nonce","type":"uint256"},{"internalType":"uint256","name":"verificationGasLimit","type":"uint256"},{"internalType":"uint256","name":"callGasLimit","type":"uint256"},{"internalType":"uint256","name":"paymasterVerificationGasLimit","type":"uint256"},{"internalType":"uint256","name":"paymasterPostOpGasLimit","type":"uint256"},{"internalType":"uint256","name":"preVerificationGas","type":"uint256"},{"internalType":"address","name":"paymaster","type":"address"},{"internalType":"uint256","name":"maxFeePerGas","type":"uint256"},{"internalType":"uint256","name":"maxPriorityFeePerGas","type":"uint256"}],"internalType":"struct EntryPoint.MemoryUserOp","name":"mUserOp","type":"tuple"},{"internalType":"bytes32","name":"userOpHash","type":"bytes32"},{"internalType":"uint256","name":"prefund","type":"uint256"},{"internalType":"uint256","name":"contextOffset","type":"uint256"},{"internalType":"uint256","name":"preOpGas","type":"uint256"}],"internalType":"struct EntryPoint.UserOpInfo","name":"opInfo","type":"tuple"},{"internalType":"bytes","name":"context","type":"bytes"}],"name":"innerHandleOp","outputs":[{"internalType":"uint256","name":"actualGasCost","type":"uint256"}],"stateMutability":"nonpayable","type":"function"},{"inputs":[{"internalType":"address","name":"","type":"address"},{"internalType":"uint192","name":"","type":"uint192"}],"name":"nonceSequenceNumber","outputs":[{"internalType":"uint256","name":"","type":"uint256"}],"stateMutability":"view","type":"function"},{"inputs":[{"internalType":"bytes4","name":"interfaceId","type":"bytes4"}],"name":"supportsInterface","outputs":[{"internalType":"bool","name":"","type":"bool"}],"stateMutability":"view","type":"function"},{"inputs":[],"name":"unlockStake","outputs":[],"stateMutability":"nonpayable","type":"function"},{"inputs":[{"internalType":"address payable","name":"withdrawAddress","type":"address"}],"name":"withdrawStake","outputs":[],"stateMutability":"nonpayable","type":"function"},{"inputs":[{"internalType":"address payable","name":"withdrawAddress","type":"address"},{"internalType":"uint256","name":"withdrawAmount","type":"uint256"}],"name":"withdrawTo","outputs":[],"stateMutability":"nonpayable","type":"function"},{"stateMutability":"payable","type":"receive"}],"evm":{"bytecode":{"linkReferences":{},"object":"60a08060405234620000825760016002556101df8181016001600160401b038111838210176200006c57829162003e56833903906000f080156200006057608052604051613dce9081620000888239608051818181610d2d01526131ea0152f35b6040513d6000823e3d90fd5b634e487b7160e01b600052604160045260246000fd5b600080fdfe60806040526004361015610024575b361561001957600080fd5b61002233612781565b005b60003560e01c806242dc5314611b4557806301ffc9a7146119f357806302101e491461198d5780630396cb60146116555780630bd28e3b146115d95780631b2e01b814611545578063205c2878146113b057806335567e1a146112f85780635287ce12146111ea5780636b21db5114610f2c57806370a0823114610ec7578063850aaf6214610e085780638f41ec5a14610dce5780639b249f6914610c7f578063b760faf914610c45578063bb9fe6bf14610a73578063c23a5cea146107cf578063ea8ad612146101ac5763fc7e286d0361000e57346101a75760207ffffffffffffffffffffffffffffffffffffffffffffffffffffffffffffffffc3601126101a75773ffffffffffffffffffffffffffffffffffffffff6101456122d9565b16600052600060205260a0604060002065ffffffffffff6001825492015460405192835260ff8116151560208401526dffffffffffffffffffffffffffff8160081c16604084015263ffffffff8160781c16606084015260981c166080820152f35b600080fd5b346101a7576101ba36612351565b906101c3612a01565b60009160005b82811061057a57506101db84936125c1565b6000805b8481106103075750507fbb47ee3e183a558b1a2ff0874b079f3fc5478b7454eacf2bfc5af2ff5878f972600080a16000809360005b8181106102525761024b868660007f575ff3acadd5ab348fe1855e217e0f3678f8d767d7494c9f9fefbee2e17cca4d8180a2613b91565b6001600255005b6102ad61026082848a6127cf565b73ffffffffffffffffffffffffffffffffffffffff61028160208301612863565b167f575ff3acadd5ab348fe1855e217e0f3678f8d767d7494c9f9fefbee2e17cca4d600080a28061280f565b906000915b8083106102c457505050600101610214565b909194976102fe6102f86001926102f28c8b6102eb826102e58e8b8d6126d6565b92612693565b519161354a565b90612532565b9961253f565b950191906102b2565b60206103148287896127cf565b61032a610321828061280f565b93909201612863565b9160009273ffffffffffffffffffffffffffffffffffffffff8091165b82851061035b5750505050506001016101df565b909192939561038a83610383610371848c612693565b5161037d8b898b6126d6565b85612a3a565b9290613d02565b91168403610515576104b0576103a08491613d02565b911661044b576103c0576103b560019161253f565b960193929190610347565b60a487604051907f220266b6000000000000000000000000000000000000000000000000000000008252600482015260406024820152602160448201527f41413332207061796d61737465722065787069726564206f72206e6f7420647560648201527f65000000000000000000000000000000000000000000000000000000000000006084820152fd5b608488604051907f220266b6000000000000000000000000000000000000000000000000000000008252600482015260406024820152601460448201527f41413334207369676e6174757265206572726f720000000000000000000000006064820152fd5b608488604051907f220266b6000000000000000000000000000000000000000000000000000000008252600482015260406024820152601760448201527f414132322065787069726564206f72206e6f74206475650000000000000000006064820152fd5b608489604051907f220266b6000000000000000000000000000000000000000000000000000000008252600482015260406024820152601460448201527f41413234207369676e6174757265206572726f720000000000000000000000006064820152fd5b6105858184876127cf565b93610590858061280f565b919095602073ffffffffffffffffffffffffffffffffffffffff6105b5828401612863565b1697600192838a1461077157896105e5575b5050505060019293949550906105dc91612532565b939291016101c9565b8060406105f3920190612884565b918a3b156101a757929391906040519485937ffe96cf2300000000000000000000000000000000000000000000000000000000855288604486016040600488015252606490818601918a60051b8701019680936000915b8c83106106f15750505050505083839261068f927ffffffffffffffffffffffffffffffffffffffffffffffffffffffffffffffffc8560009803016024860152612742565b03818a5afa90816106e2575b506106d157602486604051907f86a9f7500000000000000000000000000000000000000000000000000000000082526004820152fd5b93945084936105dc600189806105c7565b6106eb906121f7565b8861069b565b91939596977fffffffffffffffffffffffffffffffffffffffffffffffffffffffffffffff9c908a9294969a0301865288357ffffffffffffffffffffffffffffffffffffffffffffffffffffffffffffffec1833603018112156101a7578361075e879385839401612925565b9a0196019301909189979695949261064a565b606483604051907f08c379a00000000000000000000000000000000000000000000000000000000082526004820152601760248201527f4141393620696e76616c69642061676772656761746f720000000000000000006044820152fd5b346101a7576020807ffffffffffffffffffffffffffffffffffffffffffffffffffffffffffffffffc3601126101a7576108076122d9565b33600052600082526001604060002001908154916dffffffffffffffffffffffffffff8360081c16928315610a155765ffffffffffff8160981c1680156109b75742106109595760009373ffffffffffffffffffffffffffffffffffffffff859485947fffffffffffffff000000000000000000000000000000000000000000000000ff86951690556040517fb7c918e0e249f999e965cafeb6c664271b3f4317d296461500e71da39f0cbda33391806108e58786836020909392919373ffffffffffffffffffffffffffffffffffffffff60408201951681520152565b0390a2165af16108f3612579565b50156108fb57005b606490604051907f08c379a00000000000000000000000000000000000000000000000000000000082526004820152601860248201527f6661696c656420746f207769746864726177207374616b6500000000000000006044820152fd5b606485604051907f08c379a00000000000000000000000000000000000000000000000000000000082526004820152601b60248201527f5374616b65207769746864726177616c206973206e6f742064756500000000006044820152fd5b606486604051907f08c379a00000000000000000000000000000000000000000000000000000000082526004820152601d60248201527f6d7573742063616c6c20756e6c6f636b5374616b6528292066697273740000006044820152fd5b606485604051907f08c379a00000000000000000000000000000000000000000000000000000000082526004820152601460248201527f4e6f207374616b6520746f2077697468647261770000000000000000000000006044820152fd5b346101a75760007ffffffffffffffffffffffffffffffffffffffffffffffffffffffffffffffffc3601126101a7573360005260006020526001604060002001805463ffffffff8160781c16908115610be75760ff1615610b895765ffffffffffff908142160191818311610b5a5780547fffffffffffffff000000000000ffffffffffffffffffffffffffffffffffff001678ffffffffffff00000000000000000000000000000000000000609885901b161790556040519116815233907ffa9b3c14cc825c412c9ed81b3ba365a5b459439403f18829e572ed53a4180f0a90602090a2005b7f4e487b7100000000000000000000000000000000000000000000000000000000600052601160045260246000fd5b60646040517f08c379a000000000000000000000000000000000000000000000000000000000815260206004820152601160248201527f616c726561647920756e7374616b696e670000000000000000000000000000006044820152fd5b60646040517f08c379a000000000000000000000000000000000000000000000000000000000815260206004820152600a60248201527f6e6f74207374616b6564000000000000000000000000000000000000000000006044820152fd5b60207ffffffffffffffffffffffffffffffffffffffffffffffffffffffffffffffffc3601126101a757610022610c7a6122d9565b612781565b346101a75760207ffffffffffffffffffffffffffffffffffffffffffffffffffffffffffffffffc3601126101a75760043567ffffffffffffffff81116101a7576020610cd3610d269236906004016122fc565b919073ffffffffffffffffffffffffffffffffffffffff9260405194859283927f570e1a360000000000000000000000000000000000000000000000000000000084528560048501526024840191612742565b03816000857f0000000000000000000000000000000000000000000000000000000000000000165af1908115610dc257602492600092610d91575b50604051917f6ca7b806000000000000000000000000000000000000000000000000000000008352166004820152fd5b610db491925060203d602011610dbb575b610dac8183612227565b810190612716565b9083610d61565b503d610da2565b6040513d6000823e3d90fd5b346101a75760007ffffffffffffffffffffffffffffffffffffffffffffffffffffffffffffffffc3601126101a757602060405160018152f35b346101a75760407ffffffffffffffffffffffffffffffffffffffffffffffffffffffffffffffffc3601126101a757610e3f6122d9565b60243567ffffffffffffffff81116101a757600091610e63839236906004016122fc565b90816040519283928337810184815203915af4610e7e612579565b90610ec36040519283927f9941055400000000000000000000000000000000000000000000000000000000845215156004840152604060248401526044830190612400565b0390fd5b346101a75760207ffffffffffffffffffffffffffffffffffffffffffffffffffffffffffffffffc3601126101a75773ffffffffffffffffffffffffffffffffffffffff610f136122d9565b1660005260006020526020604060002054604051908152f35b346101a757610f3a36612351565b610f45929192612a01565b610f4e836125c1565b60005b848110610fc657506000927fbb47ee3e183a558b1a2ff0874b079f3fc5478b7454eacf2bfc5af2ff5878f972600080a16000915b858310610f965761024b8585613b91565b909193600190610fbc610faa8789876126d6565b610fb48886612693565b51908861354a565b0194019190610f85565b610ff1610fea610fd883859795612693565b51610fe48489876126d6565b84612a3a565b9190613d02565b73ffffffffffffffffffffffffffffffffffffffff92918316611185576111205761101b90613d02565b91166110bb5761103057600101929092610f51565b60a490604051907f220266b6000000000000000000000000000000000000000000000000000000008252600482015260406024820152602160448201527f41413332207061796d61737465722065787069726564206f72206e6f7420647560648201527f65000000000000000000000000000000000000000000000000000000000000006084820152fd5b608482604051907f220266b6000000000000000000000000000000000000000000000000000000008252600482015260406024820152601460448201527f41413334207369676e6174757265206572726f720000000000000000000000006064820152fd5b608483604051907f220266b6000000000000000000000000000000000000000000000000000000008252600482015260406024820152601760448201527f414132322065787069726564206f72206e6f74206475650000000000000000006064820152fd5b608484604051907f220266b6000000000000000000000000000000000000000000000000000000008252600482015260406024820152601460448201527f41413234207369676e6174757265206572726f720000000000000000000000006064820152fd5b346101a75760207ffffffffffffffffffffffffffffffffffffffffffffffffffffffffffffffffc3601126101a75773ffffffffffffffffffffffffffffffffffffffff6112366122d9565b600060806040516112468161218f565b828152826020820152826040820152826060820152015216600052600060205260a06040600020608060405161127b8161218f565b6001835493848352015490602081019060ff8316151582526dffffffffffffffffffffffffffff60408201818560081c16815263ffffffff936060840193858760781c16855265ffffffffffff978891019660981c1686526040519788525115156020880152511660408601525116606084015251166080820152f35b346101a75760407ffffffffffffffffffffffffffffffffffffffffffffffffffffffffffffffffc3601126101a75760206113316122d9565b73ffffffffffffffffffffffffffffffffffffffff61134e61232a565b911660005260018252604060002077ffffffffffffffffffffffffffffffffffffffffffffffff821660005282526040600020547fffffffffffffffffffffffffffffffffffffffffffffffff00000000000000006040519260401b16178152f35b346101a75760407ffffffffffffffffffffffffffffffffffffffffffffffffffffffffffffffffc3601126101a7576113e76122d9565b602435903360005260006020526040600020908154918284116114e7576000808573ffffffffffffffffffffffffffffffffffffffff8295839561142b848a61256c565b90556040805173ffffffffffffffffffffffffffffffffffffffff831681526020810185905233917fd1c19fbcd4551a5edfb66d43d2e337c04837afda3482b42bdf569a8fccdae5fb91a2165af1611481612579565b501561148957005b60646040517f08c379a000000000000000000000000000000000000000000000000000000000815260206004820152601260248201527f6661696c656420746f20776974686472617700000000000000000000000000006044820152fd5b60646040517f08c379a000000000000000000000000000000000000000000000000000000000815260206004820152601960248201527f576974686472617720616d6f756e7420746f6f206c61726765000000000000006044820152fd5b346101a75760407ffffffffffffffffffffffffffffffffffffffffffffffffffffffffffffffffc3601126101a75761157c6122d9565b73ffffffffffffffffffffffffffffffffffffffff61159961232a565b9116600052600160205277ffffffffffffffffffffffffffffffffffffffffffffffff604060002091166000526020526020604060002054604051908152f35b346101a75760207ffffffffffffffffffffffffffffffffffffffffffffffffffffffffffffffffc3601126101a75760043577ffffffffffffffffffffffffffffffffffffffffffffffff81168091036101a7573360005260016020526040600020906000526020526040600020611651815461253f565b9055005b6020807ffffffffffffffffffffffffffffffffffffffffffffffffffffffffffffffffc3601126101a75760043563ffffffff918282168092036101a7573360005260008152604060002092821561192f576001840154908160781c1683106118d1576116d76dffffffffffffffffffffffffffff9182349160081c16612532565b93841561187357818511611815579065ffffffffffff6117e49254604051906116ff8261218f565b8152848101926001845260408201908816815260608201878152600160808401936000855233600052600089526040600020905181550194511515917fffffffffffffffffffffffffff0000000000000000000000000000000000000060ff72ffffffff0000000000000000000000000000006effffffffffffffffffffffffffff008954945160081b16945160781b1694169116171717835551167fffffffffffffff000000000000ffffffffffffffffffffffffffffffffffffff78ffffffffffff0000000000000000000000000000000000000083549260981b169116179055565b6040519283528201527fa5ae833d0bb1dcd632d98a8b70973e8516812898e19bf27b70071ebc8dc52c0160403392a2005b606483604051907f08c379a00000000000000000000000000000000000000000000000000000000082526004820152600e60248201527f7374616b65206f766572666c6f770000000000000000000000000000000000006044820152fd5b606483604051907f08c379a00000000000000000000000000000000000000000000000000000000082526004820152601260248201527f6e6f207374616b652073706563696669656400000000000000000000000000006044820152fd5b606482604051907f08c379a00000000000000000000000000000000000000000000000000000000082526004820152601c60248201527f63616e6e6f7420646563726561736520756e7374616b652074696d65000000006044820152fd5b606482604051907f08c379a00000000000000000000000000000000000000000000000000000000082526004820152601a60248201527f6d757374207370656369667920756e7374616b652064656c61790000000000006044820152fd5b346101a7577ffffffffffffffffffffffffffffffffffffffffffffffffffffffffffffffffc6020813601126101a7576004359067ffffffffffffffff82116101a7576101409082360301126101a7576119eb602091600401612443565b604051908152f35b346101a75760207ffffffffffffffffffffffffffffffffffffffffffffffffffffffffffffffffc3601126101a7576004357fffffffff0000000000000000000000000000000000000000000000000000000081168091036101a757807f6c393cb70000000000000000000000000000000000000000000000000000000060209214908115611b1b575b8115611af1575b8115611ac7575b8115611a9d575b506040519015158152f35b7f01ffc9a70000000000000000000000000000000000000000000000000000000091501482611a92565b7f3e84f0210000000000000000000000000000000000000000000000000000000081149150611a8b565b7fcf28ef970000000000000000000000000000000000000000000000000000000081149150611a84565b7f9d9523010000000000000000000000000000000000000000000000000000000081149150611a7d565b346101a7576102007ffffffffffffffffffffffffffffffffffffffffffffffffffffffffffffffffc3601126101a75767ffffffffffffffff6004358181116101a757366023820112156101a757611ba79036906024816004013591016122a2565b907fffffffffffffffffffffffffffffffffffffffffffffffffffffffffffffffdc3601916101c083126101a75761014060405193611be58561218f565b126101a75760405192611bf7846121da565b60243573ffffffffffffffffffffffffffffffffffffffff811681036101a7578452602093604435858201526064356040820152608435606082015260a435608082015260c43560a082015260e43560c08201526101043573ffffffffffffffffffffffffffffffffffffffff811681036101a75760e082015261012435610100820152610144356101208201528152610164358482015260408101926101843584526101a43560608301526101c43560808301526101e4359081116101a757611cc59036906004016122fc565b925a91303303612131578351606081015192603f5a0260061c61271060a084015186010111612108576000938151918261202e575b50505050611d1491925a90036080850151019436916122a2565b9160005a825195611d2487613cb6565b9073ffffffffffffffffffffffffffffffffffffffff60e0890151168015600014611edb575073ffffffffffffffffffffffffffffffffffffffff885116925b5a9003019560608801519051611ed0575b6080850151870390818111611ebc575b505085029687815110611e58579087611da092510390613c82565b506003831015611e2b57506080867f49628fd1471006c1482da88028e9ce4dbb080b815c9b0344d39e5a8e6ec1419f9201519273ffffffffffffffffffffffffffffffffffffffff865116948873ffffffffffffffffffffffffffffffffffffffff60e0890151169701519160405192835215898301528760408301526060820152a4604051908152f35b807f4e487b7100000000000000000000000000000000000000000000000000000000602492526021600452fd5b6084838a604051917f220266b600000000000000000000000000000000000000000000000000000000835260048301526040602483015260448201527f414135312070726566756e642062656c6f772061637475616c476173436f73746064820152fd5b6064919003600a0204909501948980611d85565b60a088015101611d75565b92838851611eea575b50611d64565b6003881015611fff576002880315611ee45760a08a999897969c9b9a0151813b156101a757886000918983611f5b956040518097819682957f7c627b210000000000000000000000000000000000000000000000000000000084526004840152608060248401526084830190612400565b8b8b0260448301528b60648301520393f19081611feb575b50611fdd578a8a3d610800808211611fd5575b506040519282828501016040528184528284013e610ec36040519283927fad7954bc00000000000000000000000000000000000000000000000000000000845260048401526024830190612400565b905083611f86565b99939495969798998b611ee4565b611ff6919c506121f7565b60009a8c611f73565b7f4e487b7100000000000000000000000000000000000000000000000000000000600052602160045260246000fd5b91600092918380938d73ffffffffffffffffffffffffffffffffffffffff885116910192f115612061575b808080611cfa565b611d1492503d610800808211612100575b5060405190898183010160405280825260008a83013e8051612099575b5050600191612059565b7f1c4fada7374c0a9ee8841fc38afe82932dc0f8e69012e927f061a8bae611a2018980880151926120f68273ffffffffffffffffffffffffffffffffffffffff875116960151916040805194859485528401526040830190612400565b0390a3878061208f565b905089612072565b887fdeaddead000000000000000000000000000000000000000000000000000000006000526000fd5b606487604051907f08c379a00000000000000000000000000000000000000000000000000000000082526004820152601760248201527f4141393220696e7465726e616c2063616c6c206f6e6c790000000000000000006044820152fd5b60a0810190811067ffffffffffffffff8211176121ab57604052565b7f4e487b7100000000000000000000000000000000000000000000000000000000600052604160045260246000fd5b610140810190811067ffffffffffffffff8211176121ab57604052565b67ffffffffffffffff81116121ab57604052565b6060810190811067ffffffffffffffff8211176121ab57604052565b90601f7fffffffffffffffffffffffffffffffffffffffffffffffffffffffffffffffe0910116810190811067ffffffffffffffff8211176121ab57604052565b67ffffffffffffffff81116121ab57601f017fffffffffffffffffffffffffffffffffffffffffffffffffffffffffffffffe01660200190565b9291926122ae82612268565b916122bc6040519384612227565b8294818452818301116101a7578281602093846000960137010152565b6004359073ffffffffffffffffffffffffffffffffffffffff821682036101a757565b9181601f840112156101a75782359167ffffffffffffffff83116101a757602083818601950101116101a757565b6024359077ffffffffffffffffffffffffffffffffffffffffffffffff821682036101a757565b9060407ffffffffffffffffffffffffffffffffffffffffffffffffffffffffffffffffc8301126101a75760043567ffffffffffffffff928382116101a757806023830112156101a75781600401359384116101a75760248460051b830101116101a757602401919060243573ffffffffffffffffffffffffffffffffffffffff811681036101a75790565b60005b8381106123f05750506000910152565b81810151838201526020016123e0565b907fffffffffffffffffffffffffffffffffffffffffffffffffffffffffffffffe0601f60209361243c815180928187528780880191016123dd565b0116010190565b60409061245282820182612884565b9081845191823720906124686060820182612884565b90818551918237209061010060e061248282840184612884565b908188519182372092865194602086019673ffffffffffffffffffffffffffffffffffffffff833516885260208301358988015260608701526080860152608081013560a086015260a081013560c086015260c081013582860152013590830152610120908183015281526124f6816121da565b5190209080519060208201928352308183015246606083015260608252608082019082821067ffffffffffffffff8311176121ab575251902090565b91908201809211610b5a57565b7fffffffffffffffffffffffffffffffffffffffffffffffffffffffffffffffff8114610b5a5760010190565b91908203918211610b5a57565b3d156125a4573d9061258a82612268565b916125986040519384612227565b82523d6000602084013e565b606090565b67ffffffffffffffff81116121ab5760051b60200190565b906125cb826125a9565b6040906125db6040519182612227565b8381527fffffffffffffffffffffffffffffffffffffffffffffffffffffffffffffffe061260982956125a9565b019160005b83811061261b5750505050565b60209082516126298161218f565b8351612634816121da565b600081526000849181838201528187820152816060818184015260809282848201528260a08201528260c08201528260e0820152826101008201528261012082015286528185870152818987015285015283015282860101520161260e565b80518210156126a75760209160051b010190565b7f4e487b7100000000000000000000000000000000000000000000000000000000600052603260045260246000fd5b91908110156126a75760051b810135907ffffffffffffffffffffffffffffffffffffffffffffffffffffffffffffffec1813603018212156101a7570190565b908160209103126101a7575173ffffffffffffffffffffffffffffffffffffffff811681036101a75790565b601f82602094937fffffffffffffffffffffffffffffffffffffffffffffffffffffffffffffffe0938186528686013760008582860101520116010190565b7f2da466a7b24304f47e87fa2e1e5a81b9831ce54fec19055ce277ca2f39ba42c4602073ffffffffffffffffffffffffffffffffffffffff6127c33485613c82565b936040519485521692a2565b91908110156126a75760051b810135907fffffffffffffffffffffffffffffffffffffffffffffffffffffffffffffffa1813603018212156101a7570190565b9035907fffffffffffffffffffffffffffffffffffffffffffffffffffffffffffffffe1813603018212156101a7570180359067ffffffffffffffff82116101a757602001918160051b360383136101a757565b3573ffffffffffffffffffffffffffffffffffffffff811681036101a75790565b9035907fffffffffffffffffffffffffffffffffffffffffffffffffffffffffffffffe1813603018212156101a7570180359067ffffffffffffffff82116101a7576020019181360383136101a757565b90357fffffffffffffffffffffffffffffffffffffffffffffffffffffffffffffffe1823603018112156101a757016020813591019167ffffffffffffffff82116101a75781360383136101a757565b61014091813573ffffffffffffffffffffffffffffffffffffffff81168091036101a75761299b6129806129fe956129df9385526020860135602086015261297060408701876128d5565b9091806040880152860191612742565b61298d60608601866128d5565b908583036060870152612742565b6080840135608084015260a084013560a084015260c084013560c084015260e084013560e08401526101006129d2818601866128d5565b9185840390860152612742565b916129f061012091828101906128d5565b929091818503910152612742565b90565b6002805414612a105760028055565b60046040517f3ee5aeb5000000000000000000000000000000000000000000000000000000008152fd5b9290916000925a908251813573ffffffffffffffffffffffffffffffffffffffff81168091036101a75781526020820135602082015260808201356fffffffffffffffffffffffffffffffff8116606083015260801c604082015260a082013560c082015261010060c08301358183015260e0830135610120830152612ac281840184612884565b801561352e57603481106134d057806014116101a757806024116101a7576034116101a757602481013560801c60a0840152601481013560801c60808401523560601c60e08301525b612b1483612443565b60208601526effffffffffffffffffffffffffffff60c083015160408401511760608401511760808401511760e08501359060c08601359060a08601511717171161347257604082015160608301510160808301510160a08301510160c0830151019082015102845173ffffffffffffffffffffffffffffffffffffffff815116612ba26040860186612884565b80613183575b5050612c17602073ffffffffffffffffffffffffffffffffffffffff60e085015116936000908515613151575b60400151828b01516000868b604051978896879586937f8803e45100000000000000000000000000000000000000000000000000000000855260048501613ce0565b0393f16000918161311d575b50612ccb573d8b610800808311612cc3575b50604051916020818401016040528083526000602084013e610ec36040519283927f65c8fd4d000000000000000000000000000000000000000000000000000000008452600484015260606024840152600d60648401527f4141323320726576657274656400000000000000000000000000000000000000608484015260a0604484015260a4830190612400565b915082612c35565b9115613097575b509773ffffffffffffffffffffffffffffffffffffffff835116602084015190600052600160205260406000208160401c60005260205267ffffffffffffffff604060002091825492612d248461253f565b905516036130325760609273ffffffffffffffffffffffffffffffffffffffff60e082015116612de6575b5a860390608060408201519101510110612d8157506040850152606084015260809160a090910135905a900301910152565b608490604051907f220266b6000000000000000000000000000000000000000000000000000000008252600482015260406024820152601e60448201527f41413430206f76657220766572696669636174696f6e4761734c696d697400006064820152fd5b9198969594939250965083519773ffffffffffffffffffffffffffffffffffffffff60e08a0151169889600052600060205260406000208054838110612fcd579a6080600093859384612e789d9e9f0390550151908360208a015191604051809d819682957f703ae88f0000000000000000000000000000000000000000000000000000000084528c60048501613ce0565b0393f19687600091600099612f40575b50612f30573d8a610800808311612f28575b50604051916020818401016040528083526000602084013e610ec36040519283927f65c8fd4d000000000000000000000000000000000000000000000000000000008452600484015260606024840152600d60648401527f4141333320726576657274656400000000000000000000000000000000000000608484015260a0604484015260a4830190612400565b915082612e9a565b9890919293949596979892612d4f565b915097503d90816000823e612f558282612227565b60408183810103126101a75780519067ffffffffffffffff82116101a757828101601f8383010112156101a7578181015191612f9083612268565b93612f9e6040519586612227565b83855282016020848385010101116101a757602092612fc49184808701918501016123dd565b01519738612e88565b60848b604051907f220266b6000000000000000000000000000000000000000000000000000000008252600482015260406024820152601e60448201527f41413331207061796d6173746572206465706f73697420746f6f206c6f7700006064820152fd5b608490604051907f220266b6000000000000000000000000000000000000000000000000000000008252600482015260406024820152601a60448201527f4141323520696e76616c6964206163636f756e74206e6f6e63650000000000006064820152fd5b6000526000602052604060002080548084116130b857839003905538612cd2565b60848b604051907f220266b6000000000000000000000000000000000000000000000000000000008252600482015260406024820152601760448201527f41413231206469646e2774207061792070726566756e640000000000000000006064820152fd5b9091506020813d602011613149575b8161313960209383612227565b810103126101a757519038612c23565b3d915061312c565b905083600052600082526040600020548681116000146131795750604060005b919050612bd5565b6040908703613171565b823b61340d57604089510151602060405180927f570e1a36000000000000000000000000000000000000000000000000000000008252826004830152816000816131d160248201898b612742565b039273ffffffffffffffffffffffffffffffffffffffff7f00000000000000000000000000000000000000000000000000000000000000001690f1908115610dc2576000916133ee575b5073ffffffffffffffffffffffffffffffffffffffff811615613389578373ffffffffffffffffffffffffffffffffffffffff821603613324573b156132bf576014116101a75781907fd51a9c61267aa6196961883ecf5ff2da6619c37dac0fa92122513fb32c032d2d604060208b01519273ffffffffffffffffffffffffffffffffffffffff60e08d510151168251913560601c82526020820152a33880612ba8565b60848c604051907f220266b6000000000000000000000000000000000000000000000000000000008252600482015260406024820152602060448201527f4141313520696e6974436f6465206d757374206372656174652073656e6465726064820152fd5b60848d604051907f220266b6000000000000000000000000000000000000000000000000000000008252600482015260406024820152602060448201527f4141313420696e6974436f6465206d7573742072657475726e2073656e6465726064820152fd5b60848d604051907f220266b6000000000000000000000000000000000000000000000000000000008252600482015260406024820152601b60448201527f4141313320696e6974436f6465206661696c6564206f72204f4f4700000000006064820152fd5b613407915060203d602011610dbb57610dac8183612227565b3861321b565b60848c604051907f220266b6000000000000000000000000000000000000000000000000000000008252600482015260406024820152601f60448201527f414131302073656e64657220616c726561647920636f6e7374727563746564006064820152fd5b60646040517f08c379a000000000000000000000000000000000000000000000000000000000815260206004820152601860248201527f41413934206761732076616c756573206f766572666c6f7700000000000000006044820152fd5b60646040517f08c379a000000000000000000000000000000000000000000000000000000000815260206004820152601d60248201527f4141393320696e76616c6964207061796d6173746572416e64446174610000006044820152fd5b5050600060e083015260006080830152600060a0830152612b0b565b9092915a90606081015160006040938451977fffffffff000000000000000000000000000000000000000000000000000000008961358b6060840184612884565b8660038211613b89575b7f18ad2e1200000000000000000000000000000000000000000000000000000000941684148714613a3057505050613665916137509160208801516135ed8a5193849360208501528b60248501526064840190612925565b90604483015203906136257fffffffffffffffffffffffffffffffffffffffffffffffffffffffffffffffe092838101835282612227565b61374489519485927e42dc530000000000000000000000000000000000000000000000000000000060208501526102006024850152610224840190612400565b613713604484018b60806101a091805173ffffffffffffffffffffffffffffffffffffffff808251168652602082015160208701526040820151604087015260608201516060870152838201518487015260a082015160a087015260c082015160c087015260e08201511660e0860152610100808201519086015261012080910151908501526020810151610140850152604081015161016085015260608101516101808501520151910152565b7fffffffffffffffffffffffffffffffffffffffffffffffffffffffffffffffdc8382030161020484015288612400565b03908101835282612227565b6020928184809351910182305af160005198865215613772575b505050505050565b909192939495965060003d8314613a22575b7fdeaddead000000000000000000000000000000000000000000000000000000000361380d57608486868051917f220266b600000000000000000000000000000000000000000000000000000000835260048301526024820152600f60448201527f41413935206f7574206f662067617300000000000000000000000000000000006064820152fd5b61389b90828596949501518651907ff62676f440ff169a3a9afdbf812e89e7f95975ee8e5c31214ffdef631c5f47928573ffffffffffffffffffffffffffffffffffffffff8451169301513d90610800808311613a1a575b5088519188818401018a5280835260008984013e613891895192839283528a8a8401528a830190612400565b0390a35a9061256c565b6138ab6080860191825190612532565b925a9560008151976138bc89613cb6565b60e08a019873ffffffffffffffffffffffffffffffffffffffff98898b51168015600014613a095750898c5116935b5a9003019660608c015191516139fc575b518703908181116139e8575b5050850299848401908b825110613986575082918b61392992510390613c82565b50611e2b5750918784926000847f49628fd1471006c1482da88028e9ce4dbb080b815c9b0344d39e5a8e6ec1419f97608097015198808c51169a51169a01519482519586528501528301526060820152a49038808080808061376a565b60849088878051927f220266b60000000000000000000000000000000000000000000000000000000084526004840152602483015260448201527f414135312070726566756e642062656c6f772061637475616c476173436f73746064820152fd5b6064919003600a0204909501943880613908565b9060a08c015101906138fc565b938251156138eb57600095506138eb565b915038613865565b50816000803e600051613784565b613b83945082935090613a78917e42dc53000000000000000000000000000000000000000000000000000000006020613b579501526102006024860152610224850191612742565b613b26604484018960806101a091805173ffffffffffffffffffffffffffffffffffffffff808251168652602082015160208701526040820151604087015260608201516060870152838201518487015260a082015160a087015260c082015160c087015260e08201511660e0860152610100808201519086015261012080910151908501526020810151610140850152604081015161016085015260608101516101808501520151910152565b7fffffffffffffffffffffffffffffffffffffffffffffffffffffffffffffffdc8382030161020484015286612400565b037fffffffffffffffffffffffffffffffffffffffffffffffffffffffffffffffe081018a5289612227565b87613750565b508135613595565b73ffffffffffffffffffffffffffffffffffffffff168015613c2457600080809381935af1613bbe612579565b5015613bc657565b60646040517f08c379a000000000000000000000000000000000000000000000000000000000815260206004820152601f60248201527f41413931206661696c65642073656e6420746f2062656e6566696369617279006044820152fd5b60646040517f08c379a000000000000000000000000000000000000000000000000000000000815260206004820152601860248201527f4141393020696e76616c69642062656e656669636961727900000000000000006044820152fd5b73ffffffffffffffffffffffffffffffffffffffff166000526000602052613cb06040600020918254612532565b80915590565b610120610100820151910151808214613cdc57480180821015613cd7575090565b905090565b5090565b613cf860409295949395606083526060830190612925565b9460208201520152565b8015613d8f57600060408051613d178161220b565b828152826020820152015273ffffffffffffffffffffffffffffffffffffffff811690604065ffffffffffff91828160a01c16908115613d87575b60d01c92825191613d628361220b565b8583528460208401521691829101524211908115613d7f57509091565b905042109091565b839150613d52565b5060009060009056fea264697066735822122039437b055a0ba03d9e62cb130b1a5b39234fe52ccceac94f18f2c86b0efa3f2764736f6c6343000817003360808060405234610016576101c3908161001c8239f35b600080fdfe6080600436101561000f57600080fd5b6000803560e01c63570e1a361461002557600080fd5b3461018a5760207ffffffffffffffffffffffffffffffffffffffffffffffffffffffffffffffffc36011261018a576004359167ffffffffffffffff9081841161018657366023850112156101865783600401358281116101825736602482870101116101825780601411610182577fffffffffffffffffffffffffffffffffffffffffffffffffffffffffffffffec810192808411610155577fffffffffffffffffffffffffffffffffffffffffffffffffffffffffffffffe0603f81600b8501160116830190838210908211176101555792846024819482600c60209a968b9960405286845289840196603889018837830101525193013560601c5af1908051911561014d575b5073ffffffffffffffffffffffffffffffffffffffff60405191168152f35b90503861012e565b6024857f4e487b710000000000000000000000000000000000000000000000000000000081526041600452fd5b8380fd5b8280fd5b80fdfea264697066735822122024ef3abfd31dde9e4d27e341c25802405d1557306fee7d71d82bd22012501cfb64736f6c63430008170033","opcodes":"PUSH1 0xA0 DUP1 PUSH1 0x40 MSTORE CALLVALUE PUSH3 0x82 JUMPI PUSH1 0x1 PUSH1 0x2 SSTORE PUSH2 0x1DF DUP2 DUP2 ADD PUSH1 0x1 PUSH1 0x1 PUSH1 0x40 SHL SUB DUP2 GT DUP4 DUP3 LT OR PUSH3 0x6C JUMPI DUP3 SWAP2 PUSH3 0x3E56 DUP4 CODECOPY SUB SWAP1 PUSH1 0x0 CREATE DUP1 ISZERO PUSH3 0x60 JUMPI PUSH1 0x80 MSTORE PUSH1 0x40 MLOAD PUSH2 0x3DCE SWAP1 DUP2 PUSH3 0x88 DUP3 CODECOPY PUSH1 0x80 MLOAD DUP2 DUP2 DUP2 PUSH2 0xD2D ADD MSTORE PUSH2 0x31EA ADD MSTORE RETURN JUMPDEST PUSH1 0x40 MLOAD RETURNDATASIZE PUSH1 0x0 DUP3 RETURNDATACOPY RETURNDATASIZE SWAP1 REVERT JUMPDEST PUSH4 0x4E487B71 PUSH1 0xE0 SHL PUSH1 0x0 MSTORE PUSH1 0x41 PUSH1 0x4 MSTORE PUSH1 0x24 PUSH1 0x0 REVERT JUMPDEST PUSH1 0x0 DUP1 REVERT INVALID PUSH1 0x80 PUSH1 0x40 MSTORE PUSH1 0x4 CALLDATASIZE LT ISZERO PUSH2 0x24 JUMPI JUMPDEST CALLDATASIZE ISZERO PUSH2 0x19 JUMPI PUSH1 0x0 DUP1 REVERT JUMPDEST PUSH2 0x22 CALLER PUSH2 0x2781 JUMP JUMPDEST STOP JUMPDEST PUSH1 0x0 CALLDATALOAD PUSH1 0xE0 SHR DUP1 PUSH3 0x42DC53 EQ PUSH2 0x1B45 JUMPI DUP1 PUSH4 0x1FFC9A7 EQ PUSH2 0x19F3 JUMPI DUP1 PUSH4 0x2101E49 EQ PUSH2 0x198D JUMPI DUP1 PUSH4 0x396CB60 EQ PUSH2 0x1655 JUMPI DUP1 PUSH4 0xBD28E3B EQ PUSH2 0x15D9 JUMPI DUP1 PUSH4 0x1B2E01B8 EQ PUSH2 0x1545 JUMPI DUP1 PUSH4 0x205C2878 EQ PUSH2 0x13B0 JUMPI DUP1 PUSH4 0x35567E1A EQ PUSH2 0x12F8 JUMPI DUP1 PUSH4 0x5287CE12 EQ PUSH2 0x11EA JUMPI DUP1 PUSH4 0x6B21DB51 EQ PUSH2 0xF2C JUMPI DUP1 PUSH4 0x70A08231 EQ PUSH2 0xEC7 JUMPI DUP1 PUSH4 0x850AAF62 EQ PUSH2 0xE08 JUMPI DUP1 PUSH4 0x8F41EC5A EQ PUSH2 0xDCE JUMPI DUP1 PUSH4 0x9B249F69 EQ PUSH2 0xC7F JUMPI DUP1 PUSH4 0xB760FAF9 EQ PUSH2 0xC45 JUMPI DUP1 PUSH4 0xBB9FE6BF EQ PUSH2 0xA73 JUMPI DUP1 PUSH4 0xC23A5CEA EQ PUSH2 0x7CF JUMPI DUP1 PUSH4 0xEA8AD612 EQ PUSH2 0x1AC JUMPI PUSH4 0xFC7E286D SUB PUSH2 0xE JUMPI CALLVALUE PUSH2 0x1A7 JUMPI PUSH1 0x20 PUSH32 0xFFFFFFFFFFFFFFFFFFFFFFFFFFFFFFFFFFFFFFFFFFFFFFFFFFFFFFFFFFFFFFFC CALLDATASIZE ADD SLT PUSH2 0x1A7 JUMPI PUSH20 0xFFFFFFFFFFFFFFFFFFFFFFFFFFFFFFFFFFFFFFFF PUSH2 0x145 PUSH2 0x22D9 JUMP JUMPDEST AND PUSH1 0x0 MSTORE PUSH1 0x0 PUSH1 0x20 MSTORE PUSH1 0xA0 PUSH1 0x40 PUSH1 0x0 KECCAK256 PUSH6 0xFFFFFFFFFFFF PUSH1 0x1 DUP3 SLOAD SWAP3 ADD SLOAD PUSH1 0x40 MLOAD SWAP3 DUP4 MSTORE PUSH1 0xFF DUP2 AND ISZERO ISZERO PUSH1 0x20 DUP5 ADD MSTORE PUSH14 0xFFFFFFFFFFFFFFFFFFFFFFFFFFFF DUP2 PUSH1 0x8 SHR AND PUSH1 0x40 DUP5 ADD MSTORE PUSH4 0xFFFFFFFF DUP2 PUSH1 0x78 SHR AND PUSH1 0x60 DUP5 ADD MSTORE PUSH1 0x98 SHR AND PUSH1 0x80 DUP3 ADD MSTORE RETURN JUMPDEST PUSH1 0x0 DUP1 REVERT JUMPDEST CALLVALUE PUSH2 0x1A7 JUMPI PUSH2 0x1BA CALLDATASIZE PUSH2 0x2351 JUMP JUMPDEST SWAP1 PUSH2 0x1C3 PUSH2 0x2A01 JUMP JUMPDEST PUSH1 0x0 SWAP2 PUSH1 0x0 JUMPDEST DUP3 DUP2 LT PUSH2 0x57A JUMPI POP PUSH2 0x1DB DUP5 SWAP4 PUSH2 0x25C1 JUMP JUMPDEST PUSH1 0x0 DUP1 JUMPDEST DUP5 DUP2 LT PUSH2 0x307 JUMPI POP POP PUSH32 0xBB47EE3E183A558B1A2FF0874B079F3FC5478B7454EACF2BFC5AF2FF5878F972 PUSH1 0x0 DUP1 LOG1 PUSH1 0x0 DUP1 SWAP4 PUSH1 0x0 JUMPDEST DUP2 DUP2 LT PUSH2 0x252 JUMPI PUSH2 0x24B DUP7 DUP7 PUSH1 0x0 PUSH32 0x575FF3ACADD5AB348FE1855E217E0F3678F8D767D7494C9F9FEFBEE2E17CCA4D DUP2 DUP1 LOG2 PUSH2 0x3B91 JUMP JUMPDEST PUSH1 0x1 PUSH1 0x2 SSTORE STOP JUMPDEST PUSH2 0x2AD PUSH2 0x260 DUP3 DUP5 DUP11 PUSH2 0x27CF JUMP JUMPDEST PUSH20 0xFFFFFFFFFFFFFFFFFFFFFFFFFFFFFFFFFFFFFFFF PUSH2 0x281 PUSH1 0x20 DUP4 ADD PUSH2 0x2863 JUMP JUMPDEST AND PUSH32 0x575FF3ACADD5AB348FE1855E217E0F3678F8D767D7494C9F9FEFBEE2E17CCA4D PUSH1 0x0 DUP1 LOG2 DUP1 PUSH2 0x280F JUMP JUMPDEST SWAP1 PUSH1 0x0 SWAP2 JUMPDEST DUP1 DUP4 LT PUSH2 0x2C4 JUMPI POP POP POP PUSH1 0x1 ADD PUSH2 0x214 JUMP JUMPDEST SWAP1 SWAP2 SWAP5 SWAP8 PUSH2 0x2FE PUSH2 0x2F8 PUSH1 0x1 SWAP3 PUSH2 0x2F2 DUP13 DUP12 PUSH2 0x2EB DUP3 PUSH2 0x2E5 DUP15 DUP12 DUP14 PUSH2 0x26D6 JUMP JUMPDEST SWAP3 PUSH2 0x2693 JUMP JUMPDEST MLOAD SWAP2 PUSH2 0x354A JUMP JUMPDEST SWAP1 PUSH2 0x2532 JUMP JUMPDEST SWAP10 PUSH2 0x253F JUMP JUMPDEST SWAP6 ADD SWAP2 SWAP1 PUSH2 0x2B2 JUMP JUMPDEST PUSH1 0x20 PUSH2 0x314 DUP3 DUP8 DUP10 PUSH2 0x27CF JUMP JUMPDEST PUSH2 0x32A PUSH2 0x321 DUP3 DUP1 PUSH2 0x280F JUMP JUMPDEST SWAP4 SWAP1 SWAP3 ADD PUSH2 0x2863 JUMP JUMPDEST SWAP2 PUSH1 0x0 SWAP3 PUSH20 0xFFFFFFFFFFFFFFFFFFFFFFFFFFFFFFFFFFFFFFFF DUP1 SWAP2 AND JUMPDEST DUP3 DUP6 LT PUSH2 0x35B JUMPI POP POP POP POP POP PUSH1 0x1 ADD PUSH2 0x1DF JUMP JUMPDEST SWAP1 SWAP2 SWAP3 SWAP4 SWAP6 PUSH2 0x38A DUP4 PUSH2 0x383 PUSH2 0x371 DUP5 DUP13 PUSH2 0x2693 JUMP JUMPDEST MLOAD PUSH2 0x37D DUP12 DUP10 DUP12 PUSH2 0x26D6 JUMP JUMPDEST DUP6 PUSH2 0x2A3A JUMP JUMPDEST SWAP3 SWAP1 PUSH2 0x3D02 JUMP JUMPDEST SWAP2 AND DUP5 SUB PUSH2 0x515 JUMPI PUSH2 0x4B0 JUMPI PUSH2 0x3A0 DUP5 SWAP2 PUSH2 0x3D02 JUMP JUMPDEST SWAP2 AND PUSH2 0x44B JUMPI PUSH2 0x3C0 JUMPI PUSH2 0x3B5 PUSH1 0x1 SWAP2 PUSH2 0x253F JUMP JUMPDEST SWAP7 ADD SWAP4 SWAP3 SWAP2 SWAP1 PUSH2 0x347 JUMP JUMPDEST PUSH1 0xA4 DUP8 PUSH1 0x40 MLOAD SWAP1 PUSH32 0x220266B600000000000000000000000000000000000000000000000000000000 DUP3 MSTORE PUSH1 0x4 DUP3 ADD MSTORE PUSH1 0x40 PUSH1 0x24 DUP3 ADD MSTORE PUSH1 0x21 PUSH1 0x44 DUP3 ADD MSTORE PUSH32 0x41413332207061796D61737465722065787069726564206F72206E6F74206475 PUSH1 0x64 DUP3 ADD MSTORE PUSH32 0x6500000000000000000000000000000000000000000000000000000000000000 PUSH1 0x84 DUP3 ADD MSTORE REVERT JUMPDEST PUSH1 0x84 DUP9 PUSH1 0x40 MLOAD SWAP1 PUSH32 0x220266B600000000000000000000000000000000000000000000000000000000 DUP3 MSTORE PUSH1 0x4 DUP3 ADD MSTORE PUSH1 0x40 PUSH1 0x24 DUP3 ADD MSTORE PUSH1 0x14 PUSH1 0x44 DUP3 ADD MSTORE PUSH32 0x41413334207369676E6174757265206572726F72000000000000000000000000 PUSH1 0x64 DUP3 ADD MSTORE REVERT JUMPDEST PUSH1 0x84 DUP9 PUSH1 0x40 MLOAD SWAP1 PUSH32 0x220266B600000000000000000000000000000000000000000000000000000000 DUP3 MSTORE PUSH1 0x4 DUP3 ADD MSTORE PUSH1 0x40 PUSH1 0x24 DUP3 ADD MSTORE PUSH1 0x17 PUSH1 0x44 DUP3 ADD MSTORE PUSH32 0x414132322065787069726564206F72206E6F7420647565000000000000000000 PUSH1 0x64 DUP3 ADD MSTORE REVERT JUMPDEST PUSH1 0x84 DUP10 PUSH1 0x40 MLOAD SWAP1 PUSH32 0x220266B600000000000000000000000000000000000000000000000000000000 DUP3 MSTORE PUSH1 0x4 DUP3 ADD MSTORE PUSH1 0x40 PUSH1 0x24 DUP3 ADD MSTORE PUSH1 0x14 PUSH1 0x44 DUP3 ADD MSTORE PUSH32 0x41413234207369676E6174757265206572726F72000000000000000000000000 PUSH1 0x64 DUP3 ADD MSTORE REVERT JUMPDEST PUSH2 0x585 DUP2 DUP5 DUP8 PUSH2 0x27CF JUMP JUMPDEST SWAP4 PUSH2 0x590 DUP6 DUP1 PUSH2 0x280F JUMP JUMPDEST SWAP2 SWAP1 SWAP6 PUSH1 0x20 PUSH20 0xFFFFFFFFFFFFFFFFFFFFFFFFFFFFFFFFFFFFFFFF PUSH2 0x5B5 DUP3 DUP5 ADD PUSH2 0x2863 JUMP JUMPDEST AND SWAP8 PUSH1 0x1 SWAP3 DUP4 DUP11 EQ PUSH2 0x771 JUMPI DUP10 PUSH2 0x5E5 JUMPI JUMPDEST POP POP POP POP PUSH1 0x1 SWAP3 SWAP4 SWAP5 SWAP6 POP SWAP1 PUSH2 0x5DC SWAP2 PUSH2 0x2532 JUMP JUMPDEST SWAP4 SWAP3 SWAP2 ADD PUSH2 0x1C9 JUMP JUMPDEST DUP1 PUSH1 0x40 PUSH2 0x5F3 SWAP3 ADD SWAP1 PUSH2 0x2884 JUMP JUMPDEST SWAP2 DUP11 EXTCODESIZE ISZERO PUSH2 0x1A7 JUMPI SWAP3 SWAP4 SWAP2 SWAP1 PUSH1 0x40 MLOAD SWAP5 DUP6 SWAP4 PUSH32 0xFE96CF2300000000000000000000000000000000000000000000000000000000 DUP6 MSTORE DUP9 PUSH1 0x44 DUP7 ADD PUSH1 0x40 PUSH1 0x4 DUP9 ADD MSTORE MSTORE PUSH1 0x64 SWAP1 DUP2 DUP7 ADD SWAP2 DUP11 PUSH1 0x5 SHL DUP8 ADD ADD SWAP7 DUP1 SWAP4 PUSH1 0x0 SWAP2 JUMPDEST DUP13 DUP4 LT PUSH2 0x6F1 JUMPI POP POP POP POP POP POP DUP4 DUP4 SWAP3 PUSH2 0x68F SWAP3 PUSH32 0xFFFFFFFFFFFFFFFFFFFFFFFFFFFFFFFFFFFFFFFFFFFFFFFFFFFFFFFFFFFFFFFC DUP6 PUSH1 0x0 SWAP9 SUB ADD PUSH1 0x24 DUP7 ADD MSTORE PUSH2 0x2742 JUMP JUMPDEST SUB DUP2 DUP11 GAS STATICCALL SWAP1 DUP2 PUSH2 0x6E2 JUMPI JUMPDEST POP PUSH2 0x6D1 JUMPI PUSH1 0x24 DUP7 PUSH1 0x40 MLOAD SWAP1 PUSH32 0x86A9F75000000000000000000000000000000000000000000000000000000000 DUP3 MSTORE PUSH1 0x4 DUP3 ADD MSTORE REVERT JUMPDEST SWAP4 SWAP5 POP DUP5 SWAP4 PUSH2 0x5DC PUSH1 0x1 DUP10 DUP1 PUSH2 0x5C7 JUMP JUMPDEST PUSH2 0x6EB SWAP1 PUSH2 0x21F7 JUMP JUMPDEST DUP9 PUSH2 0x69B JUMP JUMPDEST SWAP2 SWAP4 SWAP6 SWAP7 SWAP8 PUSH32 0xFFFFFFFFFFFFFFFFFFFFFFFFFFFFFFFFFFFFFFFFFFFFFFFFFFFFFFFFFFFFFF9C SWAP1 DUP11 SWAP3 SWAP5 SWAP7 SWAP11 SUB ADD DUP7 MSTORE DUP9 CALLDATALOAD PUSH32 0xFFFFFFFFFFFFFFFFFFFFFFFFFFFFFFFFFFFFFFFFFFFFFFFFFFFFFFFFFFFFFEC1 DUP4 CALLDATASIZE SUB ADD DUP2 SLT ISZERO PUSH2 0x1A7 JUMPI DUP4 PUSH2 0x75E DUP8 SWAP4 DUP6 DUP4 SWAP5 ADD PUSH2 0x2925 JUMP JUMPDEST SWAP11 ADD SWAP7 ADD SWAP4 ADD SWAP1 SWAP2 DUP10 SWAP8 SWAP7 SWAP6 SWAP5 SWAP3 PUSH2 0x64A JUMP JUMPDEST PUSH1 0x64 DUP4 PUSH1 0x40 MLOAD SWAP1 PUSH32 0x8C379A000000000000000000000000000000000000000000000000000000000 DUP3 MSTORE PUSH1 0x4 DUP3 ADD MSTORE PUSH1 0x17 PUSH1 0x24 DUP3 ADD MSTORE PUSH32 0x4141393620696E76616C69642061676772656761746F72000000000000000000 PUSH1 0x44 DUP3 ADD MSTORE REVERT JUMPDEST CALLVALUE PUSH2 0x1A7 JUMPI PUSH1 0x20 DUP1 PUSH32 0xFFFFFFFFFFFFFFFFFFFFFFFFFFFFFFFFFFFFFFFFFFFFFFFFFFFFFFFFFFFFFFFC CALLDATASIZE ADD SLT PUSH2 0x1A7 JUMPI PUSH2 0x807 PUSH2 0x22D9 JUMP JUMPDEST CALLER PUSH1 0x0 MSTORE PUSH1 0x0 DUP3 MSTORE PUSH1 0x1 PUSH1 0x40 PUSH1 0x0 KECCAK256 ADD SWAP1 DUP2 SLOAD SWAP2 PUSH14 0xFFFFFFFFFFFFFFFFFFFFFFFFFFFF DUP4 PUSH1 0x8 SHR AND SWAP3 DUP4 ISZERO PUSH2 0xA15 JUMPI PUSH6 0xFFFFFFFFFFFF DUP2 PUSH1 0x98 SHR AND DUP1 ISZERO PUSH2 0x9B7 JUMPI TIMESTAMP LT PUSH2 0x959 JUMPI PUSH1 0x0 SWAP4 PUSH20 0xFFFFFFFFFFFFFFFFFFFFFFFFFFFFFFFFFFFFFFFF DUP6 SWAP5 DUP6 SWAP5 PUSH32 0xFFFFFFFFFFFFFF000000000000000000000000000000000000000000000000FF DUP7 SWAP6 AND SWAP1 SSTORE PUSH1 0x40 MLOAD PUSH32 0xB7C918E0E249F999E965CAFEB6C664271B3F4317D296461500E71DA39F0CBDA3 CALLER SWAP2 DUP1 PUSH2 0x8E5 DUP8 DUP7 DUP4 PUSH1 0x20 SWAP1 SWAP4 SWAP3 SWAP2 SWAP4 PUSH20 0xFFFFFFFFFFFFFFFFFFFFFFFFFFFFFFFFFFFFFFFF PUSH1 0x40 DUP3 ADD SWAP6 AND DUP2 MSTORE ADD MSTORE JUMP JUMPDEST SUB SWAP1 LOG2 AND GAS CALL PUSH2 0x8F3 PUSH2 0x2579 JUMP JUMPDEST POP ISZERO PUSH2 0x8FB JUMPI STOP JUMPDEST PUSH1 0x64 SWAP1 PUSH1 0x40 MLOAD SWAP1 PUSH32 0x8C379A000000000000000000000000000000000000000000000000000000000 DUP3 MSTORE PUSH1 0x4 DUP3 ADD MSTORE PUSH1 0x18 PUSH1 0x24 DUP3 ADD MSTORE PUSH32 0x6661696C656420746F207769746864726177207374616B650000000000000000 PUSH1 0x44 DUP3 ADD MSTORE REVERT JUMPDEST PUSH1 0x64 DUP6 PUSH1 0x40 MLOAD SWAP1 PUSH32 0x8C379A000000000000000000000000000000000000000000000000000000000 DUP3 MSTORE PUSH1 0x4 DUP3 ADD MSTORE PUSH1 0x1B PUSH1 0x24 DUP3 ADD MSTORE PUSH32 0x5374616B65207769746864726177616C206973206E6F74206475650000000000 PUSH1 0x44 DUP3 ADD MSTORE REVERT JUMPDEST PUSH1 0x64 DUP7 PUSH1 0x40 MLOAD SWAP1 PUSH32 0x8C379A000000000000000000000000000000000000000000000000000000000 DUP3 MSTORE PUSH1 0x4 DUP3 ADD MSTORE PUSH1 0x1D PUSH1 0x24 DUP3 ADD MSTORE PUSH32 0x6D7573742063616C6C20756E6C6F636B5374616B652829206669727374000000 PUSH1 0x44 DUP3 ADD MSTORE REVERT JUMPDEST PUSH1 0x64 DUP6 PUSH1 0x40 MLOAD SWAP1 PUSH32 0x8C379A000000000000000000000000000000000000000000000000000000000 DUP3 MSTORE PUSH1 0x4 DUP3 ADD MSTORE PUSH1 0x14 PUSH1 0x24 DUP3 ADD MSTORE PUSH32 0x4E6F207374616B6520746F207769746864726177000000000000000000000000 PUSH1 0x44 DUP3 ADD MSTORE REVERT JUMPDEST CALLVALUE PUSH2 0x1A7 JUMPI PUSH1 0x0 PUSH32 0xFFFFFFFFFFFFFFFFFFFFFFFFFFFFFFFFFFFFFFFFFFFFFFFFFFFFFFFFFFFFFFFC CALLDATASIZE ADD SLT PUSH2 0x1A7 JUMPI CALLER PUSH1 0x0 MSTORE PUSH1 0x0 PUSH1 0x20 MSTORE PUSH1 0x1 PUSH1 0x40 PUSH1 0x0 KECCAK256 ADD DUP1 SLOAD PUSH4 0xFFFFFFFF DUP2 PUSH1 0x78 SHR AND SWAP1 DUP2 ISZERO PUSH2 0xBE7 JUMPI PUSH1 0xFF AND ISZERO PUSH2 0xB89 JUMPI PUSH6 0xFFFFFFFFFFFF SWAP1 DUP2 TIMESTAMP AND ADD SWAP2 DUP2 DUP4 GT PUSH2 0xB5A JUMPI DUP1 SLOAD PUSH32 0xFFFFFFFFFFFFFF000000000000FFFFFFFFFFFFFFFFFFFFFFFFFFFFFFFFFFFF00 AND PUSH25 0xFFFFFFFFFFFF00000000000000000000000000000000000000 PUSH1 0x98 DUP6 SWAP1 SHL AND OR SWAP1 SSTORE PUSH1 0x40 MLOAD SWAP2 AND DUP2 MSTORE CALLER SWAP1 PUSH32 0xFA9B3C14CC825C412C9ED81B3BA365A5B459439403F18829E572ED53A4180F0A SWAP1 PUSH1 0x20 SWAP1 LOG2 STOP JUMPDEST PUSH32 0x4E487B7100000000000000000000000000000000000000000000000000000000 PUSH1 0x0 MSTORE PUSH1 0x11 PUSH1 0x4 MSTORE PUSH1 0x24 PUSH1 0x0 REVERT JUMPDEST PUSH1 0x64 PUSH1 0x40 MLOAD PUSH32 0x8C379A000000000000000000000000000000000000000000000000000000000 DUP2 MSTORE PUSH1 0x20 PUSH1 0x4 DUP3 ADD MSTORE PUSH1 0x11 PUSH1 0x24 DUP3 ADD MSTORE PUSH32 0x616C726561647920756E7374616B696E67000000000000000000000000000000 PUSH1 0x44 DUP3 ADD MSTORE REVERT JUMPDEST PUSH1 0x64 PUSH1 0x40 MLOAD PUSH32 0x8C379A000000000000000000000000000000000000000000000000000000000 DUP2 MSTORE PUSH1 0x20 PUSH1 0x4 DUP3 ADD MSTORE PUSH1 0xA PUSH1 0x24 DUP3 ADD MSTORE PUSH32 0x6E6F74207374616B656400000000000000000000000000000000000000000000 PUSH1 0x44 DUP3 ADD MSTORE REVERT JUMPDEST PUSH1 0x20 PUSH32 0xFFFFFFFFFFFFFFFFFFFFFFFFFFFFFFFFFFFFFFFFFFFFFFFFFFFFFFFFFFFFFFFC CALLDATASIZE ADD SLT PUSH2 0x1A7 JUMPI PUSH2 0x22 PUSH2 0xC7A PUSH2 0x22D9 JUMP JUMPDEST PUSH2 0x2781 JUMP JUMPDEST CALLVALUE PUSH2 0x1A7 JUMPI PUSH1 0x20 PUSH32 0xFFFFFFFFFFFFFFFFFFFFFFFFFFFFFFFFFFFFFFFFFFFFFFFFFFFFFFFFFFFFFFFC CALLDATASIZE ADD SLT PUSH2 0x1A7 JUMPI PUSH1 0x4 CALLDATALOAD PUSH8 0xFFFFFFFFFFFFFFFF DUP2 GT PUSH2 0x1A7 JUMPI PUSH1 0x20 PUSH2 0xCD3 PUSH2 0xD26 SWAP3 CALLDATASIZE SWAP1 PUSH1 0x4 ADD PUSH2 0x22FC JUMP JUMPDEST SWAP2 SWAP1 PUSH20 0xFFFFFFFFFFFFFFFFFFFFFFFFFFFFFFFFFFFFFFFF SWAP3 PUSH1 0x40 MLOAD SWAP5 DUP6 SWAP3 DUP4 SWAP3 PUSH32 0x570E1A3600000000000000000000000000000000000000000000000000000000 DUP5 MSTORE DUP6 PUSH1 0x4 DUP6 ADD MSTORE PUSH1 0x24 DUP5 ADD SWAP2 PUSH2 0x2742 JUMP JUMPDEST SUB DUP2 PUSH1 0x0 DUP6 PUSH32 0x0 AND GAS CALL SWAP1 DUP2 ISZERO PUSH2 0xDC2 JUMPI PUSH1 0x24 SWAP3 PUSH1 0x0 SWAP3 PUSH2 0xD91 JUMPI JUMPDEST POP PUSH1 0x40 MLOAD SWAP2 PUSH32 0x6CA7B80600000000000000000000000000000000000000000000000000000000 DUP4 MSTORE AND PUSH1 0x4 DUP3 ADD MSTORE REVERT JUMPDEST PUSH2 0xDB4 SWAP2 SWAP3 POP PUSH1 0x20 RETURNDATASIZE PUSH1 0x20 GT PUSH2 0xDBB JUMPI JUMPDEST PUSH2 0xDAC DUP2 DUP4 PUSH2 0x2227 JUMP JUMPDEST DUP2 ADD SWAP1 PUSH2 0x2716 JUMP JUMPDEST SWAP1 DUP4 PUSH2 0xD61 JUMP JUMPDEST POP RETURNDATASIZE PUSH2 0xDA2 JUMP JUMPDEST PUSH1 0x40 MLOAD RETURNDATASIZE PUSH1 0x0 DUP3 RETURNDATACOPY RETURNDATASIZE SWAP1 REVERT JUMPDEST CALLVALUE PUSH2 0x1A7 JUMPI PUSH1 0x0 PUSH32 0xFFFFFFFFFFFFFFFFFFFFFFFFFFFFFFFFFFFFFFFFFFFFFFFFFFFFFFFFFFFFFFFC CALLDATASIZE ADD SLT PUSH2 0x1A7 JUMPI PUSH1 0x20 PUSH1 0x40 MLOAD PUSH1 0x1 DUP2 MSTORE RETURN JUMPDEST CALLVALUE PUSH2 0x1A7 JUMPI PUSH1 0x40 PUSH32 0xFFFFFFFFFFFFFFFFFFFFFFFFFFFFFFFFFFFFFFFFFFFFFFFFFFFFFFFFFFFFFFFC CALLDATASIZE ADD SLT PUSH2 0x1A7 JUMPI PUSH2 0xE3F PUSH2 0x22D9 JUMP JUMPDEST PUSH1 0x24 CALLDATALOAD PUSH8 0xFFFFFFFFFFFFFFFF DUP2 GT PUSH2 0x1A7 JUMPI PUSH1 0x0 SWAP2 PUSH2 0xE63 DUP4 SWAP3 CALLDATASIZE SWAP1 PUSH1 0x4 ADD PUSH2 0x22FC JUMP JUMPDEST SWAP1 DUP2 PUSH1 0x40 MLOAD SWAP3 DUP4 SWAP3 DUP4 CALLDATACOPY DUP2 ADD DUP5 DUP2 MSTORE SUB SWAP2 GAS DELEGATECALL PUSH2 0xE7E PUSH2 0x2579 JUMP JUMPDEST SWAP1 PUSH2 0xEC3 PUSH1 0x40 MLOAD SWAP3 DUP4 SWAP3 PUSH32 0x9941055400000000000000000000000000000000000000000000000000000000 DUP5 MSTORE ISZERO ISZERO PUSH1 0x4 DUP5 ADD MSTORE PUSH1 0x40 PUSH1 0x24 DUP5 ADD MSTORE PUSH1 0x44 DUP4 ADD SWAP1 PUSH2 0x2400 JUMP JUMPDEST SUB SWAP1 REVERT JUMPDEST CALLVALUE PUSH2 0x1A7 JUMPI PUSH1 0x20 PUSH32 0xFFFFFFFFFFFFFFFFFFFFFFFFFFFFFFFFFFFFFFFFFFFFFFFFFFFFFFFFFFFFFFFC CALLDATASIZE ADD SLT PUSH2 0x1A7 JUMPI PUSH20 0xFFFFFFFFFFFFFFFFFFFFFFFFFFFFFFFFFFFFFFFF PUSH2 0xF13 PUSH2 0x22D9 JUMP JUMPDEST AND PUSH1 0x0 MSTORE PUSH1 0x0 PUSH1 0x20 MSTORE PUSH1 0x20 PUSH1 0x40 PUSH1 0x0 KECCAK256 SLOAD PUSH1 0x40 MLOAD SWAP1 DUP2 MSTORE RETURN JUMPDEST CALLVALUE PUSH2 0x1A7 JUMPI PUSH2 0xF3A CALLDATASIZE PUSH2 0x2351 JUMP JUMPDEST PUSH2 0xF45 SWAP3 SWAP2 SWAP3 PUSH2 0x2A01 JUMP JUMPDEST PUSH2 0xF4E DUP4 PUSH2 0x25C1 JUMP JUMPDEST PUSH1 0x0 JUMPDEST DUP5 DUP2 LT PUSH2 0xFC6 JUMPI POP PUSH1 0x0 SWAP3 PUSH32 0xBB47EE3E183A558B1A2FF0874B079F3FC5478B7454EACF2BFC5AF2FF5878F972 PUSH1 0x0 DUP1 LOG1 PUSH1 0x0 SWAP2 JUMPDEST DUP6 DUP4 LT PUSH2 0xF96 JUMPI PUSH2 0x24B DUP6 DUP6 PUSH2 0x3B91 JUMP JUMPDEST SWAP1 SWAP2 SWAP4 PUSH1 0x1 SWAP1 PUSH2 0xFBC PUSH2 0xFAA DUP8 DUP10 DUP8 PUSH2 0x26D6 JUMP JUMPDEST PUSH2 0xFB4 DUP9 DUP7 PUSH2 0x2693 JUMP JUMPDEST MLOAD SWAP1 DUP9 PUSH2 0x354A JUMP JUMPDEST ADD SWAP5 ADD SWAP2 SWAP1 PUSH2 0xF85 JUMP JUMPDEST PUSH2 0xFF1 PUSH2 0xFEA PUSH2 0xFD8 DUP4 DUP6 SWAP8 SWAP6 PUSH2 0x2693 JUMP JUMPDEST MLOAD PUSH2 0xFE4 DUP5 DUP10 DUP8 PUSH2 0x26D6 JUMP JUMPDEST DUP5 PUSH2 0x2A3A JUMP JUMPDEST SWAP2 SWAP1 PUSH2 0x3D02 JUMP JUMPDEST PUSH20 0xFFFFFFFFFFFFFFFFFFFFFFFFFFFFFFFFFFFFFFFF SWAP3 SWAP2 DUP4 AND PUSH2 0x1185 JUMPI PUSH2 0x1120 JUMPI PUSH2 0x101B SWAP1 PUSH2 0x3D02 JUMP JUMPDEST SWAP2 AND PUSH2 0x10BB JUMPI PUSH2 0x1030 JUMPI PUSH1 0x1 ADD SWAP3 SWAP1 SWAP3 PUSH2 0xF51 JUMP JUMPDEST PUSH1 0xA4 SWAP1 PUSH1 0x40 MLOAD SWAP1 PUSH32 0x220266B600000000000000000000000000000000000000000000000000000000 DUP3 MSTORE PUSH1 0x4 DUP3 ADD MSTORE PUSH1 0x40 PUSH1 0x24 DUP3 ADD MSTORE PUSH1 0x21 PUSH1 0x44 DUP3 ADD MSTORE PUSH32 0x41413332207061796D61737465722065787069726564206F72206E6F74206475 PUSH1 0x64 DUP3 ADD MSTORE PUSH32 0x6500000000000000000000000000000000000000000000000000000000000000 PUSH1 0x84 DUP3 ADD MSTORE REVERT JUMPDEST PUSH1 0x84 DUP3 PUSH1 0x40 MLOAD SWAP1 PUSH32 0x220266B600000000000000000000000000000000000000000000000000000000 DUP3 MSTORE PUSH1 0x4 DUP3 ADD MSTORE PUSH1 0x40 PUSH1 0x24 DUP3 ADD MSTORE PUSH1 0x14 PUSH1 0x44 DUP3 ADD MSTORE PUSH32 0x41413334207369676E6174757265206572726F72000000000000000000000000 PUSH1 0x64 DUP3 ADD MSTORE REVERT JUMPDEST PUSH1 0x84 DUP4 PUSH1 0x40 MLOAD SWAP1 PUSH32 0x220266B600000000000000000000000000000000000000000000000000000000 DUP3 MSTORE PUSH1 0x4 DUP3 ADD MSTORE PUSH1 0x40 PUSH1 0x24 DUP3 ADD MSTORE PUSH1 0x17 PUSH1 0x44 DUP3 ADD MSTORE PUSH32 0x414132322065787069726564206F72206E6F7420647565000000000000000000 PUSH1 0x64 DUP3 ADD MSTORE REVERT JUMPDEST PUSH1 0x84 DUP5 PUSH1 0x40 MLOAD SWAP1 PUSH32 0x220266B600000000000000000000000000000000000000000000000000000000 DUP3 MSTORE PUSH1 0x4 DUP3 ADD MSTORE PUSH1 0x40 PUSH1 0x24 DUP3 ADD MSTORE PUSH1 0x14 PUSH1 0x44 DUP3 ADD MSTORE PUSH32 0x41413234207369676E6174757265206572726F72000000000000000000000000 PUSH1 0x64 DUP3 ADD MSTORE REVERT JUMPDEST CALLVALUE PUSH2 0x1A7 JUMPI PUSH1 0x20 PUSH32 0xFFFFFFFFFFFFFFFFFFFFFFFFFFFFFFFFFFFFFFFFFFFFFFFFFFFFFFFFFFFFFFFC CALLDATASIZE ADD SLT PUSH2 0x1A7 JUMPI PUSH20 0xFFFFFFFFFFFFFFFFFFFFFFFFFFFFFFFFFFFFFFFF PUSH2 0x1236 PUSH2 0x22D9 JUMP JUMPDEST PUSH1 0x0 PUSH1 0x80 PUSH1 0x40 MLOAD PUSH2 0x1246 DUP2 PUSH2 0x218F JUMP JUMPDEST DUP3 DUP2 MSTORE DUP3 PUSH1 0x20 DUP3 ADD MSTORE DUP3 PUSH1 0x40 DUP3 ADD MSTORE DUP3 PUSH1 0x60 DUP3 ADD MSTORE ADD MSTORE AND PUSH1 0x0 MSTORE PUSH1 0x0 PUSH1 0x20 MSTORE PUSH1 0xA0 PUSH1 0x40 PUSH1 0x0 KECCAK256 PUSH1 0x80 PUSH1 0x40 MLOAD PUSH2 0x127B DUP2 PUSH2 0x218F JUMP JUMPDEST PUSH1 0x1 DUP4 SLOAD SWAP4 DUP5 DUP4 MSTORE ADD SLOAD SWAP1 PUSH1 0x20 DUP2 ADD SWAP1 PUSH1 0xFF DUP4 AND ISZERO ISZERO DUP3 MSTORE PUSH14 0xFFFFFFFFFFFFFFFFFFFFFFFFFFFF PUSH1 0x40 DUP3 ADD DUP2 DUP6 PUSH1 0x8 SHR AND DUP2 MSTORE PUSH4 0xFFFFFFFF SWAP4 PUSH1 0x60 DUP5 ADD SWAP4 DUP6 DUP8 PUSH1 0x78 SHR AND DUP6 MSTORE PUSH6 0xFFFFFFFFFFFF SWAP8 DUP9 SWAP2 ADD SWAP7 PUSH1 0x98 SHR AND DUP7 MSTORE PUSH1 0x40 MLOAD SWAP8 DUP9 MSTORE MLOAD ISZERO ISZERO PUSH1 0x20 DUP9 ADD MSTORE MLOAD AND PUSH1 0x40 DUP7 ADD MSTORE MLOAD AND PUSH1 0x60 DUP5 ADD MSTORE MLOAD AND PUSH1 0x80 DUP3 ADD MSTORE RETURN JUMPDEST CALLVALUE PUSH2 0x1A7 JUMPI PUSH1 0x40 PUSH32 0xFFFFFFFFFFFFFFFFFFFFFFFFFFFFFFFFFFFFFFFFFFFFFFFFFFFFFFFFFFFFFFFC CALLDATASIZE ADD SLT PUSH2 0x1A7 JUMPI PUSH1 0x20 PUSH2 0x1331 PUSH2 0x22D9 JUMP JUMPDEST PUSH20 0xFFFFFFFFFFFFFFFFFFFFFFFFFFFFFFFFFFFFFFFF PUSH2 0x134E PUSH2 0x232A JUMP JUMPDEST SWAP2 AND PUSH1 0x0 MSTORE PUSH1 0x1 DUP3 MSTORE PUSH1 0x40 PUSH1 0x0 KECCAK256 PUSH24 0xFFFFFFFFFFFFFFFFFFFFFFFFFFFFFFFFFFFFFFFFFFFFFFFF DUP3 AND PUSH1 0x0 MSTORE DUP3 MSTORE PUSH1 0x40 PUSH1 0x0 KECCAK256 SLOAD PUSH32 0xFFFFFFFFFFFFFFFFFFFFFFFFFFFFFFFFFFFFFFFFFFFFFFFF0000000000000000 PUSH1 0x40 MLOAD SWAP3 PUSH1 0x40 SHL AND OR DUP2 MSTORE RETURN JUMPDEST CALLVALUE PUSH2 0x1A7 JUMPI PUSH1 0x40 PUSH32 0xFFFFFFFFFFFFFFFFFFFFFFFFFFFFFFFFFFFFFFFFFFFFFFFFFFFFFFFFFFFFFFFC CALLDATASIZE ADD SLT PUSH2 0x1A7 JUMPI PUSH2 0x13E7 PUSH2 0x22D9 JUMP JUMPDEST PUSH1 0x24 CALLDATALOAD SWAP1 CALLER PUSH1 0x0 MSTORE PUSH1 0x0 PUSH1 0x20 MSTORE PUSH1 0x40 PUSH1 0x0 KECCAK256 SWAP1 DUP2 SLOAD SWAP2 DUP3 DUP5 GT PUSH2 0x14E7 JUMPI PUSH1 0x0 DUP1 DUP6 PUSH20 0xFFFFFFFFFFFFFFFFFFFFFFFFFFFFFFFFFFFFFFFF DUP3 SWAP6 DUP4 SWAP6 PUSH2 0x142B DUP5 DUP11 PUSH2 0x256C JUMP JUMPDEST SWAP1 SSTORE PUSH1 0x40 DUP1 MLOAD PUSH20 0xFFFFFFFFFFFFFFFFFFFFFFFFFFFFFFFFFFFFFFFF DUP4 AND DUP2 MSTORE PUSH1 0x20 DUP2 ADD DUP6 SWAP1 MSTORE CALLER SWAP2 PUSH32 0xD1C19FBCD4551A5EDFB66D43D2E337C04837AFDA3482B42BDF569A8FCCDAE5FB SWAP2 LOG2 AND GAS CALL PUSH2 0x1481 PUSH2 0x2579 JUMP JUMPDEST POP ISZERO PUSH2 0x1489 JUMPI STOP JUMPDEST PUSH1 0x64 PUSH1 0x40 MLOAD PUSH32 0x8C379A000000000000000000000000000000000000000000000000000000000 DUP2 MSTORE PUSH1 0x20 PUSH1 0x4 DUP3 ADD MSTORE PUSH1 0x12 PUSH1 0x24 DUP3 ADD MSTORE PUSH32 0x6661696C656420746F2077697468647261770000000000000000000000000000 PUSH1 0x44 DUP3 ADD MSTORE REVERT JUMPDEST PUSH1 0x64 PUSH1 0x40 MLOAD PUSH32 0x8C379A000000000000000000000000000000000000000000000000000000000 DUP2 MSTORE PUSH1 0x20 PUSH1 0x4 DUP3 ADD MSTORE PUSH1 0x19 PUSH1 0x24 DUP3 ADD MSTORE PUSH32 0x576974686472617720616D6F756E7420746F6F206C6172676500000000000000 PUSH1 0x44 DUP3 ADD MSTORE REVERT JUMPDEST CALLVALUE PUSH2 0x1A7 JUMPI PUSH1 0x40 PUSH32 0xFFFFFFFFFFFFFFFFFFFFFFFFFFFFFFFFFFFFFFFFFFFFFFFFFFFFFFFFFFFFFFFC CALLDATASIZE ADD SLT PUSH2 0x1A7 JUMPI PUSH2 0x157C PUSH2 0x22D9 JUMP JUMPDEST PUSH20 0xFFFFFFFFFFFFFFFFFFFFFFFFFFFFFFFFFFFFFFFF PUSH2 0x1599 PUSH2 0x232A JUMP JUMPDEST SWAP2 AND PUSH1 0x0 MSTORE PUSH1 0x1 PUSH1 0x20 MSTORE PUSH24 0xFFFFFFFFFFFFFFFFFFFFFFFFFFFFFFFFFFFFFFFFFFFFFFFF PUSH1 0x40 PUSH1 0x0 KECCAK256 SWAP2 AND PUSH1 0x0 MSTORE PUSH1 0x20 MSTORE PUSH1 0x20 PUSH1 0x40 PUSH1 0x0 KECCAK256 SLOAD PUSH1 0x40 MLOAD SWAP1 DUP2 MSTORE RETURN JUMPDEST CALLVALUE PUSH2 0x1A7 JUMPI PUSH1 0x20 PUSH32 0xFFFFFFFFFFFFFFFFFFFFFFFFFFFFFFFFFFFFFFFFFFFFFFFFFFFFFFFFFFFFFFFC CALLDATASIZE ADD SLT PUSH2 0x1A7 JUMPI PUSH1 0x4 CALLDATALOAD PUSH24 0xFFFFFFFFFFFFFFFFFFFFFFFFFFFFFFFFFFFFFFFFFFFFFFFF DUP2 AND DUP1 SWAP2 SUB PUSH2 0x1A7 JUMPI CALLER PUSH1 0x0 MSTORE PUSH1 0x1 PUSH1 0x20 MSTORE PUSH1 0x40 PUSH1 0x0 KECCAK256 SWAP1 PUSH1 0x0 MSTORE PUSH1 0x20 MSTORE PUSH1 0x40 PUSH1 0x0 KECCAK256 PUSH2 0x1651 DUP2 SLOAD PUSH2 0x253F JUMP JUMPDEST SWAP1 SSTORE STOP JUMPDEST PUSH1 0x20 DUP1 PUSH32 0xFFFFFFFFFFFFFFFFFFFFFFFFFFFFFFFFFFFFFFFFFFFFFFFFFFFFFFFFFFFFFFFC CALLDATASIZE ADD SLT PUSH2 0x1A7 JUMPI PUSH1 0x4 CALLDATALOAD PUSH4 0xFFFFFFFF SWAP2 DUP3 DUP3 AND DUP1 SWAP3 SUB PUSH2 0x1A7 JUMPI CALLER PUSH1 0x0 MSTORE PUSH1 0x0 DUP2 MSTORE PUSH1 0x40 PUSH1 0x0 KECCAK256 SWAP3 DUP3 ISZERO PUSH2 0x192F JUMPI PUSH1 0x1 DUP5 ADD SLOAD SWAP1 DUP2 PUSH1 0x78 SHR AND DUP4 LT PUSH2 0x18D1 JUMPI PUSH2 0x16D7 PUSH14 0xFFFFFFFFFFFFFFFFFFFFFFFFFFFF SWAP2 DUP3 CALLVALUE SWAP2 PUSH1 0x8 SHR AND PUSH2 0x2532 JUMP JUMPDEST SWAP4 DUP5 ISZERO PUSH2 0x1873 JUMPI DUP2 DUP6 GT PUSH2 0x1815 JUMPI SWAP1 PUSH6 0xFFFFFFFFFFFF PUSH2 0x17E4 SWAP3 SLOAD PUSH1 0x40 MLOAD SWAP1 PUSH2 0x16FF DUP3 PUSH2 0x218F JUMP JUMPDEST DUP2 MSTORE DUP5 DUP2 ADD SWAP3 PUSH1 0x1 DUP5 MSTORE PUSH1 0x40 DUP3 ADD SWAP1 DUP9 AND DUP2 MSTORE PUSH1 0x60 DUP3 ADD DUP8 DUP2 MSTORE PUSH1 0x1 PUSH1 0x80 DUP5 ADD SWAP4 PUSH1 0x0 DUP6 MSTORE CALLER PUSH1 0x0 MSTORE PUSH1 0x0 DUP10 MSTORE PUSH1 0x40 PUSH1 0x0 KECCAK256 SWAP1 MLOAD DUP2 SSTORE ADD SWAP5 MLOAD ISZERO ISZERO SWAP2 PUSH32 0xFFFFFFFFFFFFFFFFFFFFFFFFFF00000000000000000000000000000000000000 PUSH1 0xFF PUSH19 0xFFFFFFFF000000000000000000000000000000 PUSH15 0xFFFFFFFFFFFFFFFFFFFFFFFFFFFF00 DUP10 SLOAD SWAP5 MLOAD PUSH1 0x8 SHL AND SWAP5 MLOAD PUSH1 0x78 SHL AND SWAP5 AND SWAP2 AND OR OR OR DUP4 SSTORE MLOAD AND PUSH32 0xFFFFFFFFFFFFFF000000000000FFFFFFFFFFFFFFFFFFFFFFFFFFFFFFFFFFFFFF PUSH25 0xFFFFFFFFFFFF00000000000000000000000000000000000000 DUP4 SLOAD SWAP3 PUSH1 0x98 SHL AND SWAP2 AND OR SWAP1 SSTORE JUMP JUMPDEST PUSH1 0x40 MLOAD SWAP3 DUP4 MSTORE DUP3 ADD MSTORE PUSH32 0xA5AE833D0BB1DCD632D98A8B70973E8516812898E19BF27B70071EBC8DC52C01 PUSH1 0x40 CALLER SWAP3 LOG2 STOP JUMPDEST PUSH1 0x64 DUP4 PUSH1 0x40 MLOAD SWAP1 PUSH32 0x8C379A000000000000000000000000000000000000000000000000000000000 DUP3 MSTORE PUSH1 0x4 DUP3 ADD MSTORE PUSH1 0xE PUSH1 0x24 DUP3 ADD MSTORE PUSH32 0x7374616B65206F766572666C6F77000000000000000000000000000000000000 PUSH1 0x44 DUP3 ADD MSTORE REVERT JUMPDEST PUSH1 0x64 DUP4 PUSH1 0x40 MLOAD SWAP1 PUSH32 0x8C379A000000000000000000000000000000000000000000000000000000000 DUP3 MSTORE PUSH1 0x4 DUP3 ADD MSTORE PUSH1 0x12 PUSH1 0x24 DUP3 ADD MSTORE PUSH32 0x6E6F207374616B65207370656369666965640000000000000000000000000000 PUSH1 0x44 DUP3 ADD MSTORE REVERT JUMPDEST PUSH1 0x64 DUP3 PUSH1 0x40 MLOAD SWAP1 PUSH32 0x8C379A000000000000000000000000000000000000000000000000000000000 DUP3 MSTORE PUSH1 0x4 DUP3 ADD MSTORE PUSH1 0x1C PUSH1 0x24 DUP3 ADD MSTORE PUSH32 0x63616E6E6F7420646563726561736520756E7374616B652074696D6500000000 PUSH1 0x44 DUP3 ADD MSTORE REVERT JUMPDEST PUSH1 0x64 DUP3 PUSH1 0x40 MLOAD SWAP1 PUSH32 0x8C379A000000000000000000000000000000000000000000000000000000000 DUP3 MSTORE PUSH1 0x4 DUP3 ADD MSTORE PUSH1 0x1A PUSH1 0x24 DUP3 ADD MSTORE PUSH32 0x6D757374207370656369667920756E7374616B652064656C6179000000000000 PUSH1 0x44 DUP3 ADD MSTORE REVERT JUMPDEST CALLVALUE PUSH2 0x1A7 JUMPI PUSH32 0xFFFFFFFFFFFFFFFFFFFFFFFFFFFFFFFFFFFFFFFFFFFFFFFFFFFFFFFFFFFFFFFC PUSH1 0x20 DUP2 CALLDATASIZE ADD SLT PUSH2 0x1A7 JUMPI PUSH1 0x4 CALLDATALOAD SWAP1 PUSH8 0xFFFFFFFFFFFFFFFF DUP3 GT PUSH2 0x1A7 JUMPI PUSH2 0x140 SWAP1 DUP3 CALLDATASIZE SUB ADD SLT PUSH2 0x1A7 JUMPI PUSH2 0x19EB PUSH1 0x20 SWAP2 PUSH1 0x4 ADD PUSH2 0x2443 JUMP JUMPDEST PUSH1 0x40 MLOAD SWAP1 DUP2 MSTORE RETURN JUMPDEST CALLVALUE PUSH2 0x1A7 JUMPI PUSH1 0x20 PUSH32 0xFFFFFFFFFFFFFFFFFFFFFFFFFFFFFFFFFFFFFFFFFFFFFFFFFFFFFFFFFFFFFFFC CALLDATASIZE ADD SLT PUSH2 0x1A7 JUMPI PUSH1 0x4 CALLDATALOAD PUSH32 0xFFFFFFFF00000000000000000000000000000000000000000000000000000000 DUP2 AND DUP1 SWAP2 SUB PUSH2 0x1A7 JUMPI DUP1 PUSH32 0x6C393CB700000000000000000000000000000000000000000000000000000000 PUSH1 0x20 SWAP3 EQ SWAP1 DUP2 ISZERO PUSH2 0x1B1B JUMPI JUMPDEST DUP2 ISZERO PUSH2 0x1AF1 JUMPI JUMPDEST DUP2 ISZERO PUSH2 0x1AC7 JUMPI JUMPDEST DUP2 ISZERO PUSH2 0x1A9D JUMPI JUMPDEST POP PUSH1 0x40 MLOAD SWAP1 ISZERO ISZERO DUP2 MSTORE RETURN JUMPDEST PUSH32 0x1FFC9A700000000000000000000000000000000000000000000000000000000 SWAP2 POP EQ DUP3 PUSH2 0x1A92 JUMP JUMPDEST PUSH32 0x3E84F02100000000000000000000000000000000000000000000000000000000 DUP2 EQ SWAP2 POP PUSH2 0x1A8B JUMP JUMPDEST PUSH32 0xCF28EF9700000000000000000000000000000000000000000000000000000000 DUP2 EQ SWAP2 POP PUSH2 0x1A84 JUMP JUMPDEST PUSH32 0x9D95230100000000000000000000000000000000000000000000000000000000 DUP2 EQ SWAP2 POP PUSH2 0x1A7D JUMP JUMPDEST CALLVALUE PUSH2 0x1A7 JUMPI PUSH2 0x200 PUSH32 0xFFFFFFFFFFFFFFFFFFFFFFFFFFFFFFFFFFFFFFFFFFFFFFFFFFFFFFFFFFFFFFFC CALLDATASIZE ADD SLT PUSH2 0x1A7 JUMPI PUSH8 0xFFFFFFFFFFFFFFFF PUSH1 0x4 CALLDATALOAD DUP2 DUP2 GT PUSH2 0x1A7 JUMPI CALLDATASIZE PUSH1 0x23 DUP3 ADD SLT ISZERO PUSH2 0x1A7 JUMPI PUSH2 0x1BA7 SWAP1 CALLDATASIZE SWAP1 PUSH1 0x24 DUP2 PUSH1 0x4 ADD CALLDATALOAD SWAP2 ADD PUSH2 0x22A2 JUMP JUMPDEST SWAP1 PUSH32 0xFFFFFFFFFFFFFFFFFFFFFFFFFFFFFFFFFFFFFFFFFFFFFFFFFFFFFFFFFFFFFFDC CALLDATASIZE ADD SWAP2 PUSH2 0x1C0 DUP4 SLT PUSH2 0x1A7 JUMPI PUSH2 0x140 PUSH1 0x40 MLOAD SWAP4 PUSH2 0x1BE5 DUP6 PUSH2 0x218F JUMP JUMPDEST SLT PUSH2 0x1A7 JUMPI PUSH1 0x40 MLOAD SWAP3 PUSH2 0x1BF7 DUP5 PUSH2 0x21DA JUMP JUMPDEST PUSH1 0x24 CALLDATALOAD PUSH20 0xFFFFFFFFFFFFFFFFFFFFFFFFFFFFFFFFFFFFFFFF DUP2 AND DUP2 SUB PUSH2 0x1A7 JUMPI DUP5 MSTORE PUSH1 0x20 SWAP4 PUSH1 0x44 CALLDATALOAD DUP6 DUP3 ADD MSTORE PUSH1 0x64 CALLDATALOAD PUSH1 0x40 DUP3 ADD MSTORE PUSH1 0x84 CALLDATALOAD PUSH1 0x60 DUP3 ADD MSTORE PUSH1 0xA4 CALLDATALOAD PUSH1 0x80 DUP3 ADD MSTORE PUSH1 0xC4 CALLDATALOAD PUSH1 0xA0 DUP3 ADD MSTORE PUSH1 0xE4 CALLDATALOAD PUSH1 0xC0 DUP3 ADD MSTORE PUSH2 0x104 CALLDATALOAD PUSH20 0xFFFFFFFFFFFFFFFFFFFFFFFFFFFFFFFFFFFFFFFF DUP2 AND DUP2 SUB PUSH2 0x1A7 JUMPI PUSH1 0xE0 DUP3 ADD MSTORE PUSH2 0x124 CALLDATALOAD PUSH2 0x100 DUP3 ADD MSTORE PUSH2 0x144 CALLDATALOAD PUSH2 0x120 DUP3 ADD MSTORE DUP2 MSTORE PUSH2 0x164 CALLDATALOAD DUP5 DUP3 ADD MSTORE PUSH1 0x40 DUP2 ADD SWAP3 PUSH2 0x184 CALLDATALOAD DUP5 MSTORE PUSH2 0x1A4 CALLDATALOAD PUSH1 0x60 DUP4 ADD MSTORE PUSH2 0x1C4 CALLDATALOAD PUSH1 0x80 DUP4 ADD MSTORE PUSH2 0x1E4 CALLDATALOAD SWAP1 DUP2 GT PUSH2 0x1A7 JUMPI PUSH2 0x1CC5 SWAP1 CALLDATASIZE SWAP1 PUSH1 0x4 ADD PUSH2 0x22FC JUMP JUMPDEST SWAP3 GAS SWAP2 ADDRESS CALLER SUB PUSH2 0x2131 JUMPI DUP4 MLOAD PUSH1 0x60 DUP2 ADD MLOAD SWAP3 PUSH1 0x3F GAS MUL PUSH1 0x6 SHR PUSH2 0x2710 PUSH1 0xA0 DUP5 ADD MLOAD DUP7 ADD ADD GT PUSH2 0x2108 JUMPI PUSH1 0x0 SWAP4 DUP2 MLOAD SWAP2 DUP3 PUSH2 0x202E JUMPI JUMPDEST POP POP POP POP PUSH2 0x1D14 SWAP2 SWAP3 GAS SWAP1 SUB PUSH1 0x80 DUP6 ADD MLOAD ADD SWAP5 CALLDATASIZE SWAP2 PUSH2 0x22A2 JUMP JUMPDEST SWAP2 PUSH1 0x0 GAS DUP3 MLOAD SWAP6 PUSH2 0x1D24 DUP8 PUSH2 0x3CB6 JUMP JUMPDEST SWAP1 PUSH20 0xFFFFFFFFFFFFFFFFFFFFFFFFFFFFFFFFFFFFFFFF PUSH1 0xE0 DUP10 ADD MLOAD AND DUP1 ISZERO PUSH1 0x0 EQ PUSH2 0x1EDB JUMPI POP PUSH20 0xFFFFFFFFFFFFFFFFFFFFFFFFFFFFFFFFFFFFFFFF DUP9 MLOAD AND SWAP3 JUMPDEST GAS SWAP1 SUB ADD SWAP6 PUSH1 0x60 DUP9 ADD MLOAD SWAP1 MLOAD PUSH2 0x1ED0 JUMPI JUMPDEST PUSH1 0x80 DUP6 ADD MLOAD DUP8 SUB SWAP1 DUP2 DUP2 GT PUSH2 0x1EBC JUMPI JUMPDEST POP POP DUP6 MUL SWAP7 DUP8 DUP2 MLOAD LT PUSH2 0x1E58 JUMPI SWAP1 DUP8 PUSH2 0x1DA0 SWAP3 MLOAD SUB SWAP1 PUSH2 0x3C82 JUMP JUMPDEST POP PUSH1 0x3 DUP4 LT ISZERO PUSH2 0x1E2B JUMPI POP PUSH1 0x80 DUP7 PUSH32 0x49628FD1471006C1482DA88028E9CE4DBB080B815C9B0344D39E5A8E6EC1419F SWAP3 ADD MLOAD SWAP3 PUSH20 0xFFFFFFFFFFFFFFFFFFFFFFFFFFFFFFFFFFFFFFFF DUP7 MLOAD AND SWAP5 DUP9 PUSH20 0xFFFFFFFFFFFFFFFFFFFFFFFFFFFFFFFFFFFFFFFF PUSH1 0xE0 DUP10 ADD MLOAD AND SWAP8 ADD MLOAD SWAP2 PUSH1 0x40 MLOAD SWAP3 DUP4 MSTORE ISZERO DUP10 DUP4 ADD MSTORE DUP8 PUSH1 0x40 DUP4 ADD MSTORE PUSH1 0x60 DUP3 ADD MSTORE LOG4 PUSH1 0x40 MLOAD SWAP1 DUP2 MSTORE RETURN JUMPDEST DUP1 PUSH32 0x4E487B7100000000000000000000000000000000000000000000000000000000 PUSH1 0x24 SWAP3 MSTORE PUSH1 0x21 PUSH1 0x4 MSTORE REVERT JUMPDEST PUSH1 0x84 DUP4 DUP11 PUSH1 0x40 MLOAD SWAP2 PUSH32 0x220266B600000000000000000000000000000000000000000000000000000000 DUP4 MSTORE PUSH1 0x4 DUP4 ADD MSTORE PUSH1 0x40 PUSH1 0x24 DUP4 ADD MSTORE PUSH1 0x44 DUP3 ADD MSTORE PUSH32 0x414135312070726566756E642062656C6F772061637475616C476173436F7374 PUSH1 0x64 DUP3 ADD MSTORE REVERT JUMPDEST PUSH1 0x64 SWAP2 SWAP1 SUB PUSH1 0xA MUL DIV SWAP1 SWAP6 ADD SWAP5 DUP10 DUP1 PUSH2 0x1D85 JUMP JUMPDEST PUSH1 0xA0 DUP9 ADD MLOAD ADD PUSH2 0x1D75 JUMP JUMPDEST SWAP3 DUP4 DUP9 MLOAD PUSH2 0x1EEA JUMPI JUMPDEST POP PUSH2 0x1D64 JUMP JUMPDEST PUSH1 0x3 DUP9 LT ISZERO PUSH2 0x1FFF JUMPI PUSH1 0x2 DUP9 SUB ISZERO PUSH2 0x1EE4 JUMPI PUSH1 0xA0 DUP11 SWAP10 SWAP9 SWAP8 SWAP7 SWAP13 SWAP12 SWAP11 ADD MLOAD DUP2 EXTCODESIZE ISZERO PUSH2 0x1A7 JUMPI DUP9 PUSH1 0x0 SWAP2 DUP10 DUP4 PUSH2 0x1F5B SWAP6 PUSH1 0x40 MLOAD DUP1 SWAP8 DUP2 SWAP7 DUP3 SWAP6 PUSH32 0x7C627B2100000000000000000000000000000000000000000000000000000000 DUP5 MSTORE PUSH1 0x4 DUP5 ADD MSTORE PUSH1 0x80 PUSH1 0x24 DUP5 ADD MSTORE PUSH1 0x84 DUP4 ADD SWAP1 PUSH2 0x2400 JUMP JUMPDEST DUP12 DUP12 MUL PUSH1 0x44 DUP4 ADD MSTORE DUP12 PUSH1 0x64 DUP4 ADD MSTORE SUB SWAP4 CALL SWAP1 DUP2 PUSH2 0x1FEB JUMPI JUMPDEST POP PUSH2 0x1FDD JUMPI DUP11 DUP11 RETURNDATASIZE PUSH2 0x800 DUP1 DUP3 GT PUSH2 0x1FD5 JUMPI JUMPDEST POP PUSH1 0x40 MLOAD SWAP3 DUP3 DUP3 DUP6 ADD ADD PUSH1 0x40 MSTORE DUP2 DUP5 MSTORE DUP3 DUP5 ADD RETURNDATACOPY PUSH2 0xEC3 PUSH1 0x40 MLOAD SWAP3 DUP4 SWAP3 PUSH32 0xAD7954BC00000000000000000000000000000000000000000000000000000000 DUP5 MSTORE PUSH1 0x4 DUP5 ADD MSTORE PUSH1 0x24 DUP4 ADD SWAP1 PUSH2 0x2400 JUMP JUMPDEST SWAP1 POP DUP4 PUSH2 0x1F86 JUMP JUMPDEST SWAP10 SWAP4 SWAP5 SWAP6 SWAP7 SWAP8 SWAP9 SWAP10 DUP12 PUSH2 0x1EE4 JUMP JUMPDEST PUSH2 0x1FF6 SWAP2 SWAP13 POP PUSH2 0x21F7 JUMP JUMPDEST PUSH1 0x0 SWAP11 DUP13 PUSH2 0x1F73 JUMP JUMPDEST PUSH32 0x4E487B7100000000000000000000000000000000000000000000000000000000 PUSH1 0x0 MSTORE PUSH1 0x21 PUSH1 0x4 MSTORE PUSH1 0x24 PUSH1 0x0 REVERT JUMPDEST SWAP2 PUSH1 0x0 SWAP3 SWAP2 DUP4 DUP1 SWAP4 DUP14 PUSH20 0xFFFFFFFFFFFFFFFFFFFFFFFFFFFFFFFFFFFFFFFF DUP9 MLOAD AND SWAP2 ADD SWAP3 CALL ISZERO PUSH2 0x2061 JUMPI JUMPDEST DUP1 DUP1 DUP1 PUSH2 0x1CFA JUMP JUMPDEST PUSH2 0x1D14 SWAP3 POP RETURNDATASIZE PUSH2 0x800 DUP1 DUP3 GT PUSH2 0x2100 JUMPI JUMPDEST POP PUSH1 0x40 MLOAD SWAP1 DUP10 DUP2 DUP4 ADD ADD PUSH1 0x40 MSTORE DUP1 DUP3 MSTORE PUSH1 0x0 DUP11 DUP4 ADD RETURNDATACOPY DUP1 MLOAD PUSH2 0x2099 JUMPI JUMPDEST POP POP PUSH1 0x1 SWAP2 PUSH2 0x2059 JUMP JUMPDEST PUSH32 0x1C4FADA7374C0A9EE8841FC38AFE82932DC0F8E69012E927F061A8BAE611A201 DUP10 DUP1 DUP9 ADD MLOAD SWAP3 PUSH2 0x20F6 DUP3 PUSH20 0xFFFFFFFFFFFFFFFFFFFFFFFFFFFFFFFFFFFFFFFF DUP8 MLOAD AND SWAP7 ADD MLOAD SWAP2 PUSH1 0x40 DUP1 MLOAD SWAP5 DUP6 SWAP5 DUP6 MSTORE DUP5 ADD MSTORE PUSH1 0x40 DUP4 ADD SWAP1 PUSH2 0x2400 JUMP JUMPDEST SUB SWAP1 LOG3 DUP8 DUP1 PUSH2 0x208F JUMP JUMPDEST SWAP1 POP DUP10 PUSH2 0x2072 JUMP JUMPDEST DUP9 PUSH32 0xDEADDEAD00000000000000000000000000000000000000000000000000000000 PUSH1 0x0 MSTORE PUSH1 0x0 REVERT JUMPDEST PUSH1 0x64 DUP8 PUSH1 0x40 MLOAD SWAP1 PUSH32 0x8C379A000000000000000000000000000000000000000000000000000000000 DUP3 MSTORE PUSH1 0x4 DUP3 ADD MSTORE PUSH1 0x17 PUSH1 0x24 DUP3 ADD MSTORE PUSH32 0x4141393220696E7465726E616C2063616C6C206F6E6C79000000000000000000 PUSH1 0x44 DUP3 ADD MSTORE REVERT JUMPDEST PUSH1 0xA0 DUP2 ADD SWAP1 DUP2 LT PUSH8 0xFFFFFFFFFFFFFFFF DUP3 GT OR PUSH2 0x21AB JUMPI PUSH1 0x40 MSTORE JUMP JUMPDEST PUSH32 0x4E487B7100000000000000000000000000000000000000000000000000000000 PUSH1 0x0 MSTORE PUSH1 0x41 PUSH1 0x4 MSTORE PUSH1 0x24 PUSH1 0x0 REVERT JUMPDEST PUSH2 0x140 DUP2 ADD SWAP1 DUP2 LT PUSH8 0xFFFFFFFFFFFFFFFF DUP3 GT OR PUSH2 0x21AB JUMPI PUSH1 0x40 MSTORE JUMP JUMPDEST PUSH8 0xFFFFFFFFFFFFFFFF DUP2 GT PUSH2 0x21AB JUMPI PUSH1 0x40 MSTORE JUMP JUMPDEST PUSH1 0x60 DUP2 ADD SWAP1 DUP2 LT PUSH8 0xFFFFFFFFFFFFFFFF DUP3 GT OR PUSH2 0x21AB JUMPI PUSH1 0x40 MSTORE JUMP JUMPDEST SWAP1 PUSH1 0x1F PUSH32 0xFFFFFFFFFFFFFFFFFFFFFFFFFFFFFFFFFFFFFFFFFFFFFFFFFFFFFFFFFFFFFFE0 SWAP2 ADD AND DUP2 ADD SWAP1 DUP2 LT PUSH8 0xFFFFFFFFFFFFFFFF DUP3 GT OR PUSH2 0x21AB JUMPI PUSH1 0x40 MSTORE JUMP JUMPDEST PUSH8 0xFFFFFFFFFFFFFFFF DUP2 GT PUSH2 0x21AB JUMPI PUSH1 0x1F ADD PUSH32 0xFFFFFFFFFFFFFFFFFFFFFFFFFFFFFFFFFFFFFFFFFFFFFFFFFFFFFFFFFFFFFFE0 AND PUSH1 0x20 ADD SWAP1 JUMP JUMPDEST SWAP3 SWAP2 SWAP3 PUSH2 0x22AE DUP3 PUSH2 0x2268 JUMP JUMPDEST SWAP2 PUSH2 0x22BC PUSH1 0x40 MLOAD SWAP4 DUP5 PUSH2 0x2227 JUMP JUMPDEST DUP3 SWAP5 DUP2 DUP5 MSTORE DUP2 DUP4 ADD GT PUSH2 0x1A7 JUMPI DUP3 DUP2 PUSH1 0x20 SWAP4 DUP5 PUSH1 0x0 SWAP7 ADD CALLDATACOPY ADD ADD MSTORE JUMP JUMPDEST PUSH1 0x4 CALLDATALOAD SWAP1 PUSH20 0xFFFFFFFFFFFFFFFFFFFFFFFFFFFFFFFFFFFFFFFF DUP3 AND DUP3 SUB PUSH2 0x1A7 JUMPI JUMP JUMPDEST SWAP2 DUP2 PUSH1 0x1F DUP5 ADD SLT ISZERO PUSH2 0x1A7 JUMPI DUP3 CALLDATALOAD SWAP2 PUSH8 0xFFFFFFFFFFFFFFFF DUP4 GT PUSH2 0x1A7 JUMPI PUSH1 0x20 DUP4 DUP2 DUP7 ADD SWAP6 ADD ADD GT PUSH2 0x1A7 JUMPI JUMP JUMPDEST PUSH1 0x24 CALLDATALOAD SWAP1 PUSH24 0xFFFFFFFFFFFFFFFFFFFFFFFFFFFFFFFFFFFFFFFFFFFFFFFF DUP3 AND DUP3 SUB PUSH2 0x1A7 JUMPI JUMP JUMPDEST SWAP1 PUSH1 0x40 PUSH32 0xFFFFFFFFFFFFFFFFFFFFFFFFFFFFFFFFFFFFFFFFFFFFFFFFFFFFFFFFFFFFFFFC DUP4 ADD SLT PUSH2 0x1A7 JUMPI PUSH1 0x4 CALLDATALOAD PUSH8 0xFFFFFFFFFFFFFFFF SWAP3 DUP4 DUP3 GT PUSH2 0x1A7 JUMPI DUP1 PUSH1 0x23 DUP4 ADD SLT ISZERO PUSH2 0x1A7 JUMPI DUP2 PUSH1 0x4 ADD CALLDATALOAD SWAP4 DUP5 GT PUSH2 0x1A7 JUMPI PUSH1 0x24 DUP5 PUSH1 0x5 SHL DUP4 ADD ADD GT PUSH2 0x1A7 JUMPI PUSH1 0x24 ADD SWAP2 SWAP1 PUSH1 0x24 CALLDATALOAD PUSH20 0xFFFFFFFFFFFFFFFFFFFFFFFFFFFFFFFFFFFFFFFF DUP2 AND DUP2 SUB PUSH2 0x1A7 JUMPI SWAP1 JUMP JUMPDEST PUSH1 0x0 JUMPDEST DUP4 DUP2 LT PUSH2 0x23F0 JUMPI POP POP PUSH1 0x0 SWAP2 ADD MSTORE JUMP JUMPDEST DUP2 DUP2 ADD MLOAD DUP4 DUP3 ADD MSTORE PUSH1 0x20 ADD PUSH2 0x23E0 JUMP JUMPDEST SWAP1 PUSH32 0xFFFFFFFFFFFFFFFFFFFFFFFFFFFFFFFFFFFFFFFFFFFFFFFFFFFFFFFFFFFFFFE0 PUSH1 0x1F PUSH1 0x20 SWAP4 PUSH2 0x243C DUP2 MLOAD DUP1 SWAP3 DUP2 DUP8 MSTORE DUP8 DUP1 DUP9 ADD SWAP2 ADD PUSH2 0x23DD JUMP JUMPDEST ADD AND ADD ADD SWAP1 JUMP JUMPDEST PUSH1 0x40 SWAP1 PUSH2 0x2452 DUP3 DUP3 ADD DUP3 PUSH2 0x2884 JUMP JUMPDEST SWAP1 DUP2 DUP5 MLOAD SWAP2 DUP3 CALLDATACOPY KECCAK256 SWAP1 PUSH2 0x2468 PUSH1 0x60 DUP3 ADD DUP3 PUSH2 0x2884 JUMP JUMPDEST SWAP1 DUP2 DUP6 MLOAD SWAP2 DUP3 CALLDATACOPY KECCAK256 SWAP1 PUSH2 0x100 PUSH1 0xE0 PUSH2 0x2482 DUP3 DUP5 ADD DUP5 PUSH2 0x2884 JUMP JUMPDEST SWAP1 DUP2 DUP9 MLOAD SWAP2 DUP3 CALLDATACOPY KECCAK256 SWAP3 DUP7 MLOAD SWAP5 PUSH1 0x20 DUP7 ADD SWAP7 PUSH20 0xFFFFFFFFFFFFFFFFFFFFFFFFFFFFFFFFFFFFFFFF DUP4 CALLDATALOAD AND DUP9 MSTORE PUSH1 0x20 DUP4 ADD CALLDATALOAD DUP10 DUP9 ADD MSTORE PUSH1 0x60 DUP8 ADD MSTORE PUSH1 0x80 DUP7 ADD MSTORE PUSH1 0x80 DUP2 ADD CALLDATALOAD PUSH1 0xA0 DUP7 ADD MSTORE PUSH1 0xA0 DUP2 ADD CALLDATALOAD PUSH1 0xC0 DUP7 ADD MSTORE PUSH1 0xC0 DUP2 ADD CALLDATALOAD DUP3 DUP7 ADD MSTORE ADD CALLDATALOAD SWAP1 DUP4 ADD MSTORE PUSH2 0x120 SWAP1 DUP2 DUP4 ADD MSTORE DUP2 MSTORE PUSH2 0x24F6 DUP2 PUSH2 0x21DA JUMP JUMPDEST MLOAD SWAP1 KECCAK256 SWAP1 DUP1 MLOAD SWAP1 PUSH1 0x20 DUP3 ADD SWAP3 DUP4 MSTORE ADDRESS DUP2 DUP4 ADD MSTORE CHAINID PUSH1 0x60 DUP4 ADD MSTORE PUSH1 0x60 DUP3 MSTORE PUSH1 0x80 DUP3 ADD SWAP1 DUP3 DUP3 LT PUSH8 0xFFFFFFFFFFFFFFFF DUP4 GT OR PUSH2 0x21AB JUMPI MSTORE MLOAD SWAP1 KECCAK256 SWAP1 JUMP JUMPDEST SWAP2 SWAP1 DUP3 ADD DUP1 SWAP3 GT PUSH2 0xB5A JUMPI JUMP JUMPDEST PUSH32 0xFFFFFFFFFFFFFFFFFFFFFFFFFFFFFFFFFFFFFFFFFFFFFFFFFFFFFFFFFFFFFFFF DUP2 EQ PUSH2 0xB5A JUMPI PUSH1 0x1 ADD SWAP1 JUMP JUMPDEST SWAP2 SWAP1 DUP3 SUB SWAP2 DUP3 GT PUSH2 0xB5A JUMPI JUMP JUMPDEST RETURNDATASIZE ISZERO PUSH2 0x25A4 JUMPI RETURNDATASIZE SWAP1 PUSH2 0x258A DUP3 PUSH2 0x2268 JUMP JUMPDEST SWAP2 PUSH2 0x2598 PUSH1 0x40 MLOAD SWAP4 DUP5 PUSH2 0x2227 JUMP JUMPDEST DUP3 MSTORE RETURNDATASIZE PUSH1 0x0 PUSH1 0x20 DUP5 ADD RETURNDATACOPY JUMP JUMPDEST PUSH1 0x60 SWAP1 JUMP JUMPDEST PUSH8 0xFFFFFFFFFFFFFFFF DUP2 GT PUSH2 0x21AB JUMPI PUSH1 0x5 SHL PUSH1 0x20 ADD SWAP1 JUMP JUMPDEST SWAP1 PUSH2 0x25CB DUP3 PUSH2 0x25A9 JUMP JUMPDEST PUSH1 0x40 SWAP1 PUSH2 0x25DB PUSH1 0x40 MLOAD SWAP2 DUP3 PUSH2 0x2227 JUMP JUMPDEST DUP4 DUP2 MSTORE PUSH32 0xFFFFFFFFFFFFFFFFFFFFFFFFFFFFFFFFFFFFFFFFFFFFFFFFFFFFFFFFFFFFFFE0 PUSH2 0x2609 DUP3 SWAP6 PUSH2 0x25A9 JUMP JUMPDEST ADD SWAP2 PUSH1 0x0 JUMPDEST DUP4 DUP2 LT PUSH2 0x261B JUMPI POP POP POP POP JUMP JUMPDEST PUSH1 0x20 SWAP1 DUP3 MLOAD PUSH2 0x2629 DUP2 PUSH2 0x218F JUMP JUMPDEST DUP4 MLOAD PUSH2 0x2634 DUP2 PUSH2 0x21DA JUMP JUMPDEST PUSH1 0x0 DUP2 MSTORE PUSH1 0x0 DUP5 SWAP2 DUP2 DUP4 DUP3 ADD MSTORE DUP2 DUP8 DUP3 ADD MSTORE DUP2 PUSH1 0x60 DUP2 DUP2 DUP5 ADD MSTORE PUSH1 0x80 SWAP3 DUP3 DUP5 DUP3 ADD MSTORE DUP3 PUSH1 0xA0 DUP3 ADD MSTORE DUP3 PUSH1 0xC0 DUP3 ADD MSTORE DUP3 PUSH1 0xE0 DUP3 ADD MSTORE DUP3 PUSH2 0x100 DUP3 ADD MSTORE DUP3 PUSH2 0x120 DUP3 ADD MSTORE DUP7 MSTORE DUP2 DUP6 DUP8 ADD MSTORE DUP2 DUP10 DUP8 ADD MSTORE DUP6 ADD MSTORE DUP4 ADD MSTORE DUP3 DUP7 ADD ADD MSTORE ADD PUSH2 0x260E JUMP JUMPDEST DUP1 MLOAD DUP3 LT ISZERO PUSH2 0x26A7 JUMPI PUSH1 0x20 SWAP2 PUSH1 0x5 SHL ADD ADD SWAP1 JUMP JUMPDEST PUSH32 0x4E487B7100000000000000000000000000000000000000000000000000000000 PUSH1 0x0 MSTORE PUSH1 0x32 PUSH1 0x4 MSTORE PUSH1 0x24 PUSH1 0x0 REVERT JUMPDEST SWAP2 SWAP1 DUP2 LT ISZERO PUSH2 0x26A7 JUMPI PUSH1 0x5 SHL DUP2 ADD CALLDATALOAD SWAP1 PUSH32 0xFFFFFFFFFFFFFFFFFFFFFFFFFFFFFFFFFFFFFFFFFFFFFFFFFFFFFFFFFFFFFEC1 DUP2 CALLDATASIZE SUB ADD DUP3 SLT ISZERO PUSH2 0x1A7 JUMPI ADD SWAP1 JUMP JUMPDEST SWAP1 DUP2 PUSH1 0x20 SWAP2 SUB SLT PUSH2 0x1A7 JUMPI MLOAD PUSH20 0xFFFFFFFFFFFFFFFFFFFFFFFFFFFFFFFFFFFFFFFF DUP2 AND DUP2 SUB PUSH2 0x1A7 JUMPI SWAP1 JUMP JUMPDEST PUSH1 0x1F DUP3 PUSH1 0x20 SWAP5 SWAP4 PUSH32 0xFFFFFFFFFFFFFFFFFFFFFFFFFFFFFFFFFFFFFFFFFFFFFFFFFFFFFFFFFFFFFFE0 SWAP4 DUP2 DUP7 MSTORE DUP7 DUP7 ADD CALLDATACOPY PUSH1 0x0 DUP6 DUP3 DUP7 ADD ADD MSTORE ADD AND ADD ADD SWAP1 JUMP JUMPDEST PUSH32 0x2DA466A7B24304F47E87FA2E1E5A81B9831CE54FEC19055CE277CA2F39BA42C4 PUSH1 0x20 PUSH20 0xFFFFFFFFFFFFFFFFFFFFFFFFFFFFFFFFFFFFFFFF PUSH2 0x27C3 CALLVALUE DUP6 PUSH2 0x3C82 JUMP JUMPDEST SWAP4 PUSH1 0x40 MLOAD SWAP5 DUP6 MSTORE AND SWAP3 LOG2 JUMP JUMPDEST SWAP2 SWAP1 DUP2 LT ISZERO PUSH2 0x26A7 JUMPI PUSH1 0x5 SHL DUP2 ADD CALLDATALOAD SWAP1 PUSH32 0xFFFFFFFFFFFFFFFFFFFFFFFFFFFFFFFFFFFFFFFFFFFFFFFFFFFFFFFFFFFFFFA1 DUP2 CALLDATASIZE SUB ADD DUP3 SLT ISZERO PUSH2 0x1A7 JUMPI ADD SWAP1 JUMP JUMPDEST SWAP1 CALLDATALOAD SWAP1 PUSH32 0xFFFFFFFFFFFFFFFFFFFFFFFFFFFFFFFFFFFFFFFFFFFFFFFFFFFFFFFFFFFFFFE1 DUP2 CALLDATASIZE SUB ADD DUP3 SLT ISZERO PUSH2 0x1A7 JUMPI ADD DUP1 CALLDATALOAD SWAP1 PUSH8 0xFFFFFFFFFFFFFFFF DUP3 GT PUSH2 0x1A7 JUMPI PUSH1 0x20 ADD SWAP2 DUP2 PUSH1 0x5 SHL CALLDATASIZE SUB DUP4 SGT PUSH2 0x1A7 JUMPI JUMP JUMPDEST CALLDATALOAD PUSH20 0xFFFFFFFFFFFFFFFFFFFFFFFFFFFFFFFFFFFFFFFF DUP2 AND DUP2 SUB PUSH2 0x1A7 JUMPI SWAP1 JUMP JUMPDEST SWAP1 CALLDATALOAD SWAP1 PUSH32 0xFFFFFFFFFFFFFFFFFFFFFFFFFFFFFFFFFFFFFFFFFFFFFFFFFFFFFFFFFFFFFFE1 DUP2 CALLDATASIZE SUB ADD DUP3 SLT ISZERO PUSH2 0x1A7 JUMPI ADD DUP1 CALLDATALOAD SWAP1 PUSH8 0xFFFFFFFFFFFFFFFF DUP3 GT PUSH2 0x1A7 JUMPI PUSH1 0x20 ADD SWAP2 DUP2 CALLDATASIZE SUB DUP4 SGT PUSH2 0x1A7 JUMPI JUMP JUMPDEST SWAP1 CALLDATALOAD PUSH32 0xFFFFFFFFFFFFFFFFFFFFFFFFFFFFFFFFFFFFFFFFFFFFFFFFFFFFFFFFFFFFFFE1 DUP3 CALLDATASIZE SUB ADD DUP2 SLT ISZERO PUSH2 0x1A7 JUMPI ADD PUSH1 0x20 DUP2 CALLDATALOAD SWAP2 ADD SWAP2 PUSH8 0xFFFFFFFFFFFFFFFF DUP3 GT PUSH2 0x1A7 JUMPI DUP2 CALLDATASIZE SUB DUP4 SGT PUSH2 0x1A7 JUMPI JUMP JUMPDEST PUSH2 0x140 SWAP2 DUP2 CALLDATALOAD PUSH20 0xFFFFFFFFFFFFFFFFFFFFFFFFFFFFFFFFFFFFFFFF DUP2 AND DUP1 SWAP2 SUB PUSH2 0x1A7 JUMPI PUSH2 0x299B PUSH2 0x2980 PUSH2 0x29FE SWAP6 PUSH2 0x29DF SWAP4 DUP6 MSTORE PUSH1 0x20 DUP7 ADD CALLDATALOAD PUSH1 0x20 DUP7 ADD MSTORE PUSH2 0x2970 PUSH1 0x40 DUP8 ADD DUP8 PUSH2 0x28D5 JUMP JUMPDEST SWAP1 SWAP2 DUP1 PUSH1 0x40 DUP9 ADD MSTORE DUP7 ADD SWAP2 PUSH2 0x2742 JUMP JUMPDEST PUSH2 0x298D PUSH1 0x60 DUP7 ADD DUP7 PUSH2 0x28D5 JUMP JUMPDEST SWAP1 DUP6 DUP4 SUB PUSH1 0x60 DUP8 ADD MSTORE PUSH2 0x2742 JUMP JUMPDEST PUSH1 0x80 DUP5 ADD CALLDATALOAD PUSH1 0x80 DUP5 ADD MSTORE PUSH1 0xA0 DUP5 ADD CALLDATALOAD PUSH1 0xA0 DUP5 ADD MSTORE PUSH1 0xC0 DUP5 ADD CALLDATALOAD PUSH1 0xC0 DUP5 ADD MSTORE PUSH1 0xE0 DUP5 ADD CALLDATALOAD PUSH1 0xE0 DUP5 ADD MSTORE PUSH2 0x100 PUSH2 0x29D2 DUP2 DUP7 ADD DUP7 PUSH2 0x28D5 JUMP JUMPDEST SWAP2 DUP6 DUP5 SUB SWAP1 DUP7 ADD MSTORE PUSH2 0x2742 JUMP JUMPDEST SWAP2 PUSH2 0x29F0 PUSH2 0x120 SWAP2 DUP3 DUP2 ADD SWAP1 PUSH2 0x28D5 JUMP JUMPDEST SWAP3 SWAP1 SWAP2 DUP2 DUP6 SUB SWAP2 ADD MSTORE PUSH2 0x2742 JUMP JUMPDEST SWAP1 JUMP JUMPDEST PUSH1 0x2 DUP1 SLOAD EQ PUSH2 0x2A10 JUMPI PUSH1 0x2 DUP1 SSTORE JUMP JUMPDEST PUSH1 0x4 PUSH1 0x40 MLOAD PUSH32 0x3EE5AEB500000000000000000000000000000000000000000000000000000000 DUP2 MSTORE REVERT JUMPDEST SWAP3 SWAP1 SWAP2 PUSH1 0x0 SWAP3 GAS SWAP1 DUP3 MLOAD DUP2 CALLDATALOAD PUSH20 0xFFFFFFFFFFFFFFFFFFFFFFFFFFFFFFFFFFFFFFFF DUP2 AND DUP1 SWAP2 SUB PUSH2 0x1A7 JUMPI DUP2 MSTORE PUSH1 0x20 DUP3 ADD CALLDATALOAD PUSH1 0x20 DUP3 ADD MSTORE PUSH1 0x80 DUP3 ADD CALLDATALOAD PUSH16 0xFFFFFFFFFFFFFFFFFFFFFFFFFFFFFFFF DUP2 AND PUSH1 0x60 DUP4 ADD MSTORE PUSH1 0x80 SHR PUSH1 0x40 DUP3 ADD MSTORE PUSH1 0xA0 DUP3 ADD CALLDATALOAD PUSH1 0xC0 DUP3 ADD MSTORE PUSH2 0x100 PUSH1 0xC0 DUP4 ADD CALLDATALOAD DUP2 DUP4 ADD MSTORE PUSH1 0xE0 DUP4 ADD CALLDATALOAD PUSH2 0x120 DUP4 ADD MSTORE PUSH2 0x2AC2 DUP2 DUP5 ADD DUP5 PUSH2 0x2884 JUMP JUMPDEST DUP1 ISZERO PUSH2 0x352E JUMPI PUSH1 0x34 DUP2 LT PUSH2 0x34D0 JUMPI DUP1 PUSH1 0x14 GT PUSH2 0x1A7 JUMPI DUP1 PUSH1 0x24 GT PUSH2 0x1A7 JUMPI PUSH1 0x34 GT PUSH2 0x1A7 JUMPI PUSH1 0x24 DUP2 ADD CALLDATALOAD PUSH1 0x80 SHR PUSH1 0xA0 DUP5 ADD MSTORE PUSH1 0x14 DUP2 ADD CALLDATALOAD PUSH1 0x80 SHR PUSH1 0x80 DUP5 ADD MSTORE CALLDATALOAD PUSH1 0x60 SHR PUSH1 0xE0 DUP4 ADD MSTORE JUMPDEST PUSH2 0x2B14 DUP4 PUSH2 0x2443 JUMP JUMPDEST PUSH1 0x20 DUP7 ADD MSTORE PUSH15 0xFFFFFFFFFFFFFFFFFFFFFFFFFFFFFF PUSH1 0xC0 DUP4 ADD MLOAD PUSH1 0x40 DUP5 ADD MLOAD OR PUSH1 0x60 DUP5 ADD MLOAD OR PUSH1 0x80 DUP5 ADD MLOAD OR PUSH1 0xE0 DUP6 ADD CALLDATALOAD SWAP1 PUSH1 0xC0 DUP7 ADD CALLDATALOAD SWAP1 PUSH1 0xA0 DUP7 ADD MLOAD OR OR OR GT PUSH2 0x3472 JUMPI PUSH1 0x40 DUP3 ADD MLOAD PUSH1 0x60 DUP4 ADD MLOAD ADD PUSH1 0x80 DUP4 ADD MLOAD ADD PUSH1 0xA0 DUP4 ADD MLOAD ADD PUSH1 0xC0 DUP4 ADD MLOAD ADD SWAP1 DUP3 ADD MLOAD MUL DUP5 MLOAD PUSH20 0xFFFFFFFFFFFFFFFFFFFFFFFFFFFFFFFFFFFFFFFF DUP2 MLOAD AND PUSH2 0x2BA2 PUSH1 0x40 DUP7 ADD DUP7 PUSH2 0x2884 JUMP JUMPDEST DUP1 PUSH2 0x3183 JUMPI JUMPDEST POP POP PUSH2 0x2C17 PUSH1 0x20 PUSH20 0xFFFFFFFFFFFFFFFFFFFFFFFFFFFFFFFFFFFFFFFF PUSH1 0xE0 DUP6 ADD MLOAD AND SWAP4 PUSH1 0x0 SWAP1 DUP6 ISZERO PUSH2 0x3151 JUMPI JUMPDEST PUSH1 0x40 ADD MLOAD DUP3 DUP12 ADD MLOAD PUSH1 0x0 DUP7 DUP12 PUSH1 0x40 MLOAD SWAP8 DUP9 SWAP7 DUP8 SWAP6 DUP7 SWAP4 PUSH32 0x8803E45100000000000000000000000000000000000000000000000000000000 DUP6 MSTORE PUSH1 0x4 DUP6 ADD PUSH2 0x3CE0 JUMP JUMPDEST SUB SWAP4 CALL PUSH1 0x0 SWAP2 DUP2 PUSH2 0x311D JUMPI JUMPDEST POP PUSH2 0x2CCB JUMPI RETURNDATASIZE DUP12 PUSH2 0x800 DUP1 DUP4 GT PUSH2 0x2CC3 JUMPI JUMPDEST POP PUSH1 0x40 MLOAD SWAP2 PUSH1 0x20 DUP2 DUP5 ADD ADD PUSH1 0x40 MSTORE DUP1 DUP4 MSTORE PUSH1 0x0 PUSH1 0x20 DUP5 ADD RETURNDATACOPY PUSH2 0xEC3 PUSH1 0x40 MLOAD SWAP3 DUP4 SWAP3 PUSH32 0x65C8FD4D00000000000000000000000000000000000000000000000000000000 DUP5 MSTORE PUSH1 0x4 DUP5 ADD MSTORE PUSH1 0x60 PUSH1 0x24 DUP5 ADD MSTORE PUSH1 0xD PUSH1 0x64 DUP5 ADD MSTORE PUSH32 0x4141323320726576657274656400000000000000000000000000000000000000 PUSH1 0x84 DUP5 ADD MSTORE PUSH1 0xA0 PUSH1 0x44 DUP5 ADD MSTORE PUSH1 0xA4 DUP4 ADD SWAP1 PUSH2 0x2400 JUMP JUMPDEST SWAP2 POP DUP3 PUSH2 0x2C35 JUMP JUMPDEST SWAP2 ISZERO PUSH2 0x3097 JUMPI JUMPDEST POP SWAP8 PUSH20 0xFFFFFFFFFFFFFFFFFFFFFFFFFFFFFFFFFFFFFFFF DUP4 MLOAD AND PUSH1 0x20 DUP5 ADD MLOAD SWAP1 PUSH1 0x0 MSTORE PUSH1 0x1 PUSH1 0x20 MSTORE PUSH1 0x40 PUSH1 0x0 KECCAK256 DUP2 PUSH1 0x40 SHR PUSH1 0x0 MSTORE PUSH1 0x20 MSTORE PUSH8 0xFFFFFFFFFFFFFFFF PUSH1 0x40 PUSH1 0x0 KECCAK256 SWAP2 DUP3 SLOAD SWAP3 PUSH2 0x2D24 DUP5 PUSH2 0x253F JUMP JUMPDEST SWAP1 SSTORE AND SUB PUSH2 0x3032 JUMPI PUSH1 0x60 SWAP3 PUSH20 0xFFFFFFFFFFFFFFFFFFFFFFFFFFFFFFFFFFFFFFFF PUSH1 0xE0 DUP3 ADD MLOAD AND PUSH2 0x2DE6 JUMPI JUMPDEST GAS DUP7 SUB SWAP1 PUSH1 0x80 PUSH1 0x40 DUP3 ADD MLOAD SWAP2 ADD MLOAD ADD LT PUSH2 0x2D81 JUMPI POP PUSH1 0x40 DUP6 ADD MSTORE PUSH1 0x60 DUP5 ADD MSTORE PUSH1 0x80 SWAP2 PUSH1 0xA0 SWAP1 SWAP2 ADD CALLDATALOAD SWAP1 GAS SWAP1 SUB ADD SWAP2 ADD MSTORE JUMP JUMPDEST PUSH1 0x84 SWAP1 PUSH1 0x40 MLOAD SWAP1 PUSH32 0x220266B600000000000000000000000000000000000000000000000000000000 DUP3 MSTORE PUSH1 0x4 DUP3 ADD MSTORE PUSH1 0x40 PUSH1 0x24 DUP3 ADD MSTORE PUSH1 0x1E PUSH1 0x44 DUP3 ADD MSTORE PUSH32 0x41413430206F76657220766572696669636174696F6E4761734C696D69740000 PUSH1 0x64 DUP3 ADD MSTORE REVERT JUMPDEST SWAP2 SWAP9 SWAP7 SWAP6 SWAP5 SWAP4 SWAP3 POP SWAP7 POP DUP4 MLOAD SWAP8 PUSH20 0xFFFFFFFFFFFFFFFFFFFFFFFFFFFFFFFFFFFFFFFF PUSH1 0xE0 DUP11 ADD MLOAD AND SWAP9 DUP10 PUSH1 0x0 MSTORE PUSH1 0x0 PUSH1 0x20 MSTORE PUSH1 0x40 PUSH1 0x0 KECCAK256 DUP1 SLOAD DUP4 DUP2 LT PUSH2 0x2FCD JUMPI SWAP11 PUSH1 0x80 PUSH1 0x0 SWAP4 DUP6 SWAP4 DUP5 PUSH2 0x2E78 SWAP14 SWAP15 SWAP16 SUB SWAP1 SSTORE ADD MLOAD SWAP1 DUP4 PUSH1 0x20 DUP11 ADD MLOAD SWAP2 PUSH1 0x40 MLOAD DUP1 SWAP14 DUP2 SWAP7 DUP3 SWAP6 PUSH32 0x703AE88F00000000000000000000000000000000000000000000000000000000 DUP5 MSTORE DUP13 PUSH1 0x4 DUP6 ADD PUSH2 0x3CE0 JUMP JUMPDEST SUB SWAP4 CALL SWAP7 DUP8 PUSH1 0x0 SWAP2 PUSH1 0x0 SWAP10 PUSH2 0x2F40 JUMPI JUMPDEST POP PUSH2 0x2F30 JUMPI RETURNDATASIZE DUP11 PUSH2 0x800 DUP1 DUP4 GT PUSH2 0x2F28 JUMPI JUMPDEST POP PUSH1 0x40 MLOAD SWAP2 PUSH1 0x20 DUP2 DUP5 ADD ADD PUSH1 0x40 MSTORE DUP1 DUP4 MSTORE PUSH1 0x0 PUSH1 0x20 DUP5 ADD RETURNDATACOPY PUSH2 0xEC3 PUSH1 0x40 MLOAD SWAP3 DUP4 SWAP3 PUSH32 0x65C8FD4D00000000000000000000000000000000000000000000000000000000 DUP5 MSTORE PUSH1 0x4 DUP5 ADD MSTORE PUSH1 0x60 PUSH1 0x24 DUP5 ADD MSTORE PUSH1 0xD PUSH1 0x64 DUP5 ADD MSTORE PUSH32 0x4141333320726576657274656400000000000000000000000000000000000000 PUSH1 0x84 DUP5 ADD MSTORE PUSH1 0xA0 PUSH1 0x44 DUP5 ADD MSTORE PUSH1 0xA4 DUP4 ADD SWAP1 PUSH2 0x2400 JUMP JUMPDEST SWAP2 POP DUP3 PUSH2 0x2E9A JUMP JUMPDEST SWAP9 SWAP1 SWAP2 SWAP3 SWAP4 SWAP5 SWAP6 SWAP7 SWAP8 SWAP9 SWAP3 PUSH2 0x2D4F JUMP JUMPDEST SWAP2 POP SWAP8 POP RETURNDATASIZE SWAP1 DUP2 PUSH1 0x0 DUP3 RETURNDATACOPY PUSH2 0x2F55 DUP3 DUP3 PUSH2 0x2227 JUMP JUMPDEST PUSH1 0x40 DUP2 DUP4 DUP2 ADD SUB SLT PUSH2 0x1A7 JUMPI DUP1 MLOAD SWAP1 PUSH8 0xFFFFFFFFFFFFFFFF DUP3 GT PUSH2 0x1A7 JUMPI DUP3 DUP2 ADD PUSH1 0x1F DUP4 DUP4 ADD ADD SLT ISZERO PUSH2 0x1A7 JUMPI DUP2 DUP2 ADD MLOAD SWAP2 PUSH2 0x2F90 DUP4 PUSH2 0x2268 JUMP JUMPDEST SWAP4 PUSH2 0x2F9E PUSH1 0x40 MLOAD SWAP6 DUP7 PUSH2 0x2227 JUMP JUMPDEST DUP4 DUP6 MSTORE DUP3 ADD PUSH1 0x20 DUP5 DUP4 DUP6 ADD ADD ADD GT PUSH2 0x1A7 JUMPI PUSH1 0x20 SWAP3 PUSH2 0x2FC4 SWAP2 DUP5 DUP1 DUP8 ADD SWAP2 DUP6 ADD ADD PUSH2 0x23DD JUMP JUMPDEST ADD MLOAD SWAP8 CODESIZE PUSH2 0x2E88 JUMP JUMPDEST PUSH1 0x84 DUP12 PUSH1 0x40 MLOAD SWAP1 PUSH32 0x220266B600000000000000000000000000000000000000000000000000000000 DUP3 MSTORE PUSH1 0x4 DUP3 ADD MSTORE PUSH1 0x40 PUSH1 0x24 DUP3 ADD MSTORE PUSH1 0x1E PUSH1 0x44 DUP3 ADD MSTORE PUSH32 0x41413331207061796D6173746572206465706F73697420746F6F206C6F770000 PUSH1 0x64 DUP3 ADD MSTORE REVERT JUMPDEST PUSH1 0x84 SWAP1 PUSH1 0x40 MLOAD SWAP1 PUSH32 0x220266B600000000000000000000000000000000000000000000000000000000 DUP3 MSTORE PUSH1 0x4 DUP3 ADD MSTORE PUSH1 0x40 PUSH1 0x24 DUP3 ADD MSTORE PUSH1 0x1A PUSH1 0x44 DUP3 ADD MSTORE PUSH32 0x4141323520696E76616C6964206163636F756E74206E6F6E6365000000000000 PUSH1 0x64 DUP3 ADD MSTORE REVERT JUMPDEST PUSH1 0x0 MSTORE PUSH1 0x0 PUSH1 0x20 MSTORE PUSH1 0x40 PUSH1 0x0 KECCAK256 DUP1 SLOAD DUP1 DUP5 GT PUSH2 0x30B8 JUMPI DUP4 SWAP1 SUB SWAP1 SSTORE CODESIZE PUSH2 0x2CD2 JUMP JUMPDEST PUSH1 0x84 DUP12 PUSH1 0x40 MLOAD SWAP1 PUSH32 0x220266B600000000000000000000000000000000000000000000000000000000 DUP3 MSTORE PUSH1 0x4 DUP3 ADD MSTORE PUSH1 0x40 PUSH1 0x24 DUP3 ADD MSTORE PUSH1 0x17 PUSH1 0x44 DUP3 ADD MSTORE PUSH32 0x41413231206469646E2774207061792070726566756E64000000000000000000 PUSH1 0x64 DUP3 ADD MSTORE REVERT JUMPDEST SWAP1 SWAP2 POP PUSH1 0x20 DUP2 RETURNDATASIZE PUSH1 0x20 GT PUSH2 0x3149 JUMPI JUMPDEST DUP2 PUSH2 0x3139 PUSH1 0x20 SWAP4 DUP4 PUSH2 0x2227 JUMP JUMPDEST DUP2 ADD SUB SLT PUSH2 0x1A7 JUMPI MLOAD SWAP1 CODESIZE PUSH2 0x2C23 JUMP JUMPDEST RETURNDATASIZE SWAP2 POP PUSH2 0x312C JUMP JUMPDEST SWAP1 POP DUP4 PUSH1 0x0 MSTORE PUSH1 0x0 DUP3 MSTORE PUSH1 0x40 PUSH1 0x0 KECCAK256 SLOAD DUP7 DUP2 GT PUSH1 0x0 EQ PUSH2 0x3179 JUMPI POP PUSH1 0x40 PUSH1 0x0 JUMPDEST SWAP2 SWAP1 POP PUSH2 0x2BD5 JUMP JUMPDEST PUSH1 0x40 SWAP1 DUP8 SUB PUSH2 0x3171 JUMP JUMPDEST DUP3 EXTCODESIZE PUSH2 0x340D JUMPI PUSH1 0x40 DUP10 MLOAD ADD MLOAD PUSH1 0x20 PUSH1 0x40 MLOAD DUP1 SWAP3 PUSH32 0x570E1A3600000000000000000000000000000000000000000000000000000000 DUP3 MSTORE DUP3 PUSH1 0x4 DUP4 ADD MSTORE DUP2 PUSH1 0x0 DUP2 PUSH2 0x31D1 PUSH1 0x24 DUP3 ADD DUP10 DUP12 PUSH2 0x2742 JUMP JUMPDEST SUB SWAP3 PUSH20 0xFFFFFFFFFFFFFFFFFFFFFFFFFFFFFFFFFFFFFFFF PUSH32 0x0 AND SWAP1 CALL SWAP1 DUP2 ISZERO PUSH2 0xDC2 JUMPI PUSH1 0x0 SWAP2 PUSH2 0x33EE JUMPI JUMPDEST POP PUSH20 0xFFFFFFFFFFFFFFFFFFFFFFFFFFFFFFFFFFFFFFFF DUP2 AND ISZERO PUSH2 0x3389 JUMPI DUP4 PUSH20 0xFFFFFFFFFFFFFFFFFFFFFFFFFFFFFFFFFFFFFFFF DUP3 AND SUB PUSH2 0x3324 JUMPI EXTCODESIZE ISZERO PUSH2 0x32BF JUMPI PUSH1 0x14 GT PUSH2 0x1A7 JUMPI DUP2 SWAP1 PUSH32 0xD51A9C61267AA6196961883ECF5FF2DA6619C37DAC0FA92122513FB32C032D2D PUSH1 0x40 PUSH1 0x20 DUP12 ADD MLOAD SWAP3 PUSH20 0xFFFFFFFFFFFFFFFFFFFFFFFFFFFFFFFFFFFFFFFF PUSH1 0xE0 DUP14 MLOAD ADD MLOAD AND DUP3 MLOAD SWAP2 CALLDATALOAD PUSH1 0x60 SHR DUP3 MSTORE PUSH1 0x20 DUP3 ADD MSTORE LOG3 CODESIZE DUP1 PUSH2 0x2BA8 JUMP JUMPDEST PUSH1 0x84 DUP13 PUSH1 0x40 MLOAD SWAP1 PUSH32 0x220266B600000000000000000000000000000000000000000000000000000000 DUP3 MSTORE PUSH1 0x4 DUP3 ADD MSTORE PUSH1 0x40 PUSH1 0x24 DUP3 ADD MSTORE PUSH1 0x20 PUSH1 0x44 DUP3 ADD MSTORE PUSH32 0x4141313520696E6974436F6465206D757374206372656174652073656E646572 PUSH1 0x64 DUP3 ADD MSTORE REVERT JUMPDEST PUSH1 0x84 DUP14 PUSH1 0x40 MLOAD SWAP1 PUSH32 0x220266B600000000000000000000000000000000000000000000000000000000 DUP3 MSTORE PUSH1 0x4 DUP3 ADD MSTORE PUSH1 0x40 PUSH1 0x24 DUP3 ADD MSTORE PUSH1 0x20 PUSH1 0x44 DUP3 ADD MSTORE PUSH32 0x4141313420696E6974436F6465206D7573742072657475726E2073656E646572 PUSH1 0x64 DUP3 ADD MSTORE REVERT JUMPDEST PUSH1 0x84 DUP14 PUSH1 0x40 MLOAD SWAP1 PUSH32 0x220266B600000000000000000000000000000000000000000000000000000000 DUP3 MSTORE PUSH1 0x4 DUP3 ADD MSTORE PUSH1 0x40 PUSH1 0x24 DUP3 ADD MSTORE PUSH1 0x1B PUSH1 0x44 DUP3 ADD MSTORE PUSH32 0x4141313320696E6974436F6465206661696C6564206F72204F4F470000000000 PUSH1 0x64 DUP3 ADD MSTORE REVERT JUMPDEST PUSH2 0x3407 SWAP2 POP PUSH1 0x20 RETURNDATASIZE PUSH1 0x20 GT PUSH2 0xDBB JUMPI PUSH2 0xDAC DUP2 DUP4 PUSH2 0x2227 JUMP JUMPDEST CODESIZE PUSH2 0x321B JUMP JUMPDEST PUSH1 0x84 DUP13 PUSH1 0x40 MLOAD SWAP1 PUSH32 0x220266B600000000000000000000000000000000000000000000000000000000 DUP3 MSTORE PUSH1 0x4 DUP3 ADD MSTORE PUSH1 0x40 PUSH1 0x24 DUP3 ADD MSTORE PUSH1 0x1F PUSH1 0x44 DUP3 ADD MSTORE PUSH32 0x414131302073656E64657220616C726561647920636F6E737472756374656400 PUSH1 0x64 DUP3 ADD MSTORE REVERT JUMPDEST PUSH1 0x64 PUSH1 0x40 MLOAD PUSH32 0x8C379A000000000000000000000000000000000000000000000000000000000 DUP2 MSTORE PUSH1 0x20 PUSH1 0x4 DUP3 ADD MSTORE PUSH1 0x18 PUSH1 0x24 DUP3 ADD MSTORE PUSH32 0x41413934206761732076616C756573206F766572666C6F770000000000000000 PUSH1 0x44 DUP3 ADD MSTORE REVERT JUMPDEST PUSH1 0x64 PUSH1 0x40 MLOAD PUSH32 0x8C379A000000000000000000000000000000000000000000000000000000000 DUP2 MSTORE PUSH1 0x20 PUSH1 0x4 DUP3 ADD MSTORE PUSH1 0x1D PUSH1 0x24 DUP3 ADD MSTORE PUSH32 0x4141393320696E76616C6964207061796D6173746572416E6444617461000000 PUSH1 0x44 DUP3 ADD MSTORE REVERT JUMPDEST POP POP PUSH1 0x0 PUSH1 0xE0 DUP4 ADD MSTORE PUSH1 0x0 PUSH1 0x80 DUP4 ADD MSTORE PUSH1 0x0 PUSH1 0xA0 DUP4 ADD MSTORE PUSH2 0x2B0B JUMP JUMPDEST SWAP1 SWAP3 SWAP2 GAS SWAP1 PUSH1 0x60 DUP2 ADD MLOAD PUSH1 0x0 PUSH1 0x40 SWAP4 DUP5 MLOAD SWAP8 PUSH32 0xFFFFFFFF00000000000000000000000000000000000000000000000000000000 DUP10 PUSH2 0x358B PUSH1 0x60 DUP5 ADD DUP5 PUSH2 0x2884 JUMP JUMPDEST DUP7 PUSH1 0x3 DUP3 GT PUSH2 0x3B89 JUMPI JUMPDEST PUSH32 0x18AD2E1200000000000000000000000000000000000000000000000000000000 SWAP5 AND DUP5 EQ DUP8 EQ PUSH2 0x3A30 JUMPI POP POP POP PUSH2 0x3665 SWAP2 PUSH2 0x3750 SWAP2 PUSH1 0x20 DUP9 ADD MLOAD PUSH2 0x35ED DUP11 MLOAD SWAP4 DUP5 SWAP4 PUSH1 0x20 DUP6 ADD MSTORE DUP12 PUSH1 0x24 DUP6 ADD MSTORE PUSH1 0x64 DUP5 ADD SWAP1 PUSH2 0x2925 JUMP JUMPDEST SWAP1 PUSH1 0x44 DUP4 ADD MSTORE SUB SWAP1 PUSH2 0x3625 PUSH32 0xFFFFFFFFFFFFFFFFFFFFFFFFFFFFFFFFFFFFFFFFFFFFFFFFFFFFFFFFFFFFFFE0 SWAP3 DUP4 DUP2 ADD DUP4 MSTORE DUP3 PUSH2 0x2227 JUMP JUMPDEST PUSH2 0x3744 DUP10 MLOAD SWAP5 DUP6 SWAP3 PUSH31 0x42DC5300000000000000000000000000000000000000000000000000000000 PUSH1 0x20 DUP6 ADD MSTORE PUSH2 0x200 PUSH1 0x24 DUP6 ADD MSTORE PUSH2 0x224 DUP5 ADD SWAP1 PUSH2 0x2400 JUMP JUMPDEST PUSH2 0x3713 PUSH1 0x44 DUP5 ADD DUP12 PUSH1 0x80 PUSH2 0x1A0 SWAP2 DUP1 MLOAD PUSH20 0xFFFFFFFFFFFFFFFFFFFFFFFFFFFFFFFFFFFFFFFF DUP1 DUP3 MLOAD AND DUP7 MSTORE PUSH1 0x20 DUP3 ADD MLOAD PUSH1 0x20 DUP8 ADD MSTORE PUSH1 0x40 DUP3 ADD MLOAD PUSH1 0x40 DUP8 ADD MSTORE PUSH1 0x60 DUP3 ADD MLOAD PUSH1 0x60 DUP8 ADD MSTORE DUP4 DUP3 ADD MLOAD DUP5 DUP8 ADD MSTORE PUSH1 0xA0 DUP3 ADD MLOAD PUSH1 0xA0 DUP8 ADD MSTORE PUSH1 0xC0 DUP3 ADD MLOAD PUSH1 0xC0 DUP8 ADD MSTORE PUSH1 0xE0 DUP3 ADD MLOAD AND PUSH1 0xE0 DUP7 ADD MSTORE PUSH2 0x100 DUP1 DUP3 ADD MLOAD SWAP1 DUP7 ADD MSTORE PUSH2 0x120 DUP1 SWAP2 ADD MLOAD SWAP1 DUP6 ADD MSTORE PUSH1 0x20 DUP2 ADD MLOAD PUSH2 0x140 DUP6 ADD MSTORE PUSH1 0x40 DUP2 ADD MLOAD PUSH2 0x160 DUP6 ADD MSTORE PUSH1 0x60 DUP2 ADD MLOAD PUSH2 0x180 DUP6 ADD MSTORE ADD MLOAD SWAP2 ADD MSTORE JUMP JUMPDEST PUSH32 0xFFFFFFFFFFFFFFFFFFFFFFFFFFFFFFFFFFFFFFFFFFFFFFFFFFFFFFFFFFFFFFDC DUP4 DUP3 SUB ADD PUSH2 0x204 DUP5 ADD MSTORE DUP9 PUSH2 0x2400 JUMP JUMPDEST SUB SWAP1 DUP2 ADD DUP4 MSTORE DUP3 PUSH2 0x2227 JUMP JUMPDEST PUSH1 0x20 SWAP3 DUP2 DUP5 DUP1 SWAP4 MLOAD SWAP2 ADD DUP3 ADDRESS GAS CALL PUSH1 0x0 MLOAD SWAP9 DUP7 MSTORE ISZERO PUSH2 0x3772 JUMPI JUMPDEST POP POP POP POP POP POP JUMP JUMPDEST SWAP1 SWAP2 SWAP3 SWAP4 SWAP5 SWAP6 SWAP7 POP PUSH1 0x0 RETURNDATASIZE DUP4 EQ PUSH2 0x3A22 JUMPI JUMPDEST PUSH32 0xDEADDEAD00000000000000000000000000000000000000000000000000000000 SUB PUSH2 0x380D JUMPI PUSH1 0x84 DUP7 DUP7 DUP1 MLOAD SWAP2 PUSH32 0x220266B600000000000000000000000000000000000000000000000000000000 DUP4 MSTORE PUSH1 0x4 DUP4 ADD MSTORE PUSH1 0x24 DUP3 ADD MSTORE PUSH1 0xF PUSH1 0x44 DUP3 ADD MSTORE PUSH32 0x41413935206F7574206F66206761730000000000000000000000000000000000 PUSH1 0x64 DUP3 ADD MSTORE REVERT JUMPDEST PUSH2 0x389B SWAP1 DUP3 DUP6 SWAP7 SWAP5 SWAP6 ADD MLOAD DUP7 MLOAD SWAP1 PUSH32 0xF62676F440FF169A3A9AFDBF812E89E7F95975EE8E5C31214FFDEF631C5F4792 DUP6 PUSH20 0xFFFFFFFFFFFFFFFFFFFFFFFFFFFFFFFFFFFFFFFF DUP5 MLOAD AND SWAP4 ADD MLOAD RETURNDATASIZE SWAP1 PUSH2 0x800 DUP1 DUP4 GT PUSH2 0x3A1A JUMPI JUMPDEST POP DUP9 MLOAD SWAP2 DUP9 DUP2 DUP5 ADD ADD DUP11 MSTORE DUP1 DUP4 MSTORE PUSH1 0x0 DUP10 DUP5 ADD RETURNDATACOPY PUSH2 0x3891 DUP10 MLOAD SWAP3 DUP4 SWAP3 DUP4 MSTORE DUP11 DUP11 DUP5 ADD MSTORE DUP11 DUP4 ADD SWAP1 PUSH2 0x2400 JUMP JUMPDEST SUB SWAP1 LOG3 GAS SWAP1 PUSH2 0x256C JUMP JUMPDEST PUSH2 0x38AB PUSH1 0x80 DUP7 ADD SWAP2 DUP3 MLOAD SWAP1 PUSH2 0x2532 JUMP JUMPDEST SWAP3 GAS SWAP6 PUSH1 0x0 DUP2 MLOAD SWAP8 PUSH2 0x38BC DUP10 PUSH2 0x3CB6 JUMP JUMPDEST PUSH1 0xE0 DUP11 ADD SWAP9 PUSH20 0xFFFFFFFFFFFFFFFFFFFFFFFFFFFFFFFFFFFFFFFF SWAP9 DUP10 DUP12 MLOAD AND DUP1 ISZERO PUSH1 0x0 EQ PUSH2 0x3A09 JUMPI POP DUP10 DUP13 MLOAD AND SWAP4 JUMPDEST GAS SWAP1 SUB ADD SWAP7 PUSH1 0x60 DUP13 ADD MLOAD SWAP2 MLOAD PUSH2 0x39FC JUMPI JUMPDEST MLOAD DUP8 SUB SWAP1 DUP2 DUP2 GT PUSH2 0x39E8 JUMPI JUMPDEST POP POP DUP6 MUL SWAP10 DUP5 DUP5 ADD SWAP1 DUP12 DUP3 MLOAD LT PUSH2 0x3986 JUMPI POP DUP3 SWAP2 DUP12 PUSH2 0x3929 SWAP3 MLOAD SUB SWAP1 PUSH2 0x3C82 JUMP JUMPDEST POP PUSH2 0x1E2B JUMPI POP SWAP2 DUP8 DUP5 SWAP3 PUSH1 0x0 DUP5 PUSH32 0x49628FD1471006C1482DA88028E9CE4DBB080B815C9B0344D39E5A8E6EC1419F SWAP8 PUSH1 0x80 SWAP8 ADD MLOAD SWAP9 DUP1 DUP13 MLOAD AND SWAP11 MLOAD AND SWAP11 ADD MLOAD SWAP5 DUP3 MLOAD SWAP6 DUP7 MSTORE DUP6 ADD MSTORE DUP4 ADD MSTORE PUSH1 0x60 DUP3 ADD MSTORE LOG4 SWAP1 CODESIZE DUP1 DUP1 DUP1 DUP1 DUP1 PUSH2 0x376A JUMP JUMPDEST PUSH1 0x84 SWAP1 DUP9 DUP8 DUP1 MLOAD SWAP3 PUSH32 0x220266B600000000000000000000000000000000000000000000000000000000 DUP5 MSTORE PUSH1 0x4 DUP5 ADD MSTORE PUSH1 0x24 DUP4 ADD MSTORE PUSH1 0x44 DUP3 ADD MSTORE PUSH32 0x414135312070726566756E642062656C6F772061637475616C476173436F7374 PUSH1 0x64 DUP3 ADD MSTORE REVERT JUMPDEST PUSH1 0x64 SWAP2 SWAP1 SUB PUSH1 0xA MUL DIV SWAP1 SWAP6 ADD SWAP5 CODESIZE DUP1 PUSH2 0x3908 JUMP JUMPDEST SWAP1 PUSH1 0xA0 DUP13 ADD MLOAD ADD SWAP1 PUSH2 0x38FC JUMP JUMPDEST SWAP4 DUP3 MLOAD ISZERO PUSH2 0x38EB JUMPI PUSH1 0x0 SWAP6 POP PUSH2 0x38EB JUMP JUMPDEST SWAP2 POP CODESIZE PUSH2 0x3865 JUMP JUMPDEST POP DUP2 PUSH1 0x0 DUP1 RETURNDATACOPY PUSH1 0x0 MLOAD PUSH2 0x3784 JUMP JUMPDEST PUSH2 0x3B83 SWAP5 POP DUP3 SWAP4 POP SWAP1 PUSH2 0x3A78 SWAP2 PUSH31 0x42DC5300000000000000000000000000000000000000000000000000000000 PUSH1 0x20 PUSH2 0x3B57 SWAP6 ADD MSTORE PUSH2 0x200 PUSH1 0x24 DUP7 ADD MSTORE PUSH2 0x224 DUP6 ADD SWAP2 PUSH2 0x2742 JUMP JUMPDEST PUSH2 0x3B26 PUSH1 0x44 DUP5 ADD DUP10 PUSH1 0x80 PUSH2 0x1A0 SWAP2 DUP1 MLOAD PUSH20 0xFFFFFFFFFFFFFFFFFFFFFFFFFFFFFFFFFFFFFFFF DUP1 DUP3 MLOAD AND DUP7 MSTORE PUSH1 0x20 DUP3 ADD MLOAD PUSH1 0x20 DUP8 ADD MSTORE PUSH1 0x40 DUP3 ADD MLOAD PUSH1 0x40 DUP8 ADD MSTORE PUSH1 0x60 DUP3 ADD MLOAD PUSH1 0x60 DUP8 ADD MSTORE DUP4 DUP3 ADD MLOAD DUP5 DUP8 ADD MSTORE PUSH1 0xA0 DUP3 ADD MLOAD PUSH1 0xA0 DUP8 ADD MSTORE PUSH1 0xC0 DUP3 ADD MLOAD PUSH1 0xC0 DUP8 ADD MSTORE PUSH1 0xE0 DUP3 ADD MLOAD AND PUSH1 0xE0 DUP7 ADD MSTORE PUSH2 0x100 DUP1 DUP3 ADD MLOAD SWAP1 DUP7 ADD MSTORE PUSH2 0x120 DUP1 SWAP2 ADD MLOAD SWAP1 DUP6 ADD MSTORE PUSH1 0x20 DUP2 ADD MLOAD PUSH2 0x140 DUP6 ADD MSTORE PUSH1 0x40 DUP2 ADD MLOAD PUSH2 0x160 DUP6 ADD MSTORE PUSH1 0x60 DUP2 ADD MLOAD PUSH2 0x180 DUP6 ADD MSTORE ADD MLOAD SWAP2 ADD MSTORE JUMP JUMPDEST PUSH32 0xFFFFFFFFFFFFFFFFFFFFFFFFFFFFFFFFFFFFFFFFFFFFFFFFFFFFFFFFFFFFFFDC DUP4 DUP3 SUB ADD PUSH2 0x204 DUP5 ADD MSTORE DUP7 PUSH2 0x2400 JUMP JUMPDEST SUB PUSH32 0xFFFFFFFFFFFFFFFFFFFFFFFFFFFFFFFFFFFFFFFFFFFFFFFFFFFFFFFFFFFFFFE0 DUP2 ADD DUP11 MSTORE DUP10 PUSH2 0x2227 JUMP JUMPDEST DUP8 PUSH2 0x3750 JUMP JUMPDEST POP DUP2 CALLDATALOAD PUSH2 0x3595 JUMP JUMPDEST PUSH20 0xFFFFFFFFFFFFFFFFFFFFFFFFFFFFFFFFFFFFFFFF AND DUP1 ISZERO PUSH2 0x3C24 JUMPI PUSH1 0x0 DUP1 DUP1 SWAP4 DUP2 SWAP4 GAS CALL PUSH2 0x3BBE PUSH2 0x2579 JUMP JUMPDEST POP ISZERO PUSH2 0x3BC6 JUMPI JUMP JUMPDEST PUSH1 0x64 PUSH1 0x40 MLOAD PUSH32 0x8C379A000000000000000000000000000000000000000000000000000000000 DUP2 MSTORE PUSH1 0x20 PUSH1 0x4 DUP3 ADD MSTORE PUSH1 0x1F PUSH1 0x24 DUP3 ADD MSTORE PUSH32 0x41413931206661696C65642073656E6420746F2062656E656669636961727900 PUSH1 0x44 DUP3 ADD MSTORE REVERT JUMPDEST PUSH1 0x64 PUSH1 0x40 MLOAD PUSH32 0x8C379A000000000000000000000000000000000000000000000000000000000 DUP2 MSTORE PUSH1 0x20 PUSH1 0x4 DUP3 ADD MSTORE PUSH1 0x18 PUSH1 0x24 DUP3 ADD MSTORE PUSH32 0x4141393020696E76616C69642062656E65666963696172790000000000000000 PUSH1 0x44 DUP3 ADD MSTORE REVERT JUMPDEST PUSH20 0xFFFFFFFFFFFFFFFFFFFFFFFFFFFFFFFFFFFFFFFF AND PUSH1 0x0 MSTORE PUSH1 0x0 PUSH1 0x20 MSTORE PUSH2 0x3CB0 PUSH1 0x40 PUSH1 0x0 KECCAK256 SWAP2 DUP3 SLOAD PUSH2 0x2532 JUMP JUMPDEST DUP1 SWAP2 SSTORE SWAP1 JUMP JUMPDEST PUSH2 0x120 PUSH2 0x100 DUP3 ADD MLOAD SWAP2 ADD MLOAD DUP1 DUP3 EQ PUSH2 0x3CDC JUMPI BASEFEE ADD DUP1 DUP3 LT ISZERO PUSH2 0x3CD7 JUMPI POP SWAP1 JUMP JUMPDEST SWAP1 POP SWAP1 JUMP JUMPDEST POP SWAP1 JUMP JUMPDEST PUSH2 0x3CF8 PUSH1 0x40 SWAP3 SWAP6 SWAP5 SWAP4 SWAP6 PUSH1 0x60 DUP4 MSTORE PUSH1 0x60 DUP4 ADD SWAP1 PUSH2 0x2925 JUMP JUMPDEST SWAP5 PUSH1 0x20 DUP3 ADD MSTORE ADD MSTORE JUMP JUMPDEST DUP1 ISZERO PUSH2 0x3D8F JUMPI PUSH1 0x0 PUSH1 0x40 DUP1 MLOAD PUSH2 0x3D17 DUP2 PUSH2 0x220B JUMP JUMPDEST DUP3 DUP2 MSTORE DUP3 PUSH1 0x20 DUP3 ADD MSTORE ADD MSTORE PUSH20 0xFFFFFFFFFFFFFFFFFFFFFFFFFFFFFFFFFFFFFFFF DUP2 AND SWAP1 PUSH1 0x40 PUSH6 0xFFFFFFFFFFFF SWAP2 DUP3 DUP2 PUSH1 0xA0 SHR AND SWAP1 DUP2 ISZERO PUSH2 0x3D87 JUMPI JUMPDEST PUSH1 0xD0 SHR SWAP3 DUP3 MLOAD SWAP2 PUSH2 0x3D62 DUP4 PUSH2 0x220B JUMP JUMPDEST DUP6 DUP4 MSTORE DUP5 PUSH1 0x20 DUP5 ADD MSTORE AND SWAP2 DUP3 SWAP2 ADD MSTORE TIMESTAMP GT SWAP1 DUP2 ISZERO PUSH2 0x3D7F JUMPI POP SWAP1 SWAP2 JUMP JUMPDEST SWAP1 POP TIMESTAMP LT SWAP1 SWAP2 JUMP JUMPDEST DUP4 SWAP2 POP PUSH2 0x3D52 JUMP JUMPDEST POP PUSH1 0x0 SWAP1 PUSH1 0x0 SWAP1 JUMP INVALID LOG2 PUSH5 0x6970667358 0x22 SLT KECCAK256 CODECOPY NUMBER PUSH28 0x55A0BA03D9E62CB130B1A5B39234FE52CCCEAC94F18F2C86B0EFA3F 0x27 PUSH5 0x736F6C6343 STOP ADDMOD OR STOP CALLER PUSH1 0x80 DUP1 PUSH1 0x40 MSTORE CALLVALUE PUSH2 0x16 JUMPI PUSH2 0x1C3 SWAP1 DUP2 PUSH2 0x1C DUP3 CODECOPY RETURN JUMPDEST PUSH1 0x0 DUP1 REVERT INVALID PUSH1 0x80 PUSH1 0x4 CALLDATASIZE LT ISZERO PUSH2 0xF JUMPI PUSH1 0x0 DUP1 REVERT JUMPDEST PUSH1 0x0 DUP1 CALLDATALOAD PUSH1 0xE0 SHR PUSH4 0x570E1A36 EQ PUSH2 0x25 JUMPI PUSH1 0x0 DUP1 REVERT JUMPDEST CALLVALUE PUSH2 0x18A JUMPI PUSH1 0x20 PUSH32 0xFFFFFFFFFFFFFFFFFFFFFFFFFFFFFFFFFFFFFFFFFFFFFFFFFFFFFFFFFFFFFFFC CALLDATASIZE ADD SLT PUSH2 0x18A JUMPI PUSH1 0x4 CALLDATALOAD SWAP2 PUSH8 0xFFFFFFFFFFFFFFFF SWAP1 DUP2 DUP5 GT PUSH2 0x186 JUMPI CALLDATASIZE PUSH1 0x23 DUP6 ADD SLT ISZERO PUSH2 0x186 JUMPI DUP4 PUSH1 0x4 ADD CALLDATALOAD DUP3 DUP2 GT PUSH2 0x182 JUMPI CALLDATASIZE PUSH1 0x24 DUP3 DUP8 ADD ADD GT PUSH2 0x182 JUMPI DUP1 PUSH1 0x14 GT PUSH2 0x182 JUMPI PUSH32 0xFFFFFFFFFFFFFFFFFFFFFFFFFFFFFFFFFFFFFFFFFFFFFFFFFFFFFFFFFFFFFFEC DUP2 ADD SWAP3 DUP1 DUP5 GT PUSH2 0x155 JUMPI PUSH32 0xFFFFFFFFFFFFFFFFFFFFFFFFFFFFFFFFFFFFFFFFFFFFFFFFFFFFFFFFFFFFFFE0 PUSH1 0x3F DUP2 PUSH1 0xB DUP6 ADD AND ADD AND DUP4 ADD SWAP1 DUP4 DUP3 LT SWAP1 DUP3 GT OR PUSH2 0x155 JUMPI SWAP3 DUP5 PUSH1 0x24 DUP2 SWAP5 DUP3 PUSH1 0xC PUSH1 0x20 SWAP11 SWAP7 DUP12 SWAP10 PUSH1 0x40 MSTORE DUP7 DUP5 MSTORE DUP10 DUP5 ADD SWAP7 PUSH1 0x38 DUP10 ADD DUP9 CALLDATACOPY DUP4 ADD ADD MSTORE MLOAD SWAP4 ADD CALLDATALOAD PUSH1 0x60 SHR GAS CALL SWAP1 DUP1 MLOAD SWAP2 ISZERO PUSH2 0x14D JUMPI JUMPDEST POP PUSH20 0xFFFFFFFFFFFFFFFFFFFFFFFFFFFFFFFFFFFFFFFF PUSH1 0x40 MLOAD SWAP2 AND DUP2 MSTORE RETURN JUMPDEST SWAP1 POP CODESIZE PUSH2 0x12E JUMP JUMPDEST PUSH1 0x24 DUP6 PUSH32 0x4E487B7100000000000000000000000000000000000000000000000000000000 DUP2 MSTORE PUSH1 0x41 PUSH1 0x4 MSTORE REVERT JUMPDEST DUP4 DUP1 REVERT JUMPDEST DUP3 DUP1 REVERT JUMPDEST DUP1 REVERT INVALID LOG2 PUSH5 0x6970667358 0x22 SLT KECCAK256 0x24 0xEF GASPRICE 0xBF 0xD3 SAR 0xDE SWAP15 0x4D 0x27 0xE3 COINBASE 0xC2 PC MUL BLOCKHASH 0x5D ISZERO JUMPI ADDRESS PUSH16 0xEE7D71D82BD22012501CFB64736F6C63 NUMBER STOP ADDMOD OR STOP CALLER "},"methodIdentifiers":{"SIG_VALIDATION_FAILED()":"8f41ec5a","addStake(uint32)":"0396cb60","balanceOf(address)":"70a08231","delegateAndRevert(address,bytes)":"850aaf62","depositTo(address)":"b760faf9","deposits(address)":"fc7e286d","getDepositInfo(address)":"5287ce12","getNonce(address,uint192)":"35567e1a","getSenderAddress(bytes)":"9b249f69","getUserOpHash((address,uint256,bytes,bytes,bytes32,uint256,uint256,uint256,bytes,bytes))":"02101e49","handleAggregatedOps(((address,uint256,bytes,bytes,bytes32,uint256,uint256,uint256,bytes,bytes)[],address,bytes)[],address)":"ea8ad612","handleOps((address,uint256,bytes,bytes,bytes32,uint256,uint256,uint256,bytes,bytes)[],address)":"6b21db51","incrementNonce(uint192)":"0bd28e3b","innerHandleOp(bytes,((address,uint256,uint256,uint256,uint256,uint256,uint256,address,uint256,uint256),bytes32,uint256,uint256,uint256),bytes)":"0042dc53","nonceSequenceNumber(address,uint192)":"1b2e01b8","supportsInterface(bytes4)":"01ffc9a7","unlockStake()":"bb9fe6bf","withdrawStake(address)":"c23a5cea","withdrawTo(address,uint256)":"205c2878"}}}}}