{
  "_format": "hh-sol-artifact-1",
  "contractName": "TestExecAccount",
  "sourceName": "contracts/test/TestExecAccount.sol",
  "abi": [
    {
      "inputs": [
        {
          "internalType": "contract IEntryPoint",
          "name": "anEntryPoint",
          "type": "address"
        }
      ],
      "stateMutability": "nonpayable",
      "type": "constructor"
    },
    {
      "inputs": [
        {
          "internalType": "address",
          "name": "target",
          "type": "address"
        }
      ],
      "name": "AddressEmptyCode",
      "type": "error"
    },
    {
      "inputs": [],
      "name": "ECDSAInvalidSignature",
      "type": "error"
    },
    {
      "inputs": [
        {
          "internalType": "uint256",
          "name": "length",
          "type": "uint256"
        }
      ],
      "name": "ECDSAInvalidSignatureLength",
      "type": "error"
    },
    {
      "inputs": [
        {
          "internalType": "bytes32",
          "name": "s",
          "type": "bytes32"
        }
      ],
      "name": "ECDSAInvalidSignatureS",
      "type": "error"
    },
    {
      "inputs": [
        {
          "internalType": "address",
          "name": "implementation",
          "type": "address"
        }
      ],
      "name": "ERC1967InvalidImplementation",
      "type": "error"
    },
    {
      "inputs": [],
      "name": "ERC1967NonPayable",
      "type": "error"
    },
    {
      "inputs": [],
      "name": "FailedInnerCall",
      "type": "error"
    },
    {
      "inputs": [],
      "name": "InvalidInitialization",
      "type": "error"
    },
    {
      "inputs": [],
      "name": "NotInitializing",
      "type": "error"
    },
    {
      "inputs": [],
      "name": "UUPSUnauthorizedCallContext",
      "type": "error"
    },
    {
      "inputs": [
        {
          "internalType": "bytes32",
          "name": "slot",
          "type": "bytes32"
        }
      ],
      "name": "UUPSUnsupportedProxiableUUID",
      "type": "error"
    },
    {
      "anonymous": false,
      "inputs": [
        {
          "components": [
            {
              "internalType": "address",
              "name": "sender",
              "type": "address"
            },
            {
              "internalType": "uint256",
              "name": "nonce",
              "type": "uint256"
            },
            {
              "internalType": "bytes",
              "name": "initCode",
              "type": "bytes"
            },
            {
              "internalType": "bytes",
              "name": "callData",
              "type": "bytes"
            },
            {
              "internalType": "bytes32",
              "name": "accountGasLimits",
              "type": "bytes32"
            },
            {
              "internalType": "uint256",
              "name": "preVerificationGas",
              "type": "uint256"
            },
            {
              "internalType": "uint256",
              "name": "maxFeePerGas",
              "type": "uint256"
            },
            {
              "internalType": "uint256",
              "name": "maxPriorityFeePerGas",
              "type": "uint256"
            },
            {
              "internalType": "bytes",
              "name": "paymasterAndData",
              "type": "bytes"
            },
            {
              "internalType": "bytes",
              "name": "signature",
              "type": "bytes"
            }
          ],
          "indexed": false,
          "internalType": "struct PackedUserOperation",
          "name": "userOp",
          "type": "tuple"
        },
        {
          "indexed": false,
          "internalType": "bytes",
          "name": "innerCallRet",
          "type": "bytes"
        }
      ],
      "name": "Executed",
      "type": "event"
    },
    {
      "anonymous": false,
      "inputs": [
        {
          "indexed": false,
          "internalType": "uint64",
          "name": "version",
          "type": "uint64"
        }
      ],
      "name": "Initialized",
      "type": "event"
    },
    {
      "anonymous": false,
      "inputs": [
        {
          "indexed": true,
          "internalType": "contract IEntryPoint",
          "name": "entryPoint",
          "type": "address"
        },
        {
          "indexed": true,
          "internalType": "address",
          "name": "owner",
          "type": "address"
        }
      ],
      "name": "SimpleAccountInitialized",
      "type": "event"
    },
    {
      "anonymous": false,
      "inputs": [
        {
          "indexed": true,
          "internalType": "address",
          "name": "implementation",
          "type": "address"
        }
      ],
      "name": "Upgraded",
      "type": "event"
    },
    {
      "inputs": [],
      "name": "UPGRADE_INTERFACE_VERSION",
      "outputs": [
        {
          "internalType": "string",
          "name": "",
          "type": "string"
        }
      ],
      "stateMutability": "view",
      "type": "function"
    },
    {
      "inputs": [],
      "name": "addDeposit",
      "outputs": [],
      "stateMutability": "payable",
      "type": "function"
    },
    {
      "inputs": [],
      "name": "entryPoint",
      "outputs": [
        {
          "internalType": "contract IEntryPoint",
          "name": "",
          "type": "address"
        }
      ],
      "stateMutability": "view",
      "type": "function"
    },
    {
      "inputs": [
        {
          "internalType": "address",
          "name": "dest",
          "type": "address"
        },
        {
          "internalType": "uint256",
          "name": "value",
          "type": "uint256"
        },
        {
          "internalType": "bytes",
          "name": "func",
          "type": "bytes"
        }
      ],
      "name": "execute",
      "outputs": [],
      "stateMutability": "nonpayable",
      "type": "function"
    },
    {
      "inputs": [
        {
          "internalType": "address[]",
          "name": "dest",
          "type": "address[]"
        },
        {
          "internalType": "uint256[]",
          "name": "value",
          "type": "uint256[]"
        },
        {
          "internalType": "bytes[]",
          "name": "func",
          "type": "bytes[]"
        }
      ],
      "name": "executeBatch",
      "outputs": [],
      "stateMutability": "nonpayable",
      "type": "function"
    },
    {
      "inputs": [
        {
          "components": [
            {
              "internalType": "address",
              "name": "sender",
              "type": "address"
            },
            {
              "internalType": "uint256",
              "name": "nonce",
              "type": "uint256"
            },
            {
              "internalType": "bytes",
              "name": "initCode",
              "type": "bytes"
            },
            {
              "internalType": "bytes",
              "name": "callData",
              "type": "bytes"
            },
            {
              "internalType": "bytes32",
              "name": "accountGasLimits",
              "type": "bytes32"
            },
            {
              "internalType": "uint256",
              "name": "preVerificationGas",
              "type": "uint256"
            },
            {
              "internalType": "uint256",
              "name": "maxFeePerGas",
              "type": "uint256"
            },
            {
              "internalType": "uint256",
              "name": "maxPriorityFeePerGas",
              "type": "uint256"
            },
            {
              "internalType": "bytes",
              "name": "paymasterAndData",
              "type": "bytes"
            },
            {
              "internalType": "bytes",
              "name": "signature",
              "type": "bytes"
            }
          ],
          "internalType": "struct PackedUserOperation",
          "name": "userOp",
          "type": "tuple"
        },
        {
          "internalType": "bytes32",
          "name": "",
          "type": "bytes32"
        }
      ],
      "name": "executeUserOp",
      "outputs": [],
      "stateMutability": "nonpayable",
      "type": "function"
    },
    {
      "inputs": [],
      "name": "getDeposit",
      "outputs": [
        {
          "internalType": "uint256",
          "name": "",
          "type": "uint256"
        }
      ],
      "stateMutability": "view",
      "type": "function"
    },
    {
      "inputs": [],
      "name": "getNonce",
      "outputs": [
        {
          "internalType": "uint256",
          "name": "",
          "type": "uint256"
        }
      ],
      "stateMutability": "view",
      "type": "function"
    },
    {
      "inputs": [
        {
          "internalType": "address",
          "name": "anOwner",
          "type": "address"
        }
      ],
      "name": "initialize",
      "outputs": [],
      "stateMutability": "nonpayable",
      "type": "function"
    },
    {
      "inputs": [
        {
          "internalType": "address",
          "name": "",
          "type": "address"
        },
        {
          "internalType": "address",
          "name": "",
          "type": "address"
        },
        {
          "internalType": "uint256[]",
          "name": "",
          "type": "uint256[]"
        },
        {
          "internalType": "uint256[]",
          "name": "",
          "type": "uint256[]"
        },
        {
          "internalType": "bytes",
          "name": "",
          "type": "bytes"
        }
      ],
      "name": "onERC1155BatchReceived",
      "outputs": [
        {
          "internalType": "bytes4",
          "name": "",
          "type": "bytes4"
        }
      ],
      "stateMutability": "pure",
      "type": "function"
    },
    {
      "inputs": [
        {
          "internalType": "address",
          "name": "",
          "type": "address"
        },
        {
          "internalType": "address",
          "name": "",
          "type": "address"
        },
        {
          "internalType": "uint256",
          "name": "",
          "type": "uint256"
        },
        {
          "internalType": "uint256",
          "name": "",
          "type": "uint256"
        },
        {
          "internalType": "bytes",
          "name": "",
          "type": "bytes"
        }
      ],
      "name": "onERC1155Received",
      "outputs": [
        {
          "internalType": "bytes4",
          "name": "",
          "type": "bytes4"
        }
      ],
      "stateMutability": "pure",
      "type": "function"
    },
    {
      "inputs": [
        {
          "internalType": "address",
          "name": "",
          "type": "address"
        },
        {
          "internalType": "address",
          "name": "",
          "type": "address"
        },
        {
          "internalType": "uint256",
          "name": "",
          "type": "uint256"
        },
        {
          "internalType": "bytes",
          "name": "",
          "type": "bytes"
        }
      ],
      "name": "onERC721Received",
      "outputs": [
        {
          "internalType": "bytes4",
          "name": "",
          "type": "bytes4"
        }
      ],
      "stateMutability": "pure",
      "type": "function"
    },
    {
      "inputs": [],
      "name": "owner",
      "outputs": [
        {
          "internalType": "address",
          "name": "",
          "type": "address"
        }
      ],
      "stateMutability": "view",
      "type": "function"
    },
    {
      "inputs": [],
      "name": "proxiableUUID",
      "outputs": [
        {
          "internalType": "bytes32",
          "name": "",
          "type": "bytes32"
        }
      ],
      "stateMutability": "view",
      "type": "function"
    },
    {
      "inputs": [
        {
          "internalType": "bytes4",
          "name": "interfaceId",
          "type": "bytes4"
        }
      ],
      "name": "supportsInterface",
      "outputs": [
        {
          "internalType": "bool",
          "name": "",
          "type": "bool"
        }
      ],
      "stateMutability": "view",
      "type": "function"
    },
    {
      "inputs": [
        {
          "internalType": "address",
          "name": "newImplementation",
          "type": "address"
        },
        {
          "internalType": "bytes",
          "name": "data",
          "type": "bytes"
        }
      ],
      "name": "upgradeToAndCall",
      "outputs": [],
      "stateMutability": "payable",
      "type": "function"
    },
    {
      "inputs": [
        {
          "components": [
            {
              "internalType": "address",
              "name": "sender",
              "type": "address"
            },
            {
              "internalType": "uint256",
              "name": "nonce",
              "type": "uint256"
            },
            {
              "internalType": "bytes",
              "name": "initCode",
              "type": "bytes"
            },
            {
              "internalType": "bytes",
              "name": "callData",
              "type": "bytes"
            },
            {
              "internalType": "bytes32",
              "name": "accountGasLimits",
              "type": "bytes32"
            },
            {
              "internalType": "uint256",
              "name": "preVerificationGas",
              "type": "uint256"
            },
            {
              "internalType": "uint256",
              "name": "maxFeePerGas",
              "type": "uint256"
            },
            {
              "internalType": "uint256",
              "name": "maxPriorityFeePerGas",
              "type": "uint256"
            },
            {
              "internalType": "bytes",
              "name": "paymasterAndData",
              "type": "bytes"
            },
            {
              "internalType": "bytes",
              "name": "signature",
              "type": "bytes"
            }
          ],
          "internalType": "struct PackedUserOperation",
          "name": "userOp",
          "type": "tuple"
        },
        {
          "internalType": "bytes32",
          "name": "userOpHash",
          "type": "bytes32"
        },
        {
          "internalType": "uint256",
          "name": "missingAccountFunds",
          "type": "uint256"
        }
      ],
      "name": "validateUserOp",
      "outputs": [
        {
          "internalType": "uint256",
          "name": "validationData",
          "type": "uint256"
        }
      ],
      "stateMutability": "nonpayable",
      "type": "function"
    },
    {
      "inputs": [
        {
          "internalType": "address payable",
          "name": "withdrawAddress",
          "type": "address"
        },
        {
          "internalType": "uint256",
          "name": "amount",
          "type": "uint256"
        }
      ],
      "name": "withdrawDepositTo",
      "outputs": [],
      "stateMutability": "nonpayable",
      "type": "function"
    },
    {
      "stateMutability": "payable",
      "type": "receive"
    }
  ],
  "bytecode": "0x60c0604052306080523480156200001557600080fd5b506040516200244c3803806200244c83398101604081905262000038916200010c565b6001600160a01b03811660a052806200005062000058565b50506200013e565b7ff0c57e16840df040f15088dc2f81fe391c3923bec73e23a9662efc9c229c6a00805468010000000000000000900460ff1615620000a95760405163f92ee8a960e01b815260040160405180910390fd5b80546001600160401b0390811614620001095780546001600160401b0319166001600160401b0390811782556040519081527fc7f505b2f371ae2175ee4913f4499e1f2633a7b5936321eed1cdaeb6115181d29060200160405180910390a15b50565b6000602082840312156200011f57600080fd5b81516001600160a01b03811681146200013757600080fd5b9392505050565b60805160a0516122a9620001a36000396000818161035b015281816108640152818161091201528181610ac001528181610cfd01528181610d44015281816111cb01526113b8015260008181610f0f01528181610f38015261115c01526122a96000f3fe60806040526004361061012d5760003560e01c80638da5cb5b116100a5578063bc197c8111610074578063c4d66de811610059578063c4d66de8146103fc578063d087d2881461041c578063f23a6e611461043157600080fd5b8063bc197c811461039f578063c399ec88146103e757600080fd5b80638da5cb5b146102a4578063ad3cb1cc146102f6578063b0d691fe1461034c578063b61d27f61461037f57600080fd5b80634a58db19116100fc5780634f1ef286116100e15780634f1ef2861461024e57806352d1902d146102615780638803e4511461028457600080fd5b80634a58db19146102265780634d44560d1461022e57600080fd5b806301ffc9a714610139578063150b7a021461016e57806318ad2e12146101e457806347e1da2a1461020657600080fd5b3661013457005b600080fd5b34801561014557600080fd5b50610159610154366004611935565b610477565b60405190151581526020015b60405180910390f35b34801561017a57600080fd5b506101b36101893660046119f2565b7f150b7a020000000000000000000000000000000000000000000000000000000095945050505050565b6040517fffffffff000000000000000000000000000000000000000000000000000000009091168152602001610165565b3480156101f057600080fd5b506102046101ff366004611a7e565b61055c565b005b34801561021257600080fd5b50610204610221366004611b08565b6106c0565b610204610862565b34801561023a57600080fd5b50610204610249366004611ba2565b610908565b61020461025c366004611ca8565b6109b7565b34801561026d57600080fd5b506102766109d6565b604051908152602001610165565b34801561029057600080fd5b5061027661029f366004611cf8565b610a05565b3480156102b057600080fd5b506000546102d19073ffffffffffffffffffffffffffffffffffffffff1681565b60405173ffffffffffffffffffffffffffffffffffffffff9091168152602001610165565b34801561030257600080fd5b5061033f6040518060400160405280600581526020017f352e302e3000000000000000000000000000000000000000000000000000000081525081565b6040516101659190611db4565b34801561035857600080fd5b507f00000000000000000000000000000000000000000000000000000000000000006102d1565b34801561038b57600080fd5b5061020461039a366004611dc7565b610a2b565b3480156103ab57600080fd5b506101b36103ba366004611e23565b7fbc197c810000000000000000000000000000000000000000000000000000000098975050505050505050565b3480156103f357600080fd5b50610276610a7a565b34801561040857600080fd5b50610204610417366004611ee2565b610b31565b34801561042857600080fd5b50610276610cb0565b34801561043d57600080fd5b506101b361044c366004611eff565b7ff23a6e61000000000000000000000000000000000000000000000000000000009695505050505050565b60007fffffffff0000000000000000000000000000000000000000000000000000000082167f150b7a0200000000000000000000000000000000000000000000000000000000148061050a57507fffffffff0000000000000000000000000000000000000000000000000000000082167f4e2312e000000000000000000000000000000000000000000000000000000000145b8061055657507fffffffff0000000000000000000000000000000000000000000000000000000082167f01ffc9a700000000000000000000000000000000000000000000000000000000145b92915050565b610564610d2c565b3660006105746060850185611f69565b610582916004908290611fce565b9092509050606081156106805760008061059e84860186611ca8565b9150915060008273ffffffffffffffffffffffffffffffffffffffff16826040516105c99190611ff8565b6000604051808303816000865af19150503d8060008114610606576040519150601f19603f3d011682016040523d82523d6000602084013e61060b565b606091505b50945090508061067c576040517f08c379a000000000000000000000000000000000000000000000000000000000815260206004820152601160248201527f696e6e65722063616c6c206661696c656400000000000000000000000000000060448201526064015b60405180910390fd5b5050505b7f2a396d78cc6f9bc35be70788c18443b7340afaa351a97516e511d92c1170490685826040516106b19291906120c1565b60405180910390a15050505050565b6106c8610d2c565b84811480156106de57508215806106de57508281145b610744576040517f08c379a000000000000000000000000000000000000000000000000000000000815260206004820152601360248201527f77726f6e67206172726179206c656e67746873000000000000000000000000006044820152606401610673565b60008390036107f05760005b858110156107ea576107e287878381811061076d5761076d6121fc565b90506020020160208101906107829190611ee2565b6000858585818110610796576107966121fc565b90506020028101906107a89190611f69565b8080601f016020809104026020016040519081016040528093929190818152602001838380828437600092019190915250610def92505050565b600101610750565b5061085a565b60005b8581101561085857610850878783818110610810576108106121fc565b90506020020160208101906108259190611ee2565b868684818110610837576108376121fc565b90506020020135858585818110610796576107966121fc565b6001016107f3565b505b505050505050565b7f00000000000000000000000000000000000000000000000000000000000000006040517fb760faf900000000000000000000000000000000000000000000000000000000815230600482015273ffffffffffffffffffffffffffffffffffffffff919091169063b760faf99034906024016000604051808303818588803b1580156108ed57600080fd5b505af1158015610901573d6000803e3d6000fd5b5050505050565b610910610e6c565b7f00000000000000000000000000000000000000000000000000000000000000006040517f205c287800000000000000000000000000000000000000000000000000000000815273ffffffffffffffffffffffffffffffffffffffff848116600483015260248201849052919091169063205c287890604401600060405180830381600087803b1580156109a357600080fd5b505af115801561085a573d6000803e3d6000fd5b6109bf610ef7565b6109c882610ffb565b6109d28282611006565b5050565b60006109e0611144565b507f360894a13ba1a3210667c828492db98dca3e2076cc3735a920a3ca505d382bbc90565b6000610a0f6111b3565b610a198484611252565b9050610a2482611303565b9392505050565b610a33610d2c565b610a74848484848080601f016020809104026020016040519081016040528093929190818152602001838380828437600092019190915250610def92505050565b50505050565b6040517f70a0823100000000000000000000000000000000000000000000000000000000815230600482015260009073ffffffffffffffffffffffffffffffffffffffff7f000000000000000000000000000000000000000000000000000000000000000016906370a08231906024015b602060405180830381865afa158015610b08573d6000803e3d6000fd5b505050506040513d601f19601f82011682018060405250810190610b2c919061222b565b905090565b7ff0c57e16840df040f15088dc2f81fe391c3923bec73e23a9662efc9c229c6a00805468010000000000000000810460ff16159067ffffffffffffffff16600081158015610b7c5750825b905060008267ffffffffffffffff166001148015610b995750303b155b905081158015610ba7575080155b15610bde576040517ff92ee8a900000000000000000000000000000000000000000000000000000000815260040160405180910390fd5b84547fffffffffffffffffffffffffffffffffffffffffffffffff00000000000000001660011785558315610c3f5784547fffffffffffffffffffffffffffffffffffffffffffffff00ffffffffffffffff16680100000000000000001785555b610c488661136e565b831561085a5784547fffffffffffffffffffffffffffffffffffffffffffffff00ffffffffffffffff168555604051600181527fc7f505b2f371ae2175ee4913f4499e1f2633a7b5936321eed1cdaeb6115181d29060200160405180910390a1505050505050565b6040517f35567e1a0000000000000000000000000000000000000000000000000000000081523060048201526000602482018190529073ffffffffffffffffffffffffffffffffffffffff7f000000000000000000000000000000000000000000000000000000000000000016906335567e1a90604401610aeb565b3373ffffffffffffffffffffffffffffffffffffffff7f0000000000000000000000000000000000000000000000000000000000000000161480610d87575060005473ffffffffffffffffffffffffffffffffffffffff1633145b610ded576040517f08c379a000000000000000000000000000000000000000000000000000000000815260206004820181905260248201527f6163636f756e743a206e6f74204f776e6572206f7220456e747279506f696e746044820152606401610673565b565b6000808473ffffffffffffffffffffffffffffffffffffffff168484604051610e189190611ff8565b60006040518083038185875af1925050503d8060008114610e55576040519150601f19603f3d011682016040523d82523d6000602084013e610e5a565b606091505b50915091508161090157805160208201fd5b60005473ffffffffffffffffffffffffffffffffffffffff16331480610e9157503330145b610ded576040517f08c379a000000000000000000000000000000000000000000000000000000000815260206004820152600a60248201527f6f6e6c79206f776e6572000000000000000000000000000000000000000000006044820152606401610673565b3073ffffffffffffffffffffffffffffffffffffffff7f0000000000000000000000000000000000000000000000000000000000000000161480610fc457507f000000000000000000000000000000000000000000000000000000000000000073ffffffffffffffffffffffffffffffffffffffff16610fab7f360894a13ba1a3210667c828492db98dca3e2076cc3735a920a3ca505d382bbc5473ffffffffffffffffffffffffffffffffffffffff1690565b73ffffffffffffffffffffffffffffffffffffffff1614155b15610ded576040517fe07c8dba00000000000000000000000000000000000000000000000000000000815260040160405180910390fd5b611003610e6c565b50565b8173ffffffffffffffffffffffffffffffffffffffff166352d1902d6040518163ffffffff1660e01b8152600401602060405180830381865afa92505050801561108b575060408051601f3d9081017fffffffffffffffffffffffffffffffffffffffffffffffffffffffffffffffe01682019092526110889181019061222b565b60015b6110d9576040517f4c9c8ce300000000000000000000000000000000000000000000000000000000815273ffffffffffffffffffffffffffffffffffffffff83166004820152602401610673565b7f360894a13ba1a3210667c828492db98dca3e2076cc3735a920a3ca505d382bbc8114611135576040517faa1d49a400000000000000000000000000000000000000000000000000000000815260048101829052602401610673565b61113f8383611402565b505050565b3073ffffffffffffffffffffffffffffffffffffffff7f00000000000000000000000000000000000000000000000000000000000000001614610ded576040517fe07c8dba00000000000000000000000000000000000000000000000000000000815260040160405180910390fd5b3373ffffffffffffffffffffffffffffffffffffffff7f00000000000000000000000000000000000000000000000000000000000000001614610ded576040517f08c379a000000000000000000000000000000000000000000000000000000000815260206004820152601c60248201527f6163636f756e743a206e6f742066726f6d20456e747279506f696e74000000006044820152606401610673565b7f19457468657265756d205369676e6564204d6573736167653a0a3332000000006000908152601c829052603c81206112cd81611293610120870187611f69565b8080601f01602080910402602001604051908101604052809392919081815260200183838082843760009201919091525061146592505050565b60005473ffffffffffffffffffffffffffffffffffffffff9081169116146112f9576001915050610556565b5060009392505050565b80156110035760405160009033907fffffffffffffffffffffffffffffffffffffffffffffffffffffffffffffffff90849084818181858888f193505050503d8060008114610901576040519150601f19603f3d011682016040523d82523d6000602084013e610901565b600080547fffffffffffffffffffffffff00000000000000000000000000000000000000001673ffffffffffffffffffffffffffffffffffffffff838116918217835560405191927f0000000000000000000000000000000000000000000000000000000000000000909116917f47e55c76e7a6f1fd8996a1da8008c1ea29699cca35e7bcd057f2dec313b6e5de9190a350565b61140b8261148f565b60405173ffffffffffffffffffffffffffffffffffffffff8316907fbc7cd75a20ee27fd9adebab32041f755214dbc6bffa90cc0225b39da2e5c2d3b90600090a280511561145d5761113f828261155e565b6109d26115e1565b6000806000806114758686611619565b9250925092506114858282611666565b5090949350505050565b8073ffffffffffffffffffffffffffffffffffffffff163b6000036114f8576040517f4c9c8ce300000000000000000000000000000000000000000000000000000000815273ffffffffffffffffffffffffffffffffffffffff82166004820152602401610673565b7f360894a13ba1a3210667c828492db98dca3e2076cc3735a920a3ca505d382bbc80547fffffffffffffffffffffffff00000000000000000000000000000000000000001673ffffffffffffffffffffffffffffffffffffffff92909216919091179055565b60606000808473ffffffffffffffffffffffffffffffffffffffff16846040516115889190611ff8565b600060405180830381855af49150503d80600081146115c3576040519150601f19603f3d011682016040523d82523d6000602084013e6115c8565b606091505b50915091506115d885838361176a565b95945050505050565b3415610ded576040517fb398979f00000000000000000000000000000000000000000000000000000000815260040160405180910390fd5b600080600083516041036116535760208401516040850151606086015160001a611645888285856117f9565b95509550955050505061165f565b50508151600091506002905b9250925092565b600082600381111561167a5761167a612244565b03611683575050565b600182600381111561169757611697612244565b036116ce576040517ff645eedf00000000000000000000000000000000000000000000000000000000815260040160405180910390fd5b60028260038111156116e2576116e2612244565b0361171c576040517ffce698f700000000000000000000000000000000000000000000000000000000815260048101829052602401610673565b600382600381111561173057611730612244565b036109d2576040517fd78bce0c00000000000000000000000000000000000000000000000000000000815260048101829052602401610673565b60608261177f5761177a826118f3565b610a24565b81511580156117a3575073ffffffffffffffffffffffffffffffffffffffff84163b155b156117f2576040517f9996b31500000000000000000000000000000000000000000000000000000000815273ffffffffffffffffffffffffffffffffffffffff85166004820152602401610673565b5080610a24565b600080807f7fffffffffffffffffffffffffffffff5d576e7357a4501ddfe92f46681b20a084111561183457506000915060039050826118e9565b604080516000808252602082018084528a905260ff891692820192909252606081018790526080810186905260019060a0016020604051602081039080840390855afa158015611888573d6000803e3d6000fd5b50506040517fffffffffffffffffffffffffffffffffffffffffffffffffffffffffffffffe0015191505073ffffffffffffffffffffffffffffffffffffffff81166118df575060009250600191508290506118e9565b9250600091508190505b9450945094915050565b8051156119035780518082602001fd5b6040517f1425ea4200000000000000000000000000000000000000000000000000000000815260040160405180910390fd5b60006020828403121561194757600080fd5b81357fffffffff0000000000000000000000000000000000000000000000000000000081168114610a2457600080fd5b73ffffffffffffffffffffffffffffffffffffffff8116811461100357600080fd5b80356119a481611977565b919050565b60008083601f8401126119bb57600080fd5b50813567ffffffffffffffff8111156119d357600080fd5b6020830191508360208285010111156119eb57600080fd5b9250929050565b600080600080600060808688031215611a0a57600080fd5b8535611a1581611977565b94506020860135611a2581611977565b935060408601359250606086013567ffffffffffffffff811115611a4857600080fd5b611a54888289016119a9565b969995985093965092949392505050565b60006101408284031215611a7857600080fd5b50919050565b60008060408385031215611a9157600080fd5b823567ffffffffffffffff811115611aa857600080fd5b611ab485828601611a65565b95602094909401359450505050565b60008083601f840112611ad557600080fd5b50813567ffffffffffffffff811115611aed57600080fd5b6020830191508360208260051b85010111156119eb57600080fd5b60008060008060008060608789031215611b2157600080fd5b863567ffffffffffffffff80821115611b3957600080fd5b611b458a838b01611ac3565b90985096506020890135915080821115611b5e57600080fd5b611b6a8a838b01611ac3565b90965094506040890135915080821115611b8357600080fd5b50611b9089828a01611ac3565b979a9699509497509295939492505050565b60008060408385031215611bb557600080fd5b8235611bc081611977565b946020939093013593505050565b7f4e487b7100000000000000000000000000000000000000000000000000000000600052604160045260246000fd5b600082601f830112611c0e57600080fd5b813567ffffffffffffffff80821115611c2957611c29611bce565b604051601f83017fffffffffffffffffffffffffffffffffffffffffffffffffffffffffffffffe0908116603f01168101908282118183101715611c6f57611c6f611bce565b81604052838152866020858801011115611c8857600080fd5b836020870160208301376000602085830101528094505050505092915050565b60008060408385031215611cbb57600080fd5b8235611cc681611977565b9150602083013567ffffffffffffffff811115611ce257600080fd5b611cee85828601611bfd565b9150509250929050565b600080600060608486031215611d0d57600080fd5b833567ffffffffffffffff811115611d2457600080fd5b611d3086828701611a65565b9660208601359650604090950135949350505050565b60005b83811015611d61578181015183820152602001611d49565b50506000910152565b60008151808452611d82816020860160208601611d46565b601f017fffffffffffffffffffffffffffffffffffffffffffffffffffffffffffffffe0169290920160200192915050565b602081526000610a246020830184611d6a565b60008060008060608587031215611ddd57600080fd5b8435611de881611977565b935060208501359250604085013567ffffffffffffffff811115611e0b57600080fd5b611e17878288016119a9565b95989497509550505050565b60008060008060008060008060a0898b031215611e3f57600080fd5b8835611e4a81611977565b97506020890135611e5a81611977565b9650604089013567ffffffffffffffff80821115611e7757600080fd5b611e838c838d01611ac3565b909850965060608b0135915080821115611e9c57600080fd5b611ea88c838d01611ac3565b909650945060808b0135915080821115611ec157600080fd5b50611ece8b828c016119a9565b999c989b5096995094979396929594505050565b600060208284031215611ef457600080fd5b8135610a2481611977565b60008060008060008060a08789031215611f1857600080fd5b8635611f2381611977565b95506020870135611f3381611977565b94506040870135935060608701359250608087013567ffffffffffffffff811115611f5d57600080fd5b611b9089828a016119a9565b60008083357fffffffffffffffffffffffffffffffffffffffffffffffffffffffffffffffe1843603018112611f9e57600080fd5b83018035915067ffffffffffffffff821115611fb957600080fd5b6020019150368190038213156119eb57600080fd5b60008085851115611fde57600080fd5b83861115611feb57600080fd5b5050820193919092039150565b6000825161200a818460208701611d46565b9190910192915050565b60008083357fffffffffffffffffffffffffffffffffffffffffffffffffffffffffffffffe184360301811261204957600080fd5b830160208101925035905067ffffffffffffffff81111561206957600080fd5b8036038213156119eb57600080fd5b8183528181602085013750600060208284010152600060207fffffffffffffffffffffffffffffffffffffffffffffffffffffffffffffffe0601f840116840101905092915050565b604081526120ef604082016120d585611999565b73ffffffffffffffffffffffffffffffffffffffff169052565b6020830135606082015260006121086040850185612014565b61014080608086015261212061018086018385612078565b925061212f6060880188612014565b92507fffffffffffffffffffffffffffffffffffffffffffffffffffffffffffffffc0808786030160a0880152612167858584612078565b9450608089013560c088015260a089013560e0880152610100935060c089013584880152610120915060e0890135828801526121a5848a018a612014565b94508188870301848901526121bb868683612078565b9550506121ca828a018a612014565b94509250808786030161016088015250506121e6838383612078565b9250505082810360208401526115d88185611d6a565b7f4e487b7100000000000000000000000000000000000000000000000000000000600052603260045260246000fd5b60006020828403121561223d57600080fd5b5051919050565b7f4e487b7100000000000000000000000000000000000000000000000000000000600052602160045260246000fdfea2646970667358221220f6e482171b845082e178a91e8d133caaf990571c9fbe947122203667c5d9dcce64736f6c63430008170033",
  "linkReferences": {},
  "deployedLinkReferences": {}
}