{
  "_format": "hh-sol-artifact-1",
  "contractName": "TestUtil",
  "sourceName": "contracts/test/TestUtil.sol",
  "abi": [
    {
      "inputs": [
        {
          "components": [
            {
              "internalType": "address",
              "name": "sender",
              "type": "address"
            },
            {
              "internalType": "uint256",
              "name": "nonce",
              "type": "uint256"
            },
            {
              "internalType": "bytes",
              "name": "initCode",
              "type": "bytes"
            },
            {
              "internalType": "bytes",
              "name": "callData",
              "type": "bytes"
            },
            {
              "internalType": "bytes32",
              "name": "accountGasLimits",
              "type": "bytes32"
            },
            {
              "internalType": "uint256",
              "name": "preVerificationGas",
              "type": "uint256"
            },
            {
              "internalType": "uint256",
              "name": "maxFeePerGas",
              "type": "uint256"
            },
            {
              "internalType": "uint256",
              "name": "maxPriorityFeePerGas",
              "type": "uint256"
            },
            {
              "internalType": "bytes",
              "name": "paymasterAndData",
              "type": "bytes"
            },
            {
              "internalType": "bytes",
              "name": "signature",
              "type": "bytes"
            }
          ],
          "internalType": "struct PackedUserOperation",
          "name": "op",
          "type": "tuple"
        }
      ],
      "name": "encodeUserOp",
      "outputs": [
        {
          "internalType": "bytes",
          "name": "",
          "type": "bytes"
        }
      ],
      "stateMutability": "pure",
      "type": "function"
    }
  ],
  "bytecode": "0x608060405234801561001057600080fd5b506102a0806100206000396000f3fe608060405234801561001057600080fd5b506004361061002b5760003560e01c8063e218d48314610030575b600080fd5b61004361003e36600461014e565b610059565b6040516100509190610191565b60405180910390f35b60606100648261006a565b92915050565b606081356020830135600061008a61008560408701876101fe565b61013b565b9050600061009e61008560608801886101fe565b9050608086013560a087013560c088013560e089013560006100c76100856101008d018d6101fe565b6040805173ffffffffffffffffffffffffffffffffffffffff9b909b1660208c01528a81019990995260608a019790975250608088019490945260a087019290925260c086015260e08501526101008401526101208084019190915281518084039091018152610140909201905292915050565b6000604051828085833790209392505050565b60006020828403121561016057600080fd5b813567ffffffffffffffff81111561017757600080fd5b8201610140818503121561018a57600080fd5b9392505050565b60006020808352835180602085015260005b818110156101bf578581018301518582016040015282016101a3565b5060006040828601015260407fffffffffffffffffffffffffffffffffffffffffffffffffffffffffffffffe0601f8301168501019250505092915050565b60008083357fffffffffffffffffffffffffffffffffffffffffffffffffffffffffffffffe184360301811261023357600080fd5b83018035915067ffffffffffffffff82111561024e57600080fd5b60200191503681900382131561026357600080fd5b925092905056fea26469706673582212209b4f5568d64b5abdc7b5d5d48a69ba1961fbaa178c303544f310879bfe4728ec64736f6c63430008170033",
  "linkReferences": {},
  "deployedLinkReferences": {}
}