{
  "_format": "hh-sol-artifact-1",
  "contractName": "EntryPointSimulations",
  "sourceName": "contracts/core/EntryPointSimulations.sol",
  "abi": [
    {
      "inputs": [],
      "stateMutability": "nonpayable",
      "type": "constructor"
    },
    {
      "inputs": [
        {
          "internalType": "bool",
          "name": "success",
          "type": "bool"
        },
        {
          "internalType": "bytes",
          "name": "ret",
          "type": "bytes"
        }
      ],
      "name": "DelegateAndRevert",
      "type": "error"
    },
    {
      "inputs": [
        {
          "internalType": "uint256",
          "name": "opIndex",
          "type": "uint256"
        },
        {
          "internalType": "string",
          "name": "reason",
          "type": "string"
        }
      ],
      "name": "FailedOp",
      "type": "error"
    },
    {
      "inputs": [
        {
          "internalType": "uint256",
          "name": "opIndex",
          "type": "uint256"
        },
        {
          "internalType": "string",
          "name": "reason",
          "type": "string"
        },
        {
          "internalType": "bytes",
          "name": "inner",
          "type": "bytes"
        }
      ],
      "name": "FailedOpWithRevert",
      "type": "error"
    },
    {
      "inputs": [
        {
          "internalType": "bytes",
          "name": "returnData",
          "type": "bytes"
        }
      ],
      "name": "PostOpReverted",
      "type": "error"
    },
    {
      "inputs": [],
      "name": "ReentrancyGuardReentrantCall",
      "type": "error"
    },
    {
      "inputs": [
        {
          "internalType": "address",
          "name": "sender",
          "type": "address"
        }
      ],
      "name": "SenderAddressResult",
      "type": "error"
    },
    {
      "inputs": [
        {
          "internalType": "address",
          "name": "aggregator",
          "type": "address"
        }
      ],
      "name": "SignatureValidationFailed",
      "type": "error"
    },
    {
      "anonymous": false,
      "inputs": [
        {
          "indexed": true,
          "internalType": "bytes32",
          "name": "userOpHash",
          "type": "bytes32"
        },
        {
          "indexed": true,
          "internalType": "address",
          "name": "sender",
          "type": "address"
        },
        {
          "indexed": false,
          "internalType": "address",
          "name": "factory",
          "type": "address"
        },
        {
          "indexed": false,
          "internalType": "address",
          "name": "paymaster",
          "type": "address"
        }
      ],
      "name": "AccountDeployed",
      "type": "event"
    },
    {
      "anonymous": false,
      "inputs": [],
      "name": "BeforeExecution",
      "type": "event"
    },
    {
      "anonymous": false,
      "inputs": [
        {
          "indexed": true,
          "internalType": "address",
          "name": "account",
          "type": "address"
        },
        {
          "indexed": false,
          "internalType": "uint256",
          "name": "totalDeposit",
          "type": "uint256"
        }
      ],
      "name": "Deposited",
      "type": "event"
    },
    {
      "anonymous": false,
      "inputs": [
        {
          "indexed": true,
          "internalType": "bytes32",
          "name": "userOpHash",
          "type": "bytes32"
        },
        {
          "indexed": true,
          "internalType": "address",
          "name": "sender",
          "type": "address"
        },
        {
          "indexed": false,
          "internalType": "uint256",
          "name": "nonce",
          "type": "uint256"
        },
        {
          "indexed": false,
          "internalType": "bytes",
          "name": "revertReason",
          "type": "bytes"
        }
      ],
      "name": "PostOpRevertReason",
      "type": "event"
    },
    {
      "anonymous": false,
      "inputs": [
        {
          "indexed": true,
          "internalType": "address",
          "name": "aggregator",
          "type": "address"
        }
      ],
      "name": "SignatureAggregatorChanged",
      "type": "event"
    },
    {
      "anonymous": false,
      "inputs": [
        {
          "indexed": true,
          "internalType": "address",
          "name": "account",
          "type": "address"
        },
        {
          "indexed": false,
          "internalType": "uint256",
          "name": "totalStaked",
          "type": "uint256"
        },
        {
          "indexed": false,
          "internalType": "uint256",
          "name": "unstakeDelaySec",
          "type": "uint256"
        }
      ],
      "name": "StakeLocked",
      "type": "event"
    },
    {
      "anonymous": false,
      "inputs": [
        {
          "indexed": true,
          "internalType": "address",
          "name": "account",
          "type": "address"
        },
        {
          "indexed": false,
          "internalType": "uint256",
          "name": "withdrawTime",
          "type": "uint256"
        }
      ],
      "name": "StakeUnlocked",
      "type": "event"
    },
    {
      "anonymous": false,
      "inputs": [
        {
          "indexed": true,
          "internalType": "address",
          "name": "account",
          "type": "address"
        },
        {
          "indexed": false,
          "internalType": "address",
          "name": "withdrawAddress",
          "type": "address"
        },
        {
          "indexed": false,
          "internalType": "uint256",
          "name": "amount",
          "type": "uint256"
        }
      ],
      "name": "StakeWithdrawn",
      "type": "event"
    },
    {
      "anonymous": false,
      "inputs": [
        {
          "indexed": true,
          "internalType": "bytes32",
          "name": "userOpHash",
          "type": "bytes32"
        },
        {
          "indexed": true,
          "internalType": "address",
          "name": "sender",
          "type": "address"
        },
        {
          "indexed": true,
          "internalType": "address",
          "name": "paymaster",
          "type": "address"
        },
        {
          "indexed": false,
          "internalType": "uint256",
          "name": "nonce",
          "type": "uint256"
        },
        {
          "indexed": false,
          "internalType": "bool",
          "name": "success",
          "type": "bool"
        },
        {
          "indexed": false,
          "internalType": "uint256",
          "name": "actualGasCost",
          "type": "uint256"
        },
        {
          "indexed": false,
          "internalType": "uint256",
          "name": "actualGasUsed",
          "type": "uint256"
        }
      ],
      "name": "UserOperationEvent",
      "type": "event"
    },
    {
      "anonymous": false,
      "inputs": [
        {
          "indexed": true,
          "internalType": "bytes32",
          "name": "userOpHash",
          "type": "bytes32"
        },
        {
          "indexed": true,
          "internalType": "address",
          "name": "sender",
          "type": "address"
        },
        {
          "indexed": false,
          "internalType": "uint256",
          "name": "nonce",
          "type": "uint256"
        },
        {
          "indexed": false,
          "internalType": "bytes",
          "name": "revertReason",
          "type": "bytes"
        }
      ],
      "name": "UserOperationRevertReason",
      "type": "event"
    },
    {
      "anonymous": false,
      "inputs": [
        {
          "indexed": true,
          "internalType": "address",
          "name": "account",
          "type": "address"
        },
        {
          "indexed": false,
          "internalType": "address",
          "name": "withdrawAddress",
          "type": "address"
        },
        {
          "indexed": false,
          "internalType": "uint256",
          "name": "amount",
          "type": "uint256"
        }
      ],
      "name": "Withdrawn",
      "type": "event"
    },
    {
      "inputs": [],
      "name": "SIG_VALIDATION_FAILED",
      "outputs": [
        {
          "internalType": "uint256",
          "name": "",
          "type": "uint256"
        }
      ],
      "stateMutability": "view",
      "type": "function"
    },
    {
      "inputs": [
        {
          "internalType": "bytes",
          "name": "initCode",
          "type": "bytes"
        },
        {
          "internalType": "address",
          "name": "sender",
          "type": "address"
        },
        {
          "internalType": "bytes",
          "name": "paymasterAndData",
          "type": "bytes"
        }
      ],
      "name": "_validateSenderAndPaymaster",
      "outputs": [],
      "stateMutability": "view",
      "type": "function"
    },
    {
      "inputs": [
        {
          "internalType": "uint32",
          "name": "unstakeDelaySec",
          "type": "uint32"
        }
      ],
      "name": "addStake",
      "outputs": [],
      "stateMutability": "payable",
      "type": "function"
    },
    {
      "inputs": [
        {
          "internalType": "address",
          "name": "account",
          "type": "address"
        }
      ],
      "name": "balanceOf",
      "outputs": [
        {
          "internalType": "uint256",
          "name": "",
          "type": "uint256"
        }
      ],
      "stateMutability": "view",
      "type": "function"
    },
    {
      "inputs": [
        {
          "internalType": "address",
          "name": "target",
          "type": "address"
        },
        {
          "internalType": "bytes",
          "name": "data",
          "type": "bytes"
        }
      ],
      "name": "delegateAndRevert",
      "outputs": [],
      "stateMutability": "nonpayable",
      "type": "function"
    },
    {
      "inputs": [
        {
          "internalType": "address",
          "name": "account",
          "type": "address"
        }
      ],
      "name": "depositTo",
      "outputs": [],
      "stateMutability": "payable",
      "type": "function"
    },
    {
      "inputs": [
        {
          "internalType": "address",
          "name": "",
          "type": "address"
        }
      ],
      "name": "deposits",
      "outputs": [
        {
          "internalType": "uint256",
          "name": "deposit",
          "type": "uint256"
        },
        {
          "internalType": "bool",
          "name": "staked",
          "type": "bool"
        },
        {
          "internalType": "uint112",
          "name": "stake",
          "type": "uint112"
        },
        {
          "internalType": "uint32",
          "name": "unstakeDelaySec",
          "type": "uint32"
        },
        {
          "internalType": "uint48",
          "name": "withdrawTime",
          "type": "uint48"
        }
      ],
      "stateMutability": "view",
      "type": "function"
    },
    {
      "inputs": [
        {
          "internalType": "address",
          "name": "account",
          "type": "address"
        }
      ],
      "name": "getDepositInfo",
      "outputs": [
        {
          "components": [
            {
              "internalType": "uint256",
              "name": "deposit",
              "type": "uint256"
            },
            {
              "internalType": "bool",
              "name": "staked",
              "type": "bool"
            },
            {
              "internalType": "uint112",
              "name": "stake",
              "type": "uint112"
            },
            {
              "internalType": "uint32",
              "name": "unstakeDelaySec",
              "type": "uint32"
            },
            {
              "internalType": "uint48",
              "name": "withdrawTime",
              "type": "uint48"
            }
          ],
          "internalType": "struct IStakeManager.DepositInfo",
          "name": "info",
          "type": "tuple"
        }
      ],
      "stateMutability": "view",
      "type": "function"
    },
    {
      "inputs": [
        {
          "internalType": "address",
          "name": "sender",
          "type": "address"
        },
        {
          "internalType": "uint192",
          "name": "key",
          "type": "uint192"
        }
      ],
      "name": "getNonce",
      "outputs": [
        {
          "internalType": "uint256",
          "name": "nonce",
          "type": "uint256"
        }
      ],
      "stateMutability": "view",
      "type": "function"
    },
    {
      "inputs": [
        {
          "internalType": "bytes",
          "name": "initCode",
          "type": "bytes"
        }
      ],
      "name": "getSenderAddress",
      "outputs": [],
      "stateMutability": "nonpayable",
      "type": "function"
    },
    {
      "inputs": [
        {
          "components": [
            {
              "internalType": "address",
              "name": "sender",
              "type": "address"
            },
            {
              "internalType": "uint256",
              "name": "nonce",
              "type": "uint256"
            },
            {
              "internalType": "bytes",
              "name": "initCode",
              "type": "bytes"
            },
            {
              "internalType": "bytes",
              "name": "callData",
              "type": "bytes"
            },
            {
              "internalType": "bytes32",
              "name": "accountGasLimits",
              "type": "bytes32"
            },
            {
              "internalType": "uint256",
              "name": "preVerificationGas",
              "type": "uint256"
            },
            {
              "internalType": "uint256",
              "name": "maxFeePerGas",
              "type": "uint256"
            },
            {
              "internalType": "uint256",
              "name": "maxPriorityFeePerGas",
              "type": "uint256"
            },
            {
              "internalType": "bytes",
              "name": "paymasterAndData",
              "type": "bytes"
            },
            {
              "internalType": "bytes",
              "name": "signature",
              "type": "bytes"
            }
          ],
          "internalType": "struct PackedUserOperation",
          "name": "userOp",
          "type": "tuple"
        }
      ],
      "name": "getUserOpHash",
      "outputs": [
        {
          "internalType": "bytes32",
          "name": "",
          "type": "bytes32"
        }
      ],
      "stateMutability": "view",
      "type": "function"
    },
    {
      "inputs": [
        {
          "components": [
            {
              "components": [
                {
                  "internalType": "address",
                  "name": "sender",
                  "type": "address"
                },
                {
                  "internalType": "uint256",
                  "name": "nonce",
                  "type": "uint256"
                },
                {
                  "internalType": "bytes",
                  "name": "initCode",
                  "type": "bytes"
                },
                {
                  "internalType": "bytes",
                  "name": "callData",
                  "type": "bytes"
                },
                {
                  "internalType": "bytes32",
                  "name": "accountGasLimits",
                  "type": "bytes32"
                },
                {
                  "internalType": "uint256",
                  "name": "preVerificationGas",
                  "type": "uint256"
                },
                {
                  "internalType": "uint256",
                  "name": "maxFeePerGas",
                  "type": "uint256"
                },
                {
                  "internalType": "uint256",
                  "name": "maxPriorityFeePerGas",
                  "type": "uint256"
                },
                {
                  "internalType": "bytes",
                  "name": "paymasterAndData",
                  "type": "bytes"
                },
                {
                  "internalType": "bytes",
                  "name": "signature",
                  "type": "bytes"
                }
              ],
              "internalType": "struct PackedUserOperation[]",
              "name": "userOps",
              "type": "tuple[]"
            },
            {
              "internalType": "contract IAggregator",
              "name": "aggregator",
              "type": "address"
            },
            {
              "internalType": "bytes",
              "name": "signature",
              "type": "bytes"
            }
          ],
          "internalType": "struct IEntryPoint.UserOpsPerAggregator[]",
          "name": "opsPerAggregator",
          "type": "tuple[]"
        },
        {
          "internalType": "address payable",
          "name": "beneficiary",
          "type": "address"
        }
      ],
      "name": "handleAggregatedOps",
      "outputs": [],
      "stateMutability": "nonpayable",
      "type": "function"
    },
    {
      "inputs": [
        {
          "components": [
            {
              "internalType": "address",
              "name": "sender",
              "type": "address"
            },
            {
              "internalType": "uint256",
              "name": "nonce",
              "type": "uint256"
            },
            {
              "internalType": "bytes",
              "name": "initCode",
              "type": "bytes"
            },
            {
              "internalType": "bytes",
              "name": "callData",
              "type": "bytes"
            },
            {
              "internalType": "bytes32",
              "name": "accountGasLimits",
              "type": "bytes32"
            },
            {
              "internalType": "uint256",
              "name": "preVerificationGas",
              "type": "uint256"
            },
            {
              "internalType": "uint256",
              "name": "maxFeePerGas",
              "type": "uint256"
            },
            {
              "internalType": "uint256",
              "name": "maxPriorityFeePerGas",
              "type": "uint256"
            },
            {
              "internalType": "bytes",
              "name": "paymasterAndData",
              "type": "bytes"
            },
            {
              "internalType": "bytes",
              "name": "signature",
              "type": "bytes"
            }
          ],
          "internalType": "struct PackedUserOperation[]",
          "name": "ops",
          "type": "tuple[]"
        },
        {
          "internalType": "address payable",
          "name": "beneficiary",
          "type": "address"
        }
      ],
      "name": "handleOps",
      "outputs": [],
      "stateMutability": "nonpayable",
      "type": "function"
    },
    {
      "inputs": [
        {
          "internalType": "uint192",
          "name": "key",
          "type": "uint192"
        }
      ],
      "name": "incrementNonce",
      "outputs": [],
      "stateMutability": "nonpayable",
      "type": "function"
    },
    {
      "inputs": [
        {
          "internalType": "bytes",
          "name": "callData",
          "type": "bytes"
        },
        {
          "components": [
            {
              "components": [
                {
                  "internalType": "address",
                  "name": "sender",
                  "type": "address"
                },
                {
                  "internalType": "uint256",
                  "name": "nonce",
                  "type": "uint256"
                },
                {
                  "internalType": "uint256",
                  "name": "verificationGasLimit",
                  "type": "uint256"
                },
                {
                  "internalType": "uint256",
                  "name": "callGasLimit",
                  "type": "uint256"
                },
                {
                  "internalType": "uint256",
                  "name": "paymasterVerificationGasLimit",
                  "type": "uint256"
                },
                {
                  "internalType": "uint256",
                  "name": "paymasterPostOpGasLimit",
                  "type": "uint256"
                },
                {
                  "internalType": "uint256",
                  "name": "preVerificationGas",
                  "type": "uint256"
                },
                {
                  "internalType": "address",
                  "name": "paymaster",
                  "type": "address"
                },
                {
                  "internalType": "uint256",
                  "name": "maxFeePerGas",
                  "type": "uint256"
                },
                {
                  "internalType": "uint256",
                  "name": "maxPriorityFeePerGas",
                  "type": "uint256"
                }
              ],
              "internalType": "struct EntryPoint.MemoryUserOp",
              "name": "mUserOp",
              "type": "tuple"
            },
            {
              "internalType": "bytes32",
              "name": "userOpHash",
              "type": "bytes32"
            },
            {
              "internalType": "uint256",
              "name": "prefund",
              "type": "uint256"
            },
            {
              "internalType": "uint256",
              "name": "contextOffset",
              "type": "uint256"
            },
            {
              "internalType": "uint256",
              "name": "preOpGas",
              "type": "uint256"
            }
          ],
          "internalType": "struct EntryPoint.UserOpInfo",
          "name": "opInfo",
          "type": "tuple"
        },
        {
          "internalType": "bytes",
          "name": "context",
          "type": "bytes"
        }
      ],
      "name": "innerHandleOp",
      "outputs": [
        {
          "internalType": "uint256",
          "name": "actualGasCost",
          "type": "uint256"
        }
      ],
      "stateMutability": "nonpayable",
      "type": "function"
    },
    {
      "inputs": [
        {
          "internalType": "address",
          "name": "",
          "type": "address"
        },
        {
          "internalType": "uint192",
          "name": "",
          "type": "uint192"
        }
      ],
      "name": "nonceSequenceNumber",
      "outputs": [
        {
          "internalType": "uint256",
          "name": "",
          "type": "uint256"
        }
      ],
      "stateMutability": "view",
      "type": "function"
    },
    {
      "inputs": [
        {
          "components": [
            {
              "internalType": "address",
              "name": "sender",
              "type": "address"
            },
            {
              "internalType": "uint256",
              "name": "nonce",
              "type": "uint256"
            },
            {
              "internalType": "bytes",
              "name": "initCode",
              "type": "bytes"
            },
            {
              "internalType": "bytes",
              "name": "callData",
              "type": "bytes"
            },
            {
              "internalType": "bytes32",
              "name": "accountGasLimits",
              "type": "bytes32"
            },
            {
              "internalType": "uint256",
              "name": "preVerificationGas",
              "type": "uint256"
            },
            {
              "internalType": "uint256",
              "name": "maxFeePerGas",
              "type": "uint256"
            },
            {
              "internalType": "uint256",
              "name": "maxPriorityFeePerGas",
              "type": "uint256"
            },
            {
              "internalType": "bytes",
              "name": "paymasterAndData",
              "type": "bytes"
            },
            {
              "internalType": "bytes",
              "name": "signature",
              "type": "bytes"
            }
          ],
          "internalType": "struct PackedUserOperation",
          "name": "op",
          "type": "tuple"
        },
        {
          "internalType": "address",
          "name": "target",
          "type": "address"
        },
        {
          "internalType": "bytes",
          "name": "targetCallData",
          "type": "bytes"
        }
      ],
      "name": "simulateHandleOp",
      "outputs": [
        {
          "components": [
            {
              "internalType": "uint256",
              "name": "preOpGas",
              "type": "uint256"
            },
            {
              "internalType": "uint256",
              "name": "paid",
              "type": "uint256"
            },
            {
              "internalType": "uint48",
              "name": "validAfter",
              "type": "uint48"
            },
            {
              "internalType": "uint48",
              "name": "validUntil",
              "type": "uint48"
            },
            {
              "internalType": "bool",
              "name": "targetSuccess",
              "type": "bool"
            },
            {
              "internalType": "bytes",
              "name": "targetResult",
              "type": "bytes"
            }
          ],
          "internalType": "struct IEntryPointSimulations.ExecutionResult",
          "name": "",
          "type": "tuple"
        }
      ],
      "stateMutability": "nonpayable",
      "type": "function"
    },
    {
      "inputs": [
        {
          "components": [
            {
              "internalType": "address",
              "name": "sender",
              "type": "address"
            },
            {
              "internalType": "uint256",
              "name": "nonce",
              "type": "uint256"
            },
            {
              "internalType": "bytes",
              "name": "initCode",
              "type": "bytes"
            },
            {
              "internalType": "bytes",
              "name": "callData",
              "type": "bytes"
            },
            {
              "internalType": "bytes32",
              "name": "accountGasLimits",
              "type": "bytes32"
            },
            {
              "internalType": "uint256",
              "name": "preVerificationGas",
              "type": "uint256"
            },
            {
              "internalType": "uint256",
              "name": "maxFeePerGas",
              "type": "uint256"
            },
            {
              "internalType": "uint256",
              "name": "maxPriorityFeePerGas",
              "type": "uint256"
            },
            {
              "internalType": "bytes",
              "name": "paymasterAndData",
              "type": "bytes"
            },
            {
              "internalType": "bytes",
              "name": "signature",
              "type": "bytes"
            }
          ],
          "internalType": "struct PackedUserOperation",
          "name": "userOp",
          "type": "tuple"
        }
      ],
      "name": "simulateValidation",
      "outputs": [
        {
          "components": [
            {
              "components": [
                {
                  "internalType": "uint256",
                  "name": "preOpGas",
                  "type": "uint256"
                },
                {
                  "internalType": "uint256",
                  "name": "prefund",
                  "type": "uint256"
                },
                {
                  "internalType": "bool",
                  "name": "sigFailed",
                  "type": "bool"
                },
                {
                  "internalType": "uint48",
                  "name": "validAfter",
                  "type": "uint48"
                },
                {
                  "internalType": "uint48",
                  "name": "validUntil",
                  "type": "uint48"
                },
                {
                  "internalType": "bytes",
                  "name": "paymasterContext",
                  "type": "bytes"
                }
              ],
              "internalType": "struct IEntryPoint.ReturnInfo",
              "name": "returnInfo",
              "type": "tuple"
            },
            {
              "components": [
                {
                  "internalType": "uint256",
                  "name": "stake",
                  "type": "uint256"
                },
                {
                  "internalType": "uint256",
                  "name": "unstakeDelaySec",
                  "type": "uint256"
                }
              ],
              "internalType": "struct IStakeManager.StakeInfo",
              "name": "senderInfo",
              "type": "tuple"
            },
            {
              "components": [
                {
                  "internalType": "uint256",
                  "name": "stake",
                  "type": "uint256"
                },
                {
                  "internalType": "uint256",
                  "name": "unstakeDelaySec",
                  "type": "uint256"
                }
              ],
              "internalType": "struct IStakeManager.StakeInfo",
              "name": "factoryInfo",
              "type": "tuple"
            },
            {
              "components": [
                {
                  "internalType": "uint256",
                  "name": "stake",
                  "type": "uint256"
                },
                {
                  "internalType": "uint256",
                  "name": "unstakeDelaySec",
                  "type": "uint256"
                }
              ],
              "internalType": "struct IStakeManager.StakeInfo",
              "name": "paymasterInfo",
              "type": "tuple"
            },
            {
              "components": [
                {
                  "internalType": "address",
                  "name": "aggregator",
                  "type": "address"
                },
                {
                  "components": [
                    {
                      "internalType": "uint256",
                      "name": "stake",
                      "type": "uint256"
                    },
                    {
                      "internalType": "uint256",
                      "name": "unstakeDelaySec",
                      "type": "uint256"
                    }
                  ],
                  "internalType": "struct IStakeManager.StakeInfo",
                  "name": "stakeInfo",
                  "type": "tuple"
                }
              ],
              "internalType": "struct IEntryPoint.AggregatorStakeInfo",
              "name": "aggregatorInfo",
              "type": "tuple"
            }
          ],
          "internalType": "struct IEntryPointSimulations.ValidationResult",
          "name": "",
          "type": "tuple"
        }
      ],
      "stateMutability": "nonpayable",
      "type": "function"
    },
    {
      "inputs": [
        {
          "internalType": "bytes4",
          "name": "interfaceId",
          "type": "bytes4"
        }
      ],
      "name": "supportsInterface",
      "outputs": [
        {
          "internalType": "bool",
          "name": "",
          "type": "bool"
        }
      ],
      "stateMutability": "view",
      "type": "function"
    },
    {
      "inputs": [],
      "name": "unlockStake",
      "outputs": [],
      "stateMutability": "nonpayable",
      "type": "function"
    },
    {
      "inputs": [
        {
          "internalType": "address payable",
          "name": "withdrawAddress",
          "type": "address"
        }
      ],
      "name": "withdrawStake",
      "outputs": [],
      "stateMutability": "nonpayable",
      "type": "function"
    },
    {
      "inputs": [
        {
          "internalType": "address payable",
          "name": "withdrawAddress",
          "type": "address"
        },
        {
          "internalType": "uint256",
          "name": "withdrawAmount",
          "type": "uint256"
        }
      ],
      "name": "withdrawTo",
      "outputs": [],
      "stateMutability": "nonpayable",
      "type": "function"
    },
    {
      "stateMutability": "payable",
      "type": "receive"
    }
  ],
  "bytecode": "0x60a06040526040516200001290620000f2565b604051809103906000f0801580156200002f573d6000803e3d6000fd5b506001600160a01b0390811660805260408051808201825260008082528251808401909352808352602080840191825282018390529051600380546001600160a01b031916919094161790925551600455516005553480156200009157600080fd5b50600160025560644310620000ec5760405162461bcd60e51b815260206004820152601660248201527f73686f756c64206e6f74206265206465706c6f79656400000000000000000000604482015260640160405180910390fd5b62000100565b61023380620054ac83390190565b60805161539362000119600039600050506153936000f3fe6080604052600436106101785760003560e01c806373e3259f116100cb578063b760faf91161007f578063d5dfedfc11610059578063d5dfedfc146105cc578063ea8ad612146105f9578063fc7e286d1461061957600080fd5b8063b760faf914610584578063bb9fe6bf14610597578063c23a5cea146105ac57600080fd5b80638f41ec5a116100b05780638f41ec5a1461052f578063957122ab146105445780639b249f691461056457600080fd5b806373e3259f146104e2578063850aaf621461050f57600080fd5b80631b2e01b81161012d5780635287ce12116101075780635287ce12146103305780636b21db511461047f57806370a082311461049f57600080fd5b80631b2e01b814610243578063205c28781461027b57806335567e1a1461029b57600080fd5b806302101e491161015e57806302101e49146101f05780630396cb60146102105780630bd28e3b1461022357600080fd5b806242dc531461018d57806301ffc9a7146101c057600080fd5b3661018857610186336106eb565b005b600080fd5b34801561019957600080fd5b506101ad6101a83660046142f1565b61070c565b6040519081526020015b60405180910390f35b3480156101cc57600080fd5b506101e06101db3660046143b7565b6108d9565b60405190151581526020016101b7565b3480156101fc57600080fd5b506101ad61020b366004614412565b610a56565b61018661021e366004614447565b610a98565b34801561022f57600080fd5b5061018661023e366004614495565b610e2e565b34801561024f57600080fd5b506101ad61025e3660046144b0565b600160209081526000928352604080842090915290825290205481565b34801561028757600080fd5b506101866102963660046144e5565b610e76565b3480156102a757600080fd5b506101ad6102b63660046144b0565b73ffffffffffffffffffffffffffffffffffffffff8216600090815260016020908152604080832077ffffffffffffffffffffffffffffffffffffffffffffffff8516845290915290819020549082901b7fffffffffffffffffffffffffffffffffffffffffffffffff0000000000000000161792915050565b34801561033c57600080fd5b5061041d61034b366004614511565b6040805160a0810182526000808252602082018190529181018290526060810182905260808101919091525073ffffffffffffffffffffffffffffffffffffffff1660009081526020818152604091829020825160a0810184528154815260019091015460ff811615159282019290925261010082046dffffffffffffffffffffffffffff16928101929092526f01000000000000000000000000000000810463ffffffff166060830152730100000000000000000000000000000000000000900465ffffffffffff16608082015290565b6040516101b79190600060a082019050825182526020830151151560208301526dffffffffffffffffffffffffffff604084015116604083015263ffffffff606084015116606083015265ffffffffffff608084015116608083015292915050565b34801561048b57600080fd5b5061018661049a366004614573565b611020565b3480156104ab57600080fd5b506101ad6104ba366004614511565b73ffffffffffffffffffffffffffffffffffffffff1660009081526020819052604090205490565b3480156104ee57600080fd5b506105026104fd3660046145ca565b61119d565b6040516101b7919061469a565b34801561051b57600080fd5b5061018661052a3660046146f7565b611320565b34801561053b57600080fd5b506101ad600181565b34801561055057600080fd5b5061018661055f36600461474c565b6113c5565b34801561057057600080fd5b5061018661057f3660046147d1565b61151d565b610186610592366004614511565b6106eb565b3480156105a357600080fd5b50610186611608565b3480156105b857600080fd5b506101866105c7366004614511565b6117e8565b3480156105d857600080fd5b506105ec6105e7366004614412565b611ad5565b6040516101b79190614813565b34801561060557600080fd5b50610186610614366004614573565b611e41565b34801561062557600080fd5b506106a1610634366004614511565b6000602081905290815260409020805460019091015460ff81169061010081046dffffffffffffffffffffffffffff16906f01000000000000000000000000000000810463ffffffff1690730100000000000000000000000000000000000000900465ffffffffffff1685565b6040805195865293151560208601526dffffffffffffffffffffffffffff9092169284019290925263ffffffff909116606083015265ffffffffffff16608082015260a0016101b7565b60015b60058110156106ff576001016106ee565b610708826122ed565b5050565b6000805a9050333014610780576040517f08c379a000000000000000000000000000000000000000000000000000000000815260206004820152601760248201527f4141393220696e7465726e616c2063616c6c206f6e6c7900000000000000000060448201526064015b60405180910390fd5b8451606081015160a082015181016127100160405a603f02816107a5576107a561490b565b0410156107d6577fdeaddead0000000000000000000000000000000000000000000000000000000060005260206000fd5b8751600090156108775760006107f3846000015160008c86612343565b90508061087557600061080761080061235b565b80519091501561086f57846000015173ffffffffffffffffffffffffffffffffffffffff168a602001517f1c4fada7374c0a9ee8841fc38afe82932dc0f8e69012e927f061a8bae611a20187602001518460405161086692919061493a565b60405180910390a35b60019250505b505b600088608001515a86030190506108c96000838b8b8b8080601f016020809104026020016040519081016040528093929190818152602001838380828437600092019190915250889250612387915050565b955050505050505b949350505050565b60007fffffffff0000000000000000000000000000000000000000000000000000000082167f6c393cb700000000000000000000000000000000000000000000000000000000148061096c57507fffffffff0000000000000000000000000000000000000000000000000000000082167f9d95230100000000000000000000000000000000000000000000000000000000145b806109b857507fffffffff0000000000000000000000000000000000000000000000000000000082167fcf28ef9700000000000000000000000000000000000000000000000000000000145b80610a0457507fffffffff0000000000000000000000000000000000000000000000000000000082167f3e84f02100000000000000000000000000000000000000000000000000000000145b80610a5057507f01ffc9a7000000000000000000000000000000000000000000000000000000007fffffffff000000000000000000000000000000000000000000000000000000008316145b92915050565b6000610a6182612649565b6040805160208101929092523090820152466060820152608001604051602081830303815290604052805190602001209050919050565b33600090815260208190526040902063ffffffff8216610b14576040517f08c379a000000000000000000000000000000000000000000000000000000000815260206004820152601a60248201527f6d757374207370656369667920756e7374616b652064656c61790000000000006044820152606401610777565b600181015463ffffffff6f0100000000000000000000000000000090910481169083161015610b9f576040517f08c379a000000000000000000000000000000000000000000000000000000000815260206004820152601c60248201527f63616e6e6f7420646563726561736520756e7374616b652074696d65000000006044820152606401610777565b6001810154600090610bc790349061010090046dffffffffffffffffffffffffffff16614982565b905060008111610c33576040517f08c379a000000000000000000000000000000000000000000000000000000000815260206004820152601260248201527f6e6f207374616b652073706563696669656400000000000000000000000000006044820152606401610777565b6dffffffffffffffffffffffffffff811115610cab576040517f08c379a000000000000000000000000000000000000000000000000000000000815260206004820152600e60248201527f7374616b65206f766572666c6f770000000000000000000000000000000000006044820152606401610777565b6040805160a08101825283548152600160208083018281526dffffffffffffffffffffffffffff86811685870190815263ffffffff8a811660608801818152600060808a0181815233808352828a52918c90209a518b55965199909801805494519151965165ffffffffffff16730100000000000000000000000000000000000000027fffffffffffffff000000000000ffffffffffffffffffffffffffffffffffffff979094166f0100000000000000000000000000000002969096167fffffffffffffff00000000000000000000ffffffffffffffffffffffffffffff91909516610100027fffffffffffffffffffffffffffffffffff0000000000000000000000000000ff991515999099167fffffffffffffffffffffffffffffffffff00000000000000000000000000000090941693909317979097179190911691909117179055835185815290810192909252917fa5ae833d0bb1dcd632d98a8b70973e8516812898e19bf27b70071ebc8dc52c01910160405180910390a2505050565b33600090815260016020908152604080832077ffffffffffffffffffffffffffffffffffffffffffffffff851684529091528120805491610e6e83614995565b919050555050565b3360009081526020819052604090208054821115610ef0576040517f08c379a000000000000000000000000000000000000000000000000000000000815260206004820152601960248201527f576974686472617720616d6f756e7420746f6f206c61726765000000000000006044820152606401610777565b8054610efd9083906149cd565b81556040805173ffffffffffffffffffffffffffffffffffffffff851681526020810184905233917fd1c19fbcd4551a5edfb66d43d2e337c04837afda3482b42bdf569a8fccdae5fb910160405180910390a260008373ffffffffffffffffffffffffffffffffffffffff168360405160006040518083038185875af1925050503d8060008114610faa576040519150601f19603f3d011682016040523d82523d6000602084013e610faf565b606091505b505090508061101a576040517f08c379a000000000000000000000000000000000000000000000000000000000815260206004820152601260248201527f6661696c656420746f20776974686472617700000000000000000000000000006044820152606401610777565b50505050565b611028612662565b8160008167ffffffffffffffff81111561104457611044614084565b60405190808252806020026020018201604052801561107d57816020015b61106a613ed7565b8152602001906001900390816110625790505b50905060005b828110156110f657600082828151811061109f5761109f6149e0565b602002602001015190506000806110da848a8a878181106110c2576110c26149e0565b90506020028101906110d49190614a0f565b856126a3565b915091506110eb8483836000612917565b505050600101611083565b506040516000907fbb47ee3e183a558b1a2ff0874b079f3fc5478b7454eacf2bfc5af2ff5878f972908290a160005b838110156111805761117481888884818110611143576111436149e0565b90506020028101906111559190614a0f565b858481518110611167576111676149e0565b6020026020010151612b6c565b90910190600101611125565b5061118b8482612ed8565b5050506111986001600255565b505050565b6111e86040518060c001604052806000815260200160008152602001600065ffffffffffff168152602001600065ffffffffffff168152602001600015158152602001606081525090565b6111f0612662565b6111f8613ed7565b6112018661301f565b600080611210600089856126a3565b915091506000611220838361320e565b9050600061123060008b87612b6c565b90506000606073ffffffffffffffffffffffffffffffffffffffff8b16156112c2578a73ffffffffffffffffffffffffffffffffffffffff168a8a604051611279929190614a4d565b6000604051808303816000865af19150503d80600081146112b6576040519150601f19603f3d011682016040523d82523d6000602084013e6112bb565b606091505b5090925090505b6040518060c0016040528088608001518152602001848152602001856020015165ffffffffffff168152602001856040015165ffffffffffff1681526020018315158152602001828152509750505050505050506108d16001600255565b6000808473ffffffffffffffffffffffffffffffffffffffff16848460405161134a929190614a4d565b600060405180830381855af49150503d8060008114611385576040519150601f19603f3d011682016040523d82523d6000602084013e61138a565b606091505b509150915081816040517f99410554000000000000000000000000000000000000000000000000000000008152600401610777929190614a5d565b831580156113e8575073ffffffffffffffffffffffffffffffffffffffff83163b155b1561144f576040517f08c379a000000000000000000000000000000000000000000000000000000000815260206004820152601960248201527f41413230206163636f756e74206e6f74206465706c6f796564000000000000006044820152606401610777565b601481106114e15760006114666014828486614a78565b61146f91614aa2565b60601c9050803b6000036114df576040517f08c379a000000000000000000000000000000000000000000000000000000000815260206004820152601b60248201527f41413330207061796d6173746572206e6f74206465706c6f79656400000000006044820152606401610777565b505b6040517f08c379a00000000000000000000000000000000000000000000000000000000081526020600482015260006024820152604401610777565b600061153e60065473ffffffffffffffffffffffffffffffffffffffff1690565b73ffffffffffffffffffffffffffffffffffffffff1663570e1a3684846040518363ffffffff1660e01b8152600401611578929190614b33565b6020604051808303816000875af1158015611597573d6000803e3d6000fd5b505050506040513d601f19601f820116820180604052508101906115bb9190614b47565b6040517f6ca7b80600000000000000000000000000000000000000000000000000000000815273ffffffffffffffffffffffffffffffffffffffff82166004820152909150602401610777565b336000908152602081905260408120600181015490916f0100000000000000000000000000000090910463ffffffff1690036116a0576040517f08c379a000000000000000000000000000000000000000000000000000000000815260206004820152600a60248201527f6e6f74207374616b6564000000000000000000000000000000000000000000006044820152606401610777565b600181015460ff1661170e576040517f08c379a000000000000000000000000000000000000000000000000000000000815260206004820152601160248201527f616c726561647920756e7374616b696e670000000000000000000000000000006044820152606401610777565b6001810154600090611739906f01000000000000000000000000000000900463ffffffff1642614b64565b6001830180547fffffffffffffff000000000000ffffffffffffffffffffffffffffffffffff001673010000000000000000000000000000000000000065ffffffffffff84169081027fffffffffffffffffffffffffffffffffffffffffffffffffffffffffffffff00169190911790915560405190815290915033907ffa9b3c14cc825c412c9ed81b3ba365a5b459439403f18829e572ed53a4180f0a906020015b60405180910390a25050565b336000908152602081905260409020600181015461010090046dffffffffffffffffffffffffffff1680611878576040517f08c379a000000000000000000000000000000000000000000000000000000000815260206004820152601460248201527f4e6f207374616b6520746f2077697468647261770000000000000000000000006044820152606401610777565b6001820154730100000000000000000000000000000000000000900465ffffffffffff16611902576040517f08c379a000000000000000000000000000000000000000000000000000000000815260206004820152601d60248201527f6d7573742063616c6c20756e6c6f636b5374616b6528292066697273740000006044820152606401610777565b60018201544273010000000000000000000000000000000000000090910465ffffffffffff161115611990576040517f08c379a000000000000000000000000000000000000000000000000000000000815260206004820152601b60248201527f5374616b65207769746864726177616c206973206e6f742064756500000000006044820152606401610777565b6001820180547fffffffffffffff000000000000000000000000000000000000000000000000ff1690556040805173ffffffffffffffffffffffffffffffffffffffff851681526020810183905233917fb7c918e0e249f999e965cafeb6c664271b3f4317d296461500e71da39f0cbda3910160405180910390a260008373ffffffffffffffffffffffffffffffffffffffff168260405160006040518083038185875af1925050503d8060008114611a65576040519150601f19603f3d011682016040523d82523d6000602084013e611a6a565b606091505b505090508061101a576040517f08c379a000000000000000000000000000000000000000000000000000000000815260206004820152601860248201527f6661696c656420746f207769746864726177207374616b6500000000000000006044820152606401610777565b611add613f89565b611ae5613ed7565b611aee8361301f565b600080611afd600086856126a3565b845160e001516040805180820182526000808252602080830182815273ffffffffffffffffffffffffffffffffffffffff95861683528282528483206001908101546dffffffffffffffffffffffffffff6101008083048216885263ffffffff6f010000000000000000000000000000009384900481169095528e51518951808b018b5288815280880189815291909b168852878752898820909401549081049091168952049091169052835180850190945281845283015293955091935090366000611bcd60408b018b614b8a565b909250905060006014821015611be4576000611bff565b611bf2601460008486614a78565b611bfb91614aa2565b60601c5b6040805180820182526000808252602080830182815273ffffffffffffffffffffffffffffffffffffffff86168352908290529290206001015461010081046dffffffffffffffffffffffffffff1682526f01000000000000000000000000000000900463ffffffff1690915290915093505050506000611c80868661320e565b90506000816000015190506000600173ffffffffffffffffffffffffffffffffffffffff168273ffffffffffffffffffffffffffffffffffffffff1614905060006040518060c001604052808b6080015181526020018b6040015181526020018315158152602001856020015165ffffffffffff168152602001856040015165ffffffffffff168152602001611d178c6060015190565b905260408051808201825260035473ffffffffffffffffffffffffffffffffffffffff908116825282518084019093526004548352600554602084810191909152820192909252919250841615801590611d88575073ffffffffffffffffffffffffffffffffffffffff8416600114155b15611e0c5760408051808201825273ffffffffffffffffffffffffffffffffffffffff861680825282518084018452600080825260208083018281529382528181529490206001015461010081046dffffffffffffffffffffffffffff1682526f01000000000000000000000000000000900463ffffffff16909152909182015290505b6040805160a0810182529283526020830197909752958101949094525050506060810192909252608082015295945050505050565b611e49612662565b816000805b8281101561203b5736868683818110611e6957611e696149e0565b9050602002810190611e7b9190614bef565b9050366000611e8a8380614c23565b90925090506000611ea16040850160208601614511565b90507fffffffffffffffffffffffffffffffffffffffffffffffffffffffffffffffff73ffffffffffffffffffffffffffffffffffffffff821601611f42576040517f08c379a000000000000000000000000000000000000000000000000000000000815260206004820152601760248201527f4141393620696e76616c69642061676772656761746f720000000000000000006044820152606401610777565b73ffffffffffffffffffffffffffffffffffffffff81161561201f5773ffffffffffffffffffffffffffffffffffffffff811663fe96cf238484611f896040890189614b8a565b6040518563ffffffff1660e01b8152600401611fa89493929190614de7565b60006040518083038186803b158015611fc057600080fd5b505afa925050508015611fd1575060015b61201f576040517f86a9f75000000000000000000000000000000000000000000000000000000000815273ffffffffffffffffffffffffffffffffffffffff82166004820152602401610777565b6120298287614982565b95505060019093019250611e4e915050565b5060008167ffffffffffffffff81111561205757612057614084565b60405190808252806020026020018201604052801561209057816020015b61207d613ed7565b8152602001906001900390816120755790505b5090506000805b8481101561216d57368888838181106120b2576120b26149e0565b90506020028101906120c49190614bef565b90503660006120d38380614c23565b909250905060006120ea6040850160208601614511565b90508160005b8181101561215b57600089898151811061210c5761210c6149e0565b6020026020010151905060008061212f8b8989878181106110c2576110c26149e0565b9150915061213f84838389612917565b8a61214981614995565b9b5050600190930192506120f0915050565b50506001909401935061209792505050565b506040517fbb47ee3e183a558b1a2ff0874b079f3fc5478b7454eacf2bfc5af2ff5878f97290600090a150600080805b858110156122a857368989838181106121b8576121b86149e0565b90506020028101906121ca9190614bef565b90506121dc6040820160208301614511565b73ffffffffffffffffffffffffffffffffffffffff167f575ff3acadd5ab348fe1855e217e0f3678f8d767d7494c9f9fefbee2e17cca4d60405160405180910390a236600061222b8380614c23565b90925090508060005b818110156122975761227688858584818110612252576122526149e0565b90506020028101906122649190614a0f565b8b8b81518110611167576111676149e0565b6122809088614982565b96508761228c81614995565b985050600101612234565b50506001909301925061219d915050565b506040516000907f575ff3acadd5ab348fe1855e217e0f3678f8d767d7494c9f9fefbee2e17cca4d908290a26122de8682612ed8565b50505050506111986001600255565b60006122f982346132f4565b90508173ffffffffffffffffffffffffffffffffffffffff167f2da466a7b24304f47e87fa2e1e5a81b9831ce54fec19055ce277ca2f39ba42c4826040516117dc91815260200190565b6000806000845160208601878987f195945050505050565b60603d828111156123695750815b604051602082018101604052818152816000602083013e9392505050565b6000805a85519091506000908161239d82613334565b60e083015190915073ffffffffffffffffffffffffffffffffffffffff81166123c957825193506124c4565b8093506000885111156124c457868202955060028a60028111156123ef576123ef614e9e565b146124c45760a08301516040517f7c627b2100000000000000000000000000000000000000000000000000000000815273ffffffffffffffffffffffffffffffffffffffff831691637c627b2191612451908e908d908c908990600401614ecd565b600060405180830381600088803b15801561246b57600080fd5b5087f19350505050801561247d575060015b6124c457600061248e61080061235b565b9050806040517fad7954bc0000000000000000000000000000000000000000000000000000000081526004016107779190614f30565b5a60608401518951918703989098019790156124e15760a0840151015b60808a01518803808211156124ff576064600a828403020498909801975b50508187029550858960400151101561257c578a6040517f220266b600000000000000000000000000000000000000000000000000000000815260040161077791815260406020808301829052908201527f414135312070726566756e642062656c6f772061637475616c476173436f7374606082015260800190565b604089015186900361258e85826132f4565b506000808c60028111156125a4576125a4614e9e565b1490508460e0015173ffffffffffffffffffffffffffffffffffffffff16856000015173ffffffffffffffffffffffffffffffffffffffff168c602001517f49628fd1471006c1482da88028e9ce4dbb080b815c9b0344d39e5a8e6ec1419f8860200151858d8f604051612631949392919093845291151560208401526040830152606082015260800190565b60405180910390a45050505050505095945050505050565b60006126548261335e565b805190602001209050919050565b600280540361269d576040517f3ee5aeb500000000000000000000000000000000000000000000000000000000815260040160405180910390fd5b60028055565b60008060005a84519091506126b8868261342f565b6126c186610a56565b85602001818152505060008660e001358760c001358360a001518460800151856060015186604001518760c0015117171717171790506effffffffffffffffffffffffffffff8016811115612772576040517f08c379a000000000000000000000000000000000000000000000000000000000815260206004820152601860248201527f41413934206761732076616c756573206f766572666c6f7700000000000000006044820152606401610777565b60006127a18360c081015160a08201516080830151606084015160408501516101009095015194010101010290565b90506127af8989898461357f565b95506127c3836000015184602001516137c2565b61283257886040517f220266b6000000000000000000000000000000000000000000000000000000008152600401610777918152604060208201819052601a908201527f4141323520696e76616c6964206163636f756e74206e6f6e6365000000000000606082015260800190565b60e083015160609073ffffffffffffffffffffffffffffffffffffffff1615612866576128618a8a8a8561381d565b965090505b60005a8603905080856080015186604001510110156128ea578a6040517f220266b6000000000000000000000000000000000000000000000000000000008152600401610777918152604060208201819052601e908201527f41413430206f76657220766572696669636174696f6e4761734c696d69740000606082015260800190565b604089018390528160608a015260a08a01355a870301896080018181525050505050505050935093915050565b600080612923856139de565b915091508173ffffffffffffffffffffffffffffffffffffffff168373ffffffffffffffffffffffffffffffffffffffff16146129c557856040517f220266b60000000000000000000000000000000000000000000000000000000081526004016107779181526040602082018190526014908201527f41413234207369676e6174757265206572726f72000000000000000000000000606082015260800190565b8015612a3657856040517f220266b60000000000000000000000000000000000000000000000000000000081526004016107779181526040602082018190526017908201527f414132322065787069726564206f72206e6f7420647565000000000000000000606082015260800190565b6000612a41856139de565b9250905073ffffffffffffffffffffffffffffffffffffffff811615612acc57866040517f220266b60000000000000000000000000000000000000000000000000000000081526004016107779181526040602082018190526014908201527f41413334207369676e6174757265206572726f72000000000000000000000000606082015260800190565b8115612b6357866040517f220266b60000000000000000000000000000000000000000000000000000000081526004016107779181526040602082018190526021908201527f41413332207061796d61737465722065787069726564206f72206e6f7420647560608201527f6500000000000000000000000000000000000000000000000000000000000000608082015260a00190565b50505050505050565b6000805a90506000612b7f846060015190565b6040519091506000903682612b9760608a018a614b8a565b9150915060606000826003811115612bae57843591505b507fe752d1ee000000000000000000000000000000000000000000000000000000007fffffffff00000000000000000000000000000000000000000000000000000000821601612cee5760008b8b60200151604051602401612c11929190614f43565b604080517fffffffffffffffffffffffffffffffffffffffffffffffffffffffffffffffe08184030181529181526020820180517bffffffffffffffffffffffffffffffffffffffffffffffffffffffff167f18ad2e12000000000000000000000000000000000000000000000000000000001790525190915030906242dc5390612ca49084908f908d90602401615029565b604051602081830303815290604052915060e01b6020820180517bffffffffffffffffffffffffffffffffffffffffffffffffffffffff8381831617835250505050925050612d65565b3073ffffffffffffffffffffffffffffffffffffffff166242dc5385858d8b604051602401612d209493929190615069565b604051602081830303815290604052915060e01b6020820180517bffffffffffffffffffffffffffffffffffffffffffffffffffffffff838183161783525050505091505b602060008351602085016000305af19550600051985084604052505050505080612ece5760003d80602003612da05760206000803e60005191505b507fdeaddead000000000000000000000000000000000000000000000000000000008103612e3357876040517f220266b6000000000000000000000000000000000000000000000000000000008152600401610777918152604060208201819052600f908201527f41413935206f7574206f66206761730000000000000000000000000000000000606082015260800190565b8551805160208089015192015173ffffffffffffffffffffffffffffffffffffffff90911691907ff62676f440ff169a3a9afdbf812e89e7f95975ee8e5c31214ffdef631c5f479290612e8761080061235b565b604051612e9592919061493a565b60405180910390a3600086608001515a612eaf90876149cd565b612eb99190614982565b9050612ec9896002898785612387565b955050505b5050509392505050565b73ffffffffffffffffffffffffffffffffffffffff8216612f55576040517f08c379a000000000000000000000000000000000000000000000000000000000815260206004820152601860248201527f4141393020696e76616c69642062656e656669636961727900000000000000006044820152606401610777565b60008273ffffffffffffffffffffffffffffffffffffffff168260405160006040518083038185875af1925050503d8060008114612faf576040519150601f19603f3d011682016040523d82523d6000602084013e612fb4565b606091505b5050905080611198576040517f08c379a000000000000000000000000000000000000000000000000000000000815260206004820152601f60248201527f41413931206661696c65642073656e6420746f2062656e6566696369617279006044820152606401610777565b61311f6040517fd69400000000000000000000000000000000000000000000000000000000000060208201527fffffffffffffffffffffffffffffffffffffffff0000000000000000000000003060601b1660228201527f01000000000000000000000000000000000000000000000000000000000000006036820152600090603701604080518083037fffffffffffffffffffffffffffffffffffffffffffffffffffffffffffffffe00181529190528051602090910120600680547fffffffffffffffffffffffff00000000000000000000000000000000000000001673ffffffffffffffffffffffffffffffffffffffff90921691909117905550565b3063957122ab6131326040840184614b8a565b61313f6020860186614511565b61314d610100870187614b8a565b6040518663ffffffff1660e01b815260040161316d9594939291906150a0565b60006040518083038186803b15801561318557600080fd5b505afa925050508015613196575060015b61320b576131a26150ef565b806308c379a0036131ff57506131b661510b565b806131c15750613201565b805115610708576000816040517f220266b600000000000000000000000000000000000000000000000000000000815260040161077792919061493a565b505b3d6000803e3d6000fd5b50565b604080516060810182526000808252602082018190529181018290529061323484613a31565b9050600061324184613a31565b825190915073ffffffffffffffffffffffffffffffffffffffff8116613265575080515b602080840151604080860151928501519085015191929165ffffffffffff8083169085161015613293578193505b8065ffffffffffff168365ffffffffffff1611156132af578092505b50506040805160608101825273ffffffffffffffffffffffffffffffffffffffff909416845265ffffffffffff92831660208501529116908201529250505092915050565b73ffffffffffffffffffffffffffffffffffffffff8216600090815260208190526040812080548290613328908590614982565b91829055509392505050565b61010081015161012082015160009190808203613352575092915050565b6108d182488301613aaf565b606081356020830135600061337e6133796040870187614b8a565b613ac7565b905060006133926133796060880188614b8a565b9050608086013560a087013560c088013560e089013560006133bb6133796101008d018d614b8a565b6040805173ffffffffffffffffffffffffffffffffffffffff9b909b1660208c01528a81019990995260608a019790975250608088019490945260a087019290925260c086015260e08501526101008401526101208084019190915281518084039091018152610140909201905292915050565b61343c6020830183614511565b73ffffffffffffffffffffffffffffffffffffffff168152602082810135908201526fffffffffffffffffffffffffffffffff60808084013591821660608401521c604082015260a082013560c0808301919091528201356101008083019190915260e083013561012083015236906000906134ba90850185614b8a565b90925090508015613564576034811015613530576040517f08c379a000000000000000000000000000000000000000000000000000000000815260206004820152601d60248201527f4141393320696e76616c6964207061796d6173746572416e64446174610000006044820152606401610777565b61353a8282613ada565b60a0860152608085015273ffffffffffffffffffffffffffffffffffffffff1660e084015261101a565b600060e084018190526080840181905260a084015250505050565b815180516000919061359e878661359960408a018a614b8a565b613b4b565b60e0820151600073ffffffffffffffffffffffffffffffffffffffff82166135fc5773ffffffffffffffffffffffffffffffffffffffff83166000908152602081905260409020548681116135f5578087036135f8565b60005b9150505b604080850151602089015191517f8803e45100000000000000000000000000000000000000000000000000000000815273ffffffffffffffffffffffffffffffffffffffff861692638803e451929161365b918d9187906004016151b3565b60206040518083038160008887f1935050505080156136b5575060408051601f3d9081017fffffffffffffffffffffffffffffffffffffffffffffffffffffffffffffffe01682019092526136b2918101906151d8565b60015b6136f957886136c561080061235b565b6040517f65c8fd4d0000000000000000000000000000000000000000000000000000000081526004016107779291906151f1565b945073ffffffffffffffffffffffffffffffffffffffff82166137b65773ffffffffffffffffffffffffffffffffffffffff831660009081526020819052604090208054808811156137b0578a6040517f220266b60000000000000000000000000000000000000000000000000000000081526004016107779181526040602082018190526017908201527f41413231206469646e2774207061792070726566756e64000000000000000000606082015260800190565b87900390555b50505050949350505050565b73ffffffffffffffffffffffffffffffffffffffff8216600090815260016020908152604080832084821c808552925282208054849167ffffffffffffffff831691908561380f83614995565b909155501495945050505050565b815160e081015173ffffffffffffffffffffffffffffffffffffffff81166000908152602081905260408120805460609492939190868110156138c557896040517f220266b6000000000000000000000000000000000000000000000000000000008152600401610777918152604060208201819052601e908201527f41413331207061796d6173746572206465706f73697420746f6f206c6f770000606082015260800190565b8681038255608084015160208901516040517f703ae88f00000000000000000000000000000000000000000000000000000000815273ffffffffffffffffffffffffffffffffffffffff86169263703ae88f92909161392a918e918d906004016151b3565b60006040518083038160008887f19350505050801561398957506040513d6000823e601f3d9081017fffffffffffffffffffffffffffffffffffffffffffffffffffffffffffffffe0168201604052613986919081019061523e565b60015b6139cd578961399961080061235b565b6040517f65c8fd4d0000000000000000000000000000000000000000000000000000000081526004016107779291906152ca565b909b909a5098505050505050505050565b600080826000036139f457506000928392509050565b60006139ff84613a31565b9050806040015165ffffffffffff16421180613a265750806020015165ffffffffffff1642105b905194909350915050565b60408051606081018252600080825260208201819052918101919091528160a081901c65ffffffffffff8116600003613a6d575065ffffffffffff5b6040805160608101825273ffffffffffffffffffffffffffffffffffffffff909316835260d09490941c602083015265ffffffffffff16928101929092525090565b6000818310613abe5781613ac0565b825b9392505050565b6000604051828085833790209392505050565b60008080613aeb6014828688614a78565b613af491614aa2565b60601c613b05602460148789614a78565b613b0e91615317565b60801c613b1f60346024888a614a78565b613b2891615317565b9194506fffffffffffffffffffffffffffffffff16925060801c90509250925092565b801561101a5782515173ffffffffffffffffffffffffffffffffffffffff81163b15613bdc57846040517f220266b6000000000000000000000000000000000000000000000000000000008152600401610777918152604060208201819052601f908201527f414131302073656e64657220616c726561647920636f6e737472756374656400606082015260800190565b6000613bfd60065473ffffffffffffffffffffffffffffffffffffffff1690565b73ffffffffffffffffffffffffffffffffffffffff1663570e1a3686600001516040015186866040518463ffffffff1660e01b8152600401613c40929190614b33565b60206040518083038160008887f1158015613c5f573d6000803e3d6000fd5b50505050506040513d601f19601f82011682018060405250810190613c849190614b47565b905073ffffffffffffffffffffffffffffffffffffffff8116613d0c57856040517f220266b6000000000000000000000000000000000000000000000000000000008152600401610777918152604060208201819052601b908201527f4141313320696e6974436f6465206661696c6564206f72204f4f470000000000606082015260800190565b8173ffffffffffffffffffffffffffffffffffffffff168173ffffffffffffffffffffffffffffffffffffffff1614613da957856040517f220266b600000000000000000000000000000000000000000000000000000000815260040161077791815260406020808301829052908201527f4141313420696e6974436f6465206d7573742072657475726e2073656e646572606082015260800190565b8073ffffffffffffffffffffffffffffffffffffffff163b600003613e3257856040517f220266b600000000000000000000000000000000000000000000000000000000815260040161077791815260406020808301829052908201527f4141313520696e6974436f6465206d757374206372656174652073656e646572606082015260800190565b6000613e416014828688614a78565b613e4a91614aa2565b60601c90508273ffffffffffffffffffffffffffffffffffffffff1686602001517fd51a9c61267aa6196961883ecf5ff2da6619c37dac0fa92122513fb32c032d2d83896000015160e00151604051613ec692919073ffffffffffffffffffffffffffffffffffffffff92831681529116602082015260400190565b60405180910390a350505050505050565b6040518060a00160405280613f64604051806101400160405280600073ffffffffffffffffffffffffffffffffffffffff168152602001600081526020016000815260200160008152602001600081526020016000815260200160008152602001600073ffffffffffffffffffffffffffffffffffffffff16815260200160008152602001600081525090565b8152602001600080191681526020016000815260200160008152602001600081525090565b604080516101608101909152600060a0820181815260c0830182905260e083018290526101008301829052610120830191909152606061014083015281908152602001613fe9604051806040016040528060008152602001600081525090565b815260200161400b604051806040016040528060008152602001600081525090565b815260200161402d604051806040016040528060008152602001600081525090565b815260200161403a61403f565b905290565b6040518060400160405280600073ffffffffffffffffffffffffffffffffffffffff16815260200161403a604051806040016040528060008152602001600081525090565b7f4e487b7100000000000000000000000000000000000000000000000000000000600052604160045260246000fd5b60a0810181811067ffffffffffffffff821117156140d3576140d3614084565b60405250565b7fffffffffffffffffffffffffffffffffffffffffffffffffffffffffffffffe0601f830116810181811067ffffffffffffffff8211171561411d5761411d614084565b6040525050565b604051610140810167ffffffffffffffff8111828210171561414857614148614084565b60405290565b600067ffffffffffffffff82111561416857614168614084565b50601f017fffffffffffffffffffffffffffffffffffffffffffffffffffffffffffffffe01660200190565b73ffffffffffffffffffffffffffffffffffffffff8116811461320b57600080fd5b80356141c181614194565b919050565b60008183036101c08112156141da57600080fd5b6040516141e6816140b3565b809250610140808312156141f957600080fd5b614201614124565b925061420c856141b6565b83526020850135602084015260408501356040840152606085013560608401526080850135608084015260a085013560a084015260c085013560c084015261425660e086016141b6565b60e084015261010085810135908401526101208086013590840152918152908301356020820152610160830135604082015261018083013560608201526101a090920135608090920191909152919050565b60008083601f8401126142ba57600080fd5b50813567ffffffffffffffff8111156142d257600080fd5b6020830191508360208285010111156142ea57600080fd5b9250929050565b600080600080610200858703121561430857600080fd5b843567ffffffffffffffff8082111561432057600080fd5b818701915087601f83011261433457600080fd5b813561433f8161414e565b60405161434c82826140d9565b8281528a602084870101111561436157600080fd5b8260208601602083013760006020848301015280985050505061438788602089016141c6565b94506101e087013591508082111561439e57600080fd5b506143ab878288016142a8565b95989497509550505050565b6000602082840312156143c957600080fd5b81357fffffffff0000000000000000000000000000000000000000000000000000000081168114613ac057600080fd5b6000610140828403121561440c57600080fd5b50919050565b60006020828403121561442457600080fd5b813567ffffffffffffffff81111561443b57600080fd5b6108d1848285016143f9565b60006020828403121561445957600080fd5b813563ffffffff81168114613ac057600080fd5b803577ffffffffffffffffffffffffffffffffffffffffffffffff811681146141c157600080fd5b6000602082840312156144a757600080fd5b613ac08261446d565b600080604083850312156144c357600080fd5b82356144ce81614194565b91506144dc6020840161446d565b90509250929050565b600080604083850312156144f857600080fd5b823561450381614194565b946020939093013593505050565b60006020828403121561452357600080fd5b8135613ac081614194565b60008083601f84011261454057600080fd5b50813567ffffffffffffffff81111561455857600080fd5b6020830191508360208260051b85010111156142ea57600080fd5b60008060006040848603121561458857600080fd5b833567ffffffffffffffff81111561459f57600080fd5b6145ab8682870161452e565b90945092505060208401356145bf81614194565b809150509250925092565b600080600080606085870312156145e057600080fd5b843567ffffffffffffffff808211156145f857600080fd5b614604888389016143f9565b95506020870135915061461682614194565b9093506040860135908082111561439e57600080fd5b60005b8381101561464757818101518382015260200161462f565b50506000910152565b6000815180845261466881602086016020860161462c565b601f017fffffffffffffffffffffffffffffffffffffffffffffffffffffffffffffffe0169290920160200192915050565b6020815281516020820152602082015160408201526000604083015165ffffffffffff808216606085015280606086015116608085015250506080830151151560a083015260a083015160c0808401526108d160e0840182614650565b60008060006040848603121561470c57600080fd5b833561471781614194565b9250602084013567ffffffffffffffff81111561473357600080fd5b61473f868287016142a8565b9497909650939450505050565b60008060008060006060868803121561476457600080fd5b853567ffffffffffffffff8082111561477c57600080fd5b61478889838a016142a8565b90975095506020880135915061479d82614194565b909350604087013590808211156147b357600080fd5b506147c0888289016142a8565b969995985093965092949392505050565b600080602083850312156147e457600080fd5b823567ffffffffffffffff8111156147fb57600080fd5b614807858286016142a8565b90969095509350505050565b6020808252825161014083830152805161016084015290810151610180830152604081015115156101a0830152606081015165ffffffffffff9081166101c08401526080820151166101e083015260a0015160c061020083015260009061487e610220840182614650565b9050602084015161489c604085018280518252602090810151910152565b506040840151805160808581019190915260209182015160a08601526060860151805160c087015282015160e0860152850151805173ffffffffffffffffffffffffffffffffffffffff1661010086015280820151805161012087015290910151610140850152509392505050565b7f4e487b7100000000000000000000000000000000000000000000000000000000600052601260045260246000fd5b8281526040602082015260006108d16040830184614650565b7f4e487b7100000000000000000000000000000000000000000000000000000000600052601160045260246000fd5b80820180821115610a5057610a50614953565b60007fffffffffffffffffffffffffffffffffffffffffffffffffffffffffffffffff82036149c6576149c6614953565b5060010190565b81810381811115610a5057610a50614953565b7f4e487b7100000000000000000000000000000000000000000000000000000000600052603260045260246000fd5b600082357ffffffffffffffffffffffffffffffffffffffffffffffffffffffffffffffec1833603018112614a4357600080fd5b9190910192915050565b8183823760009101908152919050565b82151581526040602082015260006108d16040830184614650565b60008085851115614a8857600080fd5b83861115614a9557600080fd5b5050820193919092039150565b7fffffffffffffffffffffffffffffffffffffffff0000000000000000000000008135818116916014851015614ae25780818660140360031b1b83161692505b505092915050565b8183528181602085013750600060208284010152600060207fffffffffffffffffffffffffffffffffffffffffffffffffffffffffffffffe0601f840116840101905092915050565b6020815260006108d1602083018486614aea565b600060208284031215614b5957600080fd5b8151613ac081614194565b65ffffffffffff818116838216019080821115614b8357614b83614953565b5092915050565b60008083357fffffffffffffffffffffffffffffffffffffffffffffffffffffffffffffffe1843603018112614bbf57600080fd5b83018035915067ffffffffffffffff821115614bda57600080fd5b6020019150368190038213156142ea57600080fd5b600082357fffffffffffffffffffffffffffffffffffffffffffffffffffffffffffffffa1833603018112614a4357600080fd5b60008083357fffffffffffffffffffffffffffffffffffffffffffffffffffffffffffffffe1843603018112614c5857600080fd5b83018035915067ffffffffffffffff821115614c7357600080fd5b6020019150600581901b36038213156142ea57600080fd5b60008083357fffffffffffffffffffffffffffffffffffffffffffffffffffffffffffffffe1843603018112614cc057600080fd5b830160208101925035905067ffffffffffffffff811115614ce057600080fd5b8036038213156142ea57600080fd5b6000610140614d1b84614d01856141b6565b73ffffffffffffffffffffffffffffffffffffffff169052565b60208301356020850152614d326040840184614c8b565b826040870152614d458387018284614aea565b92505050614d566060840184614c8b565b8583036060870152614d69838284614aea565b925050506080830135608085015260a083013560a085015260c083013560c085015260e083013560e0850152610100614da481850185614c8b565b86840383880152614db6848284614aea565b9350505050610120614dca81850185614c8b565b86840383880152614ddc848284614aea565b979650505050505050565b6040808252810184905260006060600586901b830181019083018783805b89811015614e87577fffffffffffffffffffffffffffffffffffffffffffffffffffffffffffffffa087860301845282357ffffffffffffffffffffffffffffffffffffffffffffffffffffffffffffffec18c3603018112614e65578283fd5b614e71868d8301614cef565b9550506020938401939290920191600101614e05565b505050508281036020840152614ddc818587614aea565b7f4e487b7100000000000000000000000000000000000000000000000000000000600052602160045260246000fd5b600060038610614f06577f4e487b7100000000000000000000000000000000000000000000000000000000600052602160045260246000fd5b85825260806020830152614f1d6080830186614650565b6040830194909452506060015292915050565b602081526000613ac06020830184614650565b604081526000614f566040830185614cef565b90508260208301529392505050565b8051805173ffffffffffffffffffffffffffffffffffffffff1683526020810151602084015260408101516040840152606081015160608401526080810151608084015260a081015160a084015260c081015160c084015260e0810151614fe460e085018273ffffffffffffffffffffffffffffffffffffffff169052565b5061010081810151908401526101209081015190830152602081015161014083015260408101516101608301526060810151610180830152608001516101a090910152565b600061020080835261503d81840187614650565b905061504c6020840186614f65565b8281036101e084015261505f8185614650565b9695505050505050565b600061020080835261507e8184018789614aea565b905061508d6020840186614f65565b8281036101e0840152614ddc8185614650565b6060815260006150b4606083018789614aea565b73ffffffffffffffffffffffffffffffffffffffff8616602084015282810360408401526150e3818587614aea565b98975050505050505050565b600060033d11156151085760046000803e5060005160e01c5b90565b600060443d10156151195790565b6040517ffffffffffffffffffffffffffffffffffffffffffffffffffffffffffffffffc803d016004833e81513d67ffffffffffffffff816024840111818411171561516757505050505090565b828501915081518181111561517f5750505050505090565b843d87010160208285010111156151995750505050505090565b6151a8602082860101876140d9565b509095945050505050565b6060815260006151c66060830186614cef565b60208301949094525060400152919050565b6000602082840312156151ea57600080fd5b5051919050565b82815260606020820152600d60608201527f4141323320726576657274656400000000000000000000000000000000000000608082015260a0604082015260006108d160a0830184614650565b6000806040838503121561525157600080fd5b825167ffffffffffffffff81111561526857600080fd5b8301601f8101851361527957600080fd5b80516152848161414e565b60405161529182826140d9565b8281528760208486010111156152a657600080fd5b6152b783602083016020870161462c565b6020969096015195979596505050505050565b82815260606020820152600d60608201527f4141333320726576657274656400000000000000000000000000000000000000608082015260a0604082015260006108d160a0830184614650565b7fffffffffffffffffffffffffffffffff000000000000000000000000000000008135818116916010851015614ae25760109490940360031b84901b169092169291505056fea264697066735822122009c1a6d6e832d98aefdebd13dc30e20357a5a5e581ecb2a6733be5b5940f65e864736f6c63430008170033608060405234801561001057600080fd5b50610213806100206000396000f3fe608060405234801561001057600080fd5b506004361061002b5760003560e01c8063570e1a3614610030575b600080fd5b61004361003e3660046100f9565b61006c565b60405173ffffffffffffffffffffffffffffffffffffffff909116815260200160405180910390f35b60008061007c601482858761016b565b61008591610195565b60601c90506000610099846014818861016b565b8080601f016020809104026020016040519081016040528093929190818152602001838380828437600092018290525084519495509360209350849250905082850182875af190506000519350806100f057600093505b50505092915050565b6000806020838503121561010c57600080fd5b823567ffffffffffffffff8082111561012457600080fd5b818501915085601f83011261013857600080fd5b81358181111561014757600080fd5b86602082850101111561015957600080fd5b60209290920196919550909350505050565b6000808585111561017b57600080fd5b8386111561018857600080fd5b5050820193919092039150565b7fffffffffffffffffffffffffffffffffffffffff00000000000000000000000081358181169160148510156101d55780818660140360031b1b83161692505b50509291505056fea2646970667358221220e69a1f48b6de34024b78af0b3365fe088e81dd2215d51365910a6b7b5c6114a164736f6c63430008170033",
  "linkReferences": {},
  "deployedLinkReferences": {}
}