{
  "_format": "hh-sol-artifact-1",
  "contractName": "EntryPointSimulations",
  "sourceName": "contracts/core/EntryPointSimulations.sol",
  "abi": [
    {
      "inputs": [],
      "stateMutability": "nonpayable",
      "type": "constructor"
    },
    {
      "inputs": [
        {
          "internalType": "bool",
          "name": "success",
          "type": "bool"
        },
        {
          "internalType": "bytes",
          "name": "ret",
          "type": "bytes"
        }
      ],
      "name": "DelegateAndRevert",
      "type": "error"
    },
    {
      "inputs": [
        {
          "internalType": "uint256",
          "name": "opIndex",
          "type": "uint256"
        },
        {
          "internalType": "string",
          "name": "reason",
          "type": "string"
        }
      ],
      "name": "FailedOp",
      "type": "error"
    },
    {
      "inputs": [
        {
          "internalType": "uint256",
          "name": "opIndex",
          "type": "uint256"
        },
        {
          "internalType": "string",
          "name": "reason",
          "type": "string"
        },
        {
          "internalType": "bytes",
          "name": "inner",
          "type": "bytes"
        }
      ],
      "name": "FailedOpWithRevert",
      "type": "error"
    },
    {
      "inputs": [
        {
          "internalType": "bytes",
          "name": "returnData",
          "type": "bytes"
        }
      ],
      "name": "PostOpReverted",
      "type": "error"
    },
    {
      "inputs": [],
      "name": "ReentrancyGuardReentrantCall",
      "type": "error"
    },
    {
      "inputs": [
        {
          "internalType": "address",
          "name": "sender",
          "type": "address"
        }
      ],
      "name": "SenderAddressResult",
      "type": "error"
    },
    {
      "inputs": [
        {
          "internalType": "address",
          "name": "aggregator",
          "type": "address"
        }
      ],
      "name": "SignatureValidationFailed",
      "type": "error"
    },
    {
      "anonymous": false,
      "inputs": [
        {
          "indexed": true,
          "internalType": "bytes32",
          "name": "userOpHash",
          "type": "bytes32"
        },
        {
          "indexed": true,
          "internalType": "address",
          "name": "sender",
          "type": "address"
        },
        {
          "indexed": false,
          "internalType": "address",
          "name": "factory",
          "type": "address"
        },
        {
          "indexed": false,
          "internalType": "address",
          "name": "paymaster",
          "type": "address"
        }
      ],
      "name": "AccountDeployed",
      "type": "event"
    },
    {
      "anonymous": false,
      "inputs": [],
      "name": "BeforeExecution",
      "type": "event"
    },
    {
      "anonymous": false,
      "inputs": [
        {
          "indexed": true,
          "internalType": "address",
          "name": "account",
          "type": "address"
        },
        {
          "indexed": false,
          "internalType": "uint256",
          "name": "totalDeposit",
          "type": "uint256"
        }
      ],
      "name": "Deposited",
      "type": "event"
    },
    {
      "anonymous": false,
      "inputs": [
        {
          "indexed": true,
          "internalType": "bytes32",
          "name": "userOpHash",
          "type": "bytes32"
        },
        {
          "indexed": true,
          "internalType": "address",
          "name": "sender",
          "type": "address"
        },
        {
          "indexed": false,
          "internalType": "uint256",
          "name": "nonce",
          "type": "uint256"
        },
        {
          "indexed": false,
          "internalType": "bytes",
          "name": "revertReason",
          "type": "bytes"
        }
      ],
      "name": "PostOpRevertReason",
      "type": "event"
    },
    {
      "anonymous": false,
      "inputs": [
        {
          "indexed": true,
          "internalType": "address",
          "name": "aggregator",
          "type": "address"
        }
      ],
      "name": "SignatureAggregatorChanged",
      "type": "event"
    },
    {
      "anonymous": false,
      "inputs": [
        {
          "indexed": true,
          "internalType": "address",
          "name": "account",
          "type": "address"
        },
        {
          "indexed": false,
          "internalType": "uint256",
          "name": "totalStaked",
          "type": "uint256"
        },
        {
          "indexed": false,
          "internalType": "uint256",
          "name": "unstakeDelaySec",
          "type": "uint256"
        }
      ],
      "name": "StakeLocked",
      "type": "event"
    },
    {
      "anonymous": false,
      "inputs": [
        {
          "indexed": true,
          "internalType": "address",
          "name": "account",
          "type": "address"
        },
        {
          "indexed": false,
          "internalType": "uint256",
          "name": "withdrawTime",
          "type": "uint256"
        }
      ],
      "name": "StakeUnlocked",
      "type": "event"
    },
    {
      "anonymous": false,
      "inputs": [
        {
          "indexed": true,
          "internalType": "address",
          "name": "account",
          "type": "address"
        },
        {
          "indexed": false,
          "internalType": "address",
          "name": "withdrawAddress",
          "type": "address"
        },
        {
          "indexed": false,
          "internalType": "uint256",
          "name": "amount",
          "type": "uint256"
        }
      ],
      "name": "StakeWithdrawn",
      "type": "event"
    },
    {
      "anonymous": false,
      "inputs": [
        {
          "indexed": true,
          "internalType": "bytes32",
          "name": "userOpHash",
          "type": "bytes32"
        },
        {
          "indexed": true,
          "internalType": "address",
          "name": "sender",
          "type": "address"
        },
        {
          "indexed": true,
          "internalType": "address",
          "name": "paymaster",
          "type": "address"
        },
        {
          "indexed": false,
          "internalType": "uint256",
          "name": "nonce",
          "type": "uint256"
        },
        {
          "indexed": false,
          "internalType": "bool",
          "name": "success",
          "type": "bool"
        },
        {
          "indexed": false,
          "internalType": "uint256",
          "name": "actualGasCost",
          "type": "uint256"
        },
        {
          "indexed": false,
          "internalType": "uint256",
          "name": "actualGasUsed",
          "type": "uint256"
        }
      ],
      "name": "UserOperationEvent",
      "type": "event"
    },
    {
      "anonymous": false,
      "inputs": [
        {
          "indexed": true,
          "internalType": "bytes32",
          "name": "userOpHash",
          "type": "bytes32"
        },
        {
          "indexed": true,
          "internalType": "address",
          "name": "sender",
          "type": "address"
        },
        {
          "indexed": false,
          "internalType": "uint256",
          "name": "nonce",
          "type": "uint256"
        }
      ],
      "name": "UserOperationPrefundTooLow",
      "type": "event"
    },
    {
      "anonymous": false,
      "inputs": [
        {
          "indexed": true,
          "internalType": "bytes32",
          "name": "userOpHash",
          "type": "bytes32"
        },
        {
          "indexed": true,
          "internalType": "address",
          "name": "sender",
          "type": "address"
        },
        {
          "indexed": false,
          "internalType": "uint256",
          "name": "nonce",
          "type": "uint256"
        },
        {
          "indexed": false,
          "internalType": "bytes",
          "name": "revertReason",
          "type": "bytes"
        }
      ],
      "name": "UserOperationRevertReason",
      "type": "event"
    },
    {
      "anonymous": false,
      "inputs": [
        {
          "indexed": true,
          "internalType": "address",
          "name": "account",
          "type": "address"
        },
        {
          "indexed": false,
          "internalType": "address",
          "name": "withdrawAddress",
          "type": "address"
        },
        {
          "indexed": false,
          "internalType": "uint256",
          "name": "amount",
          "type": "uint256"
        }
      ],
      "name": "Withdrawn",
      "type": "event"
    },
    {
      "inputs": [
        {
          "internalType": "bytes",
          "name": "initCode",
          "type": "bytes"
        },
        {
          "internalType": "address",
          "name": "sender",
          "type": "address"
        },
        {
          "internalType": "bytes",
          "name": "paymasterAndData",
          "type": "bytes"
        }
      ],
      "name": "_validateSenderAndPaymaster",
      "outputs": [],
      "stateMutability": "view",
      "type": "function"
    },
    {
      "inputs": [
        {
          "internalType": "uint32",
          "name": "unstakeDelaySec",
          "type": "uint32"
        }
      ],
      "name": "addStake",
      "outputs": [],
      "stateMutability": "payable",
      "type": "function"
    },
    {
      "inputs": [
        {
          "internalType": "address",
          "name": "account",
          "type": "address"
        }
      ],
      "name": "balanceOf",
      "outputs": [
        {
          "internalType": "uint256",
          "name": "",
          "type": "uint256"
        }
      ],
      "stateMutability": "view",
      "type": "function"
    },
    {
      "inputs": [
        {
          "internalType": "address",
          "name": "target",
          "type": "address"
        },
        {
          "internalType": "bytes",
          "name": "data",
          "type": "bytes"
        }
      ],
      "name": "delegateAndRevert",
      "outputs": [],
      "stateMutability": "nonpayable",
      "type": "function"
    },
    {
      "inputs": [
        {
          "internalType": "address",
          "name": "account",
          "type": "address"
        }
      ],
      "name": "depositTo",
      "outputs": [],
      "stateMutability": "payable",
      "type": "function"
    },
    {
      "inputs": [
        {
          "internalType": "address",
          "name": "",
          "type": "address"
        }
      ],
      "name": "deposits",
      "outputs": [
        {
          "internalType": "uint256",
          "name": "deposit",
          "type": "uint256"
        },
        {
          "internalType": "bool",
          "name": "staked",
          "type": "bool"
        },
        {
          "internalType": "uint112",
          "name": "stake",
          "type": "uint112"
        },
        {
          "internalType": "uint32",
          "name": "unstakeDelaySec",
          "type": "uint32"
        },
        {
          "internalType": "uint48",
          "name": "withdrawTime",
          "type": "uint48"
        }
      ],
      "stateMutability": "view",
      "type": "function"
    },
    {
      "inputs": [
        {
          "internalType": "address",
          "name": "account",
          "type": "address"
        }
      ],
      "name": "getDepositInfo",
      "outputs": [
        {
          "components": [
            {
              "internalType": "uint256",
              "name": "deposit",
              "type": "uint256"
            },
            {
              "internalType": "bool",
              "name": "staked",
              "type": "bool"
            },
            {
              "internalType": "uint112",
              "name": "stake",
              "type": "uint112"
            },
            {
              "internalType": "uint32",
              "name": "unstakeDelaySec",
              "type": "uint32"
            },
            {
              "internalType": "uint48",
              "name": "withdrawTime",
              "type": "uint48"
            }
          ],
          "internalType": "struct IStakeManager.DepositInfo",
          "name": "info",
          "type": "tuple"
        }
      ],
      "stateMutability": "view",
      "type": "function"
    },
    {
      "inputs": [
        {
          "internalType": "address",
          "name": "sender",
          "type": "address"
        },
        {
          "internalType": "uint192",
          "name": "key",
          "type": "uint192"
        }
      ],
      "name": "getNonce",
      "outputs": [
        {
          "internalType": "uint256",
          "name": "nonce",
          "type": "uint256"
        }
      ],
      "stateMutability": "view",
      "type": "function"
    },
    {
      "inputs": [
        {
          "internalType": "bytes",
          "name": "initCode",
          "type": "bytes"
        }
      ],
      "name": "getSenderAddress",
      "outputs": [],
      "stateMutability": "nonpayable",
      "type": "function"
    },
    {
      "inputs": [
        {
          "components": [
            {
              "internalType": "address",
              "name": "sender",
              "type": "address"
            },
            {
              "internalType": "uint256",
              "name": "nonce",
              "type": "uint256"
            },
            {
              "internalType": "bytes",
              "name": "initCode",
              "type": "bytes"
            },
            {
              "internalType": "bytes",
              "name": "callData",
              "type": "bytes"
            },
            {
              "internalType": "bytes32",
              "name": "accountGasLimits",
              "type": "bytes32"
            },
            {
              "internalType": "uint256",
              "name": "preVerificationGas",
              "type": "uint256"
            },
            {
              "internalType": "bytes32",
              "name": "gasFees",
              "type": "bytes32"
            },
            {
              "internalType": "bytes",
              "name": "paymasterAndData",
              "type": "bytes"
            },
            {
              "internalType": "bytes",
              "name": "signature",
              "type": "bytes"
            }
          ],
          "internalType": "struct PackedUserOperation",
          "name": "userOp",
          "type": "tuple"
        }
      ],
      "name": "getUserOpHash",
      "outputs": [
        {
          "internalType": "bytes32",
          "name": "",
          "type": "bytes32"
        }
      ],
      "stateMutability": "view",
      "type": "function"
    },
    {
      "inputs": [
        {
          "components": [
            {
              "components": [
                {
                  "internalType": "address",
                  "name": "sender",
                  "type": "address"
                },
                {
                  "internalType": "uint256",
                  "name": "nonce",
                  "type": "uint256"
                },
                {
                  "internalType": "bytes",
                  "name": "initCode",
                  "type": "bytes"
                },
                {
                  "internalType": "bytes",
                  "name": "callData",
                  "type": "bytes"
                },
                {
                  "internalType": "bytes32",
                  "name": "accountGasLimits",
                  "type": "bytes32"
                },
                {
                  "internalType": "uint256",
                  "name": "preVerificationGas",
                  "type": "uint256"
                },
                {
                  "internalType": "bytes32",
                  "name": "gasFees",
                  "type": "bytes32"
                },
                {
                  "internalType": "bytes",
                  "name": "paymasterAndData",
                  "type": "bytes"
                },
                {
                  "internalType": "bytes",
                  "name": "signature",
                  "type": "bytes"
                }
              ],
              "internalType": "struct PackedUserOperation[]",
              "name": "userOps",
              "type": "tuple[]"
            },
            {
              "internalType": "contract IAggregator",
              "name": "aggregator",
              "type": "address"
            },
            {
              "internalType": "bytes",
              "name": "signature",
              "type": "bytes"
            }
          ],
          "internalType": "struct IEntryPoint.UserOpsPerAggregator[]",
          "name": "opsPerAggregator",
          "type": "tuple[]"
        },
        {
          "internalType": "address payable",
          "name": "beneficiary",
          "type": "address"
        }
      ],
      "name": "handleAggregatedOps",
      "outputs": [],
      "stateMutability": "nonpayable",
      "type": "function"
    },
    {
      "inputs": [
        {
          "components": [
            {
              "internalType": "address",
              "name": "sender",
              "type": "address"
            },
            {
              "internalType": "uint256",
              "name": "nonce",
              "type": "uint256"
            },
            {
              "internalType": "bytes",
              "name": "initCode",
              "type": "bytes"
            },
            {
              "internalType": "bytes",
              "name": "callData",
              "type": "bytes"
            },
            {
              "internalType": "bytes32",
              "name": "accountGasLimits",
              "type": "bytes32"
            },
            {
              "internalType": "uint256",
              "name": "preVerificationGas",
              "type": "uint256"
            },
            {
              "internalType": "bytes32",
              "name": "gasFees",
              "type": "bytes32"
            },
            {
              "internalType": "bytes",
              "name": "paymasterAndData",
              "type": "bytes"
            },
            {
              "internalType": "bytes",
              "name": "signature",
              "type": "bytes"
            }
          ],
          "internalType": "struct PackedUserOperation[]",
          "name": "ops",
          "type": "tuple[]"
        },
        {
          "internalType": "address payable",
          "name": "beneficiary",
          "type": "address"
        }
      ],
      "name": "handleOps",
      "outputs": [],
      "stateMutability": "nonpayable",
      "type": "function"
    },
    {
      "inputs": [
        {
          "internalType": "uint192",
          "name": "key",
          "type": "uint192"
        }
      ],
      "name": "incrementNonce",
      "outputs": [],
      "stateMutability": "nonpayable",
      "type": "function"
    },
    {
      "inputs": [
        {
          "internalType": "bytes",
          "name": "callData",
          "type": "bytes"
        },
        {
          "components": [
            {
              "components": [
                {
                  "internalType": "address",
                  "name": "sender",
                  "type": "address"
                },
                {
                  "internalType": "uint256",
                  "name": "nonce",
                  "type": "uint256"
                },
                {
                  "internalType": "uint256",
                  "name": "verificationGasLimit",
                  "type": "uint256"
                },
                {
                  "internalType": "uint256",
                  "name": "callGasLimit",
                  "type": "uint256"
                },
                {
                  "internalType": "uint256",
                  "name": "paymasterVerificationGasLimit",
                  "type": "uint256"
                },
                {
                  "internalType": "uint256",
                  "name": "paymasterPostOpGasLimit",
                  "type": "uint256"
                },
                {
                  "internalType": "uint256",
                  "name": "preVerificationGas",
                  "type": "uint256"
                },
                {
                  "internalType": "address",
                  "name": "paymaster",
                  "type": "address"
                },
                {
                  "internalType": "uint256",
                  "name": "maxFeePerGas",
                  "type": "uint256"
                },
                {
                  "internalType": "uint256",
                  "name": "maxPriorityFeePerGas",
                  "type": "uint256"
                }
              ],
              "internalType": "struct EntryPoint.MemoryUserOp",
              "name": "mUserOp",
              "type": "tuple"
            },
            {
              "internalType": "bytes32",
              "name": "userOpHash",
              "type": "bytes32"
            },
            {
              "internalType": "uint256",
              "name": "prefund",
              "type": "uint256"
            },
            {
              "internalType": "uint256",
              "name": "contextOffset",
              "type": "uint256"
            },
            {
              "internalType": "uint256",
              "name": "preOpGas",
              "type": "uint256"
            }
          ],
          "internalType": "struct EntryPoint.UserOpInfo",
          "name": "opInfo",
          "type": "tuple"
        },
        {
          "internalType": "bytes",
          "name": "context",
          "type": "bytes"
        }
      ],
      "name": "innerHandleOp",
      "outputs": [
        {
          "internalType": "uint256",
          "name": "actualGasCost",
          "type": "uint256"
        }
      ],
      "stateMutability": "nonpayable",
      "type": "function"
    },
    {
      "inputs": [
        {
          "internalType": "address",
          "name": "",
          "type": "address"
        },
        {
          "internalType": "uint192",
          "name": "",
          "type": "uint192"
        }
      ],
      "name": "nonceSequenceNumber",
      "outputs": [
        {
          "internalType": "uint256",
          "name": "",
          "type": "uint256"
        }
      ],
      "stateMutability": "view",
      "type": "function"
    },
    {
      "inputs": [
        {
          "components": [
            {
              "internalType": "address",
              "name": "sender",
              "type": "address"
            },
            {
              "internalType": "uint256",
              "name": "nonce",
              "type": "uint256"
            },
            {
              "internalType": "bytes",
              "name": "initCode",
              "type": "bytes"
            },
            {
              "internalType": "bytes",
              "name": "callData",
              "type": "bytes"
            },
            {
              "internalType": "bytes32",
              "name": "accountGasLimits",
              "type": "bytes32"
            },
            {
              "internalType": "uint256",
              "name": "preVerificationGas",
              "type": "uint256"
            },
            {
              "internalType": "bytes32",
              "name": "gasFees",
              "type": "bytes32"
            },
            {
              "internalType": "bytes",
              "name": "paymasterAndData",
              "type": "bytes"
            },
            {
              "internalType": "bytes",
              "name": "signature",
              "type": "bytes"
            }
          ],
          "internalType": "struct PackedUserOperation",
          "name": "op",
          "type": "tuple"
        },
        {
          "internalType": "address",
          "name": "target",
          "type": "address"
        },
        {
          "internalType": "bytes",
          "name": "targetCallData",
          "type": "bytes"
        }
      ],
      "name": "simulateHandleOp",
      "outputs": [
        {
          "components": [
            {
              "internalType": "uint256",
              "name": "preOpGas",
              "type": "uint256"
            },
            {
              "internalType": "uint256",
              "name": "paid",
              "type": "uint256"
            },
            {
              "internalType": "uint256",
              "name": "accountValidationData",
              "type": "uint256"
            },
            {
              "internalType": "uint256",
              "name": "paymasterValidationData",
              "type": "uint256"
            },
            {
              "internalType": "bool",
              "name": "targetSuccess",
              "type": "bool"
            },
            {
              "internalType": "bytes",
              "name": "targetResult",
              "type": "bytes"
            }
          ],
          "internalType": "struct IEntryPointSimulations.ExecutionResult",
          "name": "",
          "type": "tuple"
        }
      ],
      "stateMutability": "nonpayable",
      "type": "function"
    },
    {
      "inputs": [
        {
          "components": [
            {
              "internalType": "address",
              "name": "sender",
              "type": "address"
            },
            {
              "internalType": "uint256",
              "name": "nonce",
              "type": "uint256"
            },
            {
              "internalType": "bytes",
              "name": "initCode",
              "type": "bytes"
            },
            {
              "internalType": "bytes",
              "name": "callData",
              "type": "bytes"
            },
            {
              "internalType": "bytes32",
              "name": "accountGasLimits",
              "type": "bytes32"
            },
            {
              "internalType": "uint256",
              "name": "preVerificationGas",
              "type": "uint256"
            },
            {
              "internalType": "bytes32",
              "name": "gasFees",
              "type": "bytes32"
            },
            {
              "internalType": "bytes",
              "name": "paymasterAndData",
              "type": "bytes"
            },
            {
              "internalType": "bytes",
              "name": "signature",
              "type": "bytes"
            }
          ],
          "internalType": "struct PackedUserOperation",
          "name": "userOp",
          "type": "tuple"
        }
      ],
      "name": "simulateValidation",
      "outputs": [
        {
          "components": [
            {
              "components": [
                {
                  "internalType": "uint256",
                  "name": "preOpGas",
                  "type": "uint256"
                },
                {
                  "internalType": "uint256",
                  "name": "prefund",
                  "type": "uint256"
                },
                {
                  "internalType": "uint256",
                  "name": "accountValidationData",
                  "type": "uint256"
                },
                {
                  "internalType": "uint256",
                  "name": "paymasterValidationData",
                  "type": "uint256"
                },
                {
                  "internalType": "bytes",
                  "name": "paymasterContext",
                  "type": "bytes"
                }
              ],
              "internalType": "struct IEntryPoint.ReturnInfo",
              "name": "returnInfo",
              "type": "tuple"
            },
            {
              "components": [
                {
                  "internalType": "uint256",
                  "name": "stake",
                  "type": "uint256"
                },
                {
                  "internalType": "uint256",
                  "name": "unstakeDelaySec",
                  "type": "uint256"
                }
              ],
              "internalType": "struct IStakeManager.StakeInfo",
              "name": "senderInfo",
              "type": "tuple"
            },
            {
              "components": [
                {
                  "internalType": "uint256",
                  "name": "stake",
                  "type": "uint256"
                },
                {
                  "internalType": "uint256",
                  "name": "unstakeDelaySec",
                  "type": "uint256"
                }
              ],
              "internalType": "struct IStakeManager.StakeInfo",
              "name": "factoryInfo",
              "type": "tuple"
            },
            {
              "components": [
                {
                  "internalType": "uint256",
                  "name": "stake",
                  "type": "uint256"
                },
                {
                  "internalType": "uint256",
                  "name": "unstakeDelaySec",
                  "type": "uint256"
                }
              ],
              "internalType": "struct IStakeManager.StakeInfo",
              "name": "paymasterInfo",
              "type": "tuple"
            },
            {
              "components": [
                {
                  "internalType": "address",
                  "name": "aggregator",
                  "type": "address"
                },
                {
                  "components": [
                    {
                      "internalType": "uint256",
                      "name": "stake",
                      "type": "uint256"
                    },
                    {
                      "internalType": "uint256",
                      "name": "unstakeDelaySec",
                      "type": "uint256"
                    }
                  ],
                  "internalType": "struct IStakeManager.StakeInfo",
                  "name": "stakeInfo",
                  "type": "tuple"
                }
              ],
              "internalType": "struct IEntryPoint.AggregatorStakeInfo",
              "name": "aggregatorInfo",
              "type": "tuple"
            }
          ],
          "internalType": "struct IEntryPointSimulations.ValidationResult",
          "name": "",
          "type": "tuple"
        }
      ],
      "stateMutability": "nonpayable",
      "type": "function"
    },
    {
      "inputs": [
        {
          "internalType": "bytes4",
          "name": "interfaceId",
          "type": "bytes4"
        }
      ],
      "name": "supportsInterface",
      "outputs": [
        {
          "internalType": "bool",
          "name": "",
          "type": "bool"
        }
      ],
      "stateMutability": "view",
      "type": "function"
    },
    {
      "inputs": [],
      "name": "unlockStake",
      "outputs": [],
      "stateMutability": "nonpayable",
      "type": "function"
    },
    {
      "inputs": [
        {
          "internalType": "address payable",
          "name": "withdrawAddress",
          "type": "address"
        }
      ],
      "name": "withdrawStake",
      "outputs": [],
      "stateMutability": "nonpayable",
      "type": "function"
    },
    {
      "inputs": [
        {
          "internalType": "address payable",
          "name": "withdrawAddress",
          "type": "address"
        },
        {
          "internalType": "uint256",
          "name": "withdrawAmount",
          "type": "uint256"
        }
      ],
      "name": "withdrawTo",
      "outputs": [],
      "stateMutability": "nonpayable",
      "type": "function"
    },
    {
      "stateMutability": "payable",
      "type": "receive"
    }
  ],
  "bytecode": "0x60a06040526040516200001290620000f2565b604051809103906000f0801580156200002f573d6000803e3d6000fd5b506001600160a01b0390811660805260408051808201825260008082528251808401909352808352602080840191825282018390529051600380546001600160a01b031916919094161790925551600455516005553480156200009157600080fd5b50600160025560644310620000ec5760405162461bcd60e51b815260206004820152601660248201527f73686f756c64206e6f74206265206465706c6f79656400000000000000000000604482015260640160405180910390fd5b62000100565b61023380620053f083390190565b6080516152d762000119600039600050506152d76000f3fe60806040526004361061016d5760003560e01c8063765e827f116100cb578063b760faf91161007f578063c3bce00911610059578063c3bce009146105ac578063dbed18e0146105d9578063fc7e286d146105f957600080fd5b8063b760faf914610564578063bb9fe6bf14610577578063c23a5cea1461058c57600080fd5b8063957122ab116100b0578063957122ab146104f757806397b2dcb9146105175780639b249f691461054457600080fd5b8063765e827f146104b7578063850aaf62146104d757600080fd5b8063205c28781161012257806335567e1a1161010757806335567e1a146102905780635287ce121461032557806370a082311461047457600080fd5b8063205c28781461025057806322cdde4c1461027057600080fd5b80630396cb60116101535780630396cb60146101e55780630bd28e3b146101f85780631b2e01b81461021857600080fd5b806242dc531461018257806301ffc9a7146101b557600080fd5b3661017d5761017b336106cb565b005b600080fd5b34801561018e57600080fd5b506101a261019d366004614267565b6106ec565b6040519081526020015b60405180910390f35b3480156101c157600080fd5b506101d56101d036600461432d565b6108b7565b60405190151581526020016101ac565b61017b6101f336600461436f565b610a34565b34801561020457600080fd5b5061017b6102133660046143bd565b610dca565b34801561022457600080fd5b506101a26102333660046143d8565b600160209081526000928352604080842090915290825290205481565b34801561025c57600080fd5b5061017b61026b36600461440d565b610e12565b34801561027c57600080fd5b506101a261028b366004614452565b610fbc565b34801561029c57600080fd5b506101a26102ab3660046143d8565b73ffffffffffffffffffffffffffffffffffffffff8216600090815260016020908152604080832077ffffffffffffffffffffffffffffffffffffffffffffffff8516845290915290819020549082901b7fffffffffffffffffffffffffffffffffffffffffffffffff0000000000000000161792915050565b34801561033157600080fd5b50610412610340366004614487565b6040805160a0810182526000808252602082018190529181018290526060810182905260808101919091525073ffffffffffffffffffffffffffffffffffffffff1660009081526020818152604091829020825160a0810184528154815260019091015460ff811615159282019290925261010082046dffffffffffffffffffffffffffff16928101929092526f01000000000000000000000000000000810463ffffffff166060830152730100000000000000000000000000000000000000900465ffffffffffff16608082015290565b6040516101ac9190600060a082019050825182526020830151151560208301526dffffffffffffffffffffffffffff604084015116604083015263ffffffff606084015116606083015265ffffffffffff608084015116608083015292915050565b34801561048057600080fd5b506101a261048f366004614487565b73ffffffffffffffffffffffffffffffffffffffff1660009081526020819052604090205490565b3480156104c357600080fd5b5061017b6104d23660046144e9565b610ffe565b3480156104e357600080fd5b5061017b6104f2366004614540565b61117b565b34801561050357600080fd5b5061017b610512366004614595565b611220565b34801561052357600080fd5b5061053761053236600461461a565b611378565b6040516101ac91906146ea565b34801561055057600080fd5b5061017b61055f366004614739565b6114c4565b61017b610572366004614487565b6106cb565b34801561058357600080fd5b5061017b6115af565b34801561059857600080fd5b5061017b6105a7366004614487565b61178f565b3480156105b857600080fd5b506105cc6105c7366004614452565b611a7c565b6040516101ac919061477b565b3480156105e557600080fd5b5061017b6105f43660046144e9565b611d80565b34801561060557600080fd5b50610681610614366004614487565b6000602081905290815260409020805460019091015460ff81169061010081046dffffffffffffffffffffffffffff16906f01000000000000000000000000000000810463ffffffff1690730100000000000000000000000000000000000000900465ffffffffffff1685565b6040805195865293151560208601526dffffffffffffffffffffffffffff9092169284019290925263ffffffff909116606083015265ffffffffffff16608082015260a0016101ac565b60015b60058110156106df576001016106ce565b6106e88261222c565b5050565b6000805a9050333014610760576040517f08c379a000000000000000000000000000000000000000000000000000000000815260206004820152601760248201527f4141393220696e7465726e616c2063616c6c206f6e6c7900000000000000000060448201526064015b60405180910390fd5b8451606081015160a082015181016127100160405a603f02816107855761078561485b565b0410156107b6577fdeaddead0000000000000000000000000000000000000000000000000000000060005260206000fd5b8751600090156108575760006107d3846000015160008c86612282565b9050806108555760006107e761080061229a565b80519091501561084f57846000015173ffffffffffffffffffffffffffffffffffffffff168a602001517f1c4fada7374c0a9ee8841fc38afe82932dc0f8e69012e927f061a8bae611a20187602001518460405161084692919061488a565b60405180910390a35b60019250505b505b600088608001515a86030190506108a7828a8a8a8080601f0160208091040260200160405190810160405280939291908181526020018383808284376000920191909152508792506122c6915050565b955050505050505b949350505050565b60007fffffffff0000000000000000000000000000000000000000000000000000000082167f60fc6b6e00000000000000000000000000000000000000000000000000000000148061094a57507fffffffff0000000000000000000000000000000000000000000000000000000082167f915074d800000000000000000000000000000000000000000000000000000000145b8061099657507fffffffff0000000000000000000000000000000000000000000000000000000082167fcf28ef9700000000000000000000000000000000000000000000000000000000145b806109e257507fffffffff0000000000000000000000000000000000000000000000000000000082167f3e84f02100000000000000000000000000000000000000000000000000000000145b80610a2e57507f01ffc9a7000000000000000000000000000000000000000000000000000000007fffffffff000000000000000000000000000000000000000000000000000000008316145b92915050565b33600090815260208190526040902063ffffffff8216610ab0576040517f08c379a000000000000000000000000000000000000000000000000000000000815260206004820152601a60248201527f6d757374207370656369667920756e7374616b652064656c61790000000000006044820152606401610757565b600181015463ffffffff6f0100000000000000000000000000000090910481169083161015610b3b576040517f08c379a000000000000000000000000000000000000000000000000000000000815260206004820152601c60248201527f63616e6e6f7420646563726561736520756e7374616b652074696d65000000006044820152606401610757565b6001810154600090610b6390349061010090046dffffffffffffffffffffffffffff166148d2565b905060008111610bcf576040517f08c379a000000000000000000000000000000000000000000000000000000000815260206004820152601260248201527f6e6f207374616b652073706563696669656400000000000000000000000000006044820152606401610757565b6dffffffffffffffffffffffffffff811115610c47576040517f08c379a000000000000000000000000000000000000000000000000000000000815260206004820152600e60248201527f7374616b65206f766572666c6f770000000000000000000000000000000000006044820152606401610757565b6040805160a08101825283548152600160208083018281526dffffffffffffffffffffffffffff86811685870190815263ffffffff8a811660608801818152600060808a0181815233808352828a52918c90209a518b55965199909801805494519151965165ffffffffffff16730100000000000000000000000000000000000000027fffffffffffffff000000000000ffffffffffffffffffffffffffffffffffffff979094166f0100000000000000000000000000000002969096167fffffffffffffff00000000000000000000ffffffffffffffffffffffffffffff91909516610100027fffffffffffffffffffffffffffffffffff0000000000000000000000000000ff991515999099167fffffffffffffffffffffffffffffffffff00000000000000000000000000000090941693909317979097179190911691909117179055835185815290810192909252917fa5ae833d0bb1dcd632d98a8b70973e8516812898e19bf27b70071ebc8dc52c01910160405180910390a2505050565b33600090815260016020908152604080832077ffffffffffffffffffffffffffffffffffffffffffffffff851684529091528120805491610e0a836148e5565b919050555050565b3360009081526020819052604090208054821115610e8c576040517f08c379a000000000000000000000000000000000000000000000000000000000815260206004820152601960248201527f576974686472617720616d6f756e7420746f6f206c61726765000000000000006044820152606401610757565b8054610e9990839061491d565b81556040805173ffffffffffffffffffffffffffffffffffffffff851681526020810184905233917fd1c19fbcd4551a5edfb66d43d2e337c04837afda3482b42bdf569a8fccdae5fb910160405180910390a260008373ffffffffffffffffffffffffffffffffffffffff168360405160006040518083038185875af1925050503d8060008114610f46576040519150601f19603f3d011682016040523d82523d6000602084013e610f4b565b606091505b5050905080610fb6576040517f08c379a000000000000000000000000000000000000000000000000000000000815260206004820152601260248201527f6661696c656420746f20776974686472617700000000000000000000000000006044820152606401610757565b50505050565b6000610fc7826124eb565b6040805160208101929092523090820152466060820152608001604051602081830303815290604052805190602001209050919050565b611006612504565b8160008167ffffffffffffffff81111561102257611022613ffa565b60405190808252806020026020018201604052801561105b57816020015b611048613e4e565b8152602001906001900390816110405790505b50905060005b828110156110d457600082828151811061107d5761107d614930565b602002602001015190506000806110b8848a8a878181106110a0576110a0614930565b90506020028101906110b2919061495f565b85612545565b915091506110c984838360006127a4565b505050600101611061565b506040516000907fbb47ee3e183a558b1a2ff0874b079f3fc5478b7454eacf2bfc5af2ff5878f972908290a160005b8381101561115e576111528188888481811061112157611121614930565b9050602002810190611133919061495f565b85848151811061114557611145614930565b60200260200101516129f9565b90910190600101611103565b506111698482612dcf565b5050506111766001600255565b505050565b6000808473ffffffffffffffffffffffffffffffffffffffff1684846040516111a592919061499d565b600060405180830381855af49150503d80600081146111e0576040519150601f19603f3d011682016040523d82523d6000602084013e6111e5565b606091505b509150915081816040517f994105540000000000000000000000000000000000000000000000000000000081526004016107579291906149ad565b83158015611243575073ffffffffffffffffffffffffffffffffffffffff83163b155b156112aa576040517f08c379a000000000000000000000000000000000000000000000000000000000815260206004820152601960248201527f41413230206163636f756e74206e6f74206465706c6f796564000000000000006044820152606401610757565b6014811061133c5760006112c160148284866149c8565b6112ca916149f2565b60601c9050803b60000361133a576040517f08c379a000000000000000000000000000000000000000000000000000000000815260206004820152601b60248201527f41413330207061796d6173746572206e6f74206465706c6f79656400000000006044820152606401610757565b505b6040517f08c379a00000000000000000000000000000000000000000000000000000000081526020600482015260006024820152604401610757565b6113b36040518060c0016040528060008152602001600081526020016000815260200160008152602001600015158152602001606081525090565b6113bb612504565b6113c3613e4e565b6113cc86612f16565b6000806113db60008985612545565b9150915060006113ed60008a866129f9565b90506000606073ffffffffffffffffffffffffffffffffffffffff8a161561147f578973ffffffffffffffffffffffffffffffffffffffff16898960405161143692919061499d565b6000604051808303816000865af19150503d8060008114611473576040519150601f19603f3d011682016040523d82523d6000602084013e611478565b606091505b5090925090505b6040518060c001604052808760800151815260200184815260200186815260200185815260200183151581526020018281525096505050505050506108af6001600255565b60006114e560065473ffffffffffffffffffffffffffffffffffffffff1690565b73ffffffffffffffffffffffffffffffffffffffff1663570e1a3684846040518363ffffffff1660e01b815260040161151f929190614a83565b6020604051808303816000875af115801561153e573d6000803e3d6000fd5b505050506040513d601f19601f820116820180604052508101906115629190614a97565b6040517f6ca7b80600000000000000000000000000000000000000000000000000000000815273ffffffffffffffffffffffffffffffffffffffff82166004820152909150602401610757565b336000908152602081905260408120600181015490916f0100000000000000000000000000000090910463ffffffff169003611647576040517f08c379a000000000000000000000000000000000000000000000000000000000815260206004820152600a60248201527f6e6f74207374616b6564000000000000000000000000000000000000000000006044820152606401610757565b600181015460ff166116b5576040517f08c379a000000000000000000000000000000000000000000000000000000000815260206004820152601160248201527f616c726561647920756e7374616b696e670000000000000000000000000000006044820152606401610757565b60018101546000906116e0906f01000000000000000000000000000000900463ffffffff1642614ab4565b6001830180547fffffffffffffff000000000000ffffffffffffffffffffffffffffffffffff001673010000000000000000000000000000000000000065ffffffffffff84169081027fffffffffffffffffffffffffffffffffffffffffffffffffffffffffffffff00169190911790915560405190815290915033907ffa9b3c14cc825c412c9ed81b3ba365a5b459439403f18829e572ed53a4180f0a906020015b60405180910390a25050565b336000908152602081905260409020600181015461010090046dffffffffffffffffffffffffffff168061181f576040517f08c379a000000000000000000000000000000000000000000000000000000000815260206004820152601460248201527f4e6f207374616b6520746f2077697468647261770000000000000000000000006044820152606401610757565b6001820154730100000000000000000000000000000000000000900465ffffffffffff166118a9576040517f08c379a000000000000000000000000000000000000000000000000000000000815260206004820152601d60248201527f6d7573742063616c6c20756e6c6f636b5374616b6528292066697273740000006044820152606401610757565b60018201544273010000000000000000000000000000000000000090910465ffffffffffff161115611937576040517f08c379a000000000000000000000000000000000000000000000000000000000815260206004820152601b60248201527f5374616b65207769746864726177616c206973206e6f742064756500000000006044820152606401610757565b6001820180547fffffffffffffff000000000000000000000000000000000000000000000000ff1690556040805173ffffffffffffffffffffffffffffffffffffffff851681526020810183905233917fb7c918e0e249f999e965cafeb6c664271b3f4317d296461500e71da39f0cbda3910160405180910390a260008373ffffffffffffffffffffffffffffffffffffffff168260405160006040518083038185875af1925050503d8060008114611a0c576040519150601f19603f3d011682016040523d82523d6000602084013e611a11565b606091505b5050905080610fb6576040517f08c379a000000000000000000000000000000000000000000000000000000000815260206004820152601860248201527f6661696c656420746f207769746864726177207374616b6500000000000000006044820152606401610757565b611a84613f00565b611a8c613e4e565b611a9583612f16565b600080611aa460008685612545565b845160e001516040805180820182526000808252602080830182815273ffffffffffffffffffffffffffffffffffffffff95861683528282528483206001908101546dffffffffffffffffffffffffffff6101008083048216885263ffffffff6f010000000000000000000000000000009384900481169095528e51518951808b018b5288815280880189815291909b168852878752898820909401549081049091168952049091169052835180850190945281845283015293955091935090366000611b7460408b018b614ada565b909250905060006014821015611b8b576000611ba6565b611b996014600084866149c8565b611ba2916149f2565b60601c5b6040805180820182526000808252602080830182815273ffffffffffffffffffffffffffffffffffffffff86168352908290529290206001015461010081046dffffffffffffffffffffffffffff1682526f01000000000000000000000000000000900463ffffffff169091529091509350505050600085905060006040518060a001604052808960800151815260200189604001518152602001888152602001878152602001611c588a6060015190565b905260408051808201825260035473ffffffffffffffffffffffffffffffffffffffff908116825282518084019093526004548352600554602084810191909152820192909252919250831615801590611cc9575060018373ffffffffffffffffffffffffffffffffffffffff1614155b15611d4d5760408051808201825273ffffffffffffffffffffffffffffffffffffffff851680825282518084018452600080825260208083018281529382528181529490206001015461010081046dffffffffffffffffffffffffffff1682526f01000000000000000000000000000000900463ffffffff16909152909182015290505b6040805160a081018252928352602083019590955293810192909252506060810192909252608082015295945050505050565b611d88612504565b816000805b82811015611f7a5736868683818110611da857611da8614930565b9050602002810190611dba9190614b3f565b9050366000611dc98380614b73565b90925090506000611de06040850160208601614487565b90507fffffffffffffffffffffffffffffffffffffffffffffffffffffffffffffffff73ffffffffffffffffffffffffffffffffffffffff821601611e81576040517f08c379a000000000000000000000000000000000000000000000000000000000815260206004820152601760248201527f4141393620696e76616c69642061676772656761746f720000000000000000006044820152606401610757565b73ffffffffffffffffffffffffffffffffffffffff811615611f5e5773ffffffffffffffffffffffffffffffffffffffff8116632dd811338484611ec86040890189614ada565b6040518563ffffffff1660e01b8152600401611ee79493929190614d2b565b60006040518083038186803b158015611eff57600080fd5b505afa925050508015611f10575060015b611f5e576040517f86a9f75000000000000000000000000000000000000000000000000000000000815273ffffffffffffffffffffffffffffffffffffffff82166004820152602401610757565b611f6882876148d2565b95505060019093019250611d8d915050565b5060008167ffffffffffffffff811115611f9657611f96613ffa565b604051908082528060200260200182016040528015611fcf57816020015b611fbc613e4e565b815260200190600190039081611fb45790505b5090506000805b848110156120ac5736888883818110611ff157611ff1614930565b90506020028101906120039190614b3f565b90503660006120128380614b73565b909250905060006120296040850160208601614487565b90508160005b8181101561209a57600089898151811061204b5761204b614930565b6020026020010151905060008061206e8b8989878181106110a0576110a0614930565b9150915061207e848383896127a4565b8a612088816148e5565b9b50506001909301925061202f915050565b505060019094019350611fd692505050565b506040517fbb47ee3e183a558b1a2ff0874b079f3fc5478b7454eacf2bfc5af2ff5878f97290600090a150600080805b858110156121e757368989838181106120f7576120f7614930565b90506020028101906121099190614b3f565b905061211b6040820160208301614487565b73ffffffffffffffffffffffffffffffffffffffff167f575ff3acadd5ab348fe1855e217e0f3678f8d767d7494c9f9fefbee2e17cca4d60405160405180910390a236600061216a8380614b73565b90925090508060005b818110156121d6576121b58885858481811061219157612191614930565b90506020028101906121a3919061495f565b8b8b8151811061114557611145614930565b6121bf90886148d2565b9650876121cb816148e5565b985050600101612173565b5050600190930192506120dc915050565b506040516000907f575ff3acadd5ab348fe1855e217e0f3678f8d767d7494c9f9fefbee2e17cca4d908290a261221d8682612dcf565b50505050506111766001600255565b60006122388234613104565b90508173ffffffffffffffffffffffffffffffffffffffff167f2da466a7b24304f47e87fa2e1e5a81b9831ce54fec19055ce277ca2f39ba42c48260405161178391815260200190565b6000806000845160208601878987f195945050505050565b60603d828111156122a85750815b604051602082018101604052818152816000602083013e9392505050565b6000805a8551909150600090816122dc82613144565b60e083015190915073ffffffffffffffffffffffffffffffffffffffff81166123085782519350612403565b80935060008851111561240357868202955060028a600281111561232e5761232e614de2565b146124035760a08301516040517f7c627b2100000000000000000000000000000000000000000000000000000000815273ffffffffffffffffffffffffffffffffffffffff831691637c627b2191612390908e908d908c908990600401614e11565b600060405180830381600088803b1580156123aa57600080fd5b5087f1935050505080156123bc575060015b6124035760006123cd61080061229a565b9050806040517fad7954bc0000000000000000000000000000000000000000000000000000000081526004016107579190614e74565b5a60a0840151606085015160808c015192880399909901980190880380821115612436576064600a828403020498909801975b505060408901518783029650868110156124a85760028b600281111561245e5761245e614de2565b0361247e5761246c8a61316e565b6124798a6000838b6131ca565b6124dd565b7fdeadaa510000000000000000000000000000000000000000000000000000000060005260206000fd5b8681036124b58682613104565b506000808d60028111156124cb576124cb614de2565b1490506124da8c828b8d6131ca565b50505b505050505050949350505050565b60006124f682613252565b805190602001209050919050565b600280540361253f576040517f3ee5aeb500000000000000000000000000000000000000000000000000000000815260040160405180910390fd5b60028055565b60008060005a845190915061255a8682613317565b61256386610fbc565b6020860152604081015161012082015161010083015160a08401516080850151606086015160c0870151861717171717176effffffffffffffffffffffffffffff81111561260d576040517f08c379a000000000000000000000000000000000000000000000000000000000815260206004820152601860248201527f41413934206761732076616c756573206f766572666c6f7700000000000000006044820152606401610757565b600061263c8460c081015160a08201516080830151606084015160408501516101009095015194010101010290565b905061264b8a8a8a8487613462565b965061265f846000015185602001516136a3565b6126ce57896040517f220266b6000000000000000000000000000000000000000000000000000000008152600401610757918152604060208201819052601a908201527f4141323520696e76616c6964206163636f756e74206e6f6e6365000000000000606082015260800190565b825a8603111561274357896040517f220266b6000000000000000000000000000000000000000000000000000000008152600401610757918152604060208201819052601e908201527f41413236206f76657220766572696669636174696f6e4761734c696d69740000606082015260800190565b60e084015160609073ffffffffffffffffffffffffffffffffffffffff1615612777576127728b8b8b856136fe565b975090505b604089018290528060608a015260a08a01355a870301896080018181525050505050505050935093915050565b6000806127b085613955565b915091508173ffffffffffffffffffffffffffffffffffffffff168373ffffffffffffffffffffffffffffffffffffffff161461285257856040517f220266b60000000000000000000000000000000000000000000000000000000081526004016107579181526040602082018190526014908201527f41413234207369676e6174757265206572726f72000000000000000000000000606082015260800190565b80156128c357856040517f220266b60000000000000000000000000000000000000000000000000000000081526004016107579181526040602082018190526017908201527f414132322065787069726564206f72206e6f7420647565000000000000000000606082015260800190565b60006128ce85613955565b9250905073ffffffffffffffffffffffffffffffffffffffff81161561295957866040517f220266b60000000000000000000000000000000000000000000000000000000081526004016107579181526040602082018190526014908201527f41413334207369676e6174757265206572726f72000000000000000000000000606082015260800190565b81156129f057866040517f220266b60000000000000000000000000000000000000000000000000000000081526004016107579181526040602082018190526021908201527f41413332207061796d61737465722065787069726564206f72206e6f7420647560608201527f6500000000000000000000000000000000000000000000000000000000000000608082015260a00190565b50505050505050565b6000805a90506000612a0c846060015190565b6040519091506000903682612a2460608a018a614ada565b9150915060606000826003811115612a3b57843591505b507f72288ed1000000000000000000000000000000000000000000000000000000007fffffffff00000000000000000000000000000000000000000000000000000000821601612b7b5760008b8b60200151604051602401612a9e929190614e87565b604080517fffffffffffffffffffffffffffffffffffffffffffffffffffffffffffffffe08184030181529181526020820180517bffffffffffffffffffffffffffffffffffffffffffffffffffffffff167f8dd7712f000000000000000000000000000000000000000000000000000000001790525190915030906242dc5390612b319084908f908d90602401614f6d565b604051602081830303815290604052915060e01b6020820180517bffffffffffffffffffffffffffffffffffffffffffffffffffffffff8381831617835250505050925050612bf2565b3073ffffffffffffffffffffffffffffffffffffffff166242dc5385858d8b604051602401612bad9493929190614fad565b604051602081830303815290604052915060e01b6020820180517bffffffffffffffffffffffffffffffffffffffffffffffffffffffff838183161783525050505091505b602060008351602085016000305af19550600051985084604052505050505080612dc55760003d80602003612c2d5760206000803e60005191505b507fdeaddead000000000000000000000000000000000000000000000000000000008103612cc057876040517f220266b6000000000000000000000000000000000000000000000000000000008152600401610757918152604060208201819052600f908201527f41413935206f7574206f66206761730000000000000000000000000000000000606082015260800190565b7fdeadaa51000000000000000000000000000000000000000000000000000000008103612d2a57600086608001515a612cf9908761491d565b612d0391906148d2565b6040880151909150612d148861316e565b612d2188600083856131ca565b9550612dc39050565b8551805160208089015192015173ffffffffffffffffffffffffffffffffffffffff90911691907ff62676f440ff169a3a9afdbf812e89e7f95975ee8e5c31214ffdef631c5f479290612d7e61080061229a565b604051612d8c92919061488a565b60405180910390a3600086608001515a612da6908761491d565b612db091906148d2565b9050612dbf60028886846122c6565b9550505b505b5050509392505050565b73ffffffffffffffffffffffffffffffffffffffff8216612e4c576040517f08c379a000000000000000000000000000000000000000000000000000000000815260206004820152601860248201527f4141393020696e76616c69642062656e656669636961727900000000000000006044820152606401610757565b60008273ffffffffffffffffffffffffffffffffffffffff168260405160006040518083038185875af1925050503d8060008114612ea6576040519150601f19603f3d011682016040523d82523d6000602084013e612eab565b606091505b5050905080611176576040517f08c379a000000000000000000000000000000000000000000000000000000000815260206004820152601f60248201527f41413931206661696c65642073656e6420746f2062656e6566696369617279006044820152606401610757565b6130166040517fd69400000000000000000000000000000000000000000000000000000000000060208201527fffffffffffffffffffffffffffffffffffffffff0000000000000000000000003060601b1660228201527f01000000000000000000000000000000000000000000000000000000000000006036820152600090603701604080518083037fffffffffffffffffffffffffffffffffffffffffffffffffffffffffffffffe00181529190528051602090910120600680547fffffffffffffffffffffffff00000000000000000000000000000000000000001673ffffffffffffffffffffffffffffffffffffffff90921691909117905550565b3063957122ab6130296040840184614ada565b6130366020860186614487565b61304360e0870187614ada565b6040518663ffffffff1660e01b8152600401613063959493929190614fe4565b60006040518083038186803b15801561307b57600080fd5b505afa92505050801561308c575060015b61310157613098615033565b806308c379a0036130f557506130ac61504f565b806130b757506130f7565b8051156106e8576000816040517f220266b600000000000000000000000000000000000000000000000000000000815260040161075792919061488a565b505b3d6000803e3d6000fd5b50565b73ffffffffffffffffffffffffffffffffffffffff82166000908152602081905260408120805482906131389085906148d2565b91829055509392505050565b61010081015161012082015160009190808203613162575092915050565b6108af824883016139a8565b805180516020808401519281015160405190815273ffffffffffffffffffffffffffffffffffffffff90921692917f67b4fa9642f42120bf031f3051d1824b0fe25627945b27b8a6a65d5761d5482e910160405180910390a350565b835160e0810151815160208088015193015160405173ffffffffffffffffffffffffffffffffffffffff9384169492909316927f49628fd1471006c1482da88028e9ce4dbb080b815c9b0344d39e5a8e6ec1419f916132449189908990899093845291151560208401526040830152606082015260800190565b60405180910390a450505050565b606081356020830135600061327261326d6040870187614ada565b6139c0565b9050600061328661326d6060880188614ada565b9050608086013560a087013560c088013560006132a961326d60e08c018c614ada565b6040805173ffffffffffffffffffffffffffffffffffffffff9a909a1660208b015289810198909852606089019690965250608087019390935260a086019190915260c085015260e08401526101008084019190915281518084039091018152610120909201905292915050565b6133246020830183614487565b73ffffffffffffffffffffffffffffffffffffffff168152602082810135908201526fffffffffffffffffffffffffffffffff6080808401358281166060850152811c604084015260a084013560c0808501919091528401359182166101008401521c61012082015236600061339d60e0850185614ada565b90925090508015613447576034811015613413576040517f08c379a000000000000000000000000000000000000000000000000000000000815260206004820152601d60248201527f4141393320696e76616c6964207061796d6173746572416e64446174610000006044820152606401610757565b61341d82826139d3565b60a0860152608085015273ffffffffffffffffffffffffffffffffffffffff1660e0840152610fb6565b600060e084018190526080840181905260a084015250505050565b8251805160009190613481888761347c60408b018b614ada565b613a44565b60e0820151600073ffffffffffffffffffffffffffffffffffffffff82166134df5773ffffffffffffffffffffffffffffffffffffffff83166000908152602081905260409020548781116134d8578088036134db565b60005b9150505b60208801516040517f19822f7c00000000000000000000000000000000000000000000000000000000815273ffffffffffffffffffffffffffffffffffffffff8516916319822f7c91899161353b918e919087906004016150f7565b60206040518083038160008887f193505050508015613595575060408051601f3d9081017fffffffffffffffffffffffffffffffffffffffffffffffffffffffffffffffe01682019092526135929181019061511c565b60015b6135d957896135a561080061229a565b6040517f65c8fd4d000000000000000000000000000000000000000000000000000000008152600401610757929190615135565b945073ffffffffffffffffffffffffffffffffffffffff82166136965773ffffffffffffffffffffffffffffffffffffffff83166000908152602081905260409020805480891115613690578b6040517f220266b60000000000000000000000000000000000000000000000000000000081526004016107579181526040602082018190526017908201527f41413231206469646e2774207061792070726566756e64000000000000000000606082015260800190565b88900390555b5050505095945050505050565b73ffffffffffffffffffffffffffffffffffffffff8216600090815260016020908152604080832084821c808552925282208054849167ffffffffffffffff83169190856136f0836148e5565b909155501495945050505050565b60606000805a855160e081015173ffffffffffffffffffffffffffffffffffffffff8116600090815260208190526040902080549394509192909190878110156137ad578a6040517f220266b6000000000000000000000000000000000000000000000000000000008152600401610757918152604060208201819052601e908201527f41413331207061796d6173746572206465706f73697420746f6f206c6f770000606082015260800190565b87810382600001819055506000846080015190508373ffffffffffffffffffffffffffffffffffffffff166352b7512c828d8d602001518d6040518563ffffffff1660e01b8152600401613803939291906150f7565b60006040518083038160008887f19350505050801561386257506040513d6000823e601f3d9081017fffffffffffffffffffffffffffffffffffffffffffffffffffffffffffffffe016820160405261385f9190810190615182565b60015b6138a6578b61387261080061229a565b6040517f65c8fd4d00000000000000000000000000000000000000000000000000000000815260040161075792919061520e565b9098509650805a87031115613946578b6040517f220266b60000000000000000000000000000000000000000000000000000000081526004016107579181526040602082018190526027908201527f41413336206f766572207061796d6173746572566572696669636174696f6e4760608201527f61734c696d697400000000000000000000000000000000000000000000000000608082015260a00190565b50505050505094509492505050565b6000808260000361396b57506000928392509050565b600061397684613dd0565b9050806040015165ffffffffffff1642118061399d5750806020015165ffffffffffff1642105b905194909350915050565b60008183106139b757816139b9565b825b9392505050565b6000604051828085833790209392505050565b600080806139e460148286886149c8565b6139ed916149f2565b60601c6139fe6024601487896149c8565b613a079161525b565b60801c613a1860346024888a6149c8565b613a219161525b565b9194506fffffffffffffffffffffffffffffffff16925060801c90509250925092565b8015610fb65782515173ffffffffffffffffffffffffffffffffffffffff81163b15613ad557846040517f220266b6000000000000000000000000000000000000000000000000000000008152600401610757918152604060208201819052601f908201527f414131302073656e64657220616c726561647920636f6e737472756374656400606082015260800190565b6000613af660065473ffffffffffffffffffffffffffffffffffffffff1690565b73ffffffffffffffffffffffffffffffffffffffff1663570e1a3686600001516040015186866040518463ffffffff1660e01b8152600401613b39929190614a83565b60206040518083038160008887f1158015613b58573d6000803e3d6000fd5b50505050506040513d601f19601f82011682018060405250810190613b7d9190614a97565b905073ffffffffffffffffffffffffffffffffffffffff8116613c0557856040517f220266b6000000000000000000000000000000000000000000000000000000008152600401610757918152604060208201819052601b908201527f4141313320696e6974436f6465206661696c6564206f72204f4f470000000000606082015260800190565b8173ffffffffffffffffffffffffffffffffffffffff168173ffffffffffffffffffffffffffffffffffffffff1614613ca257856040517f220266b600000000000000000000000000000000000000000000000000000000815260040161075791815260406020808301829052908201527f4141313420696e6974436f6465206d7573742072657475726e2073656e646572606082015260800190565b8073ffffffffffffffffffffffffffffffffffffffff163b600003613d2b57856040517f220266b600000000000000000000000000000000000000000000000000000000815260040161075791815260406020808301829052908201527f4141313520696e6974436f6465206d757374206372656174652073656e646572606082015260800190565b6000613d3a60148286886149c8565b613d43916149f2565b60601c90508273ffffffffffffffffffffffffffffffffffffffff1686602001517fd51a9c61267aa6196961883ecf5ff2da6619c37dac0fa92122513fb32c032d2d83896000015160e00151604051613dbf92919073ffffffffffffffffffffffffffffffffffffffff92831681529116602082015260400190565b60405180910390a350505050505050565b60408051606081018252600080825260208201819052918101919091528160a081901c65ffffffffffff8116600003613e0c575065ffffffffffff5b6040805160608101825273ffffffffffffffffffffffffffffffffffffffff909316835260d09490941c602083015265ffffffffffff16928101929092525090565b6040518060a00160405280613edb604051806101400160405280600073ffffffffffffffffffffffffffffffffffffffff168152602001600081526020016000815260200160008152602001600081526020016000815260200160008152602001600073ffffffffffffffffffffffffffffffffffffffff16815260200160008152602001600081525090565b8152602001600080191681526020016000815260200160008152602001600081525090565b6040518060a00160405280613f3d6040518060a0016040528060008152602001600081526020016000815260200160008152602001606081525090565b8152602001613f5f604051806040016040528060008152602001600081525090565b8152602001613f81604051806040016040528060008152602001600081525090565b8152602001613fa3604051806040016040528060008152602001600081525090565b8152602001613fb0613fb5565b905290565b6040518060400160405280600073ffffffffffffffffffffffffffffffffffffffff168152602001613fb0604051806040016040528060008152602001600081525090565b7f4e487b7100000000000000000000000000000000000000000000000000000000600052604160045260246000fd5b60a0810181811067ffffffffffffffff8211171561404957614049613ffa565b60405250565b7fffffffffffffffffffffffffffffffffffffffffffffffffffffffffffffffe0601f830116810181811067ffffffffffffffff8211171561409357614093613ffa565b6040525050565b604051610140810167ffffffffffffffff811182821017156140be576140be613ffa565b60405290565b600067ffffffffffffffff8211156140de576140de613ffa565b50601f017fffffffffffffffffffffffffffffffffffffffffffffffffffffffffffffffe01660200190565b73ffffffffffffffffffffffffffffffffffffffff8116811461310157600080fd5b80356141378161410a565b919050565b60008183036101c081121561415057600080fd5b60405161415c81614029565b8092506101408083121561416f57600080fd5b61417761409a565b92506141828561412c565b83526020850135602084015260408501356040840152606085013560608401526080850135608084015260a085013560a084015260c085013560c08401526141cc60e0860161412c565b60e084015261010085810135908401526101208086013590840152918152908301356020820152610160830135604082015261018083013560608201526101a090920135608090920191909152919050565b60008083601f84011261423057600080fd5b50813567ffffffffffffffff81111561424857600080fd5b60208301915083602082850101111561426057600080fd5b9250929050565b600080600080610200858703121561427e57600080fd5b843567ffffffffffffffff8082111561429657600080fd5b818701915087601f8301126142aa57600080fd5b81356142b5816140c4565b6040516142c2828261404f565b8281528a60208487010111156142d757600080fd5b826020860160208301376000602084830101528098505050506142fd886020890161413c565b94506101e087013591508082111561431457600080fd5b506143218782880161421e565b95989497509550505050565b60006020828403121561433f57600080fd5b81357fffffffff00000000000000000000000000000000000000000000000000000000811681146139b957600080fd5b60006020828403121561438157600080fd5b813563ffffffff811681146139b957600080fd5b803577ffffffffffffffffffffffffffffffffffffffffffffffff8116811461413757600080fd5b6000602082840312156143cf57600080fd5b6139b982614395565b600080604083850312156143eb57600080fd5b82356143f68161410a565b915061440460208401614395565b90509250929050565b6000806040838503121561442057600080fd5b823561442b8161410a565b946020939093013593505050565b6000610120828403121561444c57600080fd5b50919050565b60006020828403121561446457600080fd5b813567ffffffffffffffff81111561447b57600080fd5b6108af84828501614439565b60006020828403121561449957600080fd5b81356139b98161410a565b60008083601f8401126144b657600080fd5b50813567ffffffffffffffff8111156144ce57600080fd5b6020830191508360208260051b850101111561426057600080fd5b6000806000604084860312156144fe57600080fd5b833567ffffffffffffffff81111561451557600080fd5b614521868287016144a4565b90945092505060208401356145358161410a565b809150509250925092565b60008060006040848603121561455557600080fd5b83356145608161410a565b9250602084013567ffffffffffffffff81111561457c57600080fd5b6145888682870161421e565b9497909650939450505050565b6000806000806000606086880312156145ad57600080fd5b853567ffffffffffffffff808211156145c557600080fd5b6145d189838a0161421e565b9097509550602088013591506145e68261410a565b909350604087013590808211156145fc57600080fd5b506146098882890161421e565b969995985093965092949392505050565b6000806000806060858703121561463057600080fd5b843567ffffffffffffffff8082111561464857600080fd5b61465488838901614439565b9550602087013591506146668261410a565b9093506040860135908082111561431457600080fd5b60005b8381101561469757818101518382015260200161467f565b50506000910152565b600081518084526146b881602086016020860161467c565b601f017fffffffffffffffffffffffffffffffffffffffffffffffffffffffffffffffe0169290920160200192915050565b60208152815160208201526020820151604082015260408201516060820152606082015160808201526080820151151560a0820152600060a083015160c0808401526108af60e08401826146a0565b6000806020838503121561474c57600080fd5b823567ffffffffffffffff81111561476357600080fd5b61476f8582860161421e565b90969095509350505050565b602080825282516101408383015280516101608401529081015161018083015260408101516101a083015260608101516101c08301526080015160a06101e08301526000906147ce6102008401826146a0565b905060208401516147ec604085018280518252602090810151910152565b506040840151805160808581019190915260209182015160a08601526060860151805160c087015282015160e0860152850151805173ffffffffffffffffffffffffffffffffffffffff1661010086015280820151805161012087015290910151610140850152509392505050565b7f4e487b7100000000000000000000000000000000000000000000000000000000600052601260045260246000fd5b8281526040602082015260006108af60408301846146a0565b7f4e487b7100000000000000000000000000000000000000000000000000000000600052601160045260246000fd5b80820180821115610a2e57610a2e6148a3565b60007fffffffffffffffffffffffffffffffffffffffffffffffffffffffffffffffff8203614916576149166148a3565b5060010190565b81810381811115610a2e57610a2e6148a3565b7f4e487b7100000000000000000000000000000000000000000000000000000000600052603260045260246000fd5b600082357ffffffffffffffffffffffffffffffffffffffffffffffffffffffffffffffee183360301811261499357600080fd5b9190910192915050565b8183823760009101908152919050565b82151581526040602082015260006108af60408301846146a0565b600080858511156149d857600080fd5b838611156149e557600080fd5b5050820193919092039150565b7fffffffffffffffffffffffffffffffffffffffff0000000000000000000000008135818116916014851015614a325780818660140360031b1b83161692505b505092915050565b8183528181602085013750600060208284010152600060207fffffffffffffffffffffffffffffffffffffffffffffffffffffffffffffffe0601f840116840101905092915050565b6020815260006108af602083018486614a3a565b600060208284031215614aa957600080fd5b81516139b98161410a565b65ffffffffffff818116838216019080821115614ad357614ad36148a3565b5092915050565b60008083357fffffffffffffffffffffffffffffffffffffffffffffffffffffffffffffffe1843603018112614b0f57600080fd5b83018035915067ffffffffffffffff821115614b2a57600080fd5b60200191503681900382131561426057600080fd5b600082357fffffffffffffffffffffffffffffffffffffffffffffffffffffffffffffffa183360301811261499357600080fd5b60008083357fffffffffffffffffffffffffffffffffffffffffffffffffffffffffffffffe1843603018112614ba857600080fd5b83018035915067ffffffffffffffff821115614bc357600080fd5b6020019150600581901b360382131561426057600080fd5b60008083357fffffffffffffffffffffffffffffffffffffffffffffffffffffffffffffffe1843603018112614c1057600080fd5b830160208101925035905067ffffffffffffffff811115614c3057600080fd5b80360382131561426057600080fd5b6000610120614c6b84614c518561412c565b73ffffffffffffffffffffffffffffffffffffffff169052565b60208301356020850152614c826040840184614bdb565b826040870152614c958387018284614a3a565b92505050614ca66060840184614bdb565b8583036060870152614cb9838284614a3a565b925050506080830135608085015260a083013560a085015260c083013560c0850152614ce860e0840184614bdb565b85830360e0870152614cfb838284614a3a565b92505050610100614d0e81850185614bdb565b86840383880152614d20848284614a3a565b979650505050505050565b6040808252810184905260006060600586901b830181019083018783805b89811015614dcb577fffffffffffffffffffffffffffffffffffffffffffffffffffffffffffffffa087860301845282357ffffffffffffffffffffffffffffffffffffffffffffffffffffffffffffffee18c3603018112614da9578283fd5b614db5868d8301614c3f565b9550506020938401939290920191600101614d49565b505050508281036020840152614d20818587614a3a565b7f4e487b7100000000000000000000000000000000000000000000000000000000600052602160045260246000fd5b600060038610614e4a577f4e487b7100000000000000000000000000000000000000000000000000000000600052602160045260246000fd5b85825260806020830152614e6160808301866146a0565b6040830194909452506060015292915050565b6020815260006139b960208301846146a0565b604081526000614e9a6040830185614c3f565b90508260208301529392505050565b8051805173ffffffffffffffffffffffffffffffffffffffff1683526020810151602084015260408101516040840152606081015160608401526080810151608084015260a081015160a084015260c081015160c084015260e0810151614f2860e085018273ffffffffffffffffffffffffffffffffffffffff169052565b5061010081810151908401526101209081015190830152602081015161014083015260408101516101608301526060810151610180830152608001516101a090910152565b6000610200808352614f81818401876146a0565b9050614f906020840186614ea9565b8281036101e0840152614fa381856146a0565b9695505050505050565b6000610200808352614fc28184018789614a3a565b9050614fd16020840186614ea9565b8281036101e0840152614d2081856146a0565b606081526000614ff8606083018789614a3a565b73ffffffffffffffffffffffffffffffffffffffff861660208401528281036040840152615027818587614a3a565b98975050505050505050565b600060033d111561504c5760046000803e5060005160e01c5b90565b600060443d101561505d5790565b6040517ffffffffffffffffffffffffffffffffffffffffffffffffffffffffffffffffc803d016004833e81513d67ffffffffffffffff81602484011181841117156150ab57505050505090565b82850191508151818111156150c35750505050505090565b843d87010160208285010111156150dd5750505050505090565b6150ec6020828601018761404f565b509095945050505050565b60608152600061510a6060830186614c3f565b60208301949094525060400152919050565b60006020828403121561512e57600080fd5b5051919050565b82815260606020820152600d60608201527f4141323320726576657274656400000000000000000000000000000000000000608082015260a0604082015260006108af60a08301846146a0565b6000806040838503121561519557600080fd5b825167ffffffffffffffff8111156151ac57600080fd5b8301601f810185136151bd57600080fd5b80516151c8816140c4565b6040516151d5828261404f565b8281528760208486010111156151ea57600080fd5b6151fb83602083016020870161467c565b6020969096015195979596505050505050565b82815260606020820152600d60608201527f4141333320726576657274656400000000000000000000000000000000000000608082015260a0604082015260006108af60a08301846146a0565b7fffffffffffffffffffffffffffffffff000000000000000000000000000000008135818116916010851015614a325760109490940360031b84901b169092169291505056fea26469706673582212204d7bd8d393625110584f75fda9e74d6b9b572b78eaffebb956ac706529b660b164736f6c63430008170033608060405234801561001057600080fd5b50610213806100206000396000f3fe608060405234801561001057600080fd5b506004361061002b5760003560e01c8063570e1a3614610030575b600080fd5b61004361003e3660046100f9565b61006c565b60405173ffffffffffffffffffffffffffffffffffffffff909116815260200160405180910390f35b60008061007c601482858761016b565b61008591610195565b60601c90506000610099846014818861016b565b8080601f016020809104026020016040519081016040528093929190818152602001838380828437600092018290525084519495509360209350849250905082850182875af190506000519350806100f057600093505b50505092915050565b6000806020838503121561010c57600080fd5b823567ffffffffffffffff8082111561012457600080fd5b818501915085601f83011261013857600080fd5b81358181111561014757600080fd5b86602082850101111561015957600080fd5b60209290920196919550909350505050565b6000808585111561017b57600080fd5b8386111561018857600080fd5b5050820193919092039150565b7fffffffffffffffffffffffffffffffffffffffff00000000000000000000000081358181169160148510156101d55780818660140360031b1b83161692505b50509291505056fea2646970667358221220f4eeea3c52e568afe7af0cb6d22e9eba322f25189228e2d96485c8f1d485112464736f6c63430008170033",
  "linkReferences": {},
  "deployedLinkReferences": {}
}